:020000040800F2
:10000000A022002025030008DF5E00083D570008FD
:10001000DD5E000891200008ED6A00080000000085
:10002000000000000000000000000000E35E000887
:100030004F21000800000000E15E0008E55E0008B6
:100040003F0300083F0300083F0300083F03000888
:100050003F0300083F0300083F0300083F03000878
:100060003F0300083F0300083F03000895200008F5
:10007000A12000083F0300083F0300083F030008D9
:100080003F030008000000003F0300083F03000892
:100090003F0300083F0300083F0300083F03000838
:1000A0003F0300083F0300083F0300083F03000828
:1000B0003F0300083F0300083F0300083F03000818
:1000C0003F0300083F0300083F0300083F03000808
:1000D0003F0300083F030008E16A00083F030008EF
:1000E0003F0300083F0300083F0300083F030008E8
:1000F0003F0300083F0300083F0300080000000022
:10010000000000003F030008000000003F0300085B
:100110003F030008000000003F0300083F03000801
:100120003F0300083F0300083F0300083F030008A7
:100130003F03000800000000000000003F0300082B
:100140003F0300083F03000800000000000000001B
:10015000000000000000000000000000000000009F
:100160000000000000000000000000003F03000845
:100170003F03000800000000000000000000000035
:10018000000000003F030008000000000000000025
:10019000000000000000000000000000000000005F
:1001A00000000000000000003F0300083F030008BB
:1001B0003F0300083F0300083F0300080000000061
:1001C000000000003F0300080000000000000000E5
:1001D0003F0300083F03000800F002F800F092F827
:1001E0000AA090E8000C82448344AAF10107DA4592
:1001F00001D100F087F8AFF2090EBAE80F0013F052
:10020000010F18BFFB1A43F00103184740B7000065
:1002100060B70000103A24BF78C878C1FAD85207F6
:1002200024BF30C830C144BF04680C607047000070
:100230000023002400250026103A28BF78C1FBD8EF
:10024000520728BF30C148BF0B6070476E2900F0CD
:10025000F182702900F0338466290AF0A2846529AE
:100260000AF09F8467290AF09C8461290AF09B8424
:1002700003681B0A28BF41F08001692900F09E82B3
:10028000642900F09B82752900F098826F2900F0A4
:10029000C083782900F0FF83E92900F05B83E4291B
:1002A00000F05883F52900F05583EF2900F0BD8355
:1002B000F82900F0FE830368DB0928BF41F08001C4
:1002C000632901F01381732901F01881E32901F0FA
:1002D0002381F32901F02881002070471FB50AF01F
:1002E0005BFC01F091F90400002000210AF03EFCC3
:1002F000401C6060002000210AF022FCE0601FBD6D
:1003000010B510BD01F052F91146FFF7E7FF09F0F3
:10031000FBFE01F02FFA03B4FFF7F2FF03BC00F07D
:10032000D9F900000948804709480047FEE7FEE781
:10033000FEE7FEE7FEE7FEE7FEE7FEE7FEE7FEE795
:1003400004480549054A064B70470000515F000804
:10035000D9010008A01C0020A0220020A01E00201F
:10036000A01E002053EA020C00F069802DE9F04B3A
:100370004FF00006002B1FBFB3FA83F503FA05F414
:1003800024FA05F65E4012BF1643B2FA82F502FA6D
:1003900005F4C5F120051EBF22FA05FC44EA0C0451
:1003A000203556EA044C4FEA144418BF641C4FF041
:1003B00000084FF00009904271EB030C39D300297B
:1003C00019BFB1FA81F701FA07F6B0FA80F700FA1F
:1003D00007F6C7F120071EBF20FA07FC46EA0C0605
:1003E0002037B6FBF4FCA7EB0507103F07F01F0B07
:1003F000CBF120060CFA0BFB2CFA06F644BFB346F1
:100400000026202FA4BF5E464FF0000B5BEA060CCF
:1004100008BF4FF0010B19EB0B09ABFB027C48EB5B
:100420000608C01B06FB02CC0BFB03CC71EB0C01D6
:10043000C1E70B46024641464846BDE8F08B13B57E
:100440004FF000004FF00001AFF30080BDE81C400A
:10045000704700001CB50C46064B7B446946009073
:10046000204600F000FA04460020694600F00EFA2B
:1004700020461CBD2F04000010B5002000F0EEFB4C
:10048000FFF73EFFBDE81040012000F023B910B592
:10049000431C02E010F8011B71B18107FAD14FF043
:1004A000013202C88C1A8C4314EAC211F9D0C01A66
:1004B0000A0603D0C01E10BDC01A10BD0A0401D028
:1004C000801E10BD0902FCD0401E10BD032A40F260
:1004D000308010F0030C00F0158011F8013BBCF1E6
:1004E000020F624498BF11F801CB00F8013B38BFFE
:1004F00011F8013BA2F1040298BF00F801CB38BF0C
:1005000000F8013B11F0030300F02580083AC0F029
:10051000088051F8043B083A51F804CBA0E80810D1
:10052000F5E7121D5CBF51F8043B40F8043BAFF304
:100530000080D20724BF11F8013B11F801CB48BF5E
:1005400011F8012B24BF00F8013B00F801CB48BF94
:1005500000F8012B704710B5203AC0F00B80B1E8CD
:100560001850203AA0E81850B1E81850A0E81850E8
:10057000BFF4F5AF5FEA027C24BFB1E81850A0E8F1
:10058000185044BF18C918C0BDE810405FEA827C0B
:1005900024BF51F8043B40F8043B08BF7047D20722
:1005A00028BF31F8023B48BF11F8012B28BF20F8C3
:1005B000023B48BF00F8012B70474FF000020429AE
:1005C000C0F0128010F0030C00F01B80CCF1040C82
:1005D000BCF1020F18BF00F8012BA8BF20F8022BB6
:1005E000A1EB0C0100F00DB85FEAC17C24BF00F85C
:1005F000012B00F8012B48BF00F8012B70474FF08A
:10060000000200B5134694469646203922BFA0E862
:100610000C50A0E80C50B1F12001BFF4F7AF09076E
:1006200028BFA0E80C5048BF0CC05DF804EB89005F
:1006300028BF40F8042B08BF704748BF20F8022BA2
:1006400011F0804F18BF00F8012B70474FF0013CAC
:1006500050F8042B51F8043B9A4221D1A2EB0C0331
:10066000934313EACC1317D150F8042B51F8043BF1
:100670009A4215D1A2EB0C03934313EACC130BD18E
:1006800050F8042B51F8043B9A4209D1A2EB0C0319
:10069000934313EACC13DBD04FF00000704700BF48
:1006A000D01A01BAB1FA81F101F0180122FA01F071
:1006B000CB40C1F12001DBB2C0B2C01A2CFA01F369
:1006C000D11A914311EAC311E6D1704770477047C0
:1006D0007047000001491820ABBEFEE7260002006B
:1006E00010B500F0C9FA006810BD10B5044600F05E
:1006F000C3FA046010BD70B5044685690068C10680
:1007000001D5302600E02026C00707D070BDD4E90F
:10071000012130469047206A401C20626D1EF6D5AC
:1007200070BD70B5044685690078C00707D170BDFB
:10073000D4E9012120209047206A401C20626D1ED0
:10074000F6D570BD09684A0501D540B27047C905A4
:10075000FCD500B2704709684A0501D5C0B27047A0
:10076000C905FCD580B2704770B50C460546012A14
:1007700005D02878800600D5EA69002302E001232D
:1007800005E05B1C934202D2E05C0028F9D1A86925
:10079000E618C01AA861286A184428622846FFF79C
:1007A000AAFF04E0D5E9012114F8010B9047B442F7
:1007B000F8D32846FFF7B5FF70BD00002DE9F041E2
:1007C0000646002410687529314616A510D0FFF79B
:1007D000B9FF002802DA404213A507E031688A0712
:1007E00001D512A502E0490704D511A5012401E0B5
:1007F000FFF7B1FF00210A2206F1240709E0B0FB50
:10080000F2FCB0FBF2F302FB1C00303078541846C7
:10081000491C0028F3D123462A463046BDE8F04162
:1008200000F073BA000000002D0000002B00000053
:100830002000000011680268006A530501D50870A5
:100840000AE0D30501D5088006E0130603D5C217D8
:10085000C1E9000200E008600120704701694A1CFC
:1008600002610878704700B58FB0CDE901310021F1
:10087000059105497944CDE903101146684600F019
:1008800029F90FB000BD0000E5FFFFFF0A6802F87C
:10089000010B0A60704700002DE9FF5F15468A468C
:1008A0000446DFF8AC80F8440027D8E900103E4643
:1008B000CDE9001010E03AF816106A4602A800F0E0
:1008C00037FE411C07D02178890603D5E269391823
:1008D00091420DD80744761C2078800602D5E06945
:1008E000B84205DDAE42E6DB3AF816000028E2D158
:1008F000A069C01BA0612046FFF7FDFED8E90010EB
:10090000CDE90010002017E03AF818106A4602A856
:1009100000F00EFEB0F1FF3F81460BD000250DF137
:10092000080B05E0D4E901211BF8050090476D1C78
:100930004D45F7D308F10100B0428046E4DB206A60
:10094000384420622046FFF7ECFEBDE8FF9F000020
:1009500052A600002DE9F0418046D21D22F0070288
:100960000025D2E90002F52915A614D0011E72F166
:10097000000106DA0023D0EB030063EB020211A6AC
:1009800008E0D8F800108B0701D50FA602E0490750
:1009900001D50EA601251146002408F1240704E024
:1009A00000F06EF930323A55641C50EA0102F7D17A
:1009B0002B46324621464046BDE8F04100F0A5B93D
:1009C000000000002D0000002B00000020000000AF
:1009D00030B4002100F1240408E002F00705D20839
:1009E000303542EA4372DB086554491C52EA03057C
:1009F000F3D10468002310A2250707D5A40600D46C
:100A000021B1C46901230DA2641EC46130BC00F091
:100A10007CB910B5044621461068FFF79CFE0246DB
:100A20002046BDE810400023D2E7D21D22F0070186
:100A3000D1E90023CCE700000000000030000000F6
:100A4000F0B40D460188090502D5214C7C4402E032
:100A50001F4C7C440E34002100F1240608E002F013
:100A60000F071209E75D42EA03721B097754491C1C
:100A700052EA0307F3D102780023120704D5702D40
:100A800006D009B1022311342246F0BC00F03DB972
:100A900001231034F8E770B504460D46214610686E
:100AA000FFF759FE024629462046BDE87040002364
:100AB000C6E7D21D22F00703D3E90023C0E703688D
:100AC000126843F0200303600823C3610023B7E7E3
:100AD000B4A400002DE9F05F894604464FF0000AF7
:100AE000DFF874B1FB44C0F820A02046E1688847D5
:100AF000002874D0252806D0D4E901219047206A27
:100B0000401C2062F1E700265F462046E1688847E6
:100B10002028054607DB312D05D2781910F8200C66
:100B200008B10643F1E7B00701D526F00406C4F882
:100B30001CA00027C4F818A02A2D09D0284606F0CA
:100B400057FC38B304EB8708303DC8F8185019E05B
:100B500059F8041B204604EB87029161E16888473D
:100B6000012F054618D1E069002820DA26F020067A
:100B70001DE0D8F8180000EB800005EB400030388D
:100B8000C8F818002046E1688847054606F030FCA2
:100B90000028EED1012F0AD02E2D08D12046E16881
:100BA00088477F1C0546022F46F02006C4DBA0695B
:100BB000002803DA404246F00106A061F00701D0A8
:100BC00026F010066C2D0BD0682D09D04C2D39D095
:100BD0006A2D35D0742D35D07A2D33D016E038E01B
:100BE000E1682F4620468847B842054609D16C2F58
:100BF00026D04FF48060E1680643204688470546CA
:100C000004E06C2F1AD04FF4807006430DB3A5F1A9
:100C10004100192802D8203546F400664A46294684
:100C2000204626604E46FFF711FB80B101280BD00D
:100C3000F61D26F0070000F1080956E74020E4E71A
:100C40008020D8E70020D6E706F104094DE72846C2
:100C500052E7206ABDE8F09F44A4000010B500F000
:100C60008DFCBDE8104000F083BC000000487047D8
:100C70003C1C002070470000004870473C1C0020CE
:100C800030B5B0F10A024FEA900E71F100034EEA5E
:100C9000817EB0EB0E0061EB91014FEA101E4EEA2F
:100CA000017E10EB0E0041EB11114FEA102E4EEABF
:100CB000016E10EB0E0041EB11214FEA104E4EEA8F
:100CC000014E10EB0E0041EB1141401841F10001C3
:100CD0004FEAD00040EA41704FEAD10110EB8005A5
:100CE0004FEA810444EA907444EB01046D1944EB2B
:100CF0000404521BA3414FF0000348BF0A3200D541
:100D000030BD401C41F1000130BD2DE9F0470D46DA
:100D100099469246044600F124080168880604D5E5
:100D2000E06921F01001216000E00120A84201DD0E
:100D3000471B00E00027A1697A1902EB0900081A95
:100D4000A0612078C00602D42046FFF7D4FC00261C
:100D500008E0D4E901211AF806009047206A401CF7
:100D6000761C20624E45F4DB2078C0060AD520466A
:100D7000FFF7C1FC06E0D4E9012130209047206A4A
:100D8000401C2062381EA7F10107F4DC07E0D4E91B
:100D9000012118F805009047206A401C2062281E97
:100DA000A5F10105F3DC2046FFF7BBFC2078000627
:100DB00002D50220BDE8F0870120FBE770472DE94E
:100DC000FF4F0C461E464FF0FF378BB0D2E90001B3
:100DD000DDF860800A908A46C1F30A5505B93D46A0
:100DE000002108464FF00000BAF1000F00F4400067
:100DF00005DA00EB80004FF4400101EA50004FEAB1
:100E00009059B9F1010F00DDB9460A9850EA4A003D
:100E10000ED044F61050A5F2FF3545432F14B8F11B
:100E2000000F1ED07542291E1EDDC9F100021CE014
:100E3000B8F1010F4FF0000001D0302103E0F24380
:100E400005E02154401CB042FBDB3046002200216B
:100E500021540B99C1F80880C1E900200FB0BDE80A
:100E6000F08FBD1B6D1CDEE74A4600DA694206A81A
:100E700000F00EFC06AB93E8070003AB83E8070025
:100E800050460A9900F09FFC8DE80700A0F500503D
:100E90001F3800900398002D0ADD42F21F014A46D8
:100EA0000844002303A90390684600F008FF09E006
:100EB000A0F500504A461F38002303A90390684656
:100EC00000F012FF8DE807000004000C03D04FF083
:100ED000FF30410800E01046B8F1000F03D00022B7
:100EE000009215461EE0751E05D4FFF7C9FE30328C
:100EF00062556D1EF9D5B3460122084302D0002287
:100F00007F1C04E02078302801D100227F1E002AB7
:100F1000099784D01DE0112D07DAFFF7B1FE3032BA
:100F200062556D1C50EA0102F5D1084302D00098C9
:100F3000C8B10EE00021681E05E0235C625C6354CA
:100F40002254401E491C8142F7DBAB46A81B401EC1
:100F50000990002004F80B000B98099AC0F808804B
:100F6000C0E9002B7AE711264FF0000857E72DE97A
:100F7000F04F88460446D21D22F0070191B0D1E916
:100F80000001CDE90A0105F0B2FD02460B98C00F41
:100F900001D02D2007E02068810701D52B2002E039
:100FA000202101EAC000032A099001D0072A05DBAD
:100FB00003464146204600F02BFB0BE120788006DB
:100FC00001D5E06900E00620B8F1650F814606D042
:100FD000B8F1660F18D0B8F1670F70D131E000207A
:100FE000B9F1110F009001DB112301E009F10103B8
:100FF0000AAA01A90CA8FFF7E2FEDDE90C700026A1
:1010000009F10105834647E001204B4600904FF06F
:1010100000470AAA01A90CA8FFF7D1FEDDE90DB02F
:101020000C995D46002610B909F101000D18B9EBC5
:10103000050003D4C0F1FF3609F10105A5EB090055
:101040002BE0B9F1010F01DA4FF001090020B9F1ED
:10105000110F0090484601DD112300E003460AAA63
:1010600001A90CA8FFF7ABFEDDE90C704D46002688
:101070008346207800070AD4AB4500DA5D4601A814
:10108000012D04DD411911F8011C302907D04F450D
:1010900002DA17F1040F04DA012082460FE06D1E18
:1010A000EEE7002F02DCED1B3E4403E0781CA84273
:1010B00000DD7D1CB81B00F1010A4FF000472078CD
:1010C000000703D4AA4501DB4FF0FF3A0021B7F136
:1010D000004F0DF143088DF8431024D002202B233C
:1010E000002F01DA7F422D230A21021EA0F1010008
:1010F00000DC5FB197FBF1FC97FBF1F201FB1C7C7C
:1011000017460CF1300C08F801CDEEE7A8F101000C
:1011100003702188090501D5452100E06521A0F172
:10112000010800F8011C09980FA9A1EB0807FF1D91
:1011300000B10120411901EBEA70A1693844081A95
:10114000401EA0612078C00602D42046FFF7D3FAE3
:10115000099828B1D4E901219047206A401C2062F7
:101160002078C00622D52046FFF7C5FA1EE0002EE3
:1011700004DBB34502DD01A8805D00E03020D4E946
:1011800001219047206A401C2062761CAAF10100D0
:101190005FEA000A0AD100F037FAC0680168405CD3
:1011A000D4E901219047206A401C2062281EA5F145
:1011B0000105DCDC07E0D4E9012118F8010B9047B8
:1011C000206A401C2062381EA7F10107F3DC20468C
:1011D000FFF7A7FA032011B041E600002DE9F04F18
:1011E00004460D46D21D22F0070089B0D0E90097D1
:1011F0004846394605F07BFC0246F80F01D02D2306
:1012000007E02068810701D52B2302E0202101EAB5
:10121000C0038DF820300BB1012000E00020032A2C
:10122000824601D0072A04DB2946204600F0F0F967
:101230003FE12078800601D40D2500E0E569C7F381
:101240000A560D2D49DA00214FEA175B08464FF088
:101250000000002F00F4400007DA00EB80004FF49C
:10126000400100EBD07001EA60008115012901DD29
:101270004FF0FF3100224FEA850CBCF1180F06D366
:101280001346ACF118004FF08052C24003E04FF417
:10129000801323FA0CF30CF10C0CBCF1200F04D3D7
:1012A000ACF1200C09FA0CF001E007FA0CF000296F
:1012B0004FF0004801DD18B90FE00ED140450CD3C6
:1012C00019EB02095F4121B9404502D19F4329EA48
:1012D0000209BBEB175F00D0761C2088000502D501
:1012E0007B48784402E07A487844193808AA3023C9
:1012F00002F80A30037C0AF10101002E0AF1020A09
:1013000053546A4602DC4FF0300101E04FF03101E6
:101310004FF001088DF8001002D0A6F2FF3603E06E
:1013200059EA470100D06B4E002D02DC21780907F5
:1013300004D54FF002082E218DF80110C44600217B
:101340000BE0C7F303433F01C35C491C6D1E02F869
:101350000830052908F1010801DA002DF1DC00212F
:101360000CE000EB1973491C1B786D1E082902F86C
:1013700008304FEA091908F1010801DA002DF0DC04
:1013800021688B0602D516E0A8F10108E04505DDCD
:1013900002EB080313F8013C302BF5D0B8F1000F35
:1013A00009DD02EB080313F8013C2E2B03D10907DA
:1013B00001D4A8F10108002D05DD3E2102F8081036
:1013C0006D1E08F10108407C002E02F8080008F1AB
:1013D000010804DA2D20764202F8080002E02B20F2
:1013E00002F808000A214FF47A70864208F10108D9
:1013F0000BDB96FBF0F3303302F8083096FBF0F38A
:1014000008F1010800FB136601E0642E0CDB642088
:1014100096FBF0F3303302F8083096FBF0F308F156
:10142000010800FB136601E00A2E06DB96FBF1F0D3
:10143000303002F8080008F1010896FBF1F001FBDA
:101440001060303002F80800A16908F1010808EBCB
:10145000050202EB0A00081AA0612078C00602D437
:101460002046FFF748F9216A08AE01EB0A00206226
:1014700004E0D4E9012116F8010B9047BAF1010A02
:10148000F7D22078C00602D52046FFF734F96E4621
:1014900009E016F8010B3E280FD0D4E9012190474E
:1014A000206A401C2062B8F10108F2D22046FFF702
:1014B00038F909B00320BDE8F08F206A2844206283
:1014C00003E0D4E90121302090476D1EEBD3F8E70B
:1014D0008D9C000002FCFFFF10B5436913B1AFF310
:1014E000008001E0FFF740F9012010BD127800F103
:1014F00024010A7000224A700122EDE711684FF0C2
:10150000FF32E9E710B5436913B1AFF3008001E0A2
:10151000FFF7C2F9012010BD128800F12401828476
:101520000022C2840122EDE711684FF0FF32E9E7A3
:1015300070B516460C46054600F05EF8036893F851
:101540000101012806D0FF2C0FD8185D68B10120D9
:101550002C7070BDD3F807013246214603F2071301
:1015600003442846BDE8704018474FF0FF3070BD77
:10157000002801D0FFF7AEB87047000010B5002179
:1015800002A000F000F9012010BD000053494741BE
:101590004252543A2041626E6F726D616C207465E4
:1015A000726D696E6174696F6E0000007546FFF7B9
:1015B0005DFBAE4605006946534620F007008546B0
:1015C00018B020B5FEF7BCFEBDE820404FF0000685
:1015D0004FF000074FF000084FF0000B21F007011B
:1015E000AC46ACE8C009ACE8C009ACE8C009ACE85E
:1015F000C0098D467047000010B500F005F8001DC9
:1016000010BD00BF69950000004870475C1C0020B9
:101610002DE9F0411F46044603260168072A01F41C
:10162000006004DB08B116A505E016A503E008B1CB
:1016300015A500E015A521F010002060A069C01ECE
:10164000A0610FB1401EA0612046FFF754F84FB1D2
:10165000D4E9012138469047206A401C2062C01C12
:10166000206206E0206AFAE7D4E9012115F8010BAF
:101670009047761EF8D22046FFF753F8BDE8F08178
:101680004E414E006E616E00494E4600696E660026
:101690002DE9F047814616468AB0354878440DC892
:1016A0008DE80D0032487844801C03AC0DC884E8F6
:1016B0000D0041F69B300844372190FBF1F290FB7E
:1016C000F1F5A5F1800501FB12041B3C02D5644233
:1016D000012000E00020DFF898A080460027FA44AF
:1016E000AAF1BE0A0EE0E0070AD03246684607EBD0
:1016F000470101230AEB810100F0F6FA8DE80700AB
:1017000064107F1C002CEED1194F7F44AE3F19E0CE
:10171000E80715D007EB04100DF1180A90E80E0049
:101720008AE80E00C068F04201D19819089032464C
:10173000012306A903A800F0D7FA03AB83E807004A
:101740006D10641C002DE3D14FF001033246694651
:10175000B8F1000F03A802D000F0B1FA01E000F0E8
:10176000C3FAC9E90001C9F808200AB0BDE8F0874A
:101770006499000010B50446AFF300802046BDE830
:101780001040FEF7C8BD70B505460C460A2000E0C3
:101790006D1C00F011F835B128780028F8D102E06E
:1017A000641C00F009F814B120780028F8D1BDE8D5
:1017B00070400A20AFF3008008B569468DF800003C
:1017C0000320ABBE08BD5FEA400C08BF91F0000FDC
:1017D0004FEA8C234FEAC12243EA51514FEA1C5091
:1017E00018BF00F5F0404FEA300018BF41F000414B
:1017F0005FEA6C5C00F02980BCF1FF3F08BF40F05D
:1018000080407047130C06BF12044FF0100C4FF0CD
:10181000000C130E04BF12020CF1080C130F04BFCE
:1018200012010CF1040C930F04BF92000CF1020C96
:10183000D30F04BF52000CF1010C11464FF000020F
:10184000A0F11F00A0EB0C00704711F0004F08BF83
:10185000704731F000413FF4D5AF0B0C06BF0904CF
:101860004FF0100C4FF0000C0B0E04BF09020CF1EE
:10187000080C0B0F04BF09010CF1040C8B0F04BF03
:1018800089000CF1020CCB0F04BF49000CF1010CD4
:10189000CCF12003A0EB0C0022FA03F302FA0CF2C5
:1018A00041EA030100F10100704720F07F4C80EA1B
:1018B000030023F07F47ACEB070303F57C5300F0F4
:1018C000004003F1FF032DE980494FEA154B09B4AD
:1018D0004FEA144325EA0B4E24EA03480FF204268C
:1018E00006EB132749083E785FEA320203FB0667DE
:1018F000C7F5000707FB06F64FEA54374FEAD6460E
:1019000006F1020607FB066CCCF1005C4FEA1C47AF
:101910002CEA074C07FB06F40CFB06F504EB154616
:101920004FEA961634BF00204FF000404FEAD137FF
:1019300006FB07FC4FEA1C4C0CFB0BF7D21B03FB0E
:101940000CF761EB07010CFB0EF7B0EB074072EBF5
:1019500017420CFB08F734BFA2EB0742B2EB074279
:1019600061EB17414FEA0C444FEA910706FB07FC75
:101970004FEA1C4C0CFB0BF7B0EBC74072EB573235
:1019800003FB0CF734BFA2EBC742B2EBC74261EBDB
:1019900057310CFB0EF7B0EBC70072EB57720CFB24
:1019A00008F734BFA2EBC702B2EBC70261EB577175
:1019B000039F4FEA816141EA921104EBCC044FEAA4
:1019C000D1374FEA826206FB07FC42EA90124FEAE7
:1019D00080604FEA1C4C0CFB0BF7D21B03FB0CF78F
:1019E00061EB07010CFB0EF7B0EB074072EB1742FF
:1019F0000CFB08F734BFA2EB0742B2EB074261EBE6
:101A000017414FEA8C554FEA910704EB9C2406FBE3
:101A100007FC4FEA1C4C0CFB0BF7B0EBC74072EB1A
:101A2000573203FB0CF734BFA2EBC742B2EBC742FD
:101A300061EB57310CFB0EF7B0EBC70072EB57723E
:101A40000CFB08F734BFA2EBC702B2EBC70261EB95
:101A5000577115EB4C254FEA816141EA92114FEA2B
:101A600082624FEAD13742EA901206FB07FC44F14A
:101A700000044FEA80604FEA1C4C0CFB0BF7D21BB2
:101A800003FB0CF761EB07010CFB0EF7B0EB074013
:101A900072EB17420CFB08F734BFA2EB0742B2EB24
:101AA000074261EB174115EB1C154FEA813141EA02
:101AB00092414FEA823242EA90424FEA80304FEA46
:101AC0000C7644F1000448EA03434EEA0B484FF019
:101AD000000EB2EB080C71EB030724BF62463946D7
:101AE0004EEB0E0E4FF0000B0018524149414BEBEC
:101AF0000B0BB2EB080C71EB03077BF1000B24BF5F
:101B0000624639464EEB0E0E4FF0000B0018524164
:101B100049414BEB0B0BB2EB080C71EB03077BF16C
:101B2000000B24BF624639464EEB0E0E51EA020707
:101B300018BF46F0010616EB0E7655F1000254F17F
:101B4000000103D5BDE88901BDE80088BDE8890131
:101B5000BDE80048B619524141EB0101A3F1010370
:101B6000704780807F7E7D7C7B7A7978777676750A
:101B70007473727171706F6E6E6D6C6C6B6A6A6982
:101B80006868676666656464636362616160605F1C
:101B90005F5E5E5D5D5C5C5B5B5A5A595958585795
:101BA00057565655555554545353525252515150FD
:101BB00050504F4F4F4E4E4D4D4D4C4C4C4B4B4B50
:101BC0004A4A4A4949494848484747474746464696
:101BD00045454544444444434343434242424241D1
:101BE0004141002B9C4630D477002BD01CB54FEAE6
:101BF000370703B44FF010004FF01001BAF1000F97
:101C000006D0BCF1000FDCBF40F0080040F0080136
:101C10004FF000000FBCBDE810400BF1010BBBF111
:101C2000010F08BF5FEA170722BF12F1010211F18D
:101C300001014FF0004143F1000300F0004043EA8E
:101C400000007047F9D35708D0E746EA064613F17B
:101C5000400F4FEA16461FDD13F1200FDFBF16437A
:101C60000A46002120335B42BED0C3F1200746EA7A
:101C7000064602FA07F74FEA164646EA0706C3F198
:101C8000200722FA03F201FA07F721FA03F14FF0D5
:101C9000000342EA0702A7E746EA020646EA0646CA
:101CA0004FEA164646EA0106BCBF46EA0646360C2F
:101CB0004FF000034FF000024FF0000194E72DE9D0
:101CC000804C9A46934670B491E8380007C831EAD0
:101CD000400C48BF34EA430C03D5FFF7E6FDFFF79D
:101CE00080FFF0BCBDE8008C2DE9804C9A469346FD
:101CF00070B491E8380007C810F0804F08BF13F0A7
:101D0000804F03D100F005F8FFF76BFFF0BCBDE892
:101D1000008C20F07F4780EA030023F07F4C07EB24
:101D20000C03A3F57C5300F00040A3F1FE0392F0F6
:101D3000000F00F0B38095F0000F00F077802DE9E0
:101D400001494FEA11404FEA144621EA004800FBDE
:101D500006FC24EA064708FB06F607FB08F800FB2A
:101D600007F718EB06484CEB164C4FEA124B18EBF2
:101D700007484FEA15464CEB174022EA0B4E0BFB87
:101D800006FC25EA06470EFB06F607FB0EFE0BFBDC
:101D900007F71EEB064E4CEB164C4FF000061EEB01
:101DA000074E4CEB174B18EB0B0840F1000018EBFB
:101DB0000E0B58EB000840F100008F1A4FF00001A5
:101DC0003CBFC943661B14BFB5EB040C00213CBFEC
:101DD000C943F61B4FEA17444EEA8E0E27EA044524
:101DE0004FEA1C4704FB07622CEA074C05FB07F788
:101DF0000CFB05F604FB0CFC16EB074642EB174206
:101E000016EB0C4642EB1C421BEB060658EB02029B
:101E1000414146EA9E0601D5BDE80189B619524105
:101E200041EB0101A3F10103BDE801894FEA14452B
:101E30004FEA114724EA054621EA074C05FB07F45F
:101E400006FB07F70CFB06F105FB0CFC11EB074149
:101E500044EB17444FEA124711EB0C4144EB1C448E
:101E600022EA074C05FB07F206FB07F70CFB06F618
:101E700005FB0CFC16EB074642EB174216EB0C4633
:101E800042EB1C456A1854F1000148BF7047B6196F
:101E9000524141EB0101A3F10103704795F0000F9E
:101EA00037D04FEA11424FEA144721EA024624EAAA
:101EB000074C02FB07F106FB07F70CFB06F402FBDD
:101EC0000CFC14EB074441EB17414FEA154714EBA8
:101ED0000C4441EB1C4125EA074C02FB07F506FBCD
:101EE00007F70CFB06F602FB0CFC16EB074645EB6E
:101EF000174516EB0C4645EB1C42121951F1000137
:101F000048BF7047B619524141EB0101A3F10103EB
:101F100070474FEA14454FEA114724EA054621EA83
:101F2000074C05FB07F106FB07F70CFB06F24FF029
:101F3000000605FB0CFC12EB074241EB174112EBCC
:101F40000C4251EB1C4148BF7047921841EB010114
:101F5000A3F10103704710B5846AE16D11F0500FD1
:101F600006D0E16DC90625D5204600F093FE10BDD0
:101F7000E06D40F40070E06520680168090716D53F
:101F800003F0F9FB78B12068C068800400280ADB00
:101F9000E06D20F48070E065E06DC00403D4E06D76
:101FA00040F00100E065204600F072FE10BDC06800
:101FB0008007EBE7616D496BBDE81040084710B53D
:101FC000806AC16D41F04001C165016E41F00401BC
:101FD000016600F05FFE10BD10B5806A00F059FE8A
:101FE00010BD0000F8B5044600200090206881680C
:101FF00011F0010F41D18168214A11422ED181682F
:10200000D5432940491C81601E48806800F0E0707B
:1020100000020DD51C481D490068B0FBF1F0401CC2
:1020200000EB4000800000E0401E00900028FBD143
:1020300001F0C0FD06461BE0816811F0010F03D1DD
:1020400081682940491C816001F0B4FD801B022891
:102050000ED920680068C043C00709D0E06D40F089
:102060001000E065206E40F0010020660120F8BD00
:1020700020680168C943C907DED10020F8BD00000F
:102080003F0000800003005010000020400D0300BE
:10209000FEE70000014801F00EBA0000C003002076
:1020A000014801F008BA0000200400200D49026830
:1020B0008A4201D20C4901E00B492031D2B21423EB
:1020C000083AB2FBF3F2436C02F01F0223F0030361
:1020D0001944816404498031C16401219140016542
:1020E0007047000008040240000802400179074AD6
:1020F00002EB81024265054A4432491E826501F0C5
:102100001F0201219140C16570470000FC08024098
:1021100030B5D0E913456560446D14B1D0E916457A
:10212000656090F8444004F01F050124AC40056C44
:102130006C60046863608368102B036803D0996047
:102140000068C26030BD9A600068C16030BD7047F1
:1021500072B6FEE72DE9F84F4FF000080446CDF8BF
:1021600000800D4694F85820DFF8EC9361694746EB
:102170004046012A0AD00126F84A84F8586041B145
:10218000296A012905D0A36EEBB129E00220BDE840
:10219000F88F6868092838D1A96A4FF4785041B19E
:1021A0002B6801F07C0100EA53400843E96A0843C8
:1021B00002E0296800EA51402168CB6C13400343D8
:1021C000CB64606621E0C4E91971A96A286A31B15B
:1021D00001F07C01401E0843E96A084300E0401E0C
:1021E00029682B79C1F3846103F01F0399400143EF
:1021F000A06E401EA066636E43EA0103636604D1CD
:102200002068C16C11401943C164206803F0A7FA2B
:1022100058B995F8250098B12068C16895F826202E
:1022200021F4401141EA4251C160206803F09FFA55
:102230008246206803F093FA5AEA00000DD0FBE0D2
:1022400095F8260095F82410400540EA01512068D1
:10225000C26822F440121143E6E7A86A30B1E86A86
:1022600020B195F8250001285ED003E095F82500FF
:10227000012804D02068C16821F0007103E02068C3
:10228000C16841F00071C16095F83000012852D05A
:102290002068016921F002010161AA6829682068AB
:1022A000B2F1004F38D003F07DFA2068416921F087
:1022B0000041416120686969C268C2F3C1025200ED
:1022C00091402A69042A44D000EB82002B68026EF8
:1022D000DFF88CC203F0F84302EA0C020B431A4306
:1022E00042F00041016620682A69A96900EB82007A
:1022F000026E22F080720A430266297F22682869F2
:10230000012923D05FF0000102EB8000026E22F071
:1023100000720A4302668FE0002203F043FA20684D
:10232000416941F00041C4E7E06D40F02000E06504
:102330004FF00108A8E7D5E90D10014320680269B4
:1023400022F4FF7242F002021143A5E74FF0007140
:10235000DAE7002103F0F9F9400320684FF00001AB
:1023600072D003F0F2F990FAA0F0B0FA80F1286888
:1023700042036ED090FAA0F0B0FA80F0814204D10E
:1023800000221146206803F024FA0121206803F09E
:10239000DCF9400320684FF001015DD003F0D5F96E
:1023A00090FAA0F0B0FA80F12868420359D090FA70
:1023B000A0F0B0FA80F0814204D10022012120680F
:1023C00003F007FA0221206803F0BFF940032068F8
:1023D0004FF0020148D003F0B8F990FAA0F0B0FA3B
:1023E00080F12868420344D090FAA0F0B0FA80F05F
:1023F000814204D100220221206803F0EAF903217E
:10240000206803F0A2F9400320684FF0030133D0A5
:1024100003F09BF990FAA0F0B0FA80F1286842032B
:102420002FD090FAA0F0B0FA80F0814204D10022BF
:102430000321206803F0CDF92068816811F0010FB5
:1024400022D0B6E000E004E003F07FF9C0F384613D
:102450008DE7C0F3846091E703F077F9C0F38461FE
:10246000A2E7C0F38460A6E703F06FF9C0F38461CC
:10247000B7E7C0F38460BBE703F067F9C0F384619A
:10248000CCE7C0F38460D0E72A7B296850F8B03FDE
:10249000C1F3120C23EA0C0302F0180C314A22FAA1
:1024A0000CF20A4013430360E96849457ED128686D
:1024B00041031CD090FAA0F1B1FA81F1491C01F05E
:1024C0001F0109294FEA403132D8002912D000BF3C
:1024D00090FAA0F1B1FA81F101F1010101F01F01BF
:1024E00006FA01F609D100BFC0F3846109E0C0F328
:1024F0008461E3E7C0F38461EEE790FAA0F1B1FAFA
:1025000081F101F1010101F01F0146EA816102D16F
:10251000C0F3846003E090FAA0F0B0FA80F000F11C
:10252000010000F01F0000EB400041EA00513AE0DA
:1025300000290ED090FAA0F1B1FA81F101F1010168
:1025400001F01F0106FA01F60ED100BFC0F384614D
:102550000EE0C0F38461F1E700007F40004010040A
:1025600000F0FF03FFFF070090FAA0F1B1FA81F13C
:1025700001F1010101F01F0146EA816102D1C0F3BE
:10258000846003E090FAA0F0B0FA80F000F101005E
:1025900000F01F002B4A00EB400002EB005041EA24
:1025A000000141F00071AA68206800E001E003F03A
:1025B000F9F825482A68024240D024488168244B13
:1025C00001F0E0719A4202D0224B9A421BD10B02D9
:1025D00019D42268B2F1A04F30D1826841F40001D1
:1025E00022F0E0720A4382601B481C490068B0FB7D
:1025F000F1F0801C00EB4000800000E0401E0090E5
:102600000028FBD11AE0164D164BAA4207D1CD0186
:1026100005D422689A4211D041F0807109E0124D30
:10262000AA420BD14A0209D422689A4206D041F448
:102630008001826822F0E0720A43826084F8587058
:102640004046A4E5000020FE000008800003005082
:10265000000021C31000C09010000020400D0300B6
:10266000000052C700010050000084CB2DE9F0416A
:1026700004464548806800F01F05206803F06FF8A5
:1026800008BB2168C868C96C00F0004011F4C07F25
:1026900000D190B194F85800012814D0012084F89A
:1026A00058002046FFF79EFC01004FF000020CD0BE
:1026B00084F858200846BDE8F081E06D40F0200025
:1026C000E0650120F7E70220F5E7E06DC00504D5DD
:1026D000206E20F00800206600E02266E06D42F2E5
:1026E0000103984340F48050E065284B20684FF088
:1026F000A046984201D1374600E00746874200D005
:102700001DB9E76D27F48017E7656027076084F837
:1027100058202068C268920203D5426842F4806261
:102720004260A06908282068426807D022F0400271
:1027300042602068426842F0200206E022F0200257
:1027400042602068426842F040024260206898423D
:1027500001D1324600E00246824209D045B1062D41
:1027600006D0072D04D0E06D40F48010E065A1E7AD
:10277000C26812F0007F9DD18268054B1A4042F07A
:102780000802826096E7000000030050000100503C
:10279000C0FFFF7F2DE9F047044690F858009CB039
:1027A0000E464FF00009012815D0012084F858008A
:1027B00000251795189520684FF0A04840450ED188
:1027C000284F0097384602F0D2FF8246206802F078
:1027D000CEFF60B10EE002201CB0BDE8F087E06DD6
:1027E00040F02000E06584F858500120F4E7BAF189
:1027F000000F09D0E06D40F02000E0654FF00109C6
:1028000084F858504846E7E71748326840F61F7189
:10281000002A826822F4604216D094F8383042EAE6
:10282000433273681A438260D8F80820BB6802F00C
:10283000010203F001031A43E2D1B36832681A437C
:1028400083688B431A430BE08260D8F80820BB688A
:1028500002F0010203F001031A43D1D182688A43D6
:102860008260CDE700010050000300502DE9F84FD1
:1028700000270446009790F85800DFF8E0930D46D3
:10288000B846012811D0012684F85860206802F06B
:102890006AFF60B1E06D40F02000E0655FF0010785
:1028A00084F858803846BDE8F88F0220FBE7D5E968
:1028B00000210C23206803EA91131844036B01F0F4
:1028C0001F014FF01F0C0CFA01FCC2F3846223EAD3
:1028D0000C038A4013430363206802F044FF8246DE
:1028E000206802F038FF5AEA00003CD1AA68296843
:1028F0002068B2F1004F37D002F045FF20684169EF
:1029000021F00041416120686969C268C2F3C102D7
:10291000520091402A69042A31D000EB82002B68D2
:10292000026EDFF83CC303F0F84302EA0C020B43EB
:102930001A4342F00041016620682A69A96900EB48
:102940008200026E22F080720A430266297F2268AA
:102950002869012910D0002102EB8000026E22F0CC
:1029600000720A4302667DE0002202F00CFF20683C
:10297000416941F00041C5E74FF00071ECE70021EB
:1029800002F0DDFE400320684FF0000172D002F03B
:10299000D6FE90FAA0F0B0FA80F1286842036ED01B
:1029A00090FAA0F0B0FA80F0814204D100221146E2
:1029B000206802F006FF0121206802F0C0FE4003FB
:1029C00020684FF001015DD002F0B9FE90FAA0F04E
:1029D000B0FA80F12868420359D090FAA0F0B0FA1A
:1029E00080F0814204D100220121206802F0E9FE3A
:1029F0000221206802F0A3FE400320684FF002018C
:102A000048D002F09CFE90FAA0F0B0FA80F128685D
:102A1000420344D090FAA0F0B0FA80F0814204D191
:102A200000220221206802F0CCFE0321206802F07F
:102A300086FE400320684FF0030133D002F07FFE92
:102A400090FAA0F0B0FA80F1286842032FD090FAF3
:102A5000A0F0B0FA80F0814204D100220321206866
:102A600002F0AFFE2068816811F0010F22D0ACE0C7
:102A700000E004E002F063FEC0F384618DE7C0F380
:102A8000846091E702F05BFEC0F38461A2E7C0F3CB
:102A90008460A6E702F053FEC0F38461B7E7C0F399
:102AA0008460BBE702F04BFEC0F38461CCE7C0F367
:102AB0008460D0E72A7B296850F8B03FC1F3120C3C
:102AC00023EA0C0302F0180C664A22FA0CF20A40C0
:102AD00013430360E968494577D1286841031CD056
:102AE00090FAA0F1B1FA81F1491C01F01F01092906
:102AF0004FEA403132D8002912D000BF90FAA0F13D
:102B0000B1FA81F101F1010101F01F0106FA01F6AC
:102B100009D100BFC0F3846109E0C0F38461E3E739
:102B2000C0F38461EEE790FAA0F1B1FA81F101F10E
:102B3000010101F01F0146EA816102D1C0F3846006
:102B400003E090FAA0F0B0FA80F000F1010000F08C
:102B50001F0000EB400041EA005132E000290ED096
:102B600090FAA0F1B1FA81F101F1010101F01F0128
:102B700006FA01F606D100BFC0F3846106E0C0F397
:102B80008461F1E790FAA0F1B1FA81F101F101015C
:102B900001F01F0146EA816102D1C0F3846003E0C5
:102BA00090FAA0F0B0FA80F000F1010000F01F00F0
:102BB0002D4A00EB400002EB005041EA000141F0D9
:102BC0000071AA68206802F0DEFD28482A680242E7
:102BD0003FF466AE26488168264B01F0E0719A42C8
:102BE00002D0254B9A421CD10B021AD42268B2F1B2
:102BF000A04F7FF455AE826841F4000122F0E072EC
:102C00000A4382601D481E490068B0FBF1F0401C79
:102C100000EB4000800000E0401E00900028FBD147
:102C20003EE6184D184BAA4207D1CD0105D42268C3
:102C30009A42F5D041F0807109E0144DAA42EFD1DB
:102C40004A02EDD422689A42EAD041F480018268B7
:102C500022F0E0720A43826022E6000000007F401A
:102C600000F0FF03FFFF0700000020FE00000880C7
:102C700000030050000021C31000C090100000208D
:102C8000400D0300000052C700010050000084CB3B
:102C90007047704770470000F8B54FF0000504001A
:102CA0002E46009502D0E06D10B107E00120F8BD7E
:102CB000204600F0EBF8266684F8586020688168AA
:102CC000C1F3407119B18168684A11408160206880
:102CD0008168C1F3007189B98168654A114041F08A
:102CE00080518160634864490068B0FBF1F04000A6
:102CF000801C00E0401E00900028FBD12068816805
:102D0000C1F3007141B9E16D41F01001E165216E3F
:102D100041F001012166012502F025FDE16DC906A2
:102D200000D430B1E06D40F01000E0650125284688
:102D3000F8BDE06D20F4807040F00200E06520688E
:102D4000806810F0010F11D14FF0A04080684B490E
:102D500000F00100896801F00101084306D14848EC
:102D60006168826822F47C120A438260E168E06B49
:102D7000627F0843A16841EA4231084394F8241075
:102D800040EA0140012904D1218D3E4A02EB414134
:102D90000843E16A29B101F47871226B014342EAE8
:102DA00001002268D168384B19400143D160206886
:102DB0000169626B21F0406111430161206802F0FA
:102DC000CAFC70BB207F94F83810800340EA4102AF
:102DD0002168C86844F2020398431043C860206920
:102DE0000028206801690AD041F48031016120681F
:102DF00050F8C01F22696FF30D01114307E021F461
:102E000080310161206850F8C01F6FF30D0101602F
:102E100094F8400001280CD02068016921F00101DC
:102E20000161606901282068016B21F00F0111D058
:102E300013E0D4E911010843D4E913121143084304
:102E400021680A6940F2FC739A43104340F0010084
:102E50000861E6E7226A521E11430163E06D20F02B
:102E6000020040F00100E06561E70000C0FFFF5F85
:102E7000C0FFFF7F10000020400D03000001005044
:102E8000000300500000FEFF0740F0FF2DE9F0476F
:102E900098B0064614216846FDF7B1FB442105A809
:102EA000FDF7ADFB4FF40042316800259003524F0F
:102EB000DFF84891DFF848A1524C4FF00308B1F118
:102EC000A04F10D0504B994259D10592149005A8AB
:102ED00000F06EFF08B1FFF73BF93868401C38601E
:102EE00001284FD056E00592149005A800F060FF2D
:102EF00008B1FFF72DF93868401C3860012807D168
:102F0000E06C40F40050E064E06C00F40050169077
:102F1000E06C40F00400E064E06C00F00400169007
:102F2000E06C40F00200E064E06C444600F0020017
:102F300016900F208DE831006946484600F010FDDC
:102F400041F201008DE831006946504600F008FD6D
:102F50002F4C2E4820600520C4E901058020C4E9DB
:102F60000350400060618000C4E9060520462562E8
:102F700000F0FEFA08B1FFF7EBF87465A66218B02E
:102F8000BDE8F087E06C40F40050E064E06C00F4D1
:102F900000501690E06C40F00100E064E06C00F03E
:102FA00001001690E06C40F00400E064E06C00F07A
:102FB00004001690E06C40F00200E064E06C4446CF
:102FC00000F002001690C3208DE8310069464FF0F2
:102FD000904000F0C5FC20208DE83100694648464D
:102FE00000F0BEFC40F604008DE831006946504612
:102FF00000F0B6FCC3E70000000000200008004815
:103000000004004800100240000100500800024087
:10301000C00300202DE9F041044634481746884695
:10302000806800F01F05206802F09DFB00285AD13F
:1030300094F85800012856D0012084F85800002642
:1030400025B1052D02D0092D00D003E02046FEF762
:10305000C9FF18B184F85860BDE8F081E06D40F612
:103060000161884340F48070E0652149206888420E
:1030700002D14FF0A04100E00146814200D01DB9CD
:10308000E06D20F48010E065E06DC00404D5206E92
:1030900020F00600206600E02666616D1548C862D3
:1030A000616D15480863616D1448486321681C20F0
:1030B000086084F858602068416841F01001416060
:1030C0002068C16841F00101C16021683B46424669
:1030D0004031606D00F0ACFA21688A68084B1A40F4
:1030E000121D8A60B8E70220B6E700000003005016
:1030F00000010050571F0008D91F0008BF1F00081B
:10310000C0FFFF7F2DE9F04790460D4604004FF0C9
:10311000000A0FD075B1607901280ED04FF0010977
:1031200084F8059002202071A96808F0100604298F
:1031300005D04AE00120BDE8F0870220FBE700F05F
:1031400039FD07465FEA08004FF0030809D022E086
:1031500000F030FDC01B012803D92068406B00043B
:1031600011D42068406B0004F2D42168686A0864B6
:1031700018E000BF00F01EFDC01B01280BD920681D
:10318000406B002807DA206940F00800206184F8CD
:1031900004800320CFE72068406B0028EADB216829
:1031A000686A48642068816C40F2FF32B240914303
:1031B000AA6AB240114381642068C16CFF22B24008
:1031C0009143EA6AB2401143C164E869012808D119
:1031D0002268916B1F20B0408143286AB0400843A9
:1031E00090632068C06B0721B1408843A969012919
:1031F00003D0022957D06969F1B300216B69AA682D
:103200001A430A434FF4807101FA06F398432B796D
:10321000012B00D0002111434FF4007202FA06F393
:1032200098436B79012B00D0002220F44047286896
:1032300042EA0108022838D057EA0007216808FA54
:1032400006F03843C863206801684FF48042B240FA
:10325000914301602268116840F6FE70B0408143DE
:10326000E868B0400843106020680168C022B2409E
:1032700091430160287B00E015E0297CC0F38300C6
:1032800001F03C0140EA811021680A6E40F60F739C
:10329000B3409A43B04002430A6684F80490002089
:1032A0006071504647E70121A8E700F0B3FF0649E7
:1032B000884202D947F40047C0E704498842BDD993
:1032C00047F48047BAE700000068890900B4C404E5
:1032D00070B5040003D02079002510B105E001206D
:1032E00070BD6571204600F007F80220207125614D
:1032F00001202071002070BD10B586B00446142155
:103300006846FDF77CF91149206888421BD11048B6
:10331000C16C41F48031C164C16C01F4803105910C
:10332000C16C41F00101C164C06C694600F001004C
:1033300005901020009003200190002002904FF093
:10334000904000F00DFB06B010BD000000080050DA
:1033500000100240F8B5A8B14279012A14D0012228
:1033600042710223037105682F6801F0100402FA0C
:1033700004F637432F60154D154E2D68B5FBF6F555
:103380006D1C04E00120F8BD0220F8BD6D1E009503
:10339000002DFBD1002901680ED00D68A34005F473
:1033A00078159D4203D14B6843F002034B600271D4
:1033B000002141710846F8BD0B68C3F34403012B9B
:1033C000F5D14B6843F00103F0E700001000002046
:1033D000400D030010B590F8253000210122022B8A
:1033E00003D00421C163012122E003681C6824F09A
:1033F0000E041C60836C1C6824F480741C600368D9
:103400001C6824F001041C6090F84430046C03F044
:103410001F0302FA03F36360D0E913345C60436D69
:1034200033B11C6824F480741C60D0E916345C60ED
:1034300080F82520002280F82420084610BD70B5B1
:1034400090F82520002401212346022A07D00422D7
:10345000C26380F8251080F82430012429E0026836
:10346000156825F00E0515600268156825F0010540
:103470001560826C156825F48075156090F84420FD
:10348000056C02F01F0201FA02F26A60D0E913250E
:103490005560426D32B1156825F480751560D0E92C
:1034A0001625556080F8251080F82430816B01B115
:1034B0008847204670BDF0B4016C0C6801680D6847
:1034C00090F8442002F01F06042202FA06F3234279
:1034D00011D06B070FD50B689B0603D40B6823F044
:1034E00004030B6090F8441001F01F018A40016C46
:1034F0004A60016B1DE0022303FA06F727424FF0F2
:10350000000C4FF0010218D0AF0716D50C68A406C6
:1035100005D40C6824F00A040C6080F8252090F88B
:10352000441001F01F018B40016C4B6080F824C0F7
:10353000C16A00291AD0F0BC08470823B3402342CF
:1035400014D02B0712D50B6823F00E030B6090F8F4
:103550004410036C01F01F0102FA01F15960C263CB
:1035600080F8252080F824C0416BE2E7F0BC70476A
:1035700070B504000CD02B4A21681420914209D266
:10358000294A0A44B2FBF0F08000606427480AE050
:10359000012070BD234A52420A44B2FBF0F0800081
:1035A0006064204808382064022084F825000A68F6
:1035B00047F6F0708243D4E902031843D4E9043596
:1035C0002B431843A3691843E3691843236A18433C
:1035D000104308602046FEF769FDA0680025B0F59D
:1035E000804F00D16560A16C20790860D4E9130197
:1035F00041606068401E032808D82046FEF776FD2B
:10360000606D0560D4E91601416002E06565A5655D
:10361000E565E563012084F8250084F82450002046
:1036200070BD000008040240F8FFFDBF000002402A
:1036300070B5044690F82400002501280CD0012024
:1036400084F8240094F825600020012E06D084F828
:1036500024000225284670BD022070BD022684F891
:103660002560E0632068066826F0010606602046B3
:10367000FEF74EFD206B00282068016802D041F063
:103680000E0106E021F0040101602068016841F0AC
:103690000A010160A06C0168C90303D5016841F407
:1036A00080710160606D18B1016841F48071016042
:1036B0002068016841F001010160CBE770B5044664
:1036C00000F078FA0546601C02D0044840680444C3
:1036D00000F070FA401BA042FAD370BD0400002035
:1036E0002DE9F041040006D0DFF8E88194F85C0091
:1036F000002518B107E00120BDE8F08184F85D5095
:10370000204600F0EFF82068816921F01001816106
:1037100000F050FA0646032705E000BF00F04AFA21
:10372000801B0A2811D8206880690007F6D4206819
:10373000816941F00101816100F03CFA06460BE02D
:1037400000F038FA801B0A2806D9206E40F00100EC
:10375000206684F85C70CEE720688069C007EFD0EF
:103760002068816941F0020181612168414502D1EF
:10377000594960680860207C01282068816937D039
:1037800041F040018161607C01282068816932D06C
:1037900021F480418161A07C0128206881692DD0BD
:1037A00041F48051816120688169A26821F44071EF
:1037B000114381612068816921F0A4018161206841
:1037C000016921F010010161E068012819D010B3EE
:1037D00002281BD02068816941F080018161206846
:1037E000016941F010010161E06803280ED012E088
:1037F00021F04001C6E741F48041CBE721F480513C
:10380000D0E72068816941F0040103E02068816904
:1038100041F020018161207EE26940066FF0FF01E6
:1038200001EB0222A0F100701043226AA38A521E0B
:1038300010430A0202EB034318432368D861A068CF
:10384000B0F5407F10D1D4E90A0301EB0321401EFB
:103850000843216B131303EB01110843A18C02EB06
:10386000014108432168C860206850F8C01FE26B1E
:103870001143016019482064216851F8802FA38EFC
:1038800022F4F81242EA03420A601449703161647A
:10389000216851F8802F94F8383022F0706242EAA3
:1038A00003620A600D49B031A1640D49E1640C491D
:1038B000D83121650A49F031616500F5547120C0A5
:1038C0008842FCD3A5652566012084F85C000020B1
:1038D00012E70000006400400065004000A40040C2
:1038E00088A5004010B598B00446142111A8FCF733
:1038F00086FE44216846FCF782FE1749206888420C
:1039000028D18014009040030C90684600F050FAD3
:1039100008B1FEF71DFC1148816D41F00071816511
:10392000816D01F000711691C16C41F00101C1641B
:10393000C06C11A900F0010016904FF4C050119016
:103940000220129000201390149009201590C006B8
:1039500000F006F818B010BD0064004000100240EE
:103960002DE9F04FDFF82092002301260324A9F16E
:10397000040B85B00F2709F1040AABF1040EFAE03D
:1039800006FA03F52A407CD091F804C00CF0030C31
:10399000BCF1010F02D0BCF1020F26D1D0F808C053
:1039A000CDF800C04FEA430C04FA0CF8CDF810C073
:1039B000DDF800C02CEA080CCDF800C0D1F80C806E
:1039C000DDF810C008FA0CF8DDF800C048EA0C0871
:1039D000C0F80880D0F804C02CEA050C0D79C5F3B6
:1039E00000159D4045EA0C0545600D79ED43AD0796
:1039F0000ED0C5684FEA430804FA08FC25EA0C0516
:103A0000D1F808C00CFA08FC4CEA050CC0F80CC050
:103A10000D7905F00305022D16D1DD0800EB850CAC
:103A2000CDF808C0DCF820805D074FEAD56C07FAB6
:103A30000CF528EA05080D6905FA0CF5DDF808C053
:103A400045EA0805CCF8205005684FEA430CCDF84C
:103A500008C004FA0CFC25EA0C0591F804C00CF02F
:103A60000308DDF808C008FA0CF848EA0508C0F8B1
:103A700000804D6815F4403F7CD0444DD5F860C0BF
:103A800000E077E04CF0010CC5F860C02D6E23F02B
:103A9000030C05F0010500953D4D65440295AD68A8
:103AA0004FEA837C4FEA1C7807FA08FC25EA0C05EC
:103AB000B0F1904F06D0DFF8DCC0604505D14FF083
:103AC000010C20E04FF0000C1DE0DFF8CCC0604599
:103AD00002D14FF0020C16E0DFF8C0C0604502D101
:103AE0004FF0030C0FE0DFF8B8C0604502D14FF093
:103AF000040C08E0DFF8ACC0604502D14FF0050CC3
:103B000001E04FF0060C0CFA08FC4CEA050C029D93
:103B1000C5F808C0D9F80050CC46D1F804809543C8
:103B20005FEAC82800D51543CCF80050DAF80050F9
:103B3000D446D1F8048095435FEA882800D5154320
:103B4000CCF80050DBF80050DC46D1F804809543F7
:103B50005FEA883800D51543CCF80050DEF80050F5
:103B6000F446D1F8048095435FEAC83800D5154380
:103B7000CCF800505B1C0A6832FA03F57FF400AF02
:103B800005B0BDE8F08F00000804014000100240BD
:103B9000000001400004004800080048000C0048F4
:103BA00000100048001400480AB18161704781622A
:103BB0007047000001488068704700000400002042
:103BC0000248816842681144816070470400002007
:103BD00010B50024032000F073F80F2000F008F85F
:103BE00008B1012401E000F025F8204610BD0000D6
:103BF00070B50E4E05460024706898B14FF47A7186
:103C0000B1FBF0F00A490968B1FBF0F000F066FD85
:103C100040B9102D06D200222946501E00F030F87F
:103C2000356000E00124204670BD00000400002043
:103C3000100000200A4882B0016E41F001010166C7
:103C4000016E01F001010091816D41F080518165AB
:103C5000806D00F08050009002B000F0A1B800002C
:103C600000100240002809DB00F01F0201219140F2
:103C70004009800000F1E020C0F80011704700000A
:103C8000F0B40E4B1B680C46C3F30223C3F10705C7
:103C9000042D00D90425191D072901D2002300E0B5
:103CA000DB1E012606FA05F1491E214099409E407F
:103CB000761E16403143F0BC02F044BF0CED00E02C
:103CC000064900F0070208684FF6FF03184040EA73
:103CD0000220034A10430860704700000CED00E02A
:103CE0000000FA052B492C4B0A6832214A432B4924
:103CF00040B1B0F5007F086829D020F4C06040F4DE
:103D000080602CE00868C0F34120022804D051F8FC
:103D1000800F20F4807022E0D1F8800020F48070C1
:103D2000C1F88000086820F4C06040F400700860AA
:103D3000B2FBF3F0401C00E0401E4A69520501D579
:103D40000028F9D1486940050AD503207047C0F31F
:103D50004120022806D051F8800F40F4807008609E
:103D600000207047D1F8800040F48070C1F88000D6
:103D7000086820F4C06040F400700860B2FBF3F003
:103D8000401C00E0401E4A695205DBD50028F9D1ED
:103D9000D8E700001000002040420F0000700040F3
:103DA0000248816841F480418160704700700040A2
:103DB0002DE9F8430446006800269D4D00035ED5BA
:103DC000A86D0027C00008D4A86D40F08050A865F9
:103DD000A86D012700F080500090DFF85892D9F8C4
:103DE000001041F48071C9F80010FFF7E3FE80462F
:103DF00006E000BFFFF7DEFEA0EB080002282BD88C
:103E0000D9F80000C005F5D5D5F8900010F4407041
:103E100014D0216C814211D0D5F89000D5F89010C3
:103E200020F4407041F48031C5F89010D5F890101E
:103E300021F48031C5F89010C5F89000C00711D06A
:103E4000FFF7B8FE804641F2883907E0FFF7B2FE7F
:103E5000A0EB0801494501D903260BE0D5F89000F5
:103E60008007F3D5D5F89000216C20F4407008430A
:103E7000C5F890001FB1A86D20F08050A86520788B
:103E8000C00707D0D5F88800616820F00300084318
:103E9000C5F888002078800707D5D5F88800A16884
:103EA00020F00C000843C5F888002078400707D5AB
:103EB000D5F88800E16820F030000843C5F8880094
:103EC0002078000707D5D5F88800216920F0C000C8
:103ED0000843C5F888002078800607D5D5F8880003
:103EE000616920F440600843C5F8880020784006E6
:103EF00007D5D5F88800A16920F440500843C5F8DB
:103F000088002078000607D5D5F88800E16920F4FC
:103F100040400843C5F888002088C00507D5D5F87B
:103F20008800216A20F440300843C5F888002088C2
:103F3000800507D5D5F88800616A20F44020084341
:103F4000C5F88800208840050FD5D5F88800A16AFB
:103F500020F440100843C5F88800A06AB0F5801F1F
:103F600003D1E86840F48010E860208800050FD590
:103F7000D5F88800E16A20F440000843C5F88800BD
:103F8000E06AB0F5800F03D1E86840F48010E86083
:103F90002088C0040FD5D5F88800216B20F0407030
:103FA0000843C5F88800206BB0F1807F03D1E86832
:103FB00040F48010E86020884FF0006180040ED546
:103FC000D5F88800626B20F040601043C5F8880087
:103FD000606B884203D1E86840F48010E860208874
:103FE00040040ED5D5F88800A26B20F04060104345
:103FF000C5F88800A06B884203D1E86840F48010BF
:10400000E860208800040FD5D5F88800E16B20F027
:1040100040500843C5F88800E06BB0F1805F03D1E1
:10402000E86840F48030E8603046BDE8F88300007E
:1040300000100240007000402DE9F0470E460500D8
:104040004FF0000725D0DFF8AC81D8F8000000F071
:104050000F00B0420CD2D8F8001021F00F0131430C
:10406000C8F80010D8F8000000F00F00B04210D1DE
:104070002968614CC80741F2883A5AD06868DFF86D
:104080007C91032808D0022820682DD04005002804
:104090002CDB0120BDE8F08720688001F9D5E068BD
:1040A00000F00302E068C0F30310401C032A19D09B
:1040B000534A00BFB2FBF0F0E268C2F3062250435D
:1040C000E268C2F34162521C5200B0FBF2F0484574
:1040D00017D9A06810F0F00F0CD0880711D5A86888
:1040E00040B10EE0474AE5E78003D0E700F0BCF8B6
:1040F000484506D9A06820F0F00040F08000A0609C
:104100008027A068696820F003000843A060FFF7DB
:1041100051FD814606E000BFFFF74CFDA0EB090111
:1041200051453AD8A068696800F00C00B0EB810FE7
:10413000F2D12868810714D5400703D5A06840F460
:10414000E060A0602878000705D5A06820F46050E2
:1041500040F4E060A060A068A96820F0F000084387
:1041600004E0802F03D1A06820F0F000A060D8F810
:104170000010404601F00F01B14216D9016821F04C
:104180000F0131430160FFF715FD074607E000BF4F
:10419000FFF710FDC11B514501D903207AE7D8F87C
:1041A000000000F00F00B042F2D12878400705D59A
:1041B000A068E96820F4E0600843A0602878000760
:1041C00006D5A068296920F4605040EAC100A060CB
:1041D00000F04AF8A1680C4AC1F30311515C01F0E8
:1041E0001F01C8400949086009480068BDE8F04758
:1041F000FFF7FEBC002002400010024000B4C404DF
:104200000024F40000366E01D2AB0008100000203C
:1042100004000020014800687047000010000020E2
:104220000548064900688968054AC1F30221515CC6
:1042300001F01F01C840704710000020001002402C
:10424000E2AB00080548064900688968054AC1F3E1
:10425000C221515C01F01F01C840704710000020CE
:1042600000100240E2AB0008184910B58868C0F39E
:1042700081021748012A0BD08A68164BC2F38102CB
:10428000022A06D08A68C2F38102032A03D00020E2
:1042900010BD184610BDCA6802F00304CA68C2F314
:1042A0000312521C032C02D0B0FBF2F001E0B3FB6E
:1042B000F2F0CA68C968C2F306225043C1F34161F3
:1042C000491C4900B0FBF1F010BD00000010024095
:1042D0000024F40000366E012DE9F84304007AD082
:1042E0002078F84DC00747D0A868E96800F00C00B6
:1042F00001F003010C2802D0082817D001E003299F
:1043000014D06068B0F5803F17D0B0F5A02F2868B2
:1043100017D020F480302860286820F4802028609E
:104320006068E0B1FFF746FC064614E028688003A9
:1043300022D560680028D2D01EE0286840F4803082
:10434000EDE740F480202860F7E700BFFFF732FC7C
:10435000801B642870D828688003F7D50CE0FFF72D
:1043600029FC064605E000BFFFF724FC801B6428FB
:10437000F0D828688003F7D4207880074CD5A86847
:10438000E96800F00C0001F003010C2802D00428B9
:104390000DD001E002290AD0E068002828682BD05F
:1043A00040F480702860FFF705FC064619E0286895
:1043B000400502D5E068002891D06868217C20F093
:1043C000FE4040EA01606860BF480068FFF710FCEB
:1043D000002800D120E072E1FFF7ECFB801B0228EF
:1043E000B8D828684005F7D56868217C20F0FE40E1
:1043F00040EA016068600FE020F480702860FFF7F9
:10440000D9FB064605E000BFFFF7D4FB801B02285E
:10441000A0D828684005F7D42078000729D560691E
:104420000028D5F8940013D040F00100C5F894009E
:10443000FFF7C0FB064606E090E000BFFFF7BAFBBF
:10444000801B022886D8D5F894008007F6D510E0A6
:1044500020F00100C5F89400FFF7ACFB064604E02D
:10446000FFF7A8FB801B022878D8D5F894008007B6
:10447000F6D42078400761D5A86D0026C00008D486
:10448000A86D40F08050A865A86D012600F080500E
:1044900000908E480168C90511D40168804641F436
:1044A00080710160FFF786FB074604E0FFF782FB9F
:1044B000C01B022852D8D8F80000C005F6D5A06865
:1044C000012815D00528D5F8900016D020F001005D
:1044D000C5F89000D5F8900020F00400C5F89000D1
:1044E000A06841F28838B8B1FFF764FB07460EE0D8
:1044F000D5F8900040F00100F0E740F00400C5F866
:104500009000F5E7FFF756FBC11B414526D8D5F8CB
:1045100090008007F6D50CE0FFF74CFB074604E05F
:10452000FFF748FBC11B414518D8D5F8900080071C
:10453000F6D41EB1A86D20F08050A86520788006C2
:1045400029D5A0690028D5F8980013D040F00100C3
:10455000C5F89800FFF72EFB064606E075E000BFA1
:10456000FFF728FB801B02286FD8D5F8980080073A
:10457000F6D510E020F00100C5F89800FFF71AFB0F
:10458000064604E0FFF716FB801B02285DD8D5F82D
:1045900098008007F6D4E069F0B3A968C1F38101FF
:1045A00003295DD00228286820F08070286003D09D
:1045B000FFF700FB04464BE0FFF7FCFA064604E079
:1045C000FFF7F8FA801B02283FD828688001F7D44B
:1045D000F4E908016FF00F0202EB01110843218A90
:1045E0005204490802EB4151A26841EA0221084302
:1045F000217D4FF07E42490802EB41610843217B57
:1046000040EAC160E968324A11400843E86028681E
:1046100040F08070286000E05EE0E86840F0807064
:10462000E860FFF7C7FA044605E000BFFFF7C2FAEB
:10463000001B022809D828688001F7D54CE000BF8C
:10464000FFF7B8FA001B022802D90320BDE8F8835F
:1046500028688001F4D4E8681E490840E8603BE01F
:104660000128F3D0E868226A00F00301914226D1C4
:10467000616A00F0F0020901103991421FD1A26A6B
:1046800000F4FE41B1EB022F19D194F82C2000F078
:104690007841B1EBC26F12D1218E00F4C0024908FB
:1046A0004905A1F50011914209D194F8341000F0A8
:1046B000C06049084906A1F1007181420CD0012077
:1046C000C4E7000000100240040000200070004019
:1046D0000C809F01FCFFEEFE0020B7E710B5401EE6
:1046E000B0F1807F01D3012010BD4FF0E024606164
:1046F0000F21601702F026FA0020A0610720206138
:10470000002010BD30B590F83C20012A42D0012293
:1047100080F83C20CA688B6822F440721A434B68C8
:1047200022F480621A430B6822F400621A430B6978
:1047300022F480521A434B6922F400521A430B6B45
:1047400022F480421A430B8B22F4702242EA034285
:10475000CB6922F080521A430F4D03680024AB420C
:1047600002D00E4DAB4210D10D8D22F4700242EA00
:1047700005520D6A22F080722A434D6A22F00072BF
:104780002A43C96A22F000520A435A6480F83C4026
:10479000002030BD022030BD002C0140003401401B
:1047A00070B5054690F83C000C4601281CD001204D
:1047B00085F83C00D4E90021A368286801F048FC92
:1047C000D4E9040101432868826D237B22F0E602CC
:1047D000012B0BD000231A43114341F001018165E5
:1047E000002085F83C0070BD022070BD2023F2E758
:1047F000F0B590F83C20012A3AD0012580F83C50D1
:10480000022280F83D2003685A689C68194E1A4FAE
:10481000B34201D0BB4204D122F4700C4A6842EA90
:104820000C02DFF858C002EA0C02D1F800C04CEAD2
:10483000020CC3F804C00268B2420DD0B2F1804F3E
:104840000AD00F4B9A4207D00E4B9A4204D0BA427C
:1048500002D00D4B9A4204D1896824F08003194399
:10486000916080F83D50002180F83C100846F0BD72
:104870000220F0BD002C0140003401408FFFFFFDFD
:1048800000040040000800400040014010B504460C
:10489000022249B104290ED0082913D094F8470008
:1048A000012816D0012010BD94F844000128F9D148
:1048B00084F844200FE094F845000128F2D184F8F0
:1048C000452008E094F846000128EBD184F8462002
:1048D00001E084F847200422206801F0ACFB206846
:1048E000416C41F4004141641049206888420ED077
:1048F000B0F1804F0BD00E49884208D00D49884254
:1049000005D00D49884202D00C49884207D1816800
:104910000B4A1140062906D0B1F5803F03D001684B
:1049200041F001010160002010BD0000002C014099
:1049300000040040000800400034014000400140F5
:104940000700010010B5040003D094F83D0010B139
:1049500007E0012010BD002084F83C00204600F054
:1049600023F8022084F83D00211D206801F0F8FAA8
:10497000012084F8480084F83E0084F83F0084F861
:10498000400084F8410084F8420084F8430084F831
:10499000440084F8450084F8460084F8470084F811
:1049A0003D00002010BD000008B50C4A01680C480D
:1049B000914207D1016E41F400610166006E00F47E
:1049C000006009E0074A914207D1016E41F40051AD
:1049D0000166006E00F40050009008BD002C0140FC
:1049E000001002400034014070B5044690F83C00CD
:1049F0000025012814D0012684F83C60022084F8A8
:104A00003D0022689068364B184020F47F4090604B
:104A1000086870282ED010DC10F00F0F03D021E0B2
:104A20004FF0020070BD4FEA2012072A1AD2DFE8C9
:104A300002F0525252524A3840002A4BC21A98424F
:104A400049D009DCB0F5805F0DD0B0F5005F1CD017
:104A5000B0F1101F06D13EE0102A3CD0202A3AD0F7
:104A6000502A38D0012584F83D60002084F83C00AD
:104A7000284670BDCB68D1E90121206801F0E8FA31
:104A80002068816841F0770109E0CB68D1E9012114
:104A9000206801F0DDFA2068816841F4804181607E
:104AA000E1E7CA684968206801F07CFC5021206871
:104AB00006E0CA684968206801F085FC602120682A
:104AC00001F0D0FACFE7CA684968206801F06AFCB3
:104AD00040212068F4E7226801461046F0E7000014
:104AE00088FFCEFF200010002DE9F0410D460400A4
:104AF00003D094F83D0018B108E00120BDE8F08132
:104B0000002084F83C00204600F042F8022084F89F
:104B10003D00206881681D4A11408160211D206888
:104B200001F01EFA226890689169166A2B68AF69D5
:104B3000034340F20330814341EA0721A868EF694B
:104B400008434FF6FC418843E96840EA07200143E7
:104B500028692F6A000140EA0730084369686D69D7
:104B600026F0AA0646EA051529439360226890615B
:104B700054F8480B0162012004F81F096075A07504
:104B8000E076207720750020B8E70000F8BFFEFF30
:104B900070B586B0044614216846FBF730FD244A00
:104BA0002068002523490224234E904222D1886D9B
:104BB00040F002008865886D00F002000590C86C26
:104BC00040F00800C864C86C00F008000590C86C8C
:104BD00040F00200C864C86C694600F0020005900D
:104BE00004208DE83100CDE903541448FEF7B8FEE7
:104BF000302013E0124A904218D1886D40F0040032
:104C00008865886D00F004000590C86C40F00200D3
:104C1000C864C86C00F002000590C8208DE831001F
:104C2000CDE9035469463046FEF79AFE06B070BDE2
:104C3000000400400010024000040048000C00483E
:104C40000008004070B590F83E60044690F83F5070
:104C500090F8443090F84520022021B104290ED06C
:104C6000012E1BD114E0012E18D1012B16D184F88E
:104C70003E0084F8440001220021206820E0012D3C
:104C80000CD1012A0AD184F83F0084F8450014E0D1
:104C9000012D03D1012B01D1012A01D0012070BDCA
:104CA00084F83E0084F83F0084F8440084F845000E
:104CB00001220021206801F0B1F9012204212068BD
:104CC00001F0ACF92068016841F0010101600020A9
:104CD00070BD00002DE9F04186B0044614216846FD
:104CE000FBF78DFC294A2168002429480225042667
:104CF000914232D1C16C41F00201C164C16C01F03A
:104D000002010591C16C41F00101C164C06C06272C
:104D100000F0010005904FF4C0400090CDE901542F
:104D2000DFF87080CDE9034769464046FEF718FE7C
:104D3000A8030090CDE90154CDE9034669464046F9
:104D4000FEF70EFE4FF4E0600090CDE90154CDE98E
:104D5000034769464FF0904013E00F4A914212D149
:104D6000C16C41F00401C164C06C694600F00400EC
:104D700005904FF4EE500090CDE90154CDE9034683
:104D80000648FEF7EDFD06B0BDE8F081002C0140BD
:104D900000100240000400480034014000080048B0
:104DA00070B5044690F83C00002501280BD0012086
:104DB00084F83C000C2A1ED007DC82B1042A12D0F1
:104DC000082A06D113E0022070BD102A17D0142A39
:104DD00019D00125002084F83C00284670BD2068C9
:104DE00001F04AF9F6E7206801F094F9F2E720684B
:104DF00001F0D8F9EEE7206801F01CFAEAE7206834
:104E000001F060FAE6E7206801F094FAE2E710B5F5
:104E1000040003D094F83D0010B107E0012010BD5C
:104E2000002084F83C00204600F022F8022084F89C
:104E30003D00211D206801F093F8012084F848000E
:104E400084F83E0084F83F0084F8400084F8410074
:104E500084F8420084F8430084F8440084F8450054
:104E600084F8460084F8470084F83D00002010BD17
:104E7000704770B5044690F83C0000260D460128A6
:104E80000BD0012084F83C000C2A4AD007DC82B108
:104E9000042A20D0082A06D131E0022070BD102A51
:104EA00053D0142A63D00126002084F83C003046F9
:104EB00070BD206801F0E0F82068816941F00801C8
:104EC00081612068816921F0040181612068816924
:104ED0002A69114311E0206801F01CF920688169FA
:104EE00041F4006181612068816921F48061816100
:104EF000206881692A6941EA02218161D4E720683A
:104F000001F050F92068C16941F00801C1612068D1
:104F1000C16921F00401C1612068C1692A69114396
:104F200011E0206801F086F92068C16941F4006150
:104F3000C1612068C16921F48061C1612068C169D3
:104F40002A6941EA0221C161AEE7206801F0BAF99D
:104F50002068016D41F0080101652068016D21F0B4
:104F6000040101652068016D2A69114311E0206880
:104F700001F0E0F92068016D41F4006101652068ED
:104F8000016D21F4806101652068016D2A6941EAA3
:104F90000221016588E710B5040003D094F83D00B4
:104FA00010B107E0012010BD002084F83C0020462D
:104FB00000F022F8022084F83D00211D206800F056
:104FC000CFFF012084F8480084F83E0084F83F00B9
:104FD00084F8400084F8410084F8420084F84300DB
:104FE00084F8440084F8450084F8460084F84700BB
:104FF00084F83D00002010BD7047000030B5044625
:10500000022269B1042912D0082917D00C291CD01A
:10501000102921D094F84300012824D0012030BD6C
:1050200094F83E000128F9D184F83E201DE094F860
:105030003F000128F2D184F83F2016E094F84000A8
:105040000128EBD184F840200FE094F841000128BA
:10505000E4D184F8412008E094F842000128DDD131
:1050600084F8422001E084F843200122206800F007
:10507000D5FF194B20681949194A984209D088422E
:1050800007D0904205D0174DA84202D0164DA84235
:1050900003D1456C45F400454564206898420CD026
:1050A000B0F1804F09D0114B984206D0104B984276
:1050B00003D0884201D0904207D181680D4A114047
:1050C000062906D0B1F5803F03D0016841F0010107
:1050D0000160002030BD0000002C01400034014080
:1050E00000400140004401400048014000040040ED
:1050F000000800400700010090F88410012918D032
:10510000012180F884102421C0F8881001680A6801
:105110000B6823F001030B6022F00051002242666D
:10512000036819602021C0F8881080F88420104698
:105130007047022070477047704770B5044690F87A
:10514000840001281DD0012084F884002420C4F8A4
:10515000880020680568026822F001020260206869
:10516000826822F060620A438260204601F03EF9C4
:10517000206805602020C4F88800002084F884009E
:1051800070BD022070BD70B5044690F884000128FF
:105190001DD0012084F884002420C4F888002068F1
:1051A0000568026822F0010202602068826822F02D
:1051B00060420A438260204601F018F920680560C9
:1051C0002020C4F88800002084F8840070BD0220EC
:1051D00070BD7047704770472DE9F0410368044681
:1051E000D86919689A6840F60F0528424FF0000503
:1051F0004FF002060AD187067ED501F0200702F0A3
:10520000805C57EA0C0777D0616F42E1B64FDFF858
:10521000DCC2174001EA0C0C57EA0C0C6CD05FEAB8
:10522000C07C0CD05FEAC15C09D54FF0010CC3F81B
:1052300020C0D4F8903043F00103C4F890308307C5
:1052400009D5D30707D023681E62D4F8903043F005
:105250000403C4F8903043070AD5D30708D0266862
:1052600004233362D4F8903043F00203C4F8903042
:1052700003070CD501F020033B4308D02668082320
:105280003362D4F8903043F00803C4F8903003053B
:105290000BD54B0109D526684FF400633362D4F86F
:1052A000903043F02003C4F89030D4F89030002BB5
:1052B0003DD0800609D501F0200002F0805108435E
:1052C00003D0616F09B120468847D4F89000216867
:1052D0008968490602D410F0280F2AD0204601F030
:1052E000E5F92068806840061ED52068083050E83F
:1052F000001F21F0400100E021E040E80012002AF8
:10530000F3D1D4F8800078B179498163D4F8800072
:10531000FEF795F800280AD0D4F88000816B00E0F1
:105320002046BDE8F04108472046FFF754FFBDE89E
:10533000F0812046FFF74FFFC4F89050F7E7D4F80C
:105340006CC02027BCF1010F7ED15FEAC06C7BD519
:105350005FEAC16C78D5102018622068806840062A
:1053600051D5D4F880100A6850680004000C3ED073
:10537000B4F85C3083423AD9A4F85E00086800684B
:1053800080062CD4216851E8000F20F4807041E899
:105390000002002AF6D12068083050E8001F21F0F2
:1053A000010140E80012002AF5D12068083050E8D9
:1053B000001F21F0400140E80012002AF5D1C4F896
:1053C0008C70E566216851E8000F20F0100041E87C
:1053D0000002002AF6D1D4F88000FDF7FBFF266713
:1053E000B4F85C00B4F85E10401A81B207E0B4F87B
:1053F0005C1081429BD11068800698D526672046B4
:10540000FFF799FE93E7B4F85C00B4F85E10401A19
:1054100081B2B4F85E00002889D0002987D02268C4
:1054200052E8000F20F4907042E80003002BF6D100
:105430002D4BDB432068083050E8002F1A4040E82D
:10544000002CBCF1000F00E00EE0F3D1C4F88C702A
:10545000E5666567206850E8002F22F0100240E8FA
:105460000023002BF6D1C9E7C60209D5560207D59D
:105470004FF4801018622046BDE8F041FFF7AABE45
:1054800003060AD501F0800302F40002134304D09E
:10549000A16F00297FF444AF49E7420611D54A06BF
:1054A0000FD52046016851E8002F22F0400241E864
:1054B0000023002BF6D1C0F88870856700F03DF915
:1054C00035E7020206D54A0004D52046BDE8F04182
:1054D000FFF77FBEC00195D5002993DA2046BDE8CD
:1054E000F041FFF729BE0000010000102001000478
:1054F000A565000810B5040003D0D4F8880010B1E9
:1055000007E0012010BD002084F88400204600F050
:1055100027F82420C4F888002068016821F00101E0
:105520000160A06A10B1204600F082FF204601F021
:10553000FFF80128E6D02068416821F490414160DD
:105540002068816821F02A0181602068016841F0AB
:10555000010101602046BDE8104000F0CDBF000011
:1055600070B598B00646142111A8FBF748F84421FD
:105570006846FBF744F825493068884244D1022444
:105580000025684602950094FEF712FC08B1FCF76E
:10559000DFFD1F49886D40F400308865886D00F498
:1055A00000301690C86C40F00100C864C86C11A9A6
:1055B00000F0010016900C2081E831000720CDE9B1
:1055C00014504FF09040FEF7CBF9134C1148206077
:1055D0001A20C4E901058020C4E903502020656138
:1055E000C4E9065020462562FDF7C2FF08B1FCF76A
:1055F000AFFDC6F88040002211462620A662FEF7C5
:105600003FFB2620FEF72EFB18B070BD0044004083
:10561000001002401C0002402004002030B4D0F8EA
:105620008C30202B02D0022030BC7047A9B1A2B12F
:105630000023C3660A4C0368A3420BD05B681B02BD
:1056400008D5046854E8003F43F0806344E800351F
:10565000002DF6D130BC01F0A5B90120E4E700002F
:105660000080004000680349884201D103F05ABC21
:10567000704700000044004000680349884201D19F
:1056800003F050BC70470000004400402DE9F8438F
:105690000446D0F88800984616460D46202802D0C9
:1056A0000220BDE8F883A5B19EB10020C4F89000A7
:1056B0002120C4F888001834FEF77CFAA6878146BA
:1056C000E68754F8100C2027183CB0F5805F02D014
:1056D00003E00120E5E7206910B12E46002510E027
:1056E00000260EE08021204601F0B0F9C0B9DEB1FD
:1056F00016F8010B21688862B4F85600401EA4F821
:105700005600B4F856004B464FF00002CDF800802A
:105710000028E7D14FF04001204601F097F940B151
:10572000C4F888700320BCE735F8020BC0F308000A
:10573000E0E7C4F888700020B3E77047FEE700EBAD
:105740008100006E00F0F840704700EB8100006EB1
:1057500000F0F84070478068C0F3C0007047806870
:10576000C0F3C00070478068C0F380007047806855
:10577000C0F380007047C06810F4406F01D0002073
:10578000704701207047042303EAD15310B5184431
:105790004369C1F3045107248C40A3438A40134357
:1057A000436110BD042303EAD15310B51844436983
:1057B000C1F3045107248C40A3438A40134343613F
:1057C00010BD00EB8100016E21F000411143016624
:1057D000704700EB8100016E21F00041114301662A
:1057E000704700002DE9F0419AB0002417941894F6
:1057F00020210FA81994FAF702FF3C216846FAF716
:10580000FEFE3D484FF0A041042501604FF44031B9
:10581000C0E9011485614FF00108C460C0E9044883
:1058200004774477C0F8208080F82440C462046381
:1058300080F83840C46380F84040FDF72DFA08B185
:1058400072B6FEE717A92C481794FCF7A3FF08B11E
:1058500072B6FEE7294E10A906207F270F9681E831
:105860009100CDE913540FA92348FCF7FFFF08B1BD
:1058700072B6FEE7CDE904540920CDE90060089531
:10588000CDE9028780208DF824408DF825400A90CC
:105890000B908DF826408DF8304069461648FCF78D
:1058A00059FC08B172B6FEE71548009040F20F109F
:1058B000019069461048FCF74DFC08B172B6FEE74E
:1058C0001048009040F21520019069460A48FCF704
:1058D00041FC08B172B6FEE70B48009040F21B3065
:1058E000019069460448FCF735FC002801D072B6E7
:1058F000FEE71AB0BDE8F081AC000020400020199E
:105900008000501D000180210002B0252DE9F041EA
:1059100098B020210FA8FAF772FE3C216846FAF7EA
:105920006EFE3B483949002401604FF44031C0E924
:105930000114042585610126C460C0E9044604778A
:105940004477066280F82440C462046380F83840DB
:10595000C46380F84040FDF79FF908B172B6FEE7D6
:10596000DFF8B08010A906207F27CDF83C8081E8C1
:105970009100CDE913540FA92548FCF777FF08B132
:1059800072B6FEE7CDF80080CDE9045401A90920E4
:10599000089581E8C10080208DF824408DF82540CD
:1059A0000A900B908DF826408DF8304069461848D3
:1059B000FCF7D0FB08B172B6FEE71748009040F242
:1059C0000F10019069461248FCF7C4FB08B172B68B
:1059D000FEE71248009040F21520019069460C48FD
:1059E000FCF7B8FB08B172B6FEE70D48009040F234
:1059F0001B30019069460648FCF7ACFB002801D03B
:105A000072B6FEE718B0BDE8F0810000000100505A
:105A10001801002002003004040060080800900C07
:105A20001000C010104810B50E49016000214160FF
:105A30008160C1600174417481741022426101224D
:105A40008261C261026242628262C262C0E90C216A
:105A50008163C163FDF744FE002801D072B6FEE702
:105A600010BD000000640040980100202DE9F041C5
:105A700086B014216846FAF7C2FD2B48C16C41F08C
:105A80000401C164C16C01F004010591C16C41F0D5
:105A90002001C164C16C01F020010591C16C41F08D
:105AA0000101C164C16C01F001010591C16C41F0BB
:105AB0000201C164C16C01F002010591C16C41F0A9
:105AC0000801C164C06C4FF0904700F008000590D9
:105AD000002220213846FEF767F8DFF850804FF4A7
