:020000040800F2
:1000000068070020D100000875390008733900081E
:1000100000000000000000000000000000000000E0
:100020000000000000000000000000007939000816
:100030000000000000000000773900087B3900084C
:10004000E3000008E3000008E3000008E300000804
:10005000E3000008E3000008E3000008E3000008F4
:10006000E3000008A1060008E3000008E300000820
:10007000E9040008E3000008E3000008E3000008CA
:100080008539000895390008E3000008E3000008FE
:10009000E3000008E3000008E3000008E3000008B4
:1000A000E3000008E3000008E300000899400008AE
:1000B000E3000008E3000008E30000080348854669
:1000C00000F0FAF9004800472141000868070020C5
:1000D0000448804704480047FEE7FEE7FEE7FEE7E6
:1000E000FEE7FEE783390008BD000008F0B51FB445
:1000F0000646002082B005464024019100901BE096
:10010000019922460F46304600F06CF9049A059B8F
:10011000801A994110D310461946224600F052F930
:10012000361A8F410197224601200021009F00F0DE
:1001300049F938184D4100902046641E0028DFDC44
:10014000019B00982946324607B0F0BDD2B201E0CB
:100150000270401C491EFBD270470022F6E710B522
:1001600013460A4604461946FFF7F0FF204610BD25
:10017000F8B502464A40D40F42004B0052085B08D3
:100180009A4202D20246084611464A0023D0C30DC5
:100190004A00DDB2120EAD1A202D35DA49020126D1
:1001A000490AF6058A19002C00D0524220214F1B23
:1001B0001146B9402A411018C20D9A4221D0002C94
:1001C00017D0012D08DCDA05801AD20F8019D2076A
:1001D000DBB200F020F9F8BDDA05801A01234000F7
:1001E0001B06C01880185A428018CA0F10434900D5
:1001F00007E04908C2071143DA05801A8019400850
:10020000801800F000F9F8BD61000122511A001BAE
:10021000F7E70122D2075140AAE70122D207504056
:10022000A6E7024670B54A40D30FDB0740002DD049
:100230004A002AD0010E140E000212020919400AC7
:10024000520A8418E50104465443000A120A2E0497
:100250005043A4194219200CC543AA18120C0125B9
:10026000AD03521C521912047F39240400D0521CD1
:10027000104301D44000491EC2B20C06C009201828
:10028000401C4008802A02D003E0002070BD4008D6
:100290004000002900DA0020184370BD70B5024606
:1002A0004A40D50F40004A00ED0740085208002898
:1002B00014D0002A12D0C40DD30D41020120C00574
:1002C0005202490A520AE41A091812187D3491425E
:1002D00001D3641C00E04900002C01DA002070BD4D
:1002E0000023914201D3891A0343400849000028A2
:1002F000F7D100290AD0914202D10121C90705E0B6
:10030000914201D2012101E00121C943E005C01859
:10031000401900F078F870BD0122D207002800DBF8
:10032000101A002900DB511A814201D801207047C0
:10033000002070470122D207002800DB101A002994
:1003400000DB511A814201D3012070470020704721
:1003500010B500229623114600F05DF810BD410053
:1003600040020122400AD205090E80187F2901DAD5
:1003700000207047962903DC9622511AC840704726
:1003800096398840704770B50446002903D0002094
:100390002022012310E0002801D00020C043C046E5
:1003A000C0460DE02546D5408D4205D30D4695400B
:1003B000641B1D46954040191546521E002DF1DC68
:1003C000214670BD10B5202A04DB0146203A914039
:1003D000002010BD914020239C1A0346E34019439E
:1003E000904010BD10B5202A04DB0846203AD040CA
:1003F000002110BD0B46D340D0402024A21A9140CA
:100400000843194610BD002904DA401C490001D1F7
:1004100040084000704770B40024050C05D110243A
:10042000000402D1002921D01124050E01D10002BF
:100430000834050F01D10001241D850F01D1800072
:10044000A41C002801DB4000641C002908D02025E2
:100450002E1B0D46F540A14000D001212943084341
:1004600001061B1B000ADB1D02D5002070BC704773
:10047000DB05181880180029F8DA401C4900F5D16E
:1004800070BC400840007047420005D04200120E88
:1004900052428A4201DB00207047C90508187047A4
:1004A000C217C10F504010B54018CA07962300214B
:1004B000FFF7B1FF10BD00001CB5094800900948C6
:1004C000019005460126009C05E0E36807CC334314
:1004D0000C3C98471034AC42F7D3FFF7F3FD000013
:1004E000AC4B0008CC4B000880B5024800F0F2FA93
:1004F00080BDC04644000020B0B50146806A836DCF
:10050000826D5024234206D0D20610D4006D426B77
:1005100008469047B0BD01214B021A43826502682C
:10052000D3681B059B0F05D000F0C4FAB0BD00F0E6
:10053000D0FAB0BD837E002BF6D113681B07F3D52C
:1005400093685B070AD40346583354680C25AC43C0
:100550005460FF2402341A68A24306E0826D20230F
:100560001343836503465C33C26D0A431A6000F08F
:10057000A1FAB0BD80B5806A816D40220A438265D0
:10058000C16D04220A43C26500F0A3FA80BD80B5A4
:10059000806A00F09DFA80BD70B5054600688168EC
:1005A00082680024D20726D00222114023D181681C
:1005B00005220A40012A16D181689C4A0A40911CF2
:1005C00081600321016001F073F8064628688068A5
:1005D000C00710D001F06CF8801B0328F6D3286800
:1005E0008068C007F2D0A86D10210143A965E86DAD
:1005F00001242043E865204670BDC046F0B581B0B7
:1006000005460024009400688168C9071AD18168F2
:10061000864A2F32114208D0A86D10210143A965E6
:10062000E86D01242043E8650CE081687F4A1140B1
:100630000127394381607F480068000205D4687E45
:1006400001280FD1204601B0F0BD134800681349BE
:10065000FFF799FE401C009000980028EFD000980A
:10066000401EF8E701F024F8064628680168C9072B
:10067000E8D18168C90704D181686C4A11403943C7
:10068000816001F015F8801B0328EED3286800680C
:10069000C007EAD1C0E7C04604000020400D0300B7
:1006A00080B5024800F0CAFD80BDC046CC000020E5
:1006B000EFF3108072B6FEE7F0B589B0044600266D
:1006C00008965420205C012802D1022009B0F0BD18
:1006D0002546543501272F702046FFF75DFF21681E
:1006E0008B68A26DDB074FD10397049581235B00D4
:1006F0009A43921C0694A265CA68CB68494D1D4076
:10070000CD60494B134001930A46B4320592474CE1
:10071000474D374602968B682340E31818338B60A9
:100720008B68002B06D5089B5B1C0893089BAB428B
:10073000F6D32FE0059A13687F2213409E197F1C81
:10074000082F3A4CE7D117460590886820400122CF
:10075000039210438860F0080A69920F27D10F2294
:100760009204CE4B1B6813409A0C072A1FD3D21E4B
:10077000012393400793079A52080792079A002A89
:1007800015D0079A521EF8E710210A432E70A26571
:1007900009B0F0BD002004990870069A906D1021F0
:1007A0000143022081439165039809B0F0BDB42252
:1007B0008B58BB4303438B50886820400225284355
:1007C000886000F075FF0446069800688168C907D4
:1007D000029E10D1C168019A1143C160069CA06DB0
:1007E00001220243AA430598049DCFE706980068BA
:1007F0008168C907EED000F05BFF001B0328F5D32A
:10080000069800688068C007F0D0069A906D1021A5
:1008100001439165D06D03990843D065084609B03E
:10082000F0BDC046FC7FFFFF03800000E8FFFF7FB4
:1008300000F2020008270140704770477047704778
:10084000F0B587B0002406945422825C012A01D1BD
:100850000222E6E00546543501222A7003689E68AC
:10086000760725D406694A68022A26D10420064361
:100870008848864207D18648C0430A68D24302436B
:10088000986A104098620B680022002B00D4C7E0E1
:1008900082480168834EB34200D1B8E0824EB34231
:1008A00000D1B1E07E4EB34200D0B9E00523AFE005
:1008B000816D20230B438365B2E0059204273E43FC
:1008C000744A964240D10868714A10409A6A0243BD
:1008D0009A6258690E6832029043896811406E4AE4
:1008E0000A4002435A610022002E00D498E0012001
:1008F00005906A4F3B680720800519460490014027
:100900006748864268D10598C0051F460740634F77
:1009100062D116463A68049B9A43114301433960F9
:10092000624800686249FFF72EFD0C2141430C31FB
:1009300006910698002805D00698401E0690069855
:100940000028F9D132466BE01F26059A16400F2287
:1009500000920496B240066E0192964303960A688E
:100960004B4E324202924CD0D207264661D1029EB3
:10097000B20759D4720759D4320759D4F2063E4609
:1009800057D4029EB2066AD472066AD432066AD47A
:10099000F2056AD4029A920569D4029A520568D483
:1009A000029A120567D4029AD20466D4029A92047B
:1009B00065D4029A520464D4029A1204009E38D478
:1009C000029AD2035FD4029A92035ED4029A52032F
:1009D000D217122616402CE03248864203D10598E1
:1009E0000006814206D33048864219D10598800519
:1009F000034015D13B68049EB3431943014339605A
:100A00000EE05200D60E14E00323DB0501E00323C1
:100A10009B05194007239B0506689E4371180160DA
:100A20002C70104607B0F0BD012602E0022600E05F
:100A30000326049FBE40039A16430666059A920851
:100A4000C069904200D844E70198C0439A6A0240C6
:100A500002988000000FB8401043986239E70526DD
:100A6000E7E70626E5E70726E3E70826E1E70926A4
:100A7000DFE70A26DDE70B26DBE70C26D9E70D26A4
:100A8000D7E70E26D5E71026D3E71126D1E7C046D3
:100A9000FFFF07000400008000FFFF070827014058
:100AA000001000B0004000B8002000B40400002096
:100AB000400D030000680449884200D07047034895
:100AC0000168491C01607047002401405803002060
:100AD00070477047F0B585B004460068036802258A
:100AE000194629404A424A41466830462840414218
:100AF0004141114304930DD1A06DC00604D40120DF
:100B0000C002A16D0143A1652046FFF796FE206853
:100B10000560049B012204213140484248415907A5
:100B2000114600D5014657020129039209D1082137
:100B30003140484248411907114600D50146002975
:100B400030D120465830A16DC90602D4016839431E
:100B500001602168CA681205920F1BD1A27E002A8B
:100B600018D10A68120715D58A68520708D44A684E
:100B70000C239A434A60FF2202320168914306E047
:100B8000A06D20210143A16520465C30E16D01226A
:100B90000A4302602046FFF78DFF20680C210160A8
:100BA000049B039A019580253146294048424841DB
:100BB0001906114600D50146029700290BD10120E4
:100BC0000004A16D0143A165204600F077F9039A66
:100BD000049B2068056001252F02314639404842B8
:100BE0004841D905114600D5014600290AD16804BB
:100BF000A16D0143A1652046FFF720FE039A049BE7
:100C0000206807603146029F3940484248413B42D4
:100C1000114600D0014600290AD1A804A16D014364
:100C2000A1652046FFF70BFE039A049B206807602E
:100C300010273146394048424841D906114600D56F
:100C40000146002915D1206B002803D02068C06818
:100C500080070CD0A802A16D0143A165E06D019948
:100C60000843E0652046FFF734FF039A049B2068A1
:100C700007606D032E4070427041990403D4002A2E
:100C800004D005B0F0BD0246002AFAD12046FFF795
:100C9000D3FD2068056005B0F0BD0000F0B589B057
:100CA000044600200890002C61D00790A06D002819
:100CB00007D125465435204600F002F9002028705F
:100CC000E06501273D072668B068C00012D4B0680F
:100CD000744901402943B160734800687349FFF7C4
:100CE00052FB4000801C08900898002802D0089809
:100CF000401EF8E7B068284208D1A06D10210143DA
:100D0000A165E06D012107910843E065B068042109
:100D10000140A26D102002405118A16D2AD105900A
:100D20000F20C2430692F33A1140891CA165B168B5
:100D3000C90779D1039027462037216B4A1E91417C
:100D40000A03A168237E9B030B43617EC9031943F9
:100D5000A57E68030843E368034313430120C207E9
:100D6000216900290490029209DA914308E00120E8
:100D700009B0F0BD0143A165384609B0F0BD410599
:100D80000B43387B42001A43387801280DD1002DDF
:100D900008D0A06D20210143A165E06D04990843AE
:100DA000E06502E0049800040243636A002B06D069
:100DB000072080010340A16A1943114300E0114656
:100DC000F0683B4A02400A43F260032085076368EB
:100DD0001A462A40E16C387F01280ED1206C009021
:100DE000676CA06C01900098074301980743174374
:100DF0000F43049807433A4600E00A43039F3069D3
:100E00002C49014011433161029883420CD0AB421E
:100E10000AD004988007834206D0B80403402649CC
:100E20000A688243D0180860706907229043676B94
:100E300038437061706970218843A16B09010143D7
:100E40007161216901235805814205D000290ED125
:100E5000B06A0699084309E0B06AE06980001C3076
:100E60001C210140069D8D40206E2843B0627069B0
:100E70001040B8420AD10020E065A06D0121014375
:100E800002208143A165079809B0F0BDA06D0599C6
:100E9000084302218843A065E06D1843E0651846C9
:100EA00009B0F0BDE8FFFF6F04000020400D030013
:100EB0000102DEFF02FCFF1F08270140704700000F
:100EC000F0B587B00026069605960496039602961E
:100ED000026823498A4201D007B0F0BD0090012783
:100EE00038052049CA680243CA60CA6802400192B4
:100EF00001980868384308600868384001900496F3
:100F00003E2002900198032503950524200702A99D
:100F100000F0F8FA2803144D28622020B9023A02A2
:100F20008023124F2F606C60AE60EE602B616A61AF
:100F3000A961E861284600F0F3F9002801D0FFF725
:100F4000B7FB0098A86205650C24002120460A46DC
:100F500000F0E6FC204600F0D7FC07B0F0BDC0462C
:100F60000024014034100240CC0000200800024060
:100F7000F0B581B00468A56802236D0740D45425FC
:100F8000455D012D3CD0009117460546543501269C
:100F90002E70E168C9070AD1A168C90704D0A16809
:100FA000194A0A40911CA160E1683143E16004469E
:100FB000FFF724FB03460028009A21D1A06D1349B6
:100FC000014030020818A0650020E06521681C235C
:100FD0000B602870206D0E4B0E4D0F4EC6620563E0
:100FE00043634B6810251D434D6040313B4600F084
:100FF00013FA034620688168034A0A40111D816084
:10100000184601B0F0BDC046E8FFFF7FFEF0FFFFCD
:10101000750500088F050008F9040008F0B50126E1
:10102000CB0702D10025334630E01F240023002CDB
:1010300007D0641E1F2525400F46EF40FD07F5D061
:1010400000E0DC4303271546FD41032DEAD8AD003F
:1010500001A77F593546BF468D100008691000086A
:101060007B100008A3100008012500260F2C2B463A
:1010700000D83346102C09D307E001250026072CA1
:101080002B4600D83346082C00D33546002D06D019
:101090000068416181681824A143114381601846AA
:1010A000F0BD01250026062C2B4600D83346072C20
:1010B000ECD3EAE7B0B50125002814D00446407F00
:1010C000002804D100202077204600F031F80220CB
:1010D00060772079002808D0A168E2682046FFF7F1
:1010E0009DFF002808D02846B0BD20680F49416107
:1010F000816818229143816000256079002801D021
:10110000216900E0E9432068016181686022914320
:1011100062690A438260816880229143A2690A431E
:101120008260012060772846B0BDC046B71DC1046B
:1011300081B000680849884201D001B070470120A1
:10114000000306490A6802430A60096801400091E9
:10115000009801B07047C04600300240381002408D
:1011600070B500282AD0014624314A78022A27D1B6
:10117000046822680E239A432260426C15682E4B45
:101180001D4015602568012295432560046C1C25CF
:1011900025401446AC40D24D2E6826432E60846C08
:1011A000C56C6560046D002C05D025681D40256068
:1011B000436D806D58604A70002004E0012070BDCE
:1011C0000422C263012000220A7070BD70B501467E
:1011D00024314A78022A2BD103681A680E24A243CC
:1011E0001A601C68012294431C60446C2568124BF1
:1011F0001D402560046C1C2525401446AC40B84DAC
:101200002E6826432E60846CC56C6560046D002CCE
:1012100005D025681D402560436D846D5C60002409
:101220000C704A70816B002900D08847204670BD41
:101230000421C163012070BDFFFEFFFFF0B585B042
:10124000016C1C240C4004231946A140A44A121F1F
:1012500015680A4603952A4056425641049005688F
:101260002A6817461F4078427841304332D00295B1
:10127000012102261046304047424741A640039BC9
:101280001E420D46019400D03946049F3C4624344A
:10129000002931D008200240564256410198C340EF
:1012A000180700D53546002D24D1029A10680E216A
:1012B0008843106001200146019A9140884B1A68CA
:1012C0000A431A60F863002121706070796B00296D
:1012D0000ED10FE02868800602D428689843286061
:1012E0007F4A106808431060049F396B002901D0C1
:1012F0003846884705B0F0BD029A1068800605D4CC
:1013000010680A218843106001206070002020705E
:101310007349086830430860F96A0029E8D1E9E7B1
:10132000F0B587B000285ED0044601462431022083
:101330000691487027683868324901403960324E5A
:1013400030468030A0643148381814252946FFF70C
:101350001AF880008119206405916164FC203840EE
:1013600008382946FFF70FF81F22024001200546E2
:101370009540E564A168039126460C364ACEA269E1
:101380000192E2690292226A04920B43334301996B
:101390000B4302990B4304990B4339681943039A91
:1013A00011433960064681038A4201D10021616000
:1013B00061683F230B4005980360154A1560481E7D
:1013C000032813D8581E810051180023CB67BC3264
:1013D00003230340304698407C3121656265A06557
:1013E0000C49086006E0012007B0F0BD0020206530
:1013F0006065A0650020E063069908704E7007B034
:10140000F0BDC0460F80FFFF00080240F8FFFDBF9F
:101410008408024044090240F0B582B0044624200A
:10142000205C012802D1022002B0F0BD17462546FB
:101430002435012028706A78012A2DD10220687095
:101440000020E06325682A6801260196B2432A60DD
:10145000A26CE66C5660226D0092002A02D0626D8A
:10146000A66D5660226C1C261640019AB2401C4E96
:10147000366816431A4A16606B60A368102B3A460A
:1014800000D00A46AA60102B00D03946E960216BD3
:10149000002907D00E210AE0002129708021E16394
:1014A00002B0F0BD29680422914329600A212A680C
:1014B0000A432A6001990902626C1368DB0302D5B2
:1014C00013680B431360009B002B02D01A680A4379
:1014D0001A602968019A1143296002B0F0BDC04624
:1014E00004000240B0B5044600F0E2F80546601C76
:1014F00002D0F8480078241800F0DAF8401BA04227
:10150000FAD3B0BDF0B58BB008900C68002C00D1B8
:10151000B9E05E48089A824201D0052000E003202D
:1015200001902032009200231F461D4609930A9322
:10153000049110E02043574A10600A9A521C0C682C
:1015400020460A92D040099A083209923F1DAD1CEC
:10155000002800D197E0012602960A988640344080
:101560000594EAD0496803220C461440601E012805
:101570000797069213D81046A840089FBA6882437E
:101580000498C068A8401043B860C806C00F0A9904
:1015900088407A68B24302437A60069A079F032C18
:1015A0000499089B1DD01046A840DA6882438868D9
:1015B000A8401043069AD860022C12D11C20384053
:1015C0000F2181400A9AD2089200009FBC588C4398
:1015D00004990E69864026430499BE50069A079FD7
:1015E000089B1046A8401C688443486886030396FD
:1015F0001040A840204318600398800F9DD00A989F
:101600009043234A1418276E05200007089A824247
:101610000AD02148824205D020488242019E04D14E
:10162000022602E0029E00E000261820099A1040DF
:101630000F2282409743603486403E432660144820
:1016400000684E68F20202D5059C204301E0059C2B
:10165000A043079F0E4A10605068B20201D5204394
:1016600000E0A0430A4A50600A484068B20301D52E
:10167000204300E0A043074A50601068F20300D501
:1016800058E7A04357E70BB0F0BDC046000C005030
:10169000001802408018024000040050000800506A
:1016A000002A02D0182281507047282281507047AA
:1016B0006C4800687047C046B0B5024603464033E8
:1016C0005C780220202C17D11C78012C14D0242007
:1016D0005870106802680124A24302602203056862
:1016E0009543056002680A43026001682143016076
:1016F0000020187020215970B0BDB0B502460346D5
:1017000040335C780220202C17D11C78012C14D097
:1017100024205870106802680124A24302600F223E
:1017200012020568954309022943016001682143BB
:1017300001600020187020215970B0BDF0B581B053
:10174000002821D0054640356978002905D10021BF
:101750002970044600F04AF82046242169700121CE
:10176000CB43026814681C4014600F231B064468B6
:101770009C43146194681B4B1C409460C468012C0A
:1017800005D02126B60203E0012001B0F0BDCE0352
:10179000876837439760A41E66426641F402CE0212
:1017A0005768B7433C19546054680F4E264356603F
:1017B000D4681C40D460036944691C4383691B02DC
:1017C0002343D360C369046A1C43146013680B434A
:1017D00013600021416420226A7001630846A970E9
:1017E00001B0F0BDFF7FFFFF00800002B0B586B002
:1017F0000021059104910391029101910068134A1F
:10180000904201D006B0B0BD114C2068012528439C
:1018100020602068284000900620059004910391E4
:10182000122002900320C0020190009805200007BA
:1018300001A9FFF767FEA805A1680143A160A1689F
:1018400001400091009806B0B0BDC046005800406D
:10185000341002401F48007802490A6810180860D6
:101860007047C0466003002010B5012420020849DB
:101870000A6802430A60032000F00CF8002801D037
:10188000204610BD00F02AF80024204610BDC046B6
:1018900000200240B0B505460E4801780124002919
:1018A00016D07D20C000FEF76EFD01463F4800685F
:1018B000FEF769FD00F0BEFD032D09D8002807D111
:1018C0000024E0432946224600F02AF80248056039
:1018D0002046B0BD0C0000201000002082B0094856
:1018E0004168012211434160416811400191019911
:1018F000110702680A4302600068084000900098DF
:1019000002B070473C100240002805D41F21084057
:1019100001218140014801607047C04600E100E0BC
:10192000002805D40322034693430A4A9A1803E089
:101930000C220240064BD2188007C00E8901C9B2A2
:101940008140FF238340106898430843106070472C
:1019500014ED00E000E400E0F0B581B0014603249E
:1019600060029C4D2A6882430A432A600122530286
:101970000020994214D10D4909686B695B050FD5A8
:10198000960206224A430A4907461046FEF7FBFC28
:1019900001463846891C491E04D06A693242FAD190
:1019A00001B0F0BD204601B0F0BDC04604000020EB
:1019B00040420F00F0B587B0064680788007844F1C
:1019C00001D4002042E0059601221107183F386833
:1019D0000840049006D138680843386038680840E9
:1019E000069006980297039101921702794C20689D
:1019F00038432060FFF75CFE054626683E4006D16E
:101A0000FFF756FE401B0328F7D3032000E0002019
:101A1000002E6F4F01D1059E10E003252A02B96800
:101A20001140059E00D1A3E0336B994200D0A3E0A2
:101A3000C90700D0AEE0002800D1C0E00499002919
:101A400004D1029B1968039A914319603168CA074F
:101A500062D18A0768D4CA066ED48A0575D44A054D
:101A60007CD48A0606D5032212033B68934332696D
:101A70001A433A6001224B040ED53B68574C234071
:101A8000356A2B433B60631C9D4205D113043C46E1
:101A9000483C25681D4325600B0305D53B68402461
:101AA000A343746A1C433C6093058C0212D53C68C6
:101AB0009C43B56A2C433C609D420BD114060594AF
:101AC0003D46483D019030462E68059C26432E60D9
:101AD0000646019819420CD013063C689C43F56AEF
:101AE0002C433C609D4204D13C46483C25681D4344
:101AF000256009050ED5910303239B033C689C4395
:101B000073691C433C608B4204D11104483F3A681E
:101B10000A433A6007B0F0BD3A6803239A437368FA
:101B200013433B608A0796D53A680C239A43B368FF
:101B300013433B60CA0690D5032292023B6893434D
:101B4000F2681A433A608A0589D5032292043B68F9
:101B50009343B2691A433A604A0582D503221205BB
:101B60003B689343F2691A433A608A0682D57AE762
:101B70000021C9070ED15EE7B968019B1B04BC6850
:101B80001C43BC60BC689C43BC609143B960C907FE
:101B900000D150E72C460190FFF78AFD05460E4E16
:101BA000B868800706D4FFF783FD401BB042F7D327
:101BB000204600E00198059E002800D03EE7032063
:101BC0000002B9688143306B0843B860002035E7F4
:101BD000541002400070004089130000FFFFFF3FD7
:101BE000F0B583B00D4601460120002900D1ABE0DD
:101BF000029101907148006807273840854213D947
:101C00006E490868B843284308606D4CFFF750FDE3
:101C100006466A4800683840A84205D0FFF748FDEC
:101C2000801BA042F5D9AAE0029B186881078F4C5F
:101C30000CD5410703D5390322680A4322600F21DE
:101C4000090222688A43996811432160C00718D1AC
:101C50005A480068384085422AD258490868B84333
:101C600028430860564CFFF723FD0646534800689A
:101C70003840A8421CD0FFF71BFD801BA042F5D9BD
:101C80007DE05968032900D982E0880001A212583A
:101C900001989746A51C0008851D00083F1D0008F7
:101CA0004D1D00082246083A1268520551D44BE0F7
:101CB000029A107840076D4C05D53803216881439E
:101CC000D0680843206020688006400F1FD022683B
:101CD00038210A406648082A20D022680A40102A83
:101CE0005BD1616803220A40032A00D06148616821
:101CF0004906490F491CFEF746FB61684904490E35
:101D000048436168490F491CFEF73DFB06E0204649
:101D1000083800688004410F5648C8402168890986
:101D20003C220A40274989581F220A40D0402E49A8
:101D3000086025480068FFF7ADFD03B0F0BD2246FE
:101D4000083A1268920104D403B0F0BDA26D920764
:101D5000FAD52068B84308432060FFF7A9FC06467F
:101D600020683821014002984068C000814200D1BB
:101D70006EE7FFF79DFC801B11498842F0D90320D4
:101D800003B0F0BD2246083A12689203DCD5E0E7C2
:101D9000606D80070198D7D5DBE7206808402028D0
:101DA00002D10120C003B9E720680840182801D0FB
:101DB0000020B3E77D200002B0E7C04600200240CB
:101DC00088130000E44A000810000020064800685C
:101DD00026490968890A1C220A40044989581F2299
:101DE0000A40D0407047C04604000020244B000841
:101DF00010B51E4C20688006400F06D0226838219E
:101E00000A401B48082A07D110BD083C20688004FE
:101E1000410F1848C84010BD22680A40102A15D149
:101E2000616803220A40032A00D01248616849060B
:101E3000490F491CFEF7A7FA61684904490E484357
:101E40006168490F491CFEF79EFA10BD20680840E2
:101E5000202802D10120C00310BD206808401828A6
:101E600001D0002010BD7D20000210BD08100240EE
:101E700000127A000024F400F0B587B00127002892
:101E800000D106E2049705900078C007FD4E1ED1F0
:101E90000598007880073AD405980078000767D441
:101EA00005980078400700D46BE1B0683821014004
:101EB000202900D0B2E0F06D800700D45DE10598E4
:101EC0008068002800D058E10020012756E1B06862
:101ED0003821014010204840F26803273B469343D5
:101EE000C2185042504108294FD000284DD13068C7
:101EF00005994B68052109048B42039300D1BFE08B
:101F000001210A04934200D0C2E01043C5E0B16849
:101F10003820084010214140F26803252A4002235E
:101F20005340CA18514251410127BC02002836D003
:101F3000002934D103953068059AD168002900D171
:101F4000C8E00721C90288431169014331603802A2
:101F5000316801433160FFF7ABFB05463068204232
:101F600000D0C8E0FFF7A4FB401B0228F6D9C0E070
:101F7000B06838210140182939D1306E80078FD5DB
:101F80000598806900288BD12DE13068800300D44A
:101F90007EE705984068002800D079E723E13168A2
:101FA0002142059B03D0D968002900D171E17F212E
:101FB000090272688A435969090211437160002855
:101FC0000DD10720C0023168814318690843306091
:101FD00030688004400FB049C140B0480160B0484B
:101FE0000068FFF757FC002800D052E154E7306E3C
:101FF00005998969002900D187E0012108433066ED
:10200000FFF756FB0546306E800700D548E7FFF71F
:102010004FFB401B03270228F5D93AE1012003902A
:102020000107F06B0840029006D1F06B0843F063A3
:10203000F06B08400690069801919A4F3868C005E9
:1020400010D403980402386820433860FFF730FB4F
:1020500005463868204205D1FFF72AFB401B0228BD
:10206000F7D978E0F06D05998F68052F5ED0012FC4
:1020700060D003998843F065F06D042188435BE0EC
:1020800001218A041043306009043068084304E0E9
:1020900090433060890430688843306001204404F4
:1020A000FFF706FB0546039800280FD03068204252
:1020B00000D0EDE6FFF7FCFA401B6428F6D9E8E013
:1020C000FFF7F6FA401B642800D9E2E030682042AE
:1020D000F6D1DDE6390288433060FFF7E9FA0546BC
:1020E0003068204200D1D7E6FFF7E2FA401B022811
:1020F000F6D9039FCDE07F200002716881430598E7
:102100004069000208437060C6E6012188433066DA
:10211000FFF7CEFA0546306E800700D4C0E6FFF721
:10212000C7FA401B03270228F5D9B2E0042108436F
:10213000F065F06D03990843F065FFF7B9FA0546BD
:10214000594C002F0FD0F06D80070FD4FFF7B0FA75
:10215000401BA042F7D9002003270FE0FFF7A8FAA1
:10216000401BA042F7D8F06D8007F7D402980028F2
:1021700003D1F06B01998843F0630120002800D15E
:1021800087E00598C769002F00D181E0B068382149
:102190000140102929D1012F25D0F06803210140E9
:1021A000059C226A91421ED170210140626A9142CF
:1021B00019D17F2109020140A26A1202914212D173
:1021C0001F2149040140E26A91420CD107214A06CD
:1021D0000240236B9A4206D149070840616B88424E
:1021E000049F55D055E0049F53E001210A06306852
:1021F00003929043306004914C06FFF759FA05466C
:10220000022F09D13068204210D0FFF751FA401B4D
:1022100003270228F6D93CE03068204234D0FFF78B
:1022200047FA401B03270228F6D932E0F06820491C
:1022300001400598026A456A836AC76A0197076B7D
:102240000297406B0A432A4319021143019A114332
:10225000029A11430143F1603068039908433060EA
:1022600004980007F1680143F160FFF721FA054681
:10227000306820420CD1FFF71BFA401B03270228CD
:10228000F6D906E000100240F06808490140F1600C
:102290000027F8B207B0F0BD0024F40004000020CD
:1022A000100000200070004088130000FCFFFEEECC
:1022B0008C80C111F0B585B000280AD005465C3588
:1022C00041218E00416A002906D0002101611421BC
:1022D00006E0012005B0F0BD4168B14202D01C21EA
:1022E00000224250002787626978002905D1002129
:1022F0002970044600F05AF8204602210495019105
:10230000697001680A6840239A4303910A60C268B1
:10231000254B01259A422B4600D33B461B03ED0279
:1023200015430F27390202918D4201D000258562A5
:102330004568876835402124A4023C40641905693A
:1023400001990D4025434169012421402943FC3670
:1023500087693E400E43C16938250D403543016A07
:1023600080260E402E436103856A0D403543039E4F
:102370003560390C04250D4002990A4013432B4364
:10238000416A10220A401A43416B08230B40134351
:102390007360E102F2698A43F26100210166084636
:1023A00004994C7005B0F0BD0107000070B586B00F
:1023B00000250595049503950295019500681B4934
:1023C000884201D006B070BD01210A031848C368D5
:1023D0001343C360C36813400093009A02680A4322
:1023E000026002680A4000920099016802263143A7
:1023F00001600068304000900098059504950395B1
:102400000296C02001900520000701AC2146FFF78D
:1024100079F8059504950395029609200190A54841
:102420002146FFF76FF806B070BDC046003001408E
:1024300034100240401E010E01D0012070470749B0
:10244000074A5060074803680B4003218907591861
:10245000016000209060072111607047FFFFFF00BE
:1024600010E000E020ED00E070477047704700008A
:10247000F0B581B03C22825C012A02D1022001B079
:10248000F0BD02463C32012313703F242402CD6884
:10249000A5430F24A4028E68A6432E434C681D4D0D
:1024A000254035430C681C4E26402E430C691B4DBD
:1024B000254035434C692C43194D25400C6B194E72
:1024C00026402E43CC6934438D692D04164E2E4090
:1024D000264304689048844201D0354614E01348EE
:1024E00006400F462037A1CFC96A00913F05194623
:1024F0000F4B3B40334311267606B04318434B073E
:102500009D4305430098054300201070656401B0A9
:10251000F0BDC046FF87F0EFFF8FF0EFFF9FF0EFB9
:10252000FFBFF0EFFFFFF0EF0000FFEFFFFF0FDC5A
:102530000000F0DCF0B53C22825C012A01D10220CF
:10254000F0BD02463C320223537001231370006831
:1025500046688468704DA84201D0374604E00F27D2
:102560003F05BE434F6837437026B7430E683E436E
:102570004660674EB04204DC9D07A84206D0C54DB8
:1025800002E0644EB04201D0A84204D18025AC43A1
:10259000896821438160002010705370F0BDC046EF
:1025A000B0B500281FD0044605463C3568780028A1
:1025B00004D100202870204600F018F8022068702E
:1025C00001CC214601F0EEF901202873A870E870D3
:1025D00028716871A871E87128726872A872E8722F
:1025E00068700020B0BD0120B0BD0000B0B594B04F
:1025F0000446002513951295119510950F9502A884
:102600003421FDF7AAFD2068A24988422FD027492E
:10261000884218D04049884227D10C950124600592
:10262000029002A8FFF7C6F9002801D0FEF740F893
:10263000E0021F494A6802434A604968014001912B
:10264000019814B0B0BD1A4801681022114301600E
:1026500000681040019001981124002120460A468C
:10266000FFF75EF92046FFF74FF914B0B0BD022026
:1026700010900F490A6802430A600A6802400192FA
:10268000019A08390A6802430A6009680140019109
:10269000012013901295119010200F900198054879
:1026A0000FA9FEF72FFF14B0B0BDC04600100040C8
:1026B0003C100240000400503D21415C01290FD133
:1026C00001463D3102220A700168D648814209DC88
:1026D0000120800781420BD0D548814208D011E00B
:1026E00001207047D048814202D0D048814209D1B0
:1026F00088680A4A02400020062A08D001231B04E9
:102700009A4204D00868012202430A600020704700
:10271000FF2B014000400140002C01400700010058
:10272000F0B53C22825C012A01D10220F0BD0246B4
:102730003C3202235370012313700568A868494C8A
:102740000440AC600E6800244F2E1EDC1F2E36DDC8
:10275000202E38D0302E36D0402E00D080E0286A8F
:102760002E6A0127BE432E62AE69F027BE43CF68B2
:102770003F013743AF610A26B043496801432962EC
:10278000A86839490140473165E06F2E23DD5803C1
:10279000864251D01803864220465ED0702E5FD10B
:1027A000FF200002AE68864348688F68C968074307
:1027B000080238433043A860A86877214AE0002E19
:1027C00001D0102E4CD1A868274901400E430720A4
:1027D0003043A86040E0502E19D0602E40D1286AC6
:1027E0002E6A1027BE432E620F263603AF69B74309
:1027F000CE6836033E43AE61A026B0434968090166
:1028000001432962A86818490140673123E0286A1A
:102810002E6A9E432E62AE69F027BE43CF683F0109
:102820003743AF610A26B043496801432962A8686B
:102830000D49014057310EE0FF200002AE6886438B
:1028400048688F68C9680743080238433043A86066
:102850009803A9680143A960204614705370F0BD25
:102860001846FAE78800CEFF88FFCFFF10B5016851
:10287000CD4A914200D010BD017F012904D0022928
:10288000F9D1064C042101E0034C002100F001FDC8
:10289000206010BD000400403C00002040000020EB
:1028A000F0B582B03C23C35C012B01D10223B3E01D
:1028B00004463C34012323700225EA41032A00D94F
:1028C000A8E0C0467A44127952009744015E153759
:1028D0000268136A156A012085431562CD68019567
:1028E00060C900969769AD4E0839B24271DC86071F
:1028F000B24274D0AC4E70E00068026A01231B0241
:10290000056A9D4305624B68F025AB43CD682D01F8
:10291000EDB2EB18C569F326B5431D43C561052328
:102920005B029A430B680A251D402B02D2180262F3
:10293000C2690C239A43C261896824E00068026A74
:1029400001231B03056A9D4305624B681B02344D3E
:102950001D40CB681B039BB25B19F3252D02C66992
:10296000AE431E43C66105235B039A430B680A25E9
:102970001D402B03D218026203229202C3699343C3
:10298000C361896809021C3040E00068026A036A7A
:102990001025AB4303624B681B02214D1D40CB68E1
:1029A0001B039BB25B19F3252D028669AE431E43C0
:1029B00086610B681B01A0252B40AA43D218026236
:1029C0000322920283699343836189680902183064
:1029D0001CE0734EB24202D0724EB24202D10320CA
:1029E00087430098074310461830F026B743019EEE
:1029F0003601F6B2BE1996610A263540B3435B191B
:102A0000136293690C25AB439361896802680A439A
:102A10000260002300202070184602B0F0BDC046BE
:102A2000000FFFFFFF2B014000400140002C014040
:102A300000040040B0B500281FD0044605463C35D0
:102A40006878002804D100202870204600F017F88C
:102A50000220687001CC214600F0A4FF01202873F9
:102A6000A870E87028716871A871E871287268729E
:102A7000A872E87268700020B0BD0120B0BD704738
:102A8000B0B5002908D00A1F0223DA41042A0AD36C
:102A90004322082903D109E03E22082906D0472312
:102AA000042906D006E03F320829F8D1462304293C
:102AB00000D14523002900D14423845CC35C01225A
:102AC000012C3AD1012B38D102463E3200290DD0DB
:102AD0000C1F0223DC41032C11D8C0467C4424790E
:102AE0006400A744010A0608537009E0022313702A
:102AF00006E0D37004E0137102E0937000E05371BC
:102B00000223002905D0082905D0042905D1D37155
:102B100004E0937102E0137200E0537202220B464C
:102B2000D341032B0BD89A001B4CA2580468E568CC
:102B30001543E5600022032B04D91046B0BD0122E5
:102B4000032BFAD81F23194001231C468C40006830
:102B5000016AA1430162016A214301620F4988426F
:102B600006DC9907884209D00F49884206D00DE05B
:102B70000B49884202D09849884207D184680B49A2
:102B800021400629D9D01C04A142D6D0016819439E
:102B900001601046B0BDC0465C4B0008FF2B0140F1
:102BA00000400140002C01400004004007000100EB
:102BB000F0B583B004460068C5680227294639404D
:102BC0004A424A410169029139404B424B41134309
:102BD00013D16C49FE3101610121217780698007A1
:102BE00003D02046FFF742FE05E0204600F0F8F84B
:102BF000204600F0D7FA002020770126042229463B
:102C000011404842484102994907314600D50146E2
:102C1000032000020190002916D100922068594932
:102C2000FC310161277780690199084203D0204671
:102C3000FFF71CFE05E0204600F0D2F8204600F029
:102C4000B1FA00202077009A0827294639404842E7
:102C5000484102990907314600D50146002913D1A0
:102C600020684849F83101612277C069800703D0A4
:102C70002046FFF7FBFD05E0204600F0B1F82046B6
:102C800000F090FA00202077102129404842484166
:102C90000299C906314600D50146002914D12068A1
:102CA0003849F03101612777C0690199084203D0A2
:102CB0002046FFF7DBFD05E0204600F091F82046B6
:102CC00000F070FA00202077012129404842484155
:102CD0000299C907314600D00146002906D1206873
:102CE0002849FF310161204600F0D2FA80272F40A9
:102CF000784278414121C901029A0A42314600D006
:102D00000146002905D120681F4901612046FFF7CF
:102D1000ACFB784278410299C905314600D501469D
:102D2000002905D12068174901612046FFF79CFB67
:102D3000402129404842484102994906314600D580
:102D40000146002906D120680E49C03101612046A4
:102D500000F0CCFA202005406842684102998906BB
:102D600003D4002E04D003B0F0BD0646002EFAD1E5
:102D700020680449E03101612046FFF777FB03B08A
:102D8000F0BDC046FFFEFFFF7FDFFFFF80B586B0CE
:102D90000021059104910391029101910068EC4A90
:102DA000904201D006B080BD0C48026801231A434E
:102DB0000260006818400090022005900491039181
:102DC00002901802019005200007009901A9FEF762
:102DD00099FB06B080BDC046002C01403410024073
:102DE00070470000F0B583B03C23C35C012B01D1D8
:102DF000022393E106463C36012333700225EA4163
:102E0000052A00D988E102967A4412795200974443
:102E100002D2839949E50268176A136A0120834345
:102E20001362C74BD3180A26F341AF438E683E4363
:102E3000546800940C6801949569072B00D976E1D9
:102E400007469F40E124274200D170E10C24A643AD
:102E5000CF680424A7433743072B029E00D968E1BB
:102E60009840E123184200D163E103200002009C56
:102E700084434B69886923430343104618305360E9
:102E8000B14B1D40019B1D4395614B685363176215
:102E9000936908241C43946193690424A3439361B8
:102EA000096935E10268136AA7487330146A04405F
:102EB0001462F14C17190A24E74156688C68019492
:102EC0000C680094556D072F00D92AE10124BC40FD
:102ED000E1273C4200D124E106404869070237431C
:102EE000994C104654305760E41C2540009C254303
:102EF00055654C68946501246404A343019C240433
:102F00001C431462536D08241C435465536D042400
:102F1000A34353650969FAE00268106A01273B027E
:102F2000146A9C4314627B0298438B681E0206431A
:102F300050680B680193D569D24B9A4200D186E064
:102F400033468DE00268156A01231803146A84432E
:102F50001462C94816180A20C64150688C6801944A
:102F60000C680094D769072E00D9DEE01C46B440F7
:102F7000E126344200D1D8E09C03A0434C69A6016D
:102F8000064310461C305660704C2740009C2402BB
:102F90003C43D4614C6814645C03A543019C240346
:102FA0002C431462DC02D5692543D5619B02D469A8
:102FB0009C43D461A9E00268106A136A1024A343F9
:102FC0001362202398438B681F01074350680D68E4
:102FD0009369AC4CA2426AD03E466FE00268156A23
:102FE00001231805146A84431462A34816180A20A2
:102FF000C64150688C6801940C680094576D072E88
:1030000000D99AE01C46B440E126344200D194E055
:103010009C04A0434C69A6020643104654305660F7
:10302000484C2740009C24023C4354654C68D465BE
:103030005C05A543019C24052C431462DC02556DFC
:10304000254355659B02546D9C4354655DE0032305
:103050009B029E433F4CFF3CCB681B022340334303
:10306000854C16190A24E641072E5CD8B740E124A6
:10307000274258D003242403A0434C698E69264379
:103080003601064310461C3056602F4C2540019CEB
:103090002543D5614C68D4631362D36908241C436B
:1030A000D461D3690424A343D36109692FE0C02408
:1030B000A743CC6826014024A6433E436E4C171913
:1030C0000A24E741072F36D80124BC40E1273C42BF
:1030D00031D00324A402A0434C698F692743BF0069
:1030E0000743104618305760184C23402C021C43ED
:1030F00094614B68936316620123DC029569254352
:1031000095619B0294699C43946109690902029E3E
:1031100002680A430260002300203070184603B0A2
:10312000F0BD3746DCE60646ACE7064629E73746FB
:1031300092E6009BA1E60746D3E706466DE7C04648
:1031400000D4FEBFFF8FFFFE8CFFFEFFFF8CFFFE53
:10315000002C0140FFFBFFFFB0B500281FD0044644
:1031600005463C356878002804D1002028702046A8
:1031700000F017F80220687001CC214600F012FC24
:1031800001202873A870E87028716871A871E8712F
:1031900028726872A872E87268700020B0BD0120C1
:1031A000B0BD704770470000B0B5002906D00A1FB7
:1031B0000223DA41042A03D3432202E03E2200E044
:1031C0003F32825C012A11D102463E3200290FD0E3
:1031D0000C1F0223DC41032C13D8C0467C44247905
:1031E0006400A744010C080A53700BE00120B0BD35
:1031F0000223137006E0D37004E0137102E09370B1
:1032000000E053711F221140012213468B400168D8
:10321000086A98430862086A184308621648081842
:103220000A23D841072808D813468340E1200342E7
:1032300003D0D0034B6C03434B641048814206DC3F
:103240009007814209D01048814206D00EE00C4818
:10325000814202D00B48814208D188680B4B034061
:103260000020062B06D01404A34203D008681043A4
:1032700008600020B0BDC04600D4FEBFFF2B014057
:1032800000400140002C0140000400400700010004
:1032900070470222D141032904D8890000684018F0
:1032A000406B70470020704770B53C22825C012A59
:1032B00001D1022070BD04463C3402226270012517
:1032C0002570064600F0D4FB002828460AD1306855
:1032D000C16840229143C16001218903C2688A43C9
:1032E000C260002000212170657070BD7047B0B5CC
:1032F0008421415C012901D10220B0BD0146843105
:1033000024224A600268136814680125AC431460E3
:103310006C07A34313600022426610460A70202205
:103320004A60B0BD70477047F0B581B0044668345C
:10333000227F012A02D1022001B0F0BD0546883566
:1033400024222A600668326800923368012293437F
:103350003360227707235B06B7689F430F43B7604C
:10336000406E002815D0B768B068400F2E49095C40
:103370002E4A105CC000FDF706F860803801400F4F
:103380002949095C294A105CC000FCF7FCFF024691
:1033900000E06280009830602280002020772021A9
:1033A000296001B0F0BDC046F0B581B00446683474
:1033B000227F012A02D1022001B0F0BD05468835E6
:1033C00024222A60066832680092336801229343FF
:1033D0003360227707235B07B7689F430F43B760CB
:1033E000406E002815D0B768B068400F0E49095CE0
:1033F0000E4A105CC000FCF7C6FF60803801400F29
:103400000949095C094A105CC000FCF7BCFF024690
:1034100000E0628000983060228000202077202128
:10342000296001B0F0BDC046A44B00089C4B0008C9
:103430007047704770470000F0B589B00890066883
:10344000F169202401200790C30218462F3008405C
:103450003568B26820280BD1284620400F4619460F
:1034600001231B071340C0180B46394600D0A4E0C7
:1034700006920494029318460F300840089B80334C
:10348000059300282B46039509D0EC4818400124E9
:1034900027077D1C069A1540281800D096E01027B3
:1034A00018463840454245410898C06E0128079AA1
:1034B000144600D12C46C806104600D520460028E8
:1034C0003AD00125AB05069C234058425841CB0217
:1034D000134600D50346002B00D1EEE0080607D5C1
:1034E0008020039B1840EB051C40001900D09FE191
:1034F0004024039B2340584258414B06134600D5B5
:103500000346002B00D17FE1AB07039803405842EC
:1035100058410B02134600D50346002B00D18FE122
:103520000398002800DB90E10025C80100D58FE159
:10353000002A00D18FE191E1089C5C343762B068C9
:10354000400600D5C0E0618822886088002800D14C
:1035500084E18A4200D181E1EFF3108007900123DA
:1035600083F3108809204501089806683468AC4345
:103570003460079C84F31088EFF31084079483F37E
:1035800010880568AE68B64C3440AC60079C84F384
:103590001088059C049DE56000244467C466EFF331
:1035A000108483F3108803681D68BD431D6084F395
:1035B000108802230367511AD1E00898416F00294F
:1035C00000D14BE10898884709B0F0BD0197224629
:1035D0002002184044424441C807079F384600D0A3
:1035E0002046002804D13262059B186910431861F7
:1035F000069C1440604260418B073B4600D5034661
:10360000002B09D10220306205980369009304233E
:10361000009F3B43079F0361604260414B073B466D
:1036200000D50346002B059C05D10420306220699B
:10363000022303432361080709D50398049B18401C
:10364000054304D0082030622369034323619306B5
:10365000039D2B4058425841029B194200D0074617
:10366000002F174604D133622069049A1043206169
:103670002069002800D1F1E0049801400BD00540FA
:10368000069801990840284305D00898416F002901
:1036900001D008988847059C206928220240089894
:1036A000006880684021084080185DD10898FFF7C5
:1036B000C1FE0020206109B0F0BD280530620898E5
:1036C000FFF7B7FE09B0F0BD0598006800684168D3
:1036D0008AB2002A00D1C1E023889A4200D3BDE01B
:1036E00061800068800634D4EFF31082012181F3F9
:1036F00010885D4B2033089805682E681E402E60A8
:1037000082F31088EFF3108281F3108803689D68BC
:103710008D439D6082F31088EFF3108281F310884F
:1037200003689D684026B5439D6082F31088059B21
:10373000049ADA600022C266EFF3108281F31088E7
:1037400000680168B943016082F310881868FDF7CA
:1037500007FD02210898016721886288891A89B2C9
:10376000FFF7E0FD09B0F0BDEFF3108087F310889C
:1037700009225201089B1C6825689543256080F347
:103780001088EFF3108087F310881A689468344D1E
:103790002540956080F31088D86E01280BD1EFF397
:1037A000108287F310880898006803681024A343E8
:1037B000036082F31088059C0498E0600020089A5A
:1037C000D066506710688068400618D5EFF3108205
:1037D00087F310880898006883688B43836082F3BE
:1037E0001088216800290AD01E4888630846FDF722
:1037F000EDFC002832D005980068816BE3E608985C
:10380000FFF718FE09B0F0BDEFF3108185F31088C3
:10381000089802681368A343136081F3108800219D
:1038200081670599049A8A6000F0A2F809B0F0BD9A
:103830000898816F002911D0C4E6C0462001000419
:103840000898FFF7F5FD09B0F0BDC80100D46FE698
:103850002A46002A02D10898FFF765FD09B0F0BD9D
:10386000FEFFFFEFCD3C0008DFFEFFFFB0B50028F4
:103870001ED00446054684356868002804D100201F
:103880002870204600F02AF824206860206801682B
:103890000125A9430160A06A002802D0204600F05B
:1038A00049F9204600F01EFA002803D02846B0BD92
:1038B0000120B0BD0920C00221684A6882434A60E5
:1038C00088682A22904388600868012202430A60BF
:1038D000204600F099F905462846B0BDB0B594B031
:1038E0000546002413941294119410940F9402A886
:1038F0003421FCF732FC28681A49884201D014B000
:10390000B0BD03940125029502A8FEF753F80028E4
:1039100001D0FCF7CDFEA8031349CA680243CA6070
:10392000CA68024001920198022010900A6802437E
:103930000A60096801400191139412941194C02007
:103940000F90019809480FA9FDF7DCFD1B252846BB
:1039500021462246FDF7E4FF2846FDF7D5FF14B0C7
:10396000B0BDC04600380140341002400004005091
:103970007047FEE7FEE77047704780B5FDF76AFFC6
:1039800080BD704780B50248FFF712F980BDC04680
:103990002C02002080B50248FFF70AF980BDC0461E
:1039A00078020020B0B5056801229407A04205D036
:1039B000264B984202D0264B984204D170239D4357
:1039C0004B682B4300E02B46224DA84209DD224CD8
:1039D000A0420FDC1D4CA04212D0224CA0420FD0BE
:1039E00031E0A0420CD01A4CA04209D01E4CA0429B
:1039F00006D028E0194CA04202D0194CA04222D196
:103A000003242402A343CC681C4380239C434B69BA
:103A1000234303608B68C3620B688362134BC31834
:103A20000A24E341072B06D814469C40E1231C429C
:103A300001D00969016342610169C90702D00169C6
:103A400091430161B0BD1C46DFE7C046002C014038
:103A500000040040FF2B0140FF43014000480140AB
:103A600000440140004001400020004000D4FEBF5F
:103A700070B518C92D4D2540026890682C4E06403F
:103A80002E431E4396600420C4410839072C0CD8ED
:103A90000020C0467C4424796400A7440303030348
:103AA0000415250870BD052B32D1012070BDFF2300
:103AB0001B0294689C438B68CD6809691D43090209
:103AC00029432143916070BD136A146A0125AC43F8
:103AD00014629469F025AC430D692D01254395616D
:103AE0000A24A343896810E0136A146A1025AC43C2
:103AF00014620F2424039569A5430C6924032C4305
:103B00009461A024A343896809011943116270BD1F
:103B1000136A146A0125AC4314629469F025AC431E
:103B20000969090121439161136270BDF8FFFEFF2D
:103B300088FFCEFFB0B5816A0A070CD4CA0714D13A
:103B40008A071CD44A0724D4CA062CD48A0634D443
:103B50004A063CD44CE00122D20303685C689443DB
:103B6000826B22435A60CA07EAD0012252040368DA
:103B70005C689443C26A22435A608A07E2D50122F4
:103B8000120403685C689443026B22435A604A073C
:103B9000DAD50122920403685C689443426B2243A5
:103BA0005A60CA06D2D50122120303689C68944366
:103BB000C26B22439A608A06CAD501225203036867
:103BC0009C689443026C22439A604A0610D50122F5
:103BD0001305026854689C43456C2C4354609D4215
:103BE00006D103235B0554689C43836C23435360D5
:103BF000090607D50121C904026853688B43C06CCC
:103C000018435060B0BD0000F0B583B004460646CE
:103C100084360027F760FDF74BFD034620680068F7
:103C200000071ED52848009001200290410500227F
:103C300020463D461F4600F08BF93B462F460028A4
:103C40000FD0EFF31080029981F3108821680A6881
:103C500080239A430A6080F3108803202022882161
:103C60002EE020680068400723D517480090012502
:103C7000A9050022204600F06BF9002819D0EFF3C7
:103C8000108085F3108809214901226813688B434D
:103C9000136080F31088EFF3108085F3108821689B
:103CA0008A68AA438A6080F31088032020228C212E
:103CB00006E020207060B060E76670213A46384622
:103CC0006250377003B0F0BDFFFFFF0180B5806A1E
:103CD0000146563100220A8156214252FFF7AAFBC3
:103CE00080BD0000F0B585B0044601680868884AC8
:103CF0000240A06823690343606918431043E269E6
:103D000010430860032738034B688343E068184377
:103D10004860A5697F4B994202D0206A284300E0A1
:103D200028468D687C4E2E4006438E60C86A0F255B
:103D3000A843656A0543CD620026784881420EDDBE
:103D4000774881421DD0994211D0764881420CD1EA
:103D5000774800688007000F764D2E5811E07248B2
:103D6000814208D0714881420BD0102609E070488A
:103D70000068000A01E06E4800680C2505406D48A7
:103D800046592046683004906B48994217D0012567
:103D9000E9038A4224D1082E00D9A5E00027C046B5
:103DA0007E4436797600B744049F709F659F9F9F3D
:103DB0006F00FEF70BF8002800D068E09DE0082EA9
:103DC00053D800257E4436797600B744044E224EFF
:103DD0001B4E4E4E2000FDF7F9FF00281BD18DE051
:103DE000082E00D985E000277E4436797600B74456
:103DF00004806580468080806400FDF7E7FF00282E
:103E00005ED17AE0FDF7F4FF002804D176E00120CE
:103E1000C003002872D00195616A4900474A515A8F
:103E200003900291FCF7AFFA666877430125B84228
:103E300064D33103884261D8002703983946029A37
:103E40003B46FCF753F9020E09028918000272087A
:103E50008018794132463B46FCF748F93949411808
:103E6000394A91424AD2019D3BE0002001250028B9
:103E7000D1D143E0FDF7BCFF002808D13DE0FDF7BC
:103E8000B7FF00281CD138E00846002835D0616A09
:103E900049002A4A515AFCF776FA400061684A08FC
:103EA0001018FCF770FA0246103A25498A4225D2CA
:103EB00001400007400F084312E0084600281CD0CC
:103EC000616A49001D4A515AFCF75DFA61684A0867
:103ED0001018FCF758FA01461039194A91420DD2D0
:103EE0003D462168C86009E0002001270028CED1A6
:103EF00003E0002001270028E2D13D461348049941
:103F0000086000206067A067284605B0F0BDC04685
:103F1000F369FFCF00800040FFF4FF11FF4B00402A
:103F2000004C004000380140004400400048004080
:103F3000541002408C4B00080024F400444B00084D
:103F4000F0FF000000FDFFFF00FD0F000100010079
:103F5000F0B585B004930F4604460068C069084078
:103F6000401A4142414100208A4200D090E016466A
:103F700002902046843001900A9D01200090C002EA
:103F8000039007E02068C0693840C01B41424141AE
:103F90008E4247D1681CF5D0FDF78AFB014603200D
:103FA000002D00D174E0049A891AA94200D96FE06B
:103FB000206801684907E5D5402FE3D0802FE1D084
:103FC000C169090731D4C169039A1142DAD0039952
:103FD0000162EFF31080012282F310880921490168
:103FE00023681D688D431D6080F31088EFF31080F7
:103FF00082F3108821688B68264D1D408D6080F308
:104000001088E36E03202021012B39D1EFF31083B8
:1040100082F31088226815681026B543156083F373
:1040200010882DE0029805B0F0BD08210162EFF381
:104030001080009E86F310880922520123681D68B3
:1040400095431D6080F31088EFF3108086F310888D
:10405000226893680F4D1D40956080F31088E06ED4
:1040600001280CD1EFF31082012080F3108823681F
:104070001D681026B5431D6082F3108800E03046AD
:104080002022019B9A600022E26662671A70D96062
:1040900005B0F0BDFEFFFFEF80B50248FFF7CCF999
:1040A00080BDC046C402002010B5002804D01749C6
:1040B000884203D9144810BD124810BDFCF748F9D6
:1040C000044613482146FCF7A4F801462046FCF7B5
:1040D000E5F8104C2146FCF7A4F82146FCF7DEF881
:1040E00000F022FC0C49FCF79CF80C49FCF740F866
:1040F00001467F20C005FCF7D1F80349FCF738F8EA
:1041000010BDC04600C07944339388C3FE0F000041
:1041100000F07F4500401C462CBB84390FCF5B3B31
:10412000AAB0FDF7A1FBE04801270760DF48076060
:10413000DF480760DF4807600EA80D903821FCF7C4
:104140000CF800251F951E951D951C957802099069
:10415000FDF702FC78071B9003200C9040061A9094
:104160007804199008200A90189017950226169640
:10417000159640200B90139012953C0211940E96C8
:104180000D98FDF779FE002803D0EFF3108072B68A
:10419000FEE705940D971F951E9507241C941D9608
:1041A0001CA83146FDF71CFD002803D0EFF310805A
:1041B00072B6FEE72F4601941295119510950F9552
:1041C0000E95BD4A106804210843106010680291E2
:1041D00008401C901C9810680D9D284310601068C2
:1041E00028401C901C9810683043106010683040C4
:1041F0001C901C980520049004072046089429462A
:104200003A46FDF74DFAAD4831462A46FDF748FAE1
:10421000AB480B993A46FDF743FAE9030391204670
:104220002A46FDF73DFA20210791A4483A46FDF7BA
:1042300037FA119710970F950E95344606960EAEE5
:1042400008983146FDF75EF90C98119010950F957E
:104250000E949A483146FDF755F9119710970F952E
:104260000B980E9096483146FDF74CF90C9C119432
:1042700010950F9503980E9008983146FDF742F976
:104280001194069810900F9507980E908B48314620
:10429000FDF738F98849486828434860486828404D
:1042A0000E900E980924204639463A46FDF738FB11
:1042B0002046079CFDF728FB3C21824847542C21CF
:1042C00045540755C7642E0306630699416381630D
:1042D000A90215229201426281620499C161877626
:1042E00007836905AA07784B036042608760C7604F
:1042F00001610A99416110970F970E97FCF7CEFC68
:10430000002803D0EFF3108072B6FEE70B961097EB
:104310000F976E480E906B480EA9FCF791FA002893
:1043200003D0EFF3108072B6FEE702980F90684852
:104330000E9064480EA9FCF783FA002803D0EFF32F
:10434000108072B6FEE70A980F9062480E905D48A2
:104350000EA9FCF775FA002803D0EFF3108072B6AF
:10436000FEE70C240F945C480E9056480EA9FCF70B
:1043700067FA002803D0EFF3108072B6FEE70494CA
:1043800010200F9055480E904E480EA9FCF758FA91
:10439000002803D0EFF3108072B6FEE75048514971
:1043A000514A026041608760C5600761476187616B
:1043B000C7610762FDF7C2F9002803D0EFF3108050
:1043C00072B6FEE746480021FDF776F9002803D0D3
:1043D000EFF3108072B6FEE7414800273946FDF73B
:1043E0008CF9002803D0EFF3108072B6FEE73F4847
:1043F0003F49076247628762019AC26207630A9A6D
:1044000042630D9A92040C9B1D02059B1B1D8AC0E2
:104410000C95056047608760C26007610C38FDF746
:1044200049FF002803D0EFF3108072B6FEE726970D
:10443000259724972397299728972797229721979D
:1044400020971F971E971D971C970EA83421FBF7E6
:1044500084FE2848802328490C46491C274A84C0EA
:10446000076041608760C7601D4603610838FEF73A
:1044700097F8002803D0EFF3108072B6FEE70B9890
:1044800023901C4823A9FEF74BF9002803D0EFF333
:10449000108072B6FEE71748FEF75EFE00282FD0A8
:1044A000EFF3108072B6FEE73000002034000020E9
:1044B000380000202C00002034100240000400507E
:1044C00000080050440000200024014002000004C5
:1044D000040000080800000C100000102000001468
:1044E00028010020B57DB110005800407C0100205B
:1044F00000300140E0010020FF180000002C0140C6
:10450000299728972797C64827A9FEF713F8002868
:1045100003D0EFF3108072B6FEE72297219702983E
:1045200020901F971E97BF481D9060201C90BC488C
:104530001CA93A46FEF756FC002803D0EFF3108082
:1045400072B6FEE71297119710970F970E971A976A
:10455000199718971697159714970D99480617905D
:1045600048031390AE480EA9FDF782FF002803D040
:10457000EFF3108072B6FEE7A948FEF707FC1F971D
:104580001E971D971C971297119710970F970E97CC
:10459000299728972797A4488761A449099B7F33C7
:1045A000A34A8CC0016047602697259724972397DC
:1045B0000C38FDF7F5FF002803D0EFF3108072B63A
:1045C000FEE70B981C9098481CA9FEF7A9F8002854
:1045D00003D0EFF3108072B6FEE79348FEF72AFA95
:1045E000002803D0EFF3108072B6FEE71297109701
:1045F00050200F9002980E908B480EA9FEF754FEA3
:10460000002803D0EFF3108072B6FEE729972797B2
:10461000854827A9FDF78EFF002803D0EFF310800F
:1046200072B6FEE70A98269025970D982490239756
:104630007D4823A93A46FEF733F9002803D0EFF36B
:10464000108072B6FEE7269706982490239076484D
:1046500023A90422FEF724F9002803D0EFF31080E9
:1046600072B6FEE773487449076247628762E122C7
:10467000520286C00760476004998160C760076185
:104680000C38FFF7F3F8002803D0EFF3108072B670
:10469000FEE768480021FEF787FE002803D0EFF30D
:1046A000108072B6FEE7634800263146FEF73CFEF6
:1046B000002803D0EFF3108072B6FEE75D48FEF7E6
:1046C00016FE002803D0EFF3108072B6FEE75B48B9
:1046D00085615B4942C00660446010960F960E9655
:1046E0000838FDF75DFF002803D0EFF3108072B6A5
:1046F000FEE7109607980E9050480EA9FDF71AFF96
:10470000002803D0EFF3108072B6FEE74D480D99F4
:1047100001624661866186804B490160FCF7CAFCF4
:10472000002803D0EFF3108072B6FEE710260127B1
:104730000024304639462246FDF7F2F83046FDF7B0
:10474000E3F83648FBF7B8FF0C98E830FCF7CAFEF0
:10475000354E3046FDF7B0FF30462146FEF790F962
:10476000002803D0EFF3108072B6FEE72E48042134
:10477000FEF786F9002803D0EFF3108072B6FEE74B
:104780002E48FDF799FF254830490522FCF7F0FB3C
:10479000234C2046FDF790FF00212046FEF704FD44
:1047A0002B4D2F4C12E020682E49FBF73AFDFBF70A
:1047B000D6FD1B49096848632B480068FBF7C8FD14
:1047C00001462A48FBF76AFD294908602868401C11
:1047D000286000F04FF81F4800681F49FBF7D3FD21
:1047E0003A46824308983946FCF75AFF1748008931
:1047F000FFF75AFC194908607F20C605206831463A
:10480000FBF78AFD002800D126602068002631468B
:10481000FBF790FD0028C6D12660C4E744000020C5
:10482000E0010020B80B00002C020020FFFF000078
:1048300000040040C402002000380140780200203B
:1048400000100040A80000200030024018000020A6
:104850005C030020580300201027000024000020E3
:10486000080000200000C8453C00002000803B45B7
:104870002800002010B51248006842424241114C05
:1048800020212046FCF70CFF0F48006842424241BD
:1048900002212046FCF704FF0C48006842424241D6
:1048A0000B484021FCF7FCFE0A48006842424241A6
:1048B000052000070121C903FCF7F2FE10BDC04628
:1048C0003000002000040050340000203800002098
:1048D000000800502C00002010B57F200021C005EA
:1048E000FBF7DCFC10BD10B50121FBF7CDFD10BDC1
:1048F00010B500210846FBF7D1FC10BD02E008C846
:10490000121F08C1002AFAD170477047002001E049
:1049100001C1121F002AFBD1704700000149086045
:104920007047000000000020F8B50121C9057F2272
:104930000026411A120691427BD20121C904411876
:10494000CA15012341021B07C9184D0F7F217F3A69
:104950002B05C905B6185C18D205871A30462843BE
:1049600045D021463846FBF703FC009021463846E7
:10497000FBF74FFC0099FBF791FC07460146FBF75C
:1049800050FC3E490090FBF74CFC3D49FBF7F0FB27
:10499000044638460099FBF744FC2146FBF741FCEE
:1049A00004463046FBF77CFD06463649FBF739FCEA
:1049B0003549AD0079444959FBF7DAFB2146FBF74D
:1049C000D7FB044601213846FBF75EFD2146FBF785
:1049D000CFFB044630462D49FBF723FC2C49794494
:1049E0004959FBF7C5FB2146FBF7C2FBF8BD38462A
:1049F000FBF70FFC05462749FBF713FC2649FBF79D
:104A0000B7FB2946FBF70DFC2449FBF7B1FB294610
:104A1000FBF707FC2249FBF7ABFB04462946084697
:104A2000FBF7FFFB2146FBF7FCFB01462846DBE7D3
:104A3000FFE7FF2241001206914202D9FFF753FF20
:104A4000F8BDFF22D2059042FAD01402A04205D947
:104A50000120FFF763FFFFF74BFFF8BD410005D0D2
:104A60001626F6431721FBF70FFD66E70220FFF736
:104A700055FFFFF731FF6040F8BD000066F1CC3E06
:104A8000AAAA2A3FF4FD05380C0100000070313F4E
:104A9000C200000021ED423E0A1180BEC1ABAA3E19
:104AA000FFFFFFBE000000000030F13D0070643EDB
:104AB0000000A33E0090CF3E0090F83E00400F3F24
:104AC00000E0203F0000000015B78337CDE37B38BE
:104AD0000EE1C53860F69138AF5F0F38E1BC3E3863
:104AE00023F447390000000000000000000000002F
:104AF00000000000000000000000000000000000B6
:104B0000000000000100000002000000030000009F
:104B1000040000000600000007000000080000007C
:104B2000090000000000000000000000000000007C
:104B3000000000000100000002000000030000006F
:104B400004000000010002000400060008000A0042
:104B50000C00100020004000800000010200000056
:104B6000040000000800000010000000FDFFFFFF2F
:104B7000FBFFFFFFF7FFFFFFEFFFFFFFFFFDFFFF63
:104B8000FFFBFFFFFFF7FFFFFFEFFFFF000000004D
:104B90000400000002000000080000000101010301
:104BA000070100000804020408010101D04B0008BD
:104BB0000000002018000000FC480008E84B000836
:104BC00018000020500700000C49000800000000F9
:104BD000000000000024F4000000003F010000007D
:084BE0000400000000000000C9
:04000005080000BD32
:00000001FF
