:020000040800F2
:10000000E00E0020290200089F230008651F000859
:100010009D23000821060008312800080000000088
:10002000000000000000000000000000A323000802
:100030002306000800000000A1230008A5230008F3
:10004000430200084302000843020008430200087C
:10005000430200084302000843020008430200086C
:10006000430200084302000843020008430200085C
:10007000430200084302000843020008430200084C
:100080004302000843020008DD04000843020008A0
:100090004302000843020008430200082506000846
:1000A0004D240008430200084302000843020008F0
:1000B000430200084302000843020008430200080C
:1000C00043020008430200084302000843020008FC
:1000D00043020008430200084302000843020008EC
:1000E00043020008430200084302000843020008DC
:1000F0004302000859240008430200084302000894
:1001000043020008430200084302000843020008BB
:1001100043020008430200084302000843020008AB
:10012000430200084302000843020008430200089B
:100130004302000800000000000000004302000825
:10014000430200084302000843020008430200087B
:10015000430200084302000843020008430200086B
:10016000430200084302000843020008430200085B
:1001700043020008430200080000000000000000E5
:10018000430200084302000800F002F800F03CF8C7
:100190000AA090E8000C82448344AAF10107DA45E2
:1001A00001D100F031F8AFF2090EBAE80F0013F0F8
:1001B000010F18BFFB1A43F001031847783C0000F9
:1001C000983C0000103A24BF78C878C1FAD852078A
:1001D00024BF30C830C144BF04680C6070470000C1
:1001E0000023002400250026103A28BF78C1FBD840
:1001F000520728BF30C148BF0B6070471FB503F0DE
:10020000F7FD1FBD10B510BD00F01AF91146FFF73C
:10021000F5FF03F07FFD00F038F903B4FFF7F2FFBC
:1002200003BC00F0CDF800000948804709480047AA
:10023000FEE7FEE7FEE7FEE7FEE7FEE7FEE7FEE796
:10024000FEE7FEE704480549054A064B70470000F3
:100250003D24000889010008E0080020E00E00208D
:10026000E00A0020E00A002053EA020C00F0698056
:100270002DE9F04B4FF00006002B1FBFB3FA83F5BA
:1002800003FA05F424FA05F65E4012BF1643B2FAEB
:1002900082F502FA05F4C5F120051EBF22FA05FC1D
:1002A00044EA0C04203556EA044C4FEA144418BFC3
:1002B000641C4FF000084FF00009904271EB030CF2
:1002C00039D3002919BFB1FA81F701FA07F6B0FA5C
:1002D00080F700FA07F6C7F120071EBF20FA07FCD7
:1002E00046EA0C062037B6FBF4FCA7EB0507103FE7
:1002F00007F01F0BCBF120060CFA0BFB2CFA06F6CD
:1003000044BFB3460026202FA4BF5E464FF0000B2B
:100310005BEA060C08BF4FF0010B19EB0B09ABFBB6
:10032000027C48EB0608C01B06FB02CC0BFB03CC8F
:1003300071EB0C01C1E70B46024641464846BDE859
:10034000F08B13B54FF000004FF00001AFF30080C9
:10035000BDE81C40704710B5002000F042F8FFF7E0
:1003600051FFBDE81040012000F02AB84FF0000214
:1003700000B5134694469646203922BFA0E80C509B
:10038000A0E80C50B1F12001BFF4F7AF090728BF76
:10039000A0E80C5048BF0CC05DF804EB890028BFF2
:1003A00040F8042B08BF704748BF20F8022B11F01B
:1003B000804F18BF00F8012B704770477047704797
:1003C00001491820ABBEFEE72600020010B500F080
:1003D00015F8006810BD10B5044600F00FF8046071
:1003E00010BD10B500F014F8BDE8104000F00AB8D8
:1003F00000487047800800207047000000487047A0
:1004000080080020002801D0FFF7DABF7047000005
:1004100010B5002102A000F041F8012010BD00003D
:10042000534947414252543A2041626E6F726D61A6
:100430006C207465726D696E6174696F6E00000086
:100440007546FFF7D5FFAE4605006946534620F0D6
:100450000700854618B020B5FFF7F4FEBDE8204040
:100460004FF000064FF000074FF000084FF0000B70
:1004700021F00701AC46ACE8C009ACE8C009ACE823
:10048000C009ACE8C0098D46704710B50446AFF30B
:1004900000802046BDE81040FFF7BFBE70B505469E
:1004A0000C460A2000E06D1C00F011F835B12878E8
:1004B0000028F8D102E0641C00F009F814B120789B
:1004C0000028F8D1BDE870400A20AFF3008008B5DD
:1004D00069468DF800000320ABBE08BD10B5044886
:1004E00000F0A0FABDE81040024800F09BBA0000FE
:1004F000240000206C000020464910B54A6822F410
:1005000040324A604A6843681A434A6001684A6850
:1005100022F480724A6001684A68036942EA032251
:100520004A6001684A6822F040724A6001684A687D
:1005300083681A434A6001688A6822F400628A600C
:1005400001688A68C3681A438A60816A6FF07062C2
:10055000D14201688A6822F070628A6001688A6804
:100560000CD0836A1A438A6001688A6822F040527C
:100570008A6001688A68C36A1A4301E022F0405227
:100580008A6001688A6822F002028A6001688A68CB
:10059000037E42EA43028A6090F820100029016835
:1005A0004A680FD042F400624A6001684A6822F447
:1005B00060424A6001684A68174C436A04EB43335F
:1005C0001A4301E022F400624A600168CA6A22F418
:1005D0007002CA620168CA6A838B104C04EB035331
:1005E0001A43CA6201688A6822F400728A6001684C
:1005F0008A6890F8303042EA43228A6001688A684B
:1006000022F480628A6001688A68406942EA802038
:10061000886010BD0023014000E0FFFF0000F0FFF4
:10062000FEE770474FF4007000F07EBC70B590F8A4
:100630003C20694D012A19D0012280F83C200A682B
:1006400007230468092A13D9E6680A3A02EB420232
:1006500093409E43E6600A788B680A3A02EB4202B6
:1006600093400268D4682343D36010E0022070BD39
:10067000266902EB420293409E4326610A788B680A
:1006800002EB42029340026814692343136102683B
:10069000936B23F4401393630268936B0C8A4F4E61
:1006A00006EB0454234393630A790B7CD21AD21CC1
:1006B00002EB82021F2393400268946B9C43946375
:1006C0000A790B7CD21AD21C02EB82030A8892B2FE
:1006D0009A4003689C6B22439A638A69AA42026823
:1006E000936823F470239360026893680CD08C693C
:1006F000234393600268936823F440139360026875
:100700009368CC69234301E023F4401393604A7D4E
:10071000002A0268536802D043F4806301E023F4A6
:10072000806353600A7D002A0268536802D043F454
:10073000805301E023F4805353604A68012A16D0A5
:10074000022A1FD0032A026827D0136A6FF30B0313
:1007500013620268136ACC6823431362214B046856
:100760001F4A9C4227D10C68122C20D023E002683B
:1007700053696FF30B03536102685369CC682343D9
:100780005361EBE7026893696FF30B0393610268AF
:100790009369CC6823439361E0E7D3696FF30B035C
:1007A000D3610268D369CC682343D361D6E7546828
:1007B00044F48004546004689C4208D109681029FC
:1007C00001D0112903D1516841F400015160002189
:1007D00080F83C10084670BD01000F000000F0FFDB
:1007E000002301400020014010B523492DED028B6C
:1007F00088423DD102F024FD02F042FC20491F480E
:100800000B6802695A630B6842699A6309688269D6
:10081000CA639FED1C8AD0ED0B0A0022B0EE480A95
:10082000114600EE880A1848BCEEC00A10EE103AD5
:1008300000F05EFB1548B0EE480A0022D0ED150A24
:100840001021114800EE880ABCEEC00A10EE103AE2
:1008500000F04EFB0E4CA068401CA060B0F57A7F03
:1008600006D34FF400510B4800F062FC0020A0605A
:10087000BDEC028B10BD000024000020B00300205E
:10088000F000002000000045DC000020F403002000
:10089000100000200008024008B500220092036802
:1008A000521F1A60012911D002290CD0032906D049
:1008B000042901D0009808BD0068806C01E0006840
:1008C000406C009008BD0068006CFAE70068C06BDF
:1008D000F7E7000078B50024009490F83C20012A46
:1008E00019D0012280F83C200A6807230568092AEC
:1008F00013D9EE680A3A02EB420293409E43EE603F
:100900000B788A680A3B03EB43039A400368DD686F
:100910002A43DA6010E0022078BD2E6902EB420221
:1009200093409E432E610B788A6803EB43039A4001
:1009300003681D692A431A614A681F23072A13D2D4
:1009400005686E6B521E02EB820293409E436E63FB
:100950000B790A885B1E92B203EB83039A4003680B
:100960005D6B2A435A6327E005680D2A12D22E6B6D
:10097000D21F02EB820293409E432E630B790A88BA
:10098000DB1F92B203EB83039A4003681D6B2A437B
:100990001A6311E0EE6A0D3A02EB820293409E4325
:1009A000EE620B790A880D3B92B203EB83039A4007
:1009B0000368DD6A2A43DA62164B0568144A9D42D1
:1009C00006D10D68122D03D1556845F48005556098
:1009D00005689D4218D10B68102B01D0112B13D143
:1009E000536843F400035360096810290CD10A4985
:1009F0000A4A0968B1FBF2F101EB8101490000E00C
:100A0000491E00910029FBD180F83C40002078BDB0
:100A100000230140002001400C00002040420F0054
:100A20007047704770B5044600680668456816F060
:100A3000020F05F020012AD049B3216CC90603D466
:100A4000216C41F400712164816811F0405F17D17D
:100A5000217EA9B9C16A11F4700F02D081684905DD
:100A60000ED4416821F020014160206C20F4807098
:100A70002064206CC00403D4206C40F0010020648A
:100A80002046FFF7CDFF21686FF01200086016F0D6
:100A9000040F05F0800132D089B3206CC00603D466
:100AA000206C40F4005020642068816811F4401FDD
:100AB0001ED1816B11F4401F02D08168490517D403
:100AC0004168490514D4816811F0405F10D1217E3E
:100AD00071B9416821F080014160206C20F48050A0
:100AE0002064206CC00503D4206C40F00100206419
:100AF0002046FFF779FE21686FF00C00086016F0C1
:100B0000010F05F040010FD071B120680068C007E7
:100B10000AD0206C40F480302064204600F043F876
:100B200021686FF00100086016F0200F05F0806169
:100B30000ED000290CD0606C40F002006064206888
:100B40006FF0200505602046FFF76BFF2068056009
:100B500070BD70B504004FF0000503D0206C002676
:100B600010B107E0012070BD204600F01DF866645A
:100B700084F83C60206CC00610D4206C20F48850AF
:100B800040F0020020642046FFF7B6FC6664206C4B
:100B900020F0020040F00100206400E0012584F80C
:100BA0003C60284670BD7047F0B587B004461421FC
:100BB0006846FFF7DBFB314A2F4F236800242F499B
:100BC000143A03252E480126BB4222D10B6843F478
:100BD00080730B60096801F480710591116841F020
:100BE00004011160116801F004010591116841F0E0
:100BF000020111601168029401F002010591322195
:100C0000CDE90015694600F09BF969461D4800963C
:100C100023E01D4FBB422CD10B6843F400730B60E3
:100C2000096801F400710591116841F00401116037
:100C3000116801F004010591116841F00101116092
:100C40001168009601F001010591CDE90154694652
:100C500000F076F90D4869460095CDE9015400F0A1
:100C60006FF900221146122000F0DEFA122000F087
:100C7000CDFA07B0F0BD000000200140443802402A
:100C80000008024000040240002101400000024030
:100C900070B5040003D094F8200010B104E00120E6
:100CA00070BD204600F082F82068016841F0010123
:100CB000016000F04BFA0546052604E000F046FA14
:100CC000401B0A2811D820684068C007F6D0206869
:100CD000016821F00201016000F038FA05460BE0DE
:100CE00000F034FA401B0A2806D9606A40F400304C
:100CF000606284F82060D2E7206840688007EFD403
:100D0000207E0128206801683DD021F0800101602B
:100D1000607E01282068016838D021F04001016020
:100D2000A07E01282068016833D021F020010160F5
:100D3000E07E0128206801682ED041F0100101609A
:100D4000207F01282068016829D021F00801016076
:100D5000607F01282068016824D021F0040101602F
:100D6000D4E902010843D4E904121143084361683D
:100D7000491E08432168C86100206062012084F890
:100D80002000002070BD41F08001C0E741F040012B
:100D9000C5E741F02001CAE721F01001CFE741F09B
:100DA0000801D4E741F00401D9E7000010B586B08E
:100DB000044614216846FFF7D9FA1449206888428E
:100DC00021D113480021026842F0007202600068DD
:100DD00000F0007005900E481038026842F00102E1
:100DE0000260006800F0010005904FF4C0500090D0
:100DF0000220CDE9010103200390092004906946F7
:100E0000044800F09DF806B010BD000000640040EA
:100E1000403802400000024070B500B3F9B1437998
:100E2000012B1ED0012646710223037105682C6830
:100E300002F0100340F6FE729A409443D1E900217B
:100E40000A439A4022432A6001680A68C0249C40F1
:100E5000A2430A60067100214171084670BD01205D
:100E600070BD022070BD70B5040003D0207900254C
:100E700010B105E0012070BD6571204600F008F852
:100E800002202071256101202071002070BD00002A
:100E900010B586B0044614216846FFF767FA114979
:100EA000206888421CD110480021026842F000529C
:100EB0000260006800F0005005900B48103802688E
:100EC00042F001020260006800F00100059030204D
:100ED00000900320CDE901016946044800F030F894
:100EE00006B010BD007400404038024000000240CF
:100EF00018B50024009440B100680090104431B14E
:100F0000143000900360002018BD012018BD083087
:100F1000F7E70000B0F5007F03D10249002009681F
:100F20004862704738010020044910B50A6802423F
:100F300002D00860FFF7EEFF10BD0000143C014036
:100F40002DE9F84FDFF8BCA10022012503264FF060
:100F50000F090AF1040BAAF1040E00BF0B6805FA91
:100F600002F42340A34270D10F7907F00307012F49
:100F700001D0022F16D187684FEA420806FA08FC12
:100F800027EA0C07D1F80CC00CFA08FC4CEA070C55
:100F9000C0F808C04768A7430C79C4F30014944014
:100FA0003C4344600C79E443A4070AD0C4684FEA88
:100FB000420C06FA0CF7BC438F6807FA0CF727437C
:100FC000C7600C7904F00304022C12D1D40800EBA2
:100FD000840CDCF820405707FF0E09FA07F824EAD2
:100FE0000804D1F8108008FA07F848EA0408CCF899
:100FF000208004684FEA420C06FA0CF7BC430F79D4
:1010000007F0030707FA0CF7274307604C6814F44E
:10101000403F70D03C4C276847F4804727602468E5
:1010200022F0030704F480440094384C07EB040CCE
:10103000DCF8084897074FEA177809FA08F7BC4325
:10104000334FB84202D1002724E054E0314FB84278
:1010500001D101271EE0304FB84201D1022719E02B
:101060002E4FB84201D1032714E02D4FB84201D1D1
:1010700004270FE02B4FB84201D105270AE02A4F81
:10108000B84201D1062705E0284FB84201D1072711
:1010900000E0082707FA08F72743CCF80878DAF8C1
:1010A00000405746D1F804C09C435FEACC2C00D5E1
:1010B0001C433C60DBF800405F46D1F804C09C4311
:1010C0005FEA8C2C00D51C433C60DEF8004077467C
:1010D000D1F804C09C435FEA8C3C00D51C433C60C3
:1010E000084F083F3C68D1F804C09C435FEACC3C01
:1010F00000D51C433C60521C102AFFF42FAFBDE802
:10110000F88F0000083C01404438024000300140A4
:10111000000002400004024000080240000C0240AF
:10112000001002400014024000180240001C02405F
:10113000426921EA02030A4043EA024181617047A1
:101140000AB1816170470904FBE70000014880682B
:1011500070470000000000200248816802781144B6
:1011600081607047000000200B4810B5016841F411
:1011700000710160016841F480610160016841F41F
:1011800080710160032000F06FF80F2000F006F876
:1011900000F024F8002010BD003C024070B50D4D59
:1011A00004464FF47A712878B1FBF0F00A490968D7
:1011B000B1FBF0F000F00AFB48B9102C07D2002276
:1011C0002146501E00F030F800206C6070BD0120F8
:1011D00070BD0000000000200C0000200A4808B587
:1011E000016841F480410160006800F48040009093
:1011F0000548001F016841F080510160006800F05F
:101200008050009008BD000044380240002809DBEF
:1012100000F01F02012191404009800000F1E02010
:10122000C0F8001170470000F0B40E4B1B680C466C
:10123000C3F30223C3F10705042D00D90425191DAA
:10124000072901D2002300E0DB1E012606FA05F182
:10125000491E214099409E40761E16403143F0BC05
:1012600001F0FABA0CED00E0064900F00702086848
:101270004FF6FF03184040EA0220034A104308607B
:10128000704700000CED00E00000FA052DE9F04782
:101290000E46050065D0DFF81481D8F80000F7B2DB
:1012A00000F00700B04207D288F80070D8F80000BC
:1012B00000F00700B04254D128683D4C810712D598
:1012C000400703D5206840F4E050206028780007EC
:1012D00003D5206840F4604020602068A96820F0B1
:1012E000F000084320602878C0072DD03049686896
:1012F0000839012812D0022813D0032811D0096818
:10130000890700292DDA216821F0030101432160BA
:10131000FFF71CFF814641F2883A0EE00968890315
:10132000EFE709688901ECE7FFF710FFA0EB09017F
:10133000514502D90320BDE8F0872068696800F0B4
:101340000C00B0EB810FEFD1D8F80010404601F04F
:101350000701B14207D90770006800F00700B042EA
:1013600001D00120E7E72878400705D52068E96823
:1013700020F4E050084320602878000706D5206854
:10138000296920F4604040EAC100206000F038F88C
:101390002168084AC1F30311515CC840064908603E
:1013A00006480068FFF7FAFE0020C4E7003C024050
:1013B00008380240FA3D00080C000020040000201C
:1013C0000448054900680968044AC1F38221515C58
:1013D000C84070470C000020083802400A3E000850
:1013E0000448054900680968044AC1F34231515C68
:1013F000C84070470C000020083802400A3E000830
:10140000154810B5006810F00C02144813D04110B4
:10141000042A0FD0082A0ED10F4C241F22682368FB
:1014200002F03F025B0207D52068C0F38810A0FBE2
:10143000010106E0084610BD2168C1F38811A1FB37
:1014400000010023FEF710FF2168C1F30141491C90
:101450004900B0FBF1F010BD083802400024F40050
:101460002DE9F84F04006ED02078DFF84C93C007C8
:10147000A9F104054AD009F104000168C1F3810112
:10148000012908D00068C0F3810002280AD1D9F8E8
:101490000000400206D52868800337D56068002820
:1014A000E1D033E06068B0F5803F10D0B0F5A02FF8
:1014B000286810D020F480302860286820F480202C
:1014C00028606068A8B1FFF741FE06460DE0286875
:1014D00040F48030F4E740F480202860F7E700BF54
:1014E000FFF734FE801B642873D828688003F7D583
:1014F0000CE0FFF72BFE064605E000BFFFF726FED7
:10150000801B6428F0D828688003F7D42078DFF89F
:10151000AC8280074FF0000A3ED5A748001D016845
:1015200011F00C0F08D00068C0F3810002280BD125
:10153000D9F80000400207D42868800716D5E06873
:10154000012800D112E033E1E068B8B10120C8F809
:101550000000FFF7FBFD064605E000BFFFF7F6FDC4
:10156000801B0228C0D828688007F7D52868216921
:1015700020F0F80040EAC10028600DE0C8F800A0A3
:10158000FFF7E4FD064604E0FFF7E0FD801B0228BC
:101590001FD828688007F7D42078000722D5864F07
:1015A00087486169703771B101210160FFF7CEFD95
:1015B000064604E0FFF7CAFD801B022809D83868F8
:1015C0008007F7D50EE0C0F800A0FFF7BFFD064684
:1015D00005E082E0FFF7BAFD801B02287DD838685D
:1015E0008007F7D42078400768D5DFF8CCB1002712
:1015F0000BF13C0BDBF80000C0000BD4DBF8001053
:1016000041F08051CBF80010DBF80000012700F01A
:10161000805000906B4E3068C00510D4306840F4A4
:1016200080703060FFF792FD009005E0FFF78EFDBF
:101630000099401A022850D83068C005F6D55E4E91
:10164000A0686C3601280FD00528306810D020F033
:1016500001003060306820F004003060A068B8B14C
:10166000FFF774FD00900FE0306840F00100F4E7F0
:1016700040F004003060F7E7FFF768FD0099411A79
:1016800041F28830814266D830688007F4D50EE098
:10169000FFF75CFD009007E0FFF758FD0099411A45
:1016A00041F28830814256D830688007F4D42FB197
:1016B000DBF8001021F08051CBF80010A069C8B30E
:1016C0003D49091D0968C1F3810102294AD0022858
:1016D000504607D0C8F8600000E03CE0FFF736FD58
:1016E00004463BE04746C8F86000FFF72FFD06467A
:1016F00005E000BFFFF72AFD801B02282BD82868D1
:101700008001F7D4D4E907010843A16A2E4A4908A9
:1017100002EB0141626A41EA8211084394F82C10FD
:1017200040EA0161C9F8001001203866FFF70EFD9C
:10173000044606E03EE000BFFFF708FD001B02285C
:1017400009D828688001F7D534E000BFFFF7FEFC18
:10175000001B022802D90320BDE8F88F2868800109
:10176000F4D427E00128F7D0D9F80000E26900F4AA
:10177000800191421CD1226A00F03F01914217D1B1
:1017800047F6C071626A0140B1EB821F10D1A26AB4
:101790004FF0FF3300F4403103EB5202B1EB024F44
:1017A00006D194F82C1000F07060B0EB016F01D0FE
:1017B0000120D1E70020CFE7043802400000474273
:1017C000800E4742007000400000FFFF10B5401E31
:1017D000B0F1807F01D3012010BD4FF0E0246061A3
:1017E0000F21601701F038F80020A0610720206168
:1017F000002010BD7047704710B590F83C20012ABA
:1018000022D0012280F83C20CA688C6822F4407201
:1018100022434C6822F4806222430C6822F4006266
:1018200022430C6922F4805222434C6922F4005274
:101830002243C969002322F480420A4301684A64B2
:1018400080F83C30002010BD022010BD70B590F82B
:101850003C20012A32D0012480F83C40022280F84A
:101860003D2003685A689D6822F070060A6832437A
:101870005A60134B02689A4214D0B2F1804F11D0D3
:10188000104B9A420ED0104B9A420BD00F4B9A42FB
:1018900008D00F4B9A4205D00E4B9A4202D00E4B05
:1018A0009A4204D1496825F080031943916080F879
:1018B0003D40002180F83C10084670BD022070BDFC
:1018C000000001400004004000080040000C0040FF
:1018D00000040140004001400018004010B5040021
:1018E00003D094F83D0010B107E0012010BD0020A6
:1018F00084F83C00204600F01FF8022084F83D00E8
:10190000211D206800F0AEFD012084F8460084F817
:101910003E0084F83F0084F8400084F8410084F8D9
:10192000420084F8430084F8440084F8450084F8B9
:101930003D00002010BD000008B500681549884230
:101940000FD11548016841F00101016000680022D3
:1019500000F00100009011461820FFF765FC1820E8
:1019600012E00E49884213D10B48001F016841F470
:10197000807101600068002200F4807000901146C0
:101980002D20FFF751FC2D20BDE80840FFF73EBC9D
:1019900008BD000000000140443802400020004023
:1019A00070B5044690F83C000025012817D00126A8
:1019B00084F83C60022084F83D002068826822F0B0
:1019C000770222F47F4282600868502838D00DDC0C
:1019D00020284FD005DC90B3102811D14AE0022016
:1019E00070BD302846D040280AD13BE060282FD077
:1019F00070280DD0B0F5805F03D0B0F5005F12D035
:101A0000012584F83D60002084F83C00284670BD24
:101A1000CB68D1E90121206800F08CFD2068816845
:101A200041F0770109E0CB68D1E90121206800F09D
:101A300081FD2068816841F480418160E1E719E01F
:101A4000CA684968206800F049FE5021206806E015
:101A5000CA684968206800F052FE6021206800F0E2
:101A600073FDCEE7CA684968206800F037FE402160
:101A70002068F4E7226801461046F0E72DE9F041BE
:101A80000D46040003D094F83D0018B108E0012091
:101A9000BDE8F081002084F83C00204600F040F8CA
:101AA000022084F83D002068816844F207029143D7
:101AB0008160211D206800F0D5FC22689068916942
:101AC000166A2B68AF69034340F20330814341EA51
:101AD0000721A868EF6908434FF6FC418843E9688D
:101AE00040EA0720014328692F6A000140EA0730D5
:101AF000084369686D6926F0AA0646EA0515294378
:101B000093602268906154F8460B0162012004F84A
:101B10001F09E0752076E0762077A0750020B7E7F2
:101B200070B586B0044614216846FEF71FFC1E49B6
:101B30001C4E256800231C4A103902241B48B5425C
:101B400011D1156845F002051560126802F0020215
:101B500005920A6842F002020A60096801F0020177
:101B60000591302113E0124EB54218D1156845F0A9
:101B700004051560126802F0040205920A6842F03A
:101B800002020A60096801F002010591C02100917A
:101B9000CDE90143CDE903346946FFF7D1F906B039
:101BA00070BD0000000400404038024000040240C4
:101BB0000008004070472DE9F04104460068C668FF
:101BC00005694FF00007A90713D5B10711D5F91E14
:101BD000016101202077206880698007204602D0BB
:101BE000FFF7E8FF04E000F0BFF8204600F051F9ED
:101BF0002777680716D5700714D521686FF00400A1
:101C00000861022020772068806910F4407F204618
:101C100002D0FFF7CFFF04E000F0A6F8204600F066
:101C200038F92777280715D5300713D521686FF0C5
:101C300008000861042020772068C06980072046DA
:101C400002D0FFF7B7FF04E000F08EF8204600F066
:101C500020F92777E80616D5F00614D521686FF02D
:101C600010000861082020772068C06910F4407FC8
:101C7000204602D0FFF79EFF04E000F075F82046F2
:101C800000F007F92777E80708D0F00706D02168A9
:101C90006FF001000861204600F0FCF8280608D526
:101CA000300606D521686FF0800008612046FFF7F6
:101CB000A1FD680608D5700606D521686FF04000C2
:101CC0000861204600F0E7F8A8060AD5B00608D556
:101CD00021686FF0200008612046BDE8F041FFF761
:101CE0008ABDBDE8F081000070B586B004461421BD
:101CF0006846FEF73BFB18492068884229D11748FF
:101D00000024016841F002010160016801F0020154
:101D10000591016841F0010101600068022500F0B1
:101D2000010005904FF460400090CDE90154012678
:101D3000CDE9034669460A48FFF702F94FF4E0602F
:101D40000090CDE90154CDE9034669460548FFF707
:101D5000F7F806B070BD00000000014030380240C6
:101D60000004024000000240704770B5044690F83D
:101D70003C0000260D4601280FD0012084F83C00CD
:101D80006AB1042A1DD0082A2FD00C2A3FD0012680
:101D9000002084F83C00304670BD022070BD2068F1
:101DA00000F0DAFB2068816941F008018161206858
:101DB000816921F004018161206881692A691143E8
:101DC00011E0206800F0F8FB2068816941F40061AF
:101DD00081612068816921F4806181612068816965
:101DE0002A6941EA02218161D2E7206800F01AFCE9
:101DF0002068C16941F00801C1612068C16921F012
:101E00000401C1612068C1692A69114311E0206899
:101E100000F03CFC2068C16941F40061C1612068A8
:101E2000C16921F48061C1612068C1692A6941EA00
:101E30000221C161ACE710B5040003D094F83D0065
:101E400010B107E0012010BD002084F83C002046BE
:101E500000F01EF8022084F83D00211D206800F0EB
:101E600001FB012084F8460084F83E0084F83F001E
:101E700084F8400084F8410084F8420084F843006C
:101E800084F8440084F8450084F83D00002010BD2B
:101E9000704770477047704770B5040004D094F8DD
:101EA0004100002510B106E0012070BD84F84050CB
:101EB000204600F023F8242084F841002068C168FF
:101EC00021F40051C160204600F02CFC206801691B
:101ED00021F4904101612068416921F02A014161AA
:101EE0002068C16841F40051C1606564202084F815
:101EF000410084F842006563002070BD10B586B0D3
:101F0000044614216846FEF731FA134920688842D6
:101F100020D112480021026842F4003202600068B9
:101F200000F4003005900D481038026842F00102BC
:101F30000260006800F0010005900C200090022073
:101F4000CDE901010320039007200490694604486D
:101F5000FEF7F6FF06B010BD0044004040380240D6
:101F600000000240FEE70000F0B58DB000240894A8
:101F700009940A94202168460B94FEF7F7F92E483D
:101F800001252C4905614FF480368460C0E90016B4
:101F9000047680F820402949C0E90A14C561C4606C
:101FA00080F830404561FEF7D4FD08B172B6FEE717
:101FB0000E270897CDE9095408A91F48FEF78AFCA7
:101FC00008B172B6FEE7CDE900750425A8040294B5
:101FD000CDE906608DF8154004958DF814406946EA
:101FE00015480394FEF722FB08B172B6FEE70F20F6
:101FF00000900220019069460F48FEF717FB08B1D8
:1020000072B6FEE7082000900320019069460A4856
:10201000FEF70CFB08B172B6FEE70B20CDE9000518
:1020200069460548FEF702FB002801D072B6FEE7BC
:102030000DB0F0BD00200140240000200100000F81
:102040007FB500241548009401940294124903942A
:1020500001604FF48031C0E901140461047680F816
:1020600020400F49C0E90A140125C561C46080F809
:1020700030404561FEF76DFD08B172B6FEE7009590
:10208000CDE9015469460548FEF724FC002801D03B
:1020900072B6FEE77FBD0000002101406C00002009
:1020A0000100000F0C4810B50A4901601021416081
:1020B00000218160C16001614161017641768176D4
:1020C000C17601774177FEF7E3FD002801D072B6B3
:1020D000FEE710BD00640040B40000202DE9F0418F
:1020E00086B014216846FEF741F9304800240168A3
:1020F00041F004010160016801F0040105910168EB
:1021000041F080010160016801F0800105910168E2
:1021100041F001010160016801F0010105910168D0
:1021200041F0020101600068214F00F002004FF40D
:1021300000550590002229463846FFF701F8DFF8E0
:102140007480AE00002231464046FEF7F9FF00954C
:102150000125CDE90154694638460394FEF7F0FEA7
:10216000CDE90065CDE9025469464046FEF7E8FE38
:102170002802CDE90004104D694628460294FEF776
:10218000DFFE681500904FF48810CDE90104694620
:102190002846FEF7D5FE002211461720FFF744F827
:1021A0001720FFF733F806B0BDE8F0813038024061
:1021B00000080240000002400004024030B595B023
:1021C00000240F9410941194129413941C216846C7
:1021D0001494FEF7CBF8202107A8FEF7C7F839487A
:1021E0003749C0E900142021816041F26701C0E94C
:1021F00003140121C0E90514FFF770FB08B172B6A2
:10220000FEE74FF480500F900FA92E48FFF7C8FB50
:1022100008B172B6FEE72B48FFF70DFE08B172B6A3
:10222000FEE77025CDE9135413A92648FFF70EFBEE
:1022300008B172B6FEE76020CDE9000402200290EA
:102240000820CDE903040594002269461D48069440
:10225000FFF78BFD08B172B6FEE704226946194804
:10226000FFF783FD08B172B6FEE7082269461548FC
:10227000FFF77BFD08B172B6FEE742F2CE00009593
:10228000CDE901040C2269460E48FFF76EFD08B146
:1022900072B6FEE7079464200894CDE909404FF434
:1022A0000050CDE90B4007A906480E94FFF7A4FAA9
:1022B00008B172B6FEE70348FFF716FD15B030BD52
:1022C00000000140F000002010B58CB024216846C9
:1022D000FEF74CF800241648099414490A94C0E902
:1022E000001442F21071C0E90241046184610320CC
:1022F000CDE900040120CDE902040494CDE90540B4
:10230000079469460A480894FFF7B8FB08B172B60B
:10231000FEE7099409A906480A94FFF797FA0028EE
:1023200001D072B6FEE70CB010BD00000004004002
:102330003801002010B58CB024216846FEF716F84D
:1023400000241548099413490A94C0E900144FF673
:10235000FF71C0E90241046184610120CDE90004FC
:10236000CDE902040494CDE90540079469460A4882
:102370000894FFF783FB08B172B6FEE7099409A938
:1023800005480A94FFF762FA002801D072B6FEE70A
:102390000CB010BD0008004080010020FEE7FEE701
:1023A00070477047FEF7D8BE30B593B0302168460D
:1023B000FDF7DCFF14210CA8FDF7D8FF1D48002510
:1023C000016841F080510160006800F08050119078
:1023D0001948016841F4804101600068022400F45A
:1023E00080401190012003901020049000940694E6
:1023F0000820CDE90750A820CDE9090404200B905E
:102400006846FFF72DF808B172B6FEE70CA90F2059
:1024100081E831004FF4A0500F904FF4805010909D
:1024200005210CA8FEF732FF002801D072B6FEE7A6
:1024300013B030BD403802400070004002480168CF
:1024400041F470010160704788ED00E00148FFF73A
:10245000B2BB0000F00000200148FFF7ACBB000059
:10246000C8010020F0B50268274B284D284E294F9F
:10247000294C4FF0804C984209D0604507D0A842C3
:1024800005D0B04203D0B84201D0A04204D122F01E
:10249000700E4A6842EA0E0298421BD0604519D07D
:1024A000A84217D0B04215D0B84213D0A04211D0E4
:1024B0001A4DA8420ED01A4DA8420BD0194DA84271
:1024C00008D0194DA84205D0184DA84202D0184D89
:1024D000A84203D122F44075CA682A434D6922F00C
:1024E00080022A438D68C5620D688562984201D0DA
:1024F000A04201D109690163016841F00401016052
:10250000012141610260F0BD000001400004004073
:1025100000080040000C0040000401400040014061
:10252000004401400048014000180040001C0040E9
:102530000020004010B5846842EA032224F47F445E
:102540000A432243826010BD826822F070020A436F
:1025500042F0070181607047F0B5036A026A22F019
:102560000102026242688469124E24F073050C680D
:102570002C4323F002058B682B430D4DA84201D05C
:10258000B04205D123F00807CB683B4323F0040396
:10259000A84201D0B04205D14D6922F440721543E2
:1025A0008A692A4342608461496841630362F0BDDD
:1025B0000000014000040140F0B5026A036A23F004
:1025C00010030362436884690D6824F4E64444EA16
:1025D00005248D6822F0200242EA05120F4D104EAC
:1025E000A84201D0B04206D1CF6822F0800242EA70
:1025F000071222F04002A84201D0B04207D14D6933
:1026000023F4406343EA85038D6943EA850343600D
:102610008461496881630262F0BD000000000140EE
:1026200000040140F0B5026A036A23F48073036278
:102630004368C46922F4007224F073050C68124EDA
:102640002C438D6842EA05220E4DA84201D0B042CB
:1026500006D1CF6822F4006242EA072222F48062A7
:10266000A84201D0B04207D14D6923F4405343EA58
:1026700005138D6943EA05134360C4614968C1636A
:102680000262F0BD000001400004014030B5046A60
:10269000026A22F4805202624268C3690D6823F420
:1026A000E64343EA05238D6824F4005444EA0534E4
:1026B000084DA84202D0084DA84204D14D6922F429
:1026C000804242EA85124260C36149680164046243
:1026D00030BD0000000001400004014010B5036A55
:1026E000046A24F001040462846924F0F00444EADA
:1026F000021423F00A020A438461026210BD10B57D
:10270000036A046A24F010040462846923F0A003BD
:1027100024F4704444EA023243EA01118261016206
:1027200010BD000070B5044600680169E26821F43C
:102730004051114301612169A068E2690843616960
:10274000114308432168CA6849F20C639A43024363
:10275000CA6020684169A26921F440711143416156
:1027600031492068884202D03049884202D1FEF7C0
:1027700037FE01E0FEF724FEE269002319216425FB
:102780003226B2F5004F626828D0A0FB0101930FFA
:102790009200FDF769FD0146B0FBF5F06FF01802FD
:1027A000504301EB800006EB0010B0FBF5F000F0A9
:1027B000F002B1FBF5F002EB0012B1FBF5F06FF0A7
:1027C0001803584301EB800006EB0010B0FBF5F056
:1027D00000F00F0021681044886070BDA0FB01016B
:1027E00092185B41FDF740FD0146B0FBF5F0020198
:1027F000B1FBF5F06FF01803584301EB800006EBD6
:10280000C000B0FBF5F000F0F80002EB4002B1FBB5
:10281000F5F0584301EB800006EBC000B0FBF5F08B
:1028200000F00700D6E7000000100140001401404E
:10283000FEE74100080218BF04200A0E18BF40F04E
:1028400001004FF07F4232EA010108BF40F0020070
:10285000012808BF052070470907090E002804DB7E
:1028600000F1E02080F80014704700F00F0000F144
:10287000E02080F8141D704710EE100A10B510EE1D
:10288000901A4FF0684202EB40032DED028BB3F13A
:10289000654F3CBF02EB4102B2F1654F7CD200BFF5
:1028A000C0F3C753C1F3C7529A1A1B2A09DD10F0AF
:1028B000004F14BF9FED6E0A9FED6E0ABDEC028BB8
:1028C00010BD12F11A0F1BDA11F0004F09D010F0F1
:1028D000004F0CBF9FED680A9FED680ABDEC028BAC
:1028E00010BD80EE208A18EE100AFFF7A2FF042820
:1028F00008BF00F067FAB0EE480ABDEC028B10BDCD
:102900004200B2EB410F37D910F0004F19BFDFED95
:102910005C1A9FED5C1ADFED5C1A9FED5C1AB0EE5D
:10292000602A0A46F1EE400A80F00041B0EE420A09
:1029300010460A1A5200B2F1807F34D2484010F09B
:10294000004FDFED532A9FED533A1DBFBEEE002A24
:1029500071EEE21A31EE431AB6EE002A04BF71EEB0
:10296000A21A31EE031AF0EE402A42EE602A40EE3F
:10297000020A82EEA02A18E011F0004F04BF9FED7A
:10298000461AF0EE411AD4D010F0004F1CBFDFED14
:10299000431A9FED431A00E026E004BFDFED411A21
:1029A0009FED411AC5E780EE202A22EE020ADFEDF4
:1029B0003F0ADFED3F2ABDEC028B40EE202ADFED1F
:1029C0003D0A40EE220ADFED3C2A40EE202ADFEDF0
:1029D0003B0A40EE220A22EE000A00EE201A31EEF7
:1029E000020A30EE210A10BD4FF07F42B2EB400FD9
:1029F00028BFB2EB410F05D2BDEC028BBDE8104001
:102A000000F0D5B940EA01035B0008BF41F0FF4187
:102A10000BD0B2EB400F08BFB2EB410F08D120F052
:102A2000804000EE100A21F0804100EE901A37E756
:102A3000B2EB400F12BF5FEA410240F0FF4001F0ED
:102A400000413FF42DAF4A0092EA40033FF528AF22
:102A5000002AACBF9FED1A1A9FED1A1A20EE010A48
:102A600060EE810A10EE100A10EE901A18E70000CE
:102A7000DB0FC9BFDB0FC93FDB0F4940DB0F49C08C
:102A80000000C9BF22AAFDB90000C93F22AAFD3932
:102A90000060ED3EC30ACE3700000000000049C0D0
:102AA00022AA7DBA0000494022AA7D3A2DAD65BD1B
:102AB0008FB8D53D0FB511BE61C84C3EA8AAAABEBD
:102AC0000000804F0000802F10EE101A08B5444A15
:102AD0006846B2EB410F28D94FF0E640B0EB410F0A
:102AE00094BF00204FF0FF3000900098002861DB79
:102AF00060EE000A10F0010F45D010F0020FDFED7C
:102B0000391A9FED391A00EEE11ADFED381A40EE5E
:102B1000811A21EEA01AF0EE400A40EE010A08BF29
:102B2000F1EE600AB0EE600A08BD314B21F00042C0
:102B300093423CD911F0004FDFED2E0A20EE201A0F
:102B4000DFED2D0A19BF31EE601A71EE200A31EE69
:102B5000201A71EE600ABDEEE01A11EE100A9FED28
:102B6000271A00F0030000EEC10A9FED251A00901D
:102B700000EEC10A9FED231A00EEC10A9FED221A52
:102B800000EEC10AB1E79FED211A9FED210A10F076
:102B9000020F00EE810A9FED1F1A00EE801AB7EEB9
:102BA000000A00EE810A18BFB1EE400A08BD00F02D
:102BB00011F99AE710EE100A4000B0F17F4F3CBFC8
:102BC000B7EE000A08BD07D14FF00100FDF703FC86
:102BD000BDE8084000F0EEB8BDE8084000F0E4B8F9
:102BE000B61F927E336D4C39DA82083CA0AA2ABE09
:102BF000490E494683F9223F0000004B0000C93FBF
:102C000000A0FD390020A2331A61342CB93AB2BABF
:102C1000CA9F2A3DDDFFFFBE00B510EE101A2DED54
:102C2000028B81B0524A6846B2EB410F2ED94FF069
:102C3000E640B0EB410F94BF00204FF0FF30009012
:102C40000098B0EE408A00286ADB10F0010F4BD0EC
:102C500068EE080A9FED471A9FED470A00EE810AC9
:102C60009FED461A10F0020F00EE801AB7EE000A30
:102C700000EE810A02BF01B0BDEC028B00BD00BFB7
:102C800001B0B1EE400ABDEC028B00BD3C4B21F01F
:102C90000042934241D911F0004FDFED3A0A20EE95
:102CA000201ADFED390A19BF31EE601A71EE200AE1
:102CB00031EE201A71EE600ABDEEE01A11EE100A34
:102CC0009FED321A00F0030000EEC10A9FED301AAA
:102CD000009000EEC10A9FED2F1A00EEC10A9FED91
:102CE0002E1A00EEC10AABE728EE080A9FED2B1A58
:102CF000DFED2B0A10F0020F40EE410A9FED291A7A
:102D000000EE201A61EE000AB0EE480A08EE200A32
:102D1000B6D101B0BDEC028B00BD00F05BF88FE7CF
:102D200018EE100A4000B0F17F4F0DD218EE100AD5
:102D3000FFF77FFD042808BF00F044F8B0EE480A12
:102D400001B0BDEC028B00BD09D10120FDF743FBB2
:102D500001B0BDEC028B5DF804EB00F02BB801B0C4
:102D6000B0EE480ABDEC028B5DF804EB00F01CB835
:102D7000B61F927EB93AB2BACA9F2A3DDDFFFFBEA6
:102D8000490E494683F9223F0000004B0000C93F2D
:102D900000A0FD390020A2331A61342C336D4C3968
:102DA000DA82083CA0AA2ABE30EE000A704730EE54
:102DB000200A7047DFED020A80EEA00A704700008B
:102DC000000000009FED020A20EE000A704700009C
:102DD000000000102DE9F0014FF07F42B2EB410FEF
:102DE0009FBF4FF0FF310160BDE8F00170474FF029
:102DF000004242EA0123C1F3C752783A551112F05A
:102E00001F0C434CCCF120067C44C1F3C752A2F105
:102E100078024FEA621204EB820254F8254008BFA0
:102E2000D2E9015612D0556804FA0CF425FA06F7D7
:102E30003C43976805FA0CF527FA06F8D26807FABA
:102E40000CFCF24045EA08054CEA0206A4FB034CE0
:102E5000A5FB0352A6FB03631D449D4234BF01261C
:102E600000261319334416B1934202D903E093426A
:102E700001D2012200E00022624402F1200C9206FD
:102E8000DC0C42EA443200EE102A5B03DFED210A3B
:102E9000F8EEC01A00EE103A4FEA9C1C11F0004FF9
:102EA000B8EE400AC0F800C020EE201A00EE105A1A
:102EB000DFED190AB8EE400A20EE200A71EE810A11
:102EC00070EE800A10EE902A02F500626FF30B029A
:102ED00000EE902A70EEE11A31EEC11ADFED101A01
:102EE00030EE411A9FED0D0A20EE800A01EE210A14
:102EF0009FED0C1A00EE810A04BFBDE8F001704797
:102F0000CCF180510160BDE8F001B1EE400A70479C
:102F100008100000000000360000802C22AAFD29C5
:102F2000DB0FC92F0000C92F10B5C169044651B18C
:102F3000884784F82400012807DB2046BDE81040BC
:102F4000072100F012B8FDF706FA10BD10B50446CF
:102F50000020A0622063062020712046FFF7E4FFD6
:102F60002046BDE8104000F01DB870B50446007959
:102F70000025884205D0072813D0062803D02171E8
:102F800005E006280DD106290BD007202071256306
:102F900000F0BDFEC4E90D052046BDE8704000F01C
:102FA00001B870BD10B568B14188027921F06F0198
:102FB00041F02001082A1ED2DFE802F006090C0FBA
:102FC0001215181BFDF7C7F921F0200113E041F09D
:102FD000400110E041F001010DE041F003010AE081
:102FE00041F0070107E021F02001F9E741F0080175
:102FF000F6E741F00801418010BD000090ED000AA5
:1030000090ED011ADFED1D1AFEEE000A60EE200AB7
:1030100021EE211A30EE812A30EEC11AB4EEC20A36
:10302000F1EE10FA04DDF0EE401AF0EE420A03E091
:10303000F0EE421AF0EE400AB4EEE11AF1EE10FAA8
:1030400002DDF0EE411A06E0B4EEE01AF1EE10FAFD
:1030500001D2F0EE410A71EEA00AF6EE001A60EE1F
:10306000A10A30EE600A81ED000A32EE600A81EDBD
:10307000010A31EE600A81ED020A7047D7B35D3F65
:10308000614810B5006840B36048016807290FD057
:10309000016806290FD00168052915DC016803299C
:1030A00012DB5B49006801EB800010ED030A06E0CB
:1030B0005748903001E05648783090ED000ABDE85E
:1030C0001040544800F074B9016802297EDC504970
:1030D00000683C3101EB8000EFE74F4C04F1280021
:1030E00094ED030A00F04EFD84ED040AD4ED050AC8
:1030F00020EE200A84ED090AD4ED080A30EE800A99
:1031000084ED080AD4ED070AB4EEE00AF1EE10FAF5
:1031100003DD94ED060A84ED080A84ED010A84EDCE
:10312000000A3E4C04F1180000F0E0FA58B3606861
:1031300094ED020AF7EE001A90ED001A31EE400A03
:1031400010EE100AB0F13F4F02D930EE210A06E02E
:1031500010EE100AB0F17C5F01DD30EE610AD4EDB3
:10316000030A94ED042A60EE800A71EEC21A94ED0F
:10317000050A20EE210A00EE820A84ED050A84ED9C
:10318000000A84ED021A264800F0ECFA2448264C86
:103190009FED240AD0ED240A84ED0B0AC4ED0C0A3D
:1031A000204600F03BF994ED0F0ADFED200A94ED84
:1031B000091AD4ED161A60EE200A94ED080A20EEE2
:1031C000C00A60EEC10A94ED151A00E01AE0184832
:1031D00000F0DAFB174800F00DFB10B11648FFF7BE
:1031E000B5FE164894ED080A80ED000A94ED090A30
:1031F00080ED010A94ED0A0A80ED020ABDE8104054
:1032000000F0D4BC10BD00001C00002020000020F5
:103210006402002044080020CC0600202007002083
:10322000F805002000000000F40300203ACD133F11
:1032300074070020640300200C030020B00300206A
:1032400010B501213248FDF727FB324C02212060E6
:103250002F48FDF721FB606003212D48FDF71CFB83
:10326000A06004212A48FDF717FB2B490860A4F150
:10327000300000F02BFDA4F16C0000F027FD04F1FC
:10328000240000F067FC04F10C0000F063FC23480C
:103290000068416A22484FF07C52C16090ED070AF5
:1032A000F8EE400A00EE101AB8EE401A81EE200A3D
:1032B000F7EE000A80ED000A70EE200A90ED041A85
:1032C000818A30EEC11A00EE901AF8EE600A61EEC3
:1032D000200ABDEEE01AB8EEC11A70EEC10AC0EDC8
:1032E000010AD0ED060A30EE601A11EE101A914272
:1032F00002DD8168491E816070EEC00A10EE901AEE
:10330000914202DD8168491C816080ED060A10BD92
:1033100024000020D00200201000002038010020EE
:1033200000070020B4EEE00AF1EE10FA01DD012002
:103330007047002070470B8818B1934204D85B1C7B
:1033400001E00BB15B1E0B8098B2904201D90120C5
:1033500070470020704710B5D0ED070A044690ED85
:10336000061A30EE600AD0ED090A30EE600AD0EDA0
:10337000050A00F02DFD84ED080A10BD10B5DFED43
:103380000B0A04462DED028B20EE208AB0EE480A8F
:10339000FFF742FC84ED000AB0EE480AFFF794FB09
:1033A00084ED010ABDEC028B10BD0000DB0FC940AB
:1033B00080ED000A416B00292FD0D0ED080AD0ED36
:1033C000011A90ED071A90ED022A60EEA10AD0EDE5
:1033D000042A41EE000A90ED091A41EE020A90ED2E
:1033E000052A90ED031A42EE410A90ED062A42EEBC
:1033F000620AC0ED0A0AC0ED021A80ED010A80EDF2
:10340000041AC0ED030AC16A491CC162026B9142F1
:1034100003D90021416301218163704770B50446DF
:103420002DED028B0068401C2060D4F8A40138B157
:10343000E06890ED010A04F14C00FFF79FFF0AE0FD
:10344000606900287ED090ED000A84ED130A90EDAB
:10345000010A84ED140A606890ED000A04F1A800E6
:1034600000F050F984ED100A606890ED010A04F153
:10347000C00000F047F984ED110AD4ED100AB0EE57
:10348000001AC4ED150A40EE010A9FED960A20EEDF
:10349000800A84ED160A9FED948A84ED178AA0684D
:1034A00090ED000A04F1F00000F02CF984ED0F0A11
:1034B00094ED151AD4ED141A94ED160AD4ED130AEE
:1034C00021EE212A04F5847504F59C7600EE202A6D
:1034D00020EE210A01EE600A84ED182A84ED190A13
:1034E000D4ED170AC4ED1A0AD4F8A01159B3D4EDDB
:1034F0000B0A94ED0C1A284670EEC20A71EE408A4F
:10350000B0EE600A00F007FA84ED1B0AB0EE680A1C
:10351000304600F000FA84ED1C0AD4F8AC0128B360
:10352000D4ED640A94ED191A206960EE810A90EDD9
:10353000001A61EE600AC4ED1D0A94ED651AD4ED1F
:10354000181A01E024E02DE021EE211AD0ED001A36
:1035500021EE211A84ED1E1AD4ED1B1A30EE010A59
:1035600071EEA00AC4ED1B0A84ED1C0AD4F8A80170
:1035700080B194ED270A04F5B47000F0DCF884ED16
:103580000D0A94ED280A04F5BE7000F0D4F807E0A7
:10359000FCF7E1FE94ED1B0A84ED0D0A94ED1C0A84
:1035A00084ED0E0AD4F8B40194ED0D0A60B1D4EDA7
:1035B000060A30EE200A84ED1F0A94ED0E0AD4EDBF
:1035C000070A30EE200A03E084ED1F0A94ED0E0A8C
:1035D00084ED200AD4F8B001F0B3D4ED0F0A10EE58
:1035E000900AB0F17C5F04DD94ED671A81EE200A49
:1035F00001E094ED670AD4ED1F0A60EE800AC4ED85
:10360000220AD4ED200A20EE800A00BF84ED230AAE
:10361000D4ED660A94ED220AB1EE601A00F0D8FBF0
:1036200084ED240AD4ED660A70EEC00AC4ED260AC1
:1036300094ED200A94ED071A30EE010AB1EE601AFB
:1036400000F0C6FB84ED250AD4F8A00138B394ED50
:10365000240AD4F8AC0100E03CE018B1D4ED1D0A16
:1036600030EE600AD4F8B40118B1D4ED060A30EE99
:10367000600A2846FFF76FFE94ED250AD4F8AC01E6
:1036800018B1D4ED1E0A30EE600AD4F8B40118B1B6
:10369000D4ED070A30EE600A3046FFF75CFE84ED99
:1036A000218AD4ED1F1A94ED141A94ED200AD4ED5A
:1036B000130A21EE812A00EE602A61EEA00A40EE94
:1036C000010A84ED082AC4ED090A84ED0A8ABDECDA
:1036D000028B70BD94ED1F0A84ED220A94ED200A3E
:1036E00094E700003ACD133F000000000168491C38
:1036F00001604268914203D30021016001207047BC
:1037000000207047F0EE400A90ED040A90ED001A98
:10371000D0ED021A20EE010A90ED031A01EE200A04
:1037200090ED011A01EEC10A80ED050AC0ED000A14
:1037300080ED010A7047F0EE400A90ED020A90ED2C
:10374000041AD0ED031A20EE010A90ED001A01EEE2
:10375000200A90ED011AC0ED030A01EE210A80ED66
:10376000040A704710B50446007A68B104F1780085
:10377000FFF7BCFF00283AD06068A0B1207A94ED32
:10378000220A022803D023E09FED190A2DE02168C8
:1037900049B1D4F880008A6894ED210A801A05287E
:1037A00003DD052006E0FCF7D6FD6FF00402904231
:1037B00000DA1046D1ED000A30EE600A00EE900A01
:1037C00004F13C00F8EEE00A30EE800A00F06AF8FE
:1037D00004F16C0000F0D6F96068D0ED000A04F145
:1037E0000C0030EE600A00F05DF884ED240A10BD94
:1037F0000000000010B504462DED028BD4E9050150
:10380000884349D12068D4ED070A90ED000A60682A
:10381000D0ED008A90ED018AFFF784FDA28E04F1BD
:103820004001FFF788FD30B1606940F00100606140
:10383000207EC00730D028EEA80AD4ED090A08EE91
:10384000080AFFF76FFD228F04F14401FFF773FDB3
:1038500030B1606940F004006061207E40071BD5F4
:10386000A06890EC020A30EE680A70EEC80A20EEFA
:10387000000A00EEA00AD4ED0A0AFFF753FD628F9A
:1038800004F14601FFF757FD50B1606940F00800B0
:103890006061207E000703D40120BDEC028B10BDC7
:1038A0000020FAE710B504462DED028BB0EE408AF9
:1038B00090ED000A20EE080A80ED070A90ED080A54
:1038C000D0ED010A90ED061A08EE200AD0ED050AA7
:1038D00000F07EFA84ED080AD4ED0B0A94ED021A8A
:1038E00078EE600A60EE810AC4ED090A94ED071AC9
:1038F00031EE000A30EE200A84ED0A0A94ED041A33
:10390000D4ED030A00F064FA84ED0A0A84ED0B8A10
:10391000BDEC028B10BD10B504462DED028BB0EE50
:10392000408A90ED000A60EE080AC0ED070A90EDAB
:10393000080A90ED011A00EE810A90ED061AD0ED0A
:10394000050A00F045FA84ED080AD4ED0B0A94ED5F
:10395000021A78EE600A60EE810AC4ED090A94ED5D
:10396000071A31EE000A30EE200A84ED0A0A94EDBF
:10397000041AD4ED030A00F02BFA84ED0A0A84ED50
:103980000B8ABDEC028B10BD70B504462DED048B87
:10399000D0F8C80000287DD094ED122AD4ED2A2A50
:1039A000D4ED244AD4ED273A22EE222AD4ED292A56
:1039B00070EEE40A94ED284A22EE822AD4ED232AFE
:1039C00063EEA00A94ED203A30EE620AD4ED1F2A8D
:1039D00044EE430A23EE800A04EE620A42EE220A13
:1039E00002EE430A73EE200A30EEE18A32EE800ADC
:1039F00084ED1F0AC4ED200A70EE418AD4ED2D0A31
:103A0000B1EE601AB0EE680A00F0E2F9D4ED2D0ACA
:103A1000B0EE409AB0EE480AB1EE601A00F0D8F964
:103A2000D4ED2E1A94ED2C1A04F14C0061EE890AA3
:103A300021EE800A61EE200A21EE000AC4ED230A7D
:103A400084ED240AB0EE600AFFF75CFE84ED210AE3
:103A500094ED240A04F16400FFF754FEF5EEC08AE9
:103A600084ED220AF1EE10FA01DCF1EE688AB5EE7F
:103A7000C08AF1EE10FA01DCB1EE488A94ED2F0A0B
:103A8000B4EEE80AF1EE10FA06D3B4EEC80AF1EE8D
:103A900010FA00E058E00AD2D4E93001884202D29C
:103AA000401CC4F8C00088420BD3002007E0D4F8C3
:103AB000C00018B1401EC4F8C00002D10120C4F8F3
:103AC000CC0094ED110A04F19400FFF757FC94ED3B
:103AD000220AD4ED250A94ED261A04F1100020EEF6
:103AE000200AD4ED210A054600EEC10AFFF7DAFEEE
:103AF00085ED0E0AD5ED0D0A95ED0C1A40EE010A82
:103B0000BDEEE00AB8EEC00A30EEC00A85ED0D0A3F
:103B100094ED120AD4ED2B0A20EE200AF7EE000AEB
:103B2000FEF7AAFED4ED110A9FED091A40EE010A34
:103B3000BDEEE00AB8EEC00A30EEC00A84ED010A1C
:103B400094ED120A84ED030ABDEC048B70BD0000F5
:103B500083F9223E10B5416891B191ED000AD0ED94
:103B6000030AB8EE400A20EE800AD0ED040A30EED7
:103B7000600AD0ED050A20EE800A80ED000A10BD33
:103B8000FCF7E9FB10B5D0ED000A044690ED021AEF
:103B900030EE600AD0ED010A00F01AF9D4ED000A07
:103BA00030EE800A84ED000A10BD000070B50400FC
:103BB0002DED048B39D0E068B0B314F1100F34D080
:103BC00004F12C012046FFF719FA9FED3F9A0025DA
:103BD000B7EE008AF6EE008A04EB8506D4ED070AFC
:103BE00096ED0B0A216CF8EE600A38EE400A20EEE2
:103BF000280A20EE800ABCEEC00A10EE100A51B36B
:103C0000E168D4ED090AD4ED0A1A01EB850130EE22
:103C1000A11A91ED000AB4EEC10AF1EE10FA06DD28
:103C2000216A0844012122E0FFE7FCF794FBB1EE92
:103C3000601A71EE611AB4EEE10AF1EE10FA0BD2DD
:103C4000216A814201D8401A00E0002004EB4501BE
:103C50004FF0FF320A8720E0B4EEC10AF1EE10FA0D
:103C600009DDB4EEE00AF1EE10FA04D2002104EB13
:103C70004502118711E004EB4501B1F93810012923
:103C800002D0491C03D008E0216A084405E0216AFB
:103C9000814201D8401A00E0002094ED070AB0EEFE
:103CA000491AF8EE400A00EE100AB8EE400A00F099
:103CB0008FF8BCEEC00A6D1C032D86ED040A8BDB69
:103CC000BDEC048B70BD00000000000010B5C168A1
:103CD000D9B10021C268D0ED050A52F8212000EECA
:103CE000102A00EB8102491CB8EE400A032920EE9D
:103CF000200AD2ED060A30EE600AD2ED090A20EE63
:103D0000800A82ED000AE5DB10BDFCF724FBFDF71D
:103D10001DBA00001CB5FDF727FAFEF745FBFEF7BC
:103D2000DDF9FEF721F9FEF749FAFEF789F9FEF70A
:103D3000CBFAFEF7FFFA22482049002401604FF435
:103D4000E131C0E901140C21C460C0E9044184617F
:103D5000C461FEF7A1F808B172B6FEE71848194928
:103D60004838C0E900144FF6FF71C0E90241046110
:103D70008461FDF7B3FD08B172B6FEE71349009404
:103D80001148019408600846FDF76DF808B172B655
:103D9000FEE70094002269460C480194FDF73CF8C8
:103DA00008B172B6FEE7102269460848FDF734F8FC
:103DB00008B172B6FEE7FEF775F9FEE70044004071
:103DC000100200200020004000740040DC000020B1
:103DD000B4EEC10AF1EE10FA02D2B0EE410A704719
:103DE000B4EEE00AF1EE10FAF9DDB0EE600A7047C9
:103DF0004FF04070E1EE100A704700000000000034
:103E00000000010203040607080900000000010287
:103E100003040000000000006E83F9A22915444E3F
:103E2000D15727FCC0DD34F5999562DB4190433CC6
:103E3000AB6351FE543E0008000000202400000047
:103E4000C4010008783E000824000020BC0E0000D9
:103E5000E001000801000000100000000000000068
:103E60000024F4000000000000000000000000003A
:083E7000010000000000000049
:040000050800018965
:00000001FF
