:020000040800F2
:100000003821002079020008634300083D3C0008C5
:100010006143000839050008254A00080000000077
:10002000000000000000000000000000674300081E
:10003000B905000800000000654300086943000896
:10004000930200089302000893020008930200083C
:10005000930200089302000893020008930200082C
:10006000930200089302000893020008930200081C
:100070003D0500089302000893020008930200085F
:1000800093020008930200082D050008930200085F
:1000900093020008930200089302000893020008EC
:1000A00093020008930200089302000893020008DC
:1000B00093020008930200089302000893020008CC
:1000C00093020008930200089302000893020008BC
:1000D0009302000893020008194A000893020008DE
:1000E000930200089302000893020008930200089C
:1000F000930200089302000893020008930200088C
:10010000930200089302000893020008930200087B
:10011000930200089302000893020008930200086B
:10012000930200089302000893020008930200085B
:10013000930200089302000893020008930200084B
:10014000930200089302000893020008930200083B
:10015000930200089302000893020008930200082B
:10016000930200089302000893020008930200081B
:10017000930200089302000893020008930200080B
:1001800093020008930200089302000893020008FB
:100190009302000800000000930200089302000888
:1001A00093020008930200089302000893020008DB
:1001B00093020008930200089302000893020008CB
:1001C00093020008930200089302000893020008BB
:1001D000930200089302000800F002F800F03CF8D7
:1001E0000AA090E8000C82448344AAF10107DA4592
:1001F00001D100F031F8AFF2090EBAE80F0013F0A8
:10020000010F18BFFB1A43F001031847D05B000031
:10021000F05B0000103A24BF78C878C1FAD85207C2
:1002200024BF30C830C144BF04680C607047000070
:100230000023002400250026103A28BF78C1FBD8EF
:10024000520728BF30C148BF0B6070471FB505F08B
:100250008FFD1FBD10B510BD00F01AF91146FFF754
:10026000F5FF05F015FD00F038F903B4FFF7F2FFD4
:1002700003BC00F0CDF8000009488047094800475A
:10028000FEE7FEE7FEE7FEE7FEE7FEE7FEE7FEE746
:10029000FEE7FEE704480549054A064B70470000A3
:1002A000D5430008D9010008381B00203821002060
:1002B000381D0020381D002053EA020C00F0698030
:1002C0002DE9F04B4FF00006002B1FBFB3FA83F56A
:1002D00003FA05F424FA05F65E4012BF1643B2FA9B
:1002E00082F502FA05F4C5F120051EBF22FA05FCCD
:1002F00044EA0C04203556EA044C4FEA144418BF73
:10030000641C4FF000084FF00009904271EB030CA1
:1003100039D3002919BFB1FA81F701FA07F6B0FA0B
:1003200080F700FA07F6C7F120071EBF20FA07FC86
:1003300046EA0C062037B6FBF4FCA7EB0507103F96
:1003400007F01F0BCBF120060CFA0BFB2CFA06F67C
:1003500044BFB3460026202FA4BF5E464FF0000BDB
:100360005BEA060C08BF4FF0010B19EB0B09ABFB66
:10037000027C48EB0608C01B06FB02CC0BFB03CC3F
:1003800071EB0C01C1E70B46024641464846BDE809
:10039000F08B13B54FF000004FF00001AFF3008079
:1003A000BDE81C40704710B5002000F042F8FFF790
:1003B00051FFBDE81040012000F02AB84FF00002C4
:1003C00000B5134694469646203922BFA0E80C504B
:1003D000A0E80C50B1F12001BFF4F7AF090728BF26
:1003E000A0E80C5048BF0CC05DF804EB890028BFA2
:1003F00040F8042B08BF704748BF20F8022B11F0CB
:10040000804F18BF00F8012B704770477047704746
:1004100001491820ABBEFEE72600020010B500F02F
:1004200015F8006810BD10B5044600F00FF8046020
:1004300010BD10B500F014F8BDE8104000F00AB887
:1004400000487047D81A00207047000000487047E5
:10045000D81A0020002801D0FFF7DABF704700004B
:1004600010B5002102A000F041F8012010BD0000ED
:10047000534947414252543A2041626E6F726D6156
:100480006C207465726D696E6174696F6E00000036
:100490007546FFF7D5FFAE4605006946534620F086
:1004A0000700854618B020B5FFF7F4FEBDE82040F0
:1004B0004FF000064FF000074FF000084FF0000B20
:1004C00021F00701AC46ACE8C009ACE8C009ACE8D3
:1004D000C009ACE8C0098D46704710B50446AFF3BB
:1004E00000802046BDE81040FFF7BFBE70B505464E
:1004F0000C460A2000E06D1C00F011F835B1287898
:100500000028F8D102E0641C00F009F814B120784A
:100510000028F8D1BDE870400A20AFF3008008B58C
:1005200069468DF800000320ABBE08BD014800F00D
:1005300097BB000028000020FEE70000014801F002
:100540001BB800004803002010B501680E4CCAB269
:100550001423083AA14203D2B2FBF3F20B4904E0A0
:10056000B2FBF3F2094920310832436C02F01F025A
:1005700023F003031944816404498031C1640121DB
:100580009140016510BD00000804024000080240CF
:100590000179084A01F07F0102EB81024265054AB8
:1005A0004432491E826501F01F0201219140C1655C
:1005B00070470000FC080240704772B6FEE77047C3
:1005C00010B520492DED028B884237D104F0A2FDF1
:1005D00004F0D8FC1D491C480B680269C3F89C2034
:1005E00009684269C1F81C218269C1F89C219FED0C
:1005F000188AD0ED0B0A0022B0EE480A114600EE30
:10060000880A1448BCEEC00A10EE103A00F02EFF23
:100610001148B0EE480A0022D0ED150A10210D480D
:1006200000EE880ABCEEC00A10EE103A00F01EFF81
:1006300005F092FB0948C168491CC160BDEC028B02
:1006400010BD000028000020940800202001002098
:100650000000004594000020E80400201000002065
:100660000068A1F580710F390ED0B1F5837F08D0F5
:10067000B1F5037F02D0D0F880007047D0F88C002D
:100680007047D0F888007047D0F8840070477047F2
:10069000704770472DE9F04F044690F858009BB022
:1006A0000F464FF0000B012812D0012084F85800AB
:1006B00000261796189620684FF0A048DFF81C9186
:1006C000DFF81CA1474D404506D12846009508E0BB
:1006D00002201BB0BDE8F08F48450AD15046CDF846
:1006E00000A003F0BAFA0090206803F0B6FA40B117
:1006F00009E0E06D40F02000E06584F858600120DA
:10070000E7E7009850B1E06D40F02000E0654FF061
:10071000010B00BF84F858605846DAE7206841466C
:10072000884201D0A84201D12F4800E02F48D7F8D5
:1007300000C02F4B40F61F72BCF1000F2DD0D0F837
:1007400008C094F838802CF4604C4CEA483CD7F848
:1007500004804CEA080CC0F808C0D4F800C08C45EE
:1007600001D0AC4504D18968AB6801F0010109E012
:10077000D9F80810DAF8085001F0010105F0010578
:100780009B68294303F001031943C3D1BB6839684F
:1007900019438368934319431DE0876827F4604732
:1007A000876027688F4201D0AF4204D18968AB6867
:1007B00001F0010109E0D9F80810DAF8085001F059
:1007C000010105F001059B68294303F0010319436A
:1007D000A0D18168914381609CE700000004005033
:1007E00000050050000100500003005000070050B9
:1007F000000600502DE9F84F00270446009790F8B6
:100800005800DFF818840D46B946012811D001269A
:1008100084F85860206803F01CFA60B1E06D40F085
:100820002000E0655FF0010784F858903846BDE885
:10083000F88F0220FBE7D5E900210C23206803EAAA
:1008400091131844036B01F01F014FF01F0C0CFAB9
:1008500001FCC2F3846223EA0C038A40134303635E
:10086000206803F0F6F98246206803F0EEF95AEAB0
:1008700000003CD1AA6829682068B2F1004F37D047
:1008800003F0F7F92068416921F0004141612068D7
:100890006969C268C2F3C102520091402A69042A00
:1008A00031D000EB82002B68026EDFF874C303F0D6
:1008B000F84302EA0C020B431A4342F0004101667E
:1008C00020682A69A96900EB8200026E22F080721A
:1008D0000A430266297F20682A69012910D0002175
:1008E00000EB8200026E22F000720A4302667DE095
:1008F000002203F0BEF92068416941F00041C5E7DC
:100900004FF00071ECE7002103F099F940032068F3
:100910004FF0000172D003F092F990FAA0F0B0FA13
:1009200080F1286842036ED090FAA0F0B0FA80F00F
:10093000814204D100221146206803F0A9F9012167
:10094000206803F07CF9400320684FF001015DD07E
:1009500003F075F990FAA0F0B0FA80F1286842032C
:1009600059D090FAA0F0B0FA80F0814204D1002270
:100970000121206803F08CF90221206803F05FF95F
:10098000400320684FF0020148D003F058F990FA74
:10099000A0F0B0FA80F12868420344D090FAA0F0A9
:1009A000B0FA80F0814204D100220221206803F0D5
:1009B0006FF90321206803F042F9400320684FF0EB
:1009C000030133D003F03BF990FAA0F0B0FA80F1C4
:1009D000286842032FD090FAA0F0B0FA80F081424C
:1009E00004D100220321206803F052F920688168B5
:1009F00011F0010F22D0ACE000E004E003F01FF999
:100A0000C0F384618DE7C0F3846091E703F017F9C8
:100A1000C0F38461A2E7C0F38460A6E703F00FF996
:100A2000C0F38461B7E7C0F38460BBE703F007F964
:100A3000C0F38461CCE7C0F38460D0E72A7B2968E7
:100A400050F8B03FC1F3120C23EA0C0302F0180C6B
:100A5000744A22FA0CF20A4013430360E9684145E4
:100A600077D1286841031CD090FAA0F1B1FA81F146
:100A7000491C01F01F0109294FEA403132D80029F1
:100A800012D000BF90FAA0F1B1FA81F101F1010199
:100A900001F01F0106FA01F609D100BFC0F384611D
:100AA00009E0C0F38461E3E7C0F38461EEE790FA04
:100AB000A0F1B1FA81F101F1010101F01F0146EA53
:100AC000816102D1C0F3846003E090FAA0F0B0FA33
:100AD00080F000F1010000F01F0000EB400041EA4F
:100AE000005132E000290ED090FAA0F1B1FA81F164
:100AF00001F1010101F01F0106FA01F606D100BF64
:100B0000C0F3846106E0C0F38461F1E790FAA0F1DC
:100B1000B1FA81F101F1010101F01F0146EA8161A1
:100B200002D1C0F3846003E090FAA0F0B0FA80F044
:100B300000F1010000F01F003B4A00EB400002EB17
:100B4000005041EA000141F00071AA68206803F0FA
:100B500090F836482B6803423FF466AE21684FF0A8
:100B6000A04C334D3348344E614501D0A94201D1E8
:100B7000024600E032469268DFF8C08002F0E07280
:100B8000434503D0DFF8B880434521D15FEA02280E
:100B90001ED4614506D02B4B99427FF445AEA94245
:100BA00000D0304642F40001826822F0E0720A432D
:100BB0008260254825490068B0FBF1F0401C00EB3D
:100BC0004000800000E0401E00900028FBD12BE692
:100BD000DFF87C8043450DD15FEAC2180AD4A942F0
:100BE000F5D01C4B9942F2D0614500D0304642F01E
:100BF00080710CE0DFF860804345E8D15302E6D411
:100C0000A942E4D0614500D0304642F480018268B8
:100C100022F0E0720A43826006E6000000007F4096
:100C200000F0FF03FFFF0700000020FE0000088027
:100C3000000100500003005000070050000021C3D5
:100C40001000C090000600500C000020400D030072
:100C5000000052C700050050000084CB7047704769
:100C60002DE9F84F04460068066845684FF0A04833
:100C7000DFF89092404501D0484501D1A24800E0FC
:100C8000A248806800F01F07B0070ED5A8070CD552
:100C9000E06DC00603D4E06D40F40060E0652046DE
:100CA000FFF78DFC216802200860DFF864B2DFF8EE
:100CB00064A2700701D5680703D430073FD5280721
:100CC0003DD5E06DC00603D4E06D40F40070E065F2
:100CD000206802F0C6FF60B32068484501D1424653
:100CE00004E0584501D1524600E00246824208D055
:100CF0003FB1052F05D0092F03D0484503D1414608
:100D000006E0C16805E0584501D1514600E00146C2
:100D1000C96889040DD4016809070AD502F099FF52
:100D200058B3E06D40F01000E065206E40F0010027
:100D300020662046FFF792FF21680C200860B0066D
:100D400001D5A80603D470065FD568065DD5E06DB1
:100D5000C00603D4E06D40F40050E0652068C16C2B
:100D600011F4C07F1AD00021009102F07AFF0246F0
:100D70002068484514D1434617E02068416821F0B7
:100D80000C014160E06D20F48070E065E06DC0040E
:100D9000CFD4E06D40F00100E065CAE70121E3E750
:100DA000584501D1534600E00346834208D03FB185
:100DB000062F05D0072F03D0484503D1414606E052
:100DC000C16805E0584501D1514600E00146C968B7
:100DD000009BA3B18B0102D58AB18A040FD40268AB
:100DE00052060CD589020AD402F02FFFF0B3E06D51
:100DF00040F01000E065206E40F0010020662046C3
:100E0000FFF7DEFB21686020086030060BD528065E
:100E100009D5E06D40F48030E065204600F094F99B
:100E2000216880200860F0050CD5E8050AD5E06D42
:100E300040F40030E0652046FFF72AFC21684FF4BB
:100E400080700860B0050CD5A8050AD5E06D40F4A7
:100E50008020E0652046FFF71CFC21684FF40070FD
:100E60000860F00631D5E8062FD500E009E0E06B18
:100E7000E8B12068EFB3404501D0484512D122487F
:100E800011E02068416821F060014160E06D20F4CC
:100E90008050E065E06DC005B1D4E06D40F0010028
:100EA000E065ACE71948806800F4604050B1E06D3F
:100EB00040F48060E065206E40F00200206620462D
:100EC000FFF7CDFE216810200860700517D5680572
:100ED00015D5E06D40F48040E065206E40F00800DC
:100EE000206621684FF4806008602046BDE8F84F16
:100EF00000E001E0FFF7CBBBC068C007D6E7BDE864
:100F0000F88F00000001005000030050000700505F
:100F10000005005000040050F8B54FF00005040033
:100F20002E46009502D0E06D10B107E00120F8BD1B
:100F3000204600F00BF9266684F858602068816826
:100F4000C1F3407119B18168734A11408160206812
:100F50008168C1F3007189B98168704A114041F01C
:100F6000805181606E486F490068B0FBF1F040002D
:100F7000801C00E0401E00900028FBD120688168A2
:100F8000C1F3007141B9E16D41F01001E165216EDD
:100F900041F001012166012502F05BFEE16DC90609
:100FA00000D430B1E06D40F01000E0650125284626
:100FB000F8BDE06D20F4807040F00200E06520682C
:100FC000816811F0010F27D14FF0A043564A984293
:100FD00001D0904204D19968966801F001010AE0BD
:100FE00052498968524E01F00101B66806F00106C7
:100FF0003143504EB66806F0010631430CD1984299
:1010000001D0904201D14C4800E04C4861688268B0
:1010100022F47C120A438260E168E06B627F08433D
:10102000A16841EA4231084394F8241040EA0140A3
:10103000012904D1218D424A02EB41410843E16A72
:1010400029B101F47871226B014342EA0100226860
:10105000D1683C4B19400143D16020680169626B43
:1010600021F0406111430161206802F0EEFD70BB88
:10107000207F94F838102268800340EA4100D1684C
:1010800044F2020399430143D1602069002820689B
:1010900001690AD041F480310161206850F8C01F15
:1010A00022696FF30D01114307E021F480310161E2
:1010B000206850F8C01F6FF30D01016094F84000E4
:1010C00001280CD02068016921F0010101616069EB
:1010D00001282068016B21F00F0111D013E0D4E941
:1010E00011010843D4E913121143084321680A6926
:1010F00040F2FC739A43104340F001000861E6E7B8
:10110000226A521E11430163E06D20F0020040F09C
:101110000100E0654BE70000C0FFFF5FC0FFFF7FFD
:101120000C000020400D030000010050000400509E
:10113000000500500006005000030050000700505A
:101140000000FEFF0740F0FF7047000030B59BB085
:101150000446142115A8FFF731F954216846FFF71A
:101160002DF92068B0F1A04F3CD14FF40040009021
:1011700080031190684601F0BFFA08B1FFF71DFA2D
:101180001948C16C41F40051C164C16C01F40051B3
:101190001A91C16C41F00401C164C16C01F00401F9
:1011A0001A91C16C41F00101C164C06C15A900F035
:1011B00001001A900F200324002581E831000B481C
:1011C00000F0E6FB15A94FF090401594CDE91645C7
:1011D00000F0DEFB00221146122001F0F5F912208A
:1011E00001F0E4F91BB030BD0010024000080048D7
:1011F0002DE9F04790460D4604004FF0000A0FD04D
:1012000075B1607901280ED04FF0010984F805907E
:1012100002202071A96808F01006042905D04AE0D0
:101220000120BDE8F0870220FBE700F0D1FC074673
:101230005FEA08004FF0030809D022E000F0C8FC84
:10124000C01B012803D92068406B000411D420681A
:10125000406B0004F2D42168686A086418E000BF9B
:1012600000F0B6FCC01B01280BD92068406B002899
:1012700007DA206940F00800206184F80480032028
:10128000CFE72068406B0028EADB2168686A486481
:101290002068816C40F2FF32B2409143AA6AB240AA
:1012A000114381642068C16CFF22B2409143EA6A15
:1012B000B2401143C164E869012808D12268916BEA
:1012C0001F20B0408143286AB040084390632068E3
:1012D000C06B0721B1408843A969012903D00229C5
:1012E00057D06969F1B300216B69AA681A430A43B0
:1012F0004FF4807101FA06F398432B79012B00D04B
:10130000002111434FF4007202FA06F398436B79FF
:10131000012B00D0002220F44047286842EA01084F
:10132000022838D057EA0007216808FA06F0384347
:10133000C863206801684FF48042B2409143016065
:101340002268116840F6FE70B0408143E868B04002
:101350000843106020680168C022B24091430160D8
:10136000287B00E015E0297CC0F3830001F03C01FC
:1013700040EA811021680A6E40F60F73B3409A4329
:10138000B04002430A6684F8049000206071504621
:1013900047E70121A8E701F01DFC0649884202D970
:1013A00047F40047C0E704498842BDD947F4804765
:1013B000BAE700000068890900B4C40470B50400ED
:1013C00003D02079002510B105E0012070BD6571C2
:1013D000204600F007F802202071256101202071CD
:1013E000002070BD30B587B0044614216846FEF772
:1013F000E5FF24681A4D00221A4903234FF090405C
:10140000AC4211D1CC6C44F48034CC64CC6C04F488
:1014100080340594CC6C44F00104CC64C96C01F0B8
:1014200001010591302113E00F4DAC4216D1CC6C77
:1014300044F40034CC64CC6C04F400340594CC6CDB
:1014400044F00104CC64C96C01F001010591402114
:10145000CDE900130292694600F09AFA07B030BD58
:101460000008005000100240000C005018B5002485
:10147000009448B10068C46B0090104431B114303E
:1014800000900360002018BD012018BD0830F7E768
:1014900010B5002140B190F825300122022B05D073
:1014A0000421C163012124E0012010BD03681C68F0
:1014B00024F001041C6003681C6824F00E041C6006
:1014C000836C1C6824F480741C6090F84430046CB5
:1014D00003F01F0302FA03F36360D0E913345C6086
:1014E000436D33B11C6824F480741C60D0E9163459
:1014F0005C6080F82520002280F82420084610BD7A
:1015000070B590F82520002401212346022A07D037
:101510000422C26380F8251080F82430012429E0D9
:101520000268156825F0010515600268156825F048
:101530000E051560826C156825F48075156090F8AD
:101540004420056C02F01F0201FA02F26A60D0E941
:1015500013255560426D32B1156825F4807515600C
:10156000D0E91625556080F8251080F82430816B6D
:1015700001B18847204670BDF0B4016C0C68016869
:101580000D6890F8442002F01F06042202FA06F3C8
:10159000234211D06B070FD50B689B0603D40B6851
:1015A00023F004030B6090F8441001F01F018A40FF
:1015B000016C4A60016B1DE0022303FA06F7274223
:1015C0004FF0000C4FF0010218D0AF0716D50C6891
:1015D000A40605D40C6824F00A040C6080F82520C9
:1015E00090F8441001F01F018B40016C4B6080F8B3
:1015F00024C0C16A00291AD0F0BC08470823B340B0
:10160000234214D02B0712D50B6823F00E030B6076
:1016100090F84410036C01F01F0102FA01F15960C7
:10162000C26380F8252080F824C0416BE2E7F0BC5B
:101630007047000070B504000CD02C4A21681420BB
:10164000914209D22A4A0A44B2FBF0F08000606459
:1016500028480AE0012070BD244A52420A44B2FBE5
:10166000F0F080006064214808382064022084F88B
:1016700025000A6847F6F0708243D4E90203184354
:10168000D4E904352B431843A3691843E36918438D
:10169000236A1843104308602046FEF755FFA068F0
:1016A0000025B0F5804F00D165602079A16C00F075
:1016B0007F000860D4E9130141606068401E032880
:1016C00008D82046FEF764FF606D0560D4E9160176
:1016D000416002E06565A565E565E563012084F884
:1016E000250084F82450002070BD0000080402404A
:1016F000F8FFFDBF000002402DE9F041040006D0D4
:10170000DFF8F48194F85C00002518B107E00120AF
:10171000BDE8F08184F85D50204600F0F9F82068BB
:10172000816921F01001816100F052FA0646032719
:1017300005E000BF00F04CFA801B0A2811D8206891
:1017400080690007F6D42068816941F00101816158
:1017500000F03EFA06460BE000F03AFA801B0A2839
:1017600006D9206E40F00100206684F85C70CEE758
:1017700020688069C007EFD02068816941F00201CC
:1017800081612168414502D15C4960680860207C24
:1017900001282068816937D041F040018161607C77
:1017A00001282068816932D021F480418161A07CC8
:1017B0000128206881692DD041F480518161206821
:1017C0008169A26821F440711143816120688169B7
:1017D00021F0A40181612068016921F010010161FB
:1017E000E068012819D010B302281BD02068816955
:1017F00041F0800181612068016941F010010161BF
:10180000E06803280ED012E021F04001C6E741F461
:101810008041CBE721F48051D0E72068816941F015
:10182000040103E02068816941F020018161207E8C
:10183000E26940066FF0FF0101EB0222A0F10070A7
:101840001043226AA38A521E10430A0202EB03438A
:1018500018432368D861A068B0F5407F10D1D4E95F
:101860000A0301EB0321401E0843216B131303EB12
:1018700001110843A18C02EB014108432168C860B3
:10188000206850F8C01FE26B114301601D4A2168B7
:101890001B48914200D11C481C4A914201D100F5DD
:1018A000D460206451F8802FA38E22F4F81242EA0B
:1018B00003420A6000F170016164216851F8802FD1
:1018C00094F8383022F0706242EA03620A6000F154
:1018D000B001A164D831E164D83121651831616566
:1018E000D83100E020C08842FCD3A56525660120E0
:1018F00084F85C0000200BE70064004000650040B5
:1019000000A400400068004050A70040006C004068
:1019100010B59CB00446142115A8FEF74FFD5421C4
:101920006846FEF74BFD17492068884228D180148D
:10193000009040030E90684600F0DEFE08B1FEF70E
:101940003CFE1148816D41F000718165816D01F0AF
:1019500000711A91C16C41F00201C164C06C15A9FB
:1019600000F002001A904FF440701590022016907B
:1019700000201790189009201990044800F008F8EA
:101980001CB010BD0064004000100240000400487C
:101990002DE9F04FDFF80C92002301260325A9F171
:1019A000040B85B00F2709F1040AABF1040EF1E036
:1019B00006FA03FC12EA0C027ED00C7904F0030450
:1019C000012C01D0022C20D1846800945C0005FA1F
:1019D00004F80494009C24EA08040094D1F80C80D4
:1019E000049C08FA04F8009C48EA0408C0F808803F
:1019F000446824EA0C0491F804C0CCF3001C0CFAEF
:101A000003FC4CEA040CC0F804C00C79E443A407BE
:101A100002D18C68012C0ED0C4684FEA430805FA45
:101A200008FC24EA0C04D1F808C00CFA08FC4CEAC3
:101A3000040CC0F80CC00C7904F00304022C16D17D
:101A4000DC0800EB840CCDF808C0DCF820C05C0793
:101A50004FEAD46807FA08F42CEA040C0C6904FA7B
:101A600008F444EA0C04DDF808C0CCF8204004680F
:101A70004FEA430805FA08FC24EA0C0491F804C074
:101A80000CF0030C0CFA08FC4CEA040CC0F800C083
:101A90004C6814F4403F7CD0434CD4F860C04CF008
:101AA000010CC4F860C0246E23F0030C04F00104A0
:101AB00000943E4C644400E06BE00294A4684FEA5A
:101AC000837C4FEA1C7807FA08FC24EA0C04B0F186
:101AD000904F06D0DFF8D8C0604505D14FF0010C1B
:101AE00020E04FF0000C1DE0DFF8C8C0604502D1D7
:101AF0004FF0020C16E0DFF8C0C0604502D14FF095
:101B0000030C0FE0DFF8B4C0604502D14FF0040CC5
:101B100008E0DFF8ACC0604502D14FF0050C01E0F1
:101B20004FF0060C0CFA08FC4CEA040C029CC4F8BA
:101B300008C0D9F80040CC46D1F8048094435FEA4D
:101B4000C82800D51443CCF80040DAF80040D44649
:101B5000D1F8048094435FEA882800D51443CCF878
:101B60000040DBF80040DC46D1F8048094435FEA93
:101B7000883800D51443CCF80040DEF80040F44625
:101B8000D1F8048094435FEAC83800D51443CCF8F8
:101B900000405B1C0C682246DC407FF409AF05B0B6
:101BA000BDE8F08F08040140001002400000014031
:101BB0000004004800080048000C004800100048DD
:101BC000001400480AB181617047816270470000CB
:101BD00001488068704700000000002030B590F890
:101BE000DD30022B15D090F8DC30012B11D0012311
:101BF00080F8DC30022480F8DD400024202949D020
:101C00000EDC042934D006DC012923D0022911D1AD
:101C100026E0022030BD082930D010290AD133E057
:101C200040293DD0802943D0B1F5807F46D0B1F521
:101C3000007F49D0072180F8DD1080F8DC4000BF2C
:101C400090F8DD10072945D080F8DD3080F8DC40C1
:101C5000002030BD0168D1F8005462F3040504E0AF
:101C60000168D1F8005462F38A15C1F80054E7E71F
:101C70000168D1F8005462F31035F6E70168D1F835
:101C8000005462F39645F0E70168D1F8005462F31E
:101C90001C65EAE70168D1F8045462F3040504E026
:101CA0000168D1F8045462F38A15C1F80454C7E7F7
:101CB0000168D1F8045462F31035F6E70168D1F8F1
:101CC000045462F39645F0E70168D1F8045462F3D6
:101CD0001C65EAE7012030BDF0B590F8DD30022B3D
:101CE0001AD090F8DC30012B16D0012680F8DC6089
:101CF000022380F8DD300468D4F88053D4F8FC3334
:101D0000002720296ED00EDC04293DD006DC0129F5
:101D100022D0022911D12AE00220F0BD082940D0AA
:101D200010290AD14AE040297ED0802977D0B1F528
:101D3000807F75D0B1F5007F73D0072280F8DD2059
:101D400080F8DC7090F8DD20072A6BD0102901683C
:101D500069D2C1F88053C9E025F4E02C15685268B7
:101D600005F4E02545EA0C05C4F8BC23EAE725F4B0
:101D7000601C15684FF4601E0EEAC505526845EAFE
:101D80000C05C4F8C023DDE725F0E07C15684FF0B2
:101D9000E07E0EEA8515526845EA0C05C4F8C423B6
:101DA000D0E725F0606C15684FF0606E0EEA4525AF
:101DB000526845EA0C05C4F8C823C3E723F0070CB2
:101DC0001368C3F3024343EA0C03D4F8F8C32CF0BE
:101DD0001F0CC4F8F8C30468D4F8F8C3127902F0F1
:101DE0001F0216E023F0700C13684FF0700E0EEA1D
:101DF000133343EA0C03D4F8F8C32CF4787CC4F80A
:101E0000F8C30468D4F8F8C352684FF4787E0EEA39
:101E100042124CEA020CC4F8F8C393E704E01BE05A
:101E200032E047E05EE05FE023F4E06C13684FF4DB
:101E3000E06E0EEA132343EA0C03D4F8F8C32CF443
:101E4000F84CC4F8F8C30468D4F8F8C352684FF4E7
:101E5000F84E0EEA8222DCE723F4E04C13684FF4DC
:101E6000E04E0EEA131343EA0C03D4F8F8C32CF443
:101E7000F81CC4F8F8C30468D4F8F8C392884FF487
:101E8000F81E0EEA0242C4E723F4E02C136803F4C0
:101E9000E02343EA0C03D4F8F8C32CF0787CC4F8B0
:101EA000F8C30468D4F8F8C392884FF0787E0EEA3D
:101EB0004252AEE723F4E00C13684FF4E00E0EEA52
:101EC000031343EA0C03D4F8F8C32CF0F84CC4F81D
:101ED000F8C30468D4F8F8C312794FF0F84E0EEA4C
:101EE000826296E70120F0BDC1F8FC3380F8DD6026
:101EF00080F8DC700020F0BD10B590F8DC20012ADD
:101F000021D0012280F8DC20022380F8DD304B1C38
:101F10001BD00368D3F8CC4344F00204C3F8CC438D
:101F20000368D3F8CC4324F00C040C43C3F8CC432F
:101F30000168D1F8CC3343F00103C1F8CC3380F809
:101F4000DD20002010BD022010BD0168D1F8CC3387
:101F500023F00203C1F8CC33EAE7000070B590F833
:101F6000DD30022B3CD090F8DC30012B38D001253D
:101F700000F8DC5F022343701388948803F4E05375
:101F8000C4F308041C4313896FF07E4603F4007306
:101F90002343148A04F480441C43938903F40043CC
:101FA0002343948A06EA04441C43936903F00073B4
:101FB0002343146AD26904F080441C4302F00042B7
:101FC000224350F8DC3CB82404EBC1141959054EE7
:101FD000314011431951457000210170084670BD10
:101FE000022070BD0020003C38B5040056D002200D
:101FF00084F8DD000025C4F8E050C4F8E450C4F8CB
:10200000E850C4F8EC50C4F8F050C4F8F450C4F8E8
:10201000F850207AC0071BD021492068884208D197
:102020002048016E41F080610166006E00F0806022
:1020300000902168086820F44042208A00F4404063
:10204000104320F44052A08A00F44050104308602E
:10205000204600F029F8207A800708D52168086812
:1020600020F44072A08900F4407010430860012001
:1020700084F8DD0084F8DC505FF00001C1EBC100A2
:1020800004EB8000491C8561C5610562456285627B
:10209000C9B205630629F1D9002038BD012038BD39
:1020A000006801400010024008B5006806498842F7
:1020B00008D10648016E41F080610166006E00F0B3
:1020C0008060009008BD00000068014000100240E0
:1020D0002DE9F04186B0044614216846FEF76EF9FA
:1020E00026492068884246D12548C16C41F002014A
:1020F000C164C16C01F002010591C16C41F00401A1
:10210000C164C16C01F004010591C16C41F0010191
:10211000C164C06C022500F0010005904FF47040CE
:1021200000268DE8610003240D27CDE903476946A9
:102130001448FFF72DFCC0208DE86100DFF84880CF
:10214000CDE9034769464046FFF722FC2002CDE96E
:102150000005CDE90264694604944046FFF718FC87
:102160004FF470608DE86100CDE9034769464FF098
:102170009040FFF70DFC06B0BDE8F081006801401B
:1021800000100240000400480008004870B50D46E9
:102190000446FFF71DFD064607E0681C05D0FFF763
:1021A00017FD801BA8420DD865B12068D0F88803C0
:1021B000C043C003F1D4012084F8DD00002084F87E
:1021C000DC0070BD072084F8DD00032070BD70B511
:1021D00090F8DD30022B1DD090F8DC30012B19D0A7
:1021E000012380F8DC30022480F8DD40EC2504680F
:1021F00005EBC1156159CE0605D54FF6C076B14342
:1022000032400A43625180F8DD30002180F8DC1052
:10221000084670BD022070BD70B590F8DD30022B0D
:1022200023D0022380F8DD30062920D080230468E3
:1022300003EBC115635923F007069368334323F07A
:102240001806D368334363519425046805EBC11520
:10225000136863519824036804EBC11152685A5003
:10226000012180F8DD10002070BD022070BD0368E0
:10227000196821F007049168214321F01804D168FE
:1022800021431960036811685961516802689161BE
:10229000E6E72DE9F04F90F8DD40022C25D090F8CC
:1022A000DC40012C21D04FF0010980F8DC900224A1
:1022B00080F8DD4000274FF0070C062918D09C2439
:1022C00004EBC116012A39D08024A8254FF4005A06
:1022D0004FF4405B05EBC11504EBC114022A2FD06B
:1022E000042A45D0082A0BD144E00220BDE8F08F33
:1022F000012A0AD0022A0CD0042A0ED0082A10D0B3
:1023000080F8DDC080F8DC700EE002681968D161E9
:102310000AE002681968516206E002681968916271
:1023200002E002681968D16290F8DD10072948D0F0
:1023300080F8DD9080F8DC700020D7E7196835E080
:102340004FF0A408D0F800C008EBC1111A684CF88F
:1023500001205968002901680A5922F440522ED000
:102360000A5101680A59D3F804C042EA0C0218E085
:10237000196821E04FF0AC08D0F800C008EBC1119B
:102380001A684CF801205968002901680A5922F49A
:10239000404214D00A5101680A59D3F804C042EAF5
:1023A0008C020A515968514503D1996802689151CC
:1023B000BAE75945B8D1996802685151B4E70A5152
:1023C000B2E7012092E770B5044690F8DD000228DC
:1023D00011D094F8DC0001280ED0012584F8DC50DF
:1023E000022084F8DD00204601F0EDFA84F8DD508B
:1023F000002084F8DC0070BD022070BD2DE9F041A2
:10240000044690F8DD0015460E46022826D094F8C2
:10241000DC00012821D0012784F8DC70022084F838
:10242000DD00062E1CD0204601F03CFBC6EBC600AA
:1024300004EB80002968016269684162A9688162D1
:10244000E968C162296901633146204601F03DFA1D
:10245000062E15D0E86A40B112E00220BDE8F081F6
:102460001146204601F066FAE0E78021206801EB82
:10247000C6114258EB6D22F4007242EA43224250E8
:1024800084F8DD70002084F8DC00E7E770B590F890
:10249000DD30022B23D090F8DC30012B1FD001233C
:1024A00080F8DC30022480F8DD40EC25046805EB80
:1024B000C1156159166821F0100141EA061121F495
:1024C00080165168314321F48036D168314321F4BC
:1024D0000036916831439669012E02D00BE002204C
:1024E00070BD21F004061169314321F002065169E3
:1024F000314341F00101615180F8DD30002180F865
:10250000DC10084670BD0000024881684268114432
:10251000816070470000002010B50024032000F007
:1025200073F80F2000F008F808B1012401E000F072
:1025300025F8204610BD000070B50E4E054600245B
:10254000706898B14FF47A71B1FBF0F00A490968EC
:10255000B1FBF0F000F0A0FD40B9102D06D2002232
:102560002946501E00F030F8356000E00124204676
:1025700070BD0000000000200C0000200A4882B05E
:10258000016E41F001010166016E01F0010100914F
:10259000816D41F080518165806D00F08050009028
:1025A00002B000F0A1B8000000100240002809DBD2
:1025B00000F01F02012191404009800000F1E0205D
:1025C000C0F8001170470000F0B40E4B1B680C46B9
:1025D000C3F30223C3F10705042D00D90425191DF7
:1025E000072901D2002300E0DB1E012606FA05F1CF
:1025F000491E214099409E40761E16403143F0BC52
:1026000002F024BA0CED00E0064900F00702086869
:102610004FF6FF03184040EA0220034A10430860C7
:10262000704700000CED00E00000FA052B492C4B30
:102630000A6832214A432B4940B1B0F5007F08684F
:1026400029D020F4C06040F480602CE00868C0F31A
:102650004120022804D051F8800F20F4807022E03D
:10266000D1F8800020F48070C1F88000086820F460
:10267000C06040F400700860B2FBF3F0401C00E062
:10268000401E4A69520501D50028F9D14869400524
:102690000AD503207047C0F34120022806D051F824
:1026A000800F40F48070086000207047D1F88000EF
:1026B00040F48070C1F88000086820F4C06040F4E5
:1026C00000700860B2FBF3F0401C00E0401E4A6955
:1026D0005205DBD50028F9D1D8E700000C00002016
:1026E00040420F00007000400248816841F4804180
:1026F00081607047007000402DE9F843044600688F
:102700000026BB4D00035ED5A86D0027C00008D48D
:10271000A86D40F08050A865A86D012700F080509A
:102720000090DFF8D092D9F8001041F48071C9F818
:102730000010FFF74DFA804606E000BFFFF748FAA9
:10274000A0EB080002282BD8D9F80000C005F5D569
:10275000D5F8900010F4407014D0216D814211D052
:10276000D5F89000D5F8901020F4407041F48031F5
:10277000C5F89010D5F8901021F48031C5F890106C
:10278000C5F89000C00711D0FFF722FA804641F249
:10279000883907E0FFF71CFAA0EB0801494501D989
:1027A00003260BE0D5F890008007F3D5D5F890000C
:1027B000216D20F440700843C5F890001FB1A86D4A
:1027C00020F08050A8652078C00707D0D5F8880091
:1027D000616820F003000843C5F88800207880076E
:1027E00007D5D5F88800A16820F00C000843C5F88B
:1027F00088002078400707D5D5F88800E16820F0E8
:1028000030000843C5F888002078000707D5D5F8C0
:102810008800216920F0C0000843C5F888002078AE
:10282000C00607D5D5F88800616920F440700843D8
:10283000C5F888002078800607D5D5F88800A169FA
:1028400020F440600843C5F888002078400607D58A
:10285000D5F88800E16920F440500843C5F88800A5
:102860002078000607D5D5F88800216A20F440407A
:102870000843C5F888002088C00507D5D5F888002A
:10288000616A20F440300843C5F88800206880035E
:1028900007D5D5F89C00A16A20F003000843C5F8CD
:1028A0009C002088800507D5D5F88800E16A20F4CF
:1028B00040200843C5F88800208840050FD5D5F88A
:1028C0008800216B20F440100843C5F88800206B75
:1028D000B0F5801F03D1E86840F48010E8602088DC
:1028E00000050FD5D5F88800616B20F4400008433F
:1028F000C5F88800606BB0F5800F03D1E86840F43C
:102900008010E8602088C0040FD5D5F88800A16B3E
:1029100020F040700843C5F88800A06BB0F1807FBC
:1029200003D1E86840F48010E86020884FF000612F
:1029300080040ED5D5F88800E26B20F0406010438B
:10294000C5F88800E06B884203D1E86840F4801045
:10295000E860208840040ED5D5F88800226C20F06D
:1029600040601043C5F88800206C884203D1E868B5
:1029700040F48010E860208800040FD5D5F8880066
:10298000616C20F040500843C5F88800606CB0F1DD
:10299000805F03D1E86840F48030E8602068C003BD
:1029A0000FD5D5F88800A16C20F040400843C5F849
:1029B0008800A06CB0F1804F03D1E86840F480300B
:1029C000E860206840030FD5D5F89C00E16C20F446
:1029D00040100843C5F89C00E06CB0F5001F03D11F
:1029E000E86840F48010E8603046BDE8F8830000F5
:1029F00000100240007000402DE9F0470E4605002F
:102A00004FF0000725D0DFF8AC81D8F8000000F0C7
:102A10000F00B0420CD2D8F8001021F00F01314362
:102A2000C8F80010D8F8000000F00F00B04210D134
:102A30002968614CC80741F2883A5AD06868DFF8C3
:102A40007C91032808D0022820682DD0400500285A
:102A50002CDB0120BDE8F08720688001F9D5E06813
:102A600000F00302E068C0F30310401C032A19D0F1
:102A7000534A00BFB2FBF0F0E268C2F306225043B3
:102A8000E268C2F34162521C5200B0FBF2F04845CA
:102A900017D9A06810F0F00F0CD0880711D5A868DE
:102AA00040B10EE0474AE5E78003D0E700F0BCF80C
:102AB000484506D9A06820F0F00040F08000A060F2
:102AC0008027A068696820F003000843A060FFF732
:102AD0007FF8814606E000BFFFF77AF8A0EB090116
:102AE00051453AD8A068696800F00C00B0EB810F3E
:102AF000F2D12868810714D5400703D5A06840F4B7
:102B0000E060A0602878000705D5A06820F4605038
:102B100040F4E060A060A068A96820F0F0000843DD
:102B200004E0802F03D1A06820F0F000A060D8F866
:102B30000010404601F00F01B14216D9016821F0A2
:102B40000F0131430160FFF743F8074607E000BF7C
:102B5000FFF73EF8C11B514501D903207AE7D8F8A9
:102B6000000000F00F00B042F2D12878400705D5F0
:102B7000A068E96820F4E0600843A06028780007B6
:102B800006D5A068296920F4605040EAC100A06021
:102B900000F04AF8A1680C4AC1F30311515C01F03E
:102BA0001F01C8400949086009480068BDE8F047AE
:102BB000FFF7C2BC002002400010024000B4C40471
:102BC0000024F40000127A00A25D00080C0000202E
:102BD0000000002001480068704700000C00002041
:102BE0000548064900688968054AC1F30221515C1D
:102BF00001F01F01C84070470C0000200010024087
:102C0000B25D00080548064900688968054AC1F3B5
:102C1000C221515C01F01F01C84070470C00002028
:102C200000100240B25D0008184910B58868C0F372
:102C300081021748012A0BD08A684310C2F381022F
:102C4000022A06D08A68C2F38102032A03D0002038
:102C500010BD184610BDCA6802F00304CA68C2F36A
:102C60000312521C032C02D0B0FBF2F001E0B3FBC4
:102C7000F2F0CA68C968C2F306225043C1F3416149
:102C8000491C4900B0FBF1F010BD000000100240EB
:102C90000024F4002DE9F84304007AD02078F84DA0
:102CA000C00747D0A868E96800F00C0001F00301F4
:102CB0000C2802D0082817D001E0032914D060683E
:102CC000B0F5803F17D0B0F5A02F286817D020F4BA
:102CD00080302860286820F4802028606068E0B197
:102CE000FEF776FF064614E02868800322D5606868
:102CF0000028D2D01EE0286840F48030EDE740F490
:102D000080202860F7E700BFFEF762FF801B642881
:102D100070D828688003F7D50CE0FEF759FF064607
:102D200005E000BFFEF754FF801B6428F0D8286838
:102D30008003F7D4207880074CD5A868E96800F0B4
:102D40000C0001F003010C2802D004280DD001E092
:102D500002290AD0E068002828682BD040F480704F
:102D60002860FEF735FF064619E02868400502D5C1
:102D7000E068002891D06868217C20F0FE4040EA9D
:102D800001606860BF480068FFF7D6FB002800D1EB
:102D900020E072E1FEF71CFF801B0228B8D82868EB
:102DA0004005F7D56868217C20F0FE4040EA0160CC
:102DB00068600FE020F480702860FEF709FF064687
:102DC00005E000BFFEF704FF801B0228A0D828689A
:102DD0004005F7D42078000729D560690028D5F888
:102DE000940013D040F00100C5F89400FEF7F0FE07
:102DF000064606E090E000BFFEF7EAFE801B0228D0
:102E000086D8D5F894008007F6D510E020F00100B0
:102E1000C5F89400FEF7DCFE064604E0FEF7D8FE97
:102E2000801B022878D8D5F894008007F6D4207843
:102E3000400761D5A86D0026C00008D4A86D40F0F9
:102E40008050A865A86D012600F0805000908E4843
:102E50000168C90511D40168804641F480710160A0
:102E6000FEF7B6FE074604E0FEF7B2FEC01B0228DE
:102E700052D8D8F80000C005F6D5A068012815D0B2
:102E80000528D5F8900016D020F00100C5F8900074
:102E9000D5F8900020F00400C5F89000A06841F239
:102EA0008838B8B1FEF794FE07460EE0D5F89000DA
:102EB00040F00100F0E740F00400C5F89000F5E7AD
:102EC000FEF786FEC11B414526D8D5F89000800745
:102ED000F6D50CE0FEF77CFE074604E0FEF778FE30
:102EE000C11B414518D8D5F890008007F6D41EB113
:102EF000A86D20F08050A8652078800629D5A069AB
:102F00000028D5F8980013D040F00100C5F89800CB
:102F1000FEF75EFE064606E075E000BFFEF758FECF
:102F2000801B02286FD8D5F898008007F6D510E0EE
:102F300020F00100C5F89800FEF74AFE064604E0BE
:102F4000FEF746FE801B02285DD8D5F89800800762
:102F5000F6D4E069F0B3A968C1F3810103295DD01B
:102F60000228286820F08070286003D0FEF730FE29
:102F700004464BE0FEF72CFE064604E0FEF728FE72
:102F8000801B02283FD828688001F7D4F4E90801A3
:102F90006FF00F0202EB01110843218A5204490825
:102FA00002EB4151A26841EA02210843217D4FF022
:102FB0007E42490802EB41610843217B40EAC1603F
:102FC000E968324A11400843E860286840F08070A0
:102FD000286000E05EE0E86840F08070E860FEF79E
:102FE000F7FD044605E000BFFEF7F2FD001B0228D6
:102FF00009D828688001F7D54CE000BFFEF7E8FD4E
:10300000001B022802D90320BDE8F883286880014C
:10301000F4D4E8681E490840E8603BE00128F3D09A
:10302000E868226A00F00301914226D1616A00F04B
:10303000F0020901103991421FD1A26A00F4FE4149
:10304000B1EB022F19D194F82C2000F07841B1EBAC
:10305000C26F12D1218E00F4C00249084905A1F5C2
:103060000011914209D194F8341000F0C060490871
:103070004906A1F1007181420CD00120C4E7000093
:103080000010024000000020007000400C809F01F2
:10309000FCFFEEFE0020B7E710B5401EB0F1807FC8
:1030A00001D3012010BD4FF0E02460610F216017B3
:1030B00001F0CCFC0020A06107202061002010BDA1
:1030C00070B5054690F83C000C4601281CD0012044
:1030D00085F83C00D4E90021A368286801F0F0F9E4
:1030E000D4E9040101432868826D237B22F0E602C3
:1030F000012B0BD000231A43114341F001018165DC
:10310000002085F83C0070BD022070BD2023F2E74E
:10311000F0B590F83C20012A43D0012580F83C50BE
:10312000022280F83D2003685A689C681E4E1F4F9B
:10313000DFF87CC0B34203D0BB4201D0634504D169
:1031400022F4700E4A6842EA0E02DFF868E002EAF2
:103150000E02D1F800E04EEA020EC3F804E0026865
:10316000B24212D0B2F1804F0FD0134B9A420CD022
:10317000124B9A4209D0124B9A4206D0BA4204D05E
:10318000104B9A4201D0624504D1896824F0800333
:103190001943916080F83D50002180F83C100846AA
:1031A000F0BD0220F0BD0000002C014000340140C1
:1031B000005001408FFFFFFD000400400008004068
:1031C000000C0040004001402DE9F0410D46040094
:1031D00003D094F83D0018B108E00120BDE8F0816B
:1031E000002084F83C00204600F042F8022084F8D9
:1031F0003D00206881681D4A11408160211D2068C2
:1032000001F0F0F8226890689169166A2B68AF693E
:10321000034340F20330814341EA0721A868EF6984
:1032200008434FF6FC418843E96840EA0720014320
:1032300028692F6A000140EA0730084369686D6910
:1032400026F0AA0646EA0515294393602268906194
:1032500054F8480B0162012004F81F096075A0753D
:10326000E076207720750020B8E70000F8BFFEFF69
:1032700070B586B0044614216846FDF79FF8374BB9
:103280002168002536480224364E4FF0904299427C
:1032900033D1816D41F002018165816D01F0020140
:1032A0000591C16C41F00101C164C16C01F00101E3
:1032B0000591C16C41F00801C164C16C01F00801C5
:1032C0000591C16C41F00201C164C06C694600F017
:1032D0000200059080208DE83100CDE903541046AE
:1032E000FEF756FB04208DE83100CDE90354694612
:1032F0001D48FEF74DFB102025E01C4B99422AD1BA
:10330000816D41F004018165816D01F00401059139
:10331000C16C41F00101C164C16C01F00101059172
:10332000C16C41F00201C164C06C694600F002004A
:10333000059098148DE831000A20CDE9035010461D
:10334000FEF726FB48208DE83100CDE9035469469D
:103350003046FEF71DFB06B070BD000000040040C3
:103360000010024000040048000C00480008004023
:1033700090F88410012918D0012180F884102421AC
:10338000C0F8881001680A680B6823F001030B601D
:1033900022F0005100224266036819602021C0F823
:1033A000881080F8842010467047022070477047CC
:1033B000704770B5044690F8840001281DD00120A4
:1033C00084F884002420C4F8880020680568026816
:1033D00022F0010202602068826822F060620A43E3
:1033E0008260204601F076F8206805602020C4F84D
:1033F0008800002084F8840070BD022070BD70B584
:10340000044690F8840001281DD0012084F884002F
:103410002420C4F8880020680568026822F00102B0
:1034200002602068826822F060420A43826020467F
:1034300001F050F8206805602020C4F888000020C2
:1034400084F8840070BD022070BD704770477047DB
:103450002DE9F04103680446D86919689A6840F676
:103460000F0528424FF000054FF002060AD18706EB
:103470007ED501F0200702F0805C57EA0C0777D078
:10348000616F42E1B64FDFF8DCC2174001EA0C0C75
:1034900057EA0C0C6CD05FEAC07C0CD05FEAC15CD0
:1034A00009D54FF0010CC3F820C0D4F8903043F098
:1034B0000103C4F89030830709D5D30707D02368E8
:1034C0001E62D4F8903043F00403C4F890304307F0
:1034D0000AD5D30708D0266804233362D4F8903085
:1034E00043F00203C4F8903003070CD501F0200329
:1034F0003B4308D0266808233362D4F8903043F069
:103500000803C4F8903003050BD54B0109D5266894
:103510004FF400633362D4F8903043F02003C4F8D2
:103520009030D4F89030002B3DD0800609D501F0C2
:10353000200002F08051084303D0616F09B120469A
:103540008847D4F8900021688968490602D410F0B1
:10355000280F2AD0204601F09FF820688068400696
:103560001ED52068083050E8001F21F0400100E01F
:1035700021E040E80012002AF3D1D4F8800078B1AD
:1035800079498163D4F88000FDF7BAFF00280AD09A
:10359000D4F88000816B00E02046BDE8F041084788
:1035A0002046FFF754FFBDE8F0812046FFF74FFFAC
:1035B000C4F89050F7E7D4F86CC02027BCF1010F95
:1035C0007ED15FEAC06C7BD55FEAC16C78D51020F4
:1035D000186220688068400651D5D4F880100A68C7
:1035E00050680004000C3ED0B4F85C3083423AD9F5
:1035F000A4F85E000868006880062CD4216851E8B1
:10360000000F20F4807041E80002002AF6D1206803
:10361000083050E8001F21F0010140E80012002AA4
:10362000F5D12068083050E8001F21F0400140E843
:103630000012002AF5D1C4F88C70E566216851E8C3
:10364000000F20F0100041E80002002AF6D1D4F863
:103650008000FDF71DFF2667B4F85C00B4F85E102B
:10366000401A81B207E0B4F85C1081429BD1106827
:10367000800698D526672046FFF799FE93E7B4F8B1
:103680005C00B4F85E10401A81B2B4F85E00002805
:1036900089D0002987D0226852E8000F20F490706A
:1036A00042E80003002BF6D12D4BDB4320680830A5
:1036B00050E8002F1A4040E8002CBCF1000F00E059
:1036C0000EE0F3D1C4F88C70E5666567206850E8B9
:1036D000002F22F0100240E80023002BF6D1C9E7AA
:1036E000C60209D5560207D54FF48010186220464D
:1036F000BDE8F041FFF7AABE03060AD501F080033A
:1037000002F40002134304D0A16F00297FF444AFF8
:1037100049E7420611D54A060FD52046016851E80F
:10372000002F22F0400241E80023002BF6D1C0F820
:103730008870856700F0C8F835E7020206D54A00B0
:1037400004D52046BDE8F041FFF77FBEC00195D506
:10375000002993DA2046BDE8F041FFF729BE0000BA
:1037600001000010200100048D46000810B504007F
:1037700003D0D4F8880010B107E0012010BD00206C
:1037800084F88400204600F027F82420C4F888003C
:103790002068016821F001010160A06A10B1204693
:1037A00000F0BAFE204600F0A1FF0128E6D0206814
:1037B000416821F4904141602068816821F02A012C
:1037C00081602068016841F0010101602046BDE888
:1037D000104000F005BF0000F0B59BB00646142174
:1037E00015A8FCF7EBFD54216846FCF7E7FD3249CC
:1037F000306888425DD1022700256846009702950F
:10380000FEF77AFF08B1FCF7D8FE2C4CA06D40F40F
:103810000030A065A06D00F400301A90E06C40F01C
:103820000100E064E06CCDE9167500F001001A902B
:103830000C2015900720CDE9185015A94FF09040A5
:10384000FEF7A6F8A06C40F00400A064A06C00F0A5
:1038500004001A90A06C40F00100A064A06C194C08
:1038600000F001001A90164820601A20C4E90105F2
:103870008020C4E9035020206561C4E90650204639
:103880002562FDF7D7FE08B1FCF797FEC6F8804029
:10389000002201210C20A662FEF796FE0C20FEF706
:1038A00085FE002201212620FEF78EFE2620FEF74F
:1038B0007DFE1BB0F0BD000000440040001002403F
:1038C0001C000240480300207047072912D2DFE89D
:1038D00001F00A12181E242A04000068D0F884138C
:1038E00041F0010104E00068D0F8841341F00201C6
:1038F000C0F8841370470068D0F8841341F00401C5
:10390000F6E70068D0F8841341F00801F0E700689A
:10391000D0F8841341F01001EAE70068D0F884136E
:1039200041F02001E4E70068D0F8841341F0400141
:10393000DEE7000070B503681A68D3F8A0534C693D
:1039400022F020022646144324F0C002202E2BD061
:103950008C69022C28D0032C2BD0042C2ED022F0E2
:10396000E00200BF22F40064CA69224322F48064AA
:103970000A6A224322F0C0644A6A224322F00064A9
:103980008A6A2243CC6A22F0404242EA840222F050
:1039900000544A6B096B224325F4803421431A609A
:1039A0000068C0F8A01370BD22F0C00242F02002EF
:1039B000D8E722F0800242F04002D3E722F0400232
:1039C00042F08002CEE7F0B50024E426056806EB5D
:1039D000C11755F807C0B82606EBC116AE59402AE4
:1039E00020D00EDC082A2CD006DC012A1AD0022AAC
:1039F00027D0042A31D115E0102A13D0202A2CD147
:103A00001FE0B2F5007F1CD005DC802A19D0B2F58A
:103A1000807F22D106E0B2F5806F03D0B2F5006F4F
:103A20001BD10EE04FF0BC0E0EEBC11E5A6845F8DC
:103A30000E204FF0C00E05680EEBC1119A686A5057
:103A40000BE0C42404EBC1145A682A51C825046849
:103A500005EBC1119A6862501024FE21A1401A683A
:103A60002CEA010CA240D96842EA0C02A1401143A1
:103A70001A69D3F814C01546A2400A430CFA04FC94
:103A800099694CEA020CA14041EA0C01082D06D1CB
:103A9000B20504D4B20102D4DA69A240114300682D
:103AA000C151F0BD2DE9F04F8024036804EBC1162D
:103AB0009C5924F070449C5103689A469D59E8240F
:103AC00004EBC114A64653F80490E42404EBC1149B
:103AD000A3461C59D3F8A033576925F020053D4370
:103AE000202F24D09769022F21D0032F24D0042F18
:103AF00027D025F4D07500BF25F40067D5693D4374
:103B000025F48067156A3D4325F0C067556A3D433B
:103B100025F00067956A3D4325F07047D56A3D431F
:103B2000576B25F40035B7F1005F0FD010E025F496
:103B3000C07545F02005DFE725F4807545F0800568
:103B4000DAE725F0800545F48075D5E745F40035C2
:103B500025F04007956BD2F850802F4327F4802C36
:103B6000976D47EA0C07DFF8D0C007EA0C0748EA70
:103B7000070892F83C7029F03F0C07F03F0747EA2E
:103B80000C0727F0004C176C47EA0C0725B924F402
:103B9000807C546C44EA0C04D2F848C0BCF5606FD9
:103BA00002D0BCF5F05F01D1402D03D124F4F054D4
:103BB0004CEA040424F48045D46C2C43556D06294A
:103BC00027D2DFE801F003090F151B21126B23F444
:103BD000003343EA42031CE0126B23F4802343EAE0
:103BE000820316E0126B23F4002343EAC20310E0C1
:103BF000126B23F4801343EA02130AE0126B23F4DE
:103C0000001343EA421304E0126B23F4800343EAF7
:103C100082134AF80680066846F80E70066846F871
:103C20000B40D424026804EBC11155500068C0F861
:103C3000A033BDE8F08F0000FFFF06FEFEE700EBBB
:103C40008100006E00F0F84070478068C0F3C0004B
:103C500070478068C0F3800070478068C0F38000C0
:103C60007047C06810F4406F01D0002070470120F9
:103C70007047042303EAD15310B518444369C1F3D4
:103C8000045107248C40A3438A401343436110BD71
:103C900000EB8100016E21F0004111430166704785
:103CA00030B58BB0002408940994202168460A940A
:103CB000FCF784FB1C484FF0A041042501604FF441
:103CC0004031C0E90114C4600461C0E905450477CE
:103CD00044770121016280F82440C462046380F8C3
:103CE0003840C46380F84040FDF716F908B172B659
:103CF000FEE708A90C480894FCF7CCFC08B172B6A2
:103D0000FEE70A4800900620CDE901040848059422
:103D1000CDE9030569460448FCF76CFD002801D095
:103D200072B6FEE70BB030BD28000020400020191D
:103D300000007F4000B58DB030216846FCF73EFBA7
:103D40001549144808600846FDF738FB08B172B6FB
:103D5000FEE70220009000208DF804008DF8050099
:103D60000290039001210490CDE9050102460790DD
:103D700069460948FDF73CFA08B172B6FEE7102221
:103D800069460548FDF734FA002801D072B6FEE70F
:103D90000DB000BD0008005094000020104810B580
:103DA0000E490160002141608160C160017441746D
:103DB00081741022426101228261C2610262426208
:103DC0008262C262C0E90C218163C163FDF794FC89
:103DD000002801D072B6FEE710BD0000006400406C
:103DE000BC00002030B587B014216846FCF7E6FA25
:103DF0001E48C16C41F00401C164C16C01F00401B2
:103E00000591C16C41F02001C164C16C01F0200139
:103E10000591C16C41F00101C164C16C01F0010167
:103E20000591C16C41F00201C164C16C01F0020155
:103E30000591C16C41F00801C164C06C0C4D00F0EB
:103E400008004FF480640590002221462846FDF7C3
:103E5000B9FE012000210094CDE9010103916946DA
:103E60002846FDF795FD07B030BD00000010024068
:103E70000008004870B5BAB00024379438942794ED
:103E8000289429941C2120A82A94FCF797FA6021F1
:103E90006846FCF793FA3494359424212BA8369481
:103EA000FCF78CFA202118A8FCF788FACA48C949FF
:103EB000C0E900148460FEF797F808B172B6FEE717
:103EC0000C21C548FEF718F808B172B6FEE70A21C2
:103ED000C148FEF75BF908B172B6FEE74FF48030D7
:103EE0003790C010389037AA0121BB48FDF7F4FE87
:103EF00008B172B6FEE700220121B748FDF76EFE59
:103F000008B172B6FEE748F2D040CDE9270402209E
:103F10000825CDE9290527AA0021AF48FEF77CF93D
:103F200008B172B6FEE70126239420AA0021AA4810
:103F300020962694FEF7AAFA08B172B6FEE7002290
:103F40001146A548FEF743F908B172B6FEE70094A2
:103F500001940294CDE903464FF000600594069465
:103F600007940894CDE90940C6140B940C94CDE94C
:103F700010460D940F9412940E9414941594169464
:103F80006A46002194481794FEF738FA08B172B6D1
:103F9000FEE70A946A4601218F481194FEF72EFA33
:103FA00008B172B6FEE76A4602218B48FEF726FA90
:103FB00008B172B6FEE76A46032187481294FEF7FD
:103FC0001DFA08B172B6FEE76A4604218248FEF780
:103FD00015FA08B172B6FEE76A4605217E481294CA
:103FE000FEF70CFA08B172B6FEE744F2682034908E
:103FF00034AB012200217848FEF74BF908B172B6C4
:10400000FEE74FF440602B905520CDE92C042E9410
:10401000CDE92F40319432942BAA00216E4833947D
:10402000FDF79CFF08B172B6FEE70420CDE91A0443
:10403000CDE918451C941D941E9418AB0122002153
:1040400065481F94FEF7BFF908B172B6FEE71994F0
:1040500018AB0422012160481A94FEF7B4F908B1A4
:1040600072B6FEE718AB102202215B48FEF7ABF9EF
:1040700008B172B6FEE718AB402203215648FEF79E
:10408000A2F908B172B6FEE718AB324604215248D5
:10409000FEF799F908B172B6FEE718AB4FF48062EB
:1040A00005214D48FEF78FF908B172B6FEE718AB4F
:1040B000022200214848FEF786F908B172B6FEE7F1
:1040C00018AB082201214448FEF77DF908B172B609
:1040D000FEE718AB202202213F48FEF774F908B131
:1040E00072B6FEE718AB802203213B48FEF76BF95E
:1040F00008B172B6FEE718AB4FF4007204213648DF
:10410000FEF761F908B172B6FEE718AB4FF4006232
:1041100005213148FEF757F908B172B6FEE74FF6B0
:10412000DF70279027AA012129942B48FEF774F805
:1041300008B172B6FEE720AA012127482094FEF7B5
:10414000A5F908B172B6FEE727AA02212248FEF7B8
:1041500063F808B172B6FEE720AA02211E48FEF7F6
:1041600095F908B172B6FEE727AA03211A48FEF7AF
:1041700053F808B172B6FEE720AA03211648FEF7ED
:1041800085F908B172B6FEE727AA04211248FEF7A6
:1041900043F808B172B6FEE720AA04210E48FEF7E4
:1041A00075F908B172B6FEE727AA05210A48FEF79D
:1041B00033F808B172B6FEE720AA05210648FEF7DB
:1041C00065F908B172B6FEE70348FDF781FF3AB022
:1041D00070BD0000006801402001002010B592B0C1
:1041E00024216846FCF7EAF800240F941094182163
:1041F00009A81194FCF7E2F81B481A49C0E9001419
:104200004FF6FF71C0E90241046184610120CDE9EC
:104210000004CDE902040494CDE905400794694601
:1042200011480894FEF7D0FF08B172B6FEE70F946C
:104230000FA90D481194FEF76BFF08B172B6FEE7A7
:1042400009940A940B948DF830400D9409A90648FE
:104250000E94FEF735FF002801D072B6FEE712B0CB
:1042600010BD0000000400401C02002010B592B0F8
:1042700024216846FCF7A2F800240F94109418211A
:1042800009A81194FCF79AF81B481A49C0E90014D0
:104290004FF6FF71C0E90241046184610120CDE95C
:1042A0000004CDE902040494CDE905400794694671
:1042B00011480894FEF788FF08B172B6FEE70F9424
:1042C0000FA90D481194FEF723FF08B172B6FEE75F
:1042D00009940A940B948DF830400D9409A906486E
:1042E0000E94FEF7EDFE002801D072B6FEE712B084
:1042F00010BD00000008004068020020174810B5FB
:10430000154901604FF4E1314160002181600C22C8
:10431000C160C0E904128161C161016241628162D0
:10432000FFF724FA08B172B6FEE700210B48FFF749
:1043300066F808B172B6FEE700210848FFF739F8C1
:1043400008B172B6FEE70548FFF712F8002801D061
:1043500072B6FEE710BD000000440040B402002029
:10436000FEE7FEE770477047FEF7CEB810B594B091
:1043700038216846FCF722F814210EA8FCF71EF835
:104380000020FEF753F90120009000040190022064
:104390000324CDE907045521CDE909010B900C90C8
:1043A0000D906846FEF776FC08B172B6FEE70F2066
:1043B000CDE90E040020109011904FF4806012900F
:1043C00004210EA8FEF718FB002801D072B6FEE704
:1043D00014B010BD0248016841F4700101607047DB
:1043E00088ED00E02DE9F04F02682C4B2C4E2D4F4C
:1043F000DFF8B4C02D4C2E4D4FF0804B98420BD0BF
:10440000584509D0B04207D0B84205D0604503D026
:10441000A04201D0A84204D122F070084A6842EAC2
:104420000802DFF89080DFF89090DFF890A09842C3
:1044300011D058450FD0B0420DD0B8420BD06045D6
:1044400009D0A04207D0404505D0484503D050458B
:1044500001D0A84203D122F44076CA6832434E69A3
:1044600022F0800232438E68C6620E6886629842ED
:1044700009D0A04207D0404505D0484503D050455B
:1044800001D0A84201D109690163016841F004012A
:104490000160012141610260BDE8F08F002C014004
:1044A0000004004000080040000C004000340140BF
:1044B00000500140004001400044014000480140DC
:1044C00010B5846842EA032224F47F440A4322435D
:1044D000826010BD30B5416EB9B1026891689268D2
:1044E000C1F342610B4B520F9C5CE50003F10804E1
:1044F000A25CB5FBF2F2A0F86A205A5C615CD200C3
:10450000B2FBF1F1A0F8681030BD0121A0F86A10EB
:10451000F8E70000925D000890F82810090706D51A
:1045200001684A68836B22F400421A434A6090F89B
:104530002810C90706D001684A68C36A22F400320D
:104540001A434A6090F82810890706D501684A681E
:10455000036B22F480321A434A6090F8281049070E
:1045600006D501684A68436B22F480221A434A60E8
:1045700090F82810C90606D501688A68C36B22F432
:1045800080521A438A6090F82810890606D501687F
:104590008A68036C22F400521A438A6090F828104B
:1045A000490611D501684A68436C22F480121A4307
:1045B0004A60416CB1F5801F06D101684A68836C7E
:1045C00022F4C0021A434A6090F82810090606D562
:1045D00001684A68C06C22F4002202434A607047B6
:1045E0002DE9F84300260446C0F89060FDF7F0FA84
:1045F0008046206800684FF0200500076FF07E4776
:1046000013D54346002229042046009700F0BAF94A
:1046100058B1216851E8000F20F0800041E8000205
:10462000002AF6D1C4F8885021E0206800684007CD
:1046300022D5434600224FF480012046009700F027
:10464000A1F9C8B1216851E8000F20F4907041E849
:104650000002002AF6D12068083050E8001F21F03F
:10466000010140E80012002AF5D1C4F88C5084F80A
:1046700084600320BDE8F883C4F88850C4F88C50E7
:1046800044F86C6F666026760020F3E710B5806A08
:10469000FEF7DDFE10BD000010B5026852E8001FF5
:1046A00021F4907142E80013002BF6D10E4B026802
:1046B000083252E8001F194042E80014002CF6D1DD
:1046C000C16E012908D1016851E8002F22F01002C3
:1046D00041E80023002BF6D12021C0F88C100021E6
:1046E000C166416710BD0000FEFFFFEF2DE9F041FC
:1046F0000446016880682269E36910436269002505
:104700001A431043DFF84CC20A68934B1A40024325
:104710000A6020684168E26821F440511143416019
:104720002168A069614501D0226A10438A688B4BD9
:104730001A4002438A602068C16A626A21F00F0150
:104740001143C1628649236886488B420DD1D0F857
:10475000880010F0030006D0012867D0022854D04A
:10476000032851D164E001204FE07F498B420BD1F7
:10477000D0F8880010F00C0047D0042845D0082855
:1047800052D00C2840D153E078498B420BD1D0F85D
:10479000880010F0300038D0102847D0202843D0AF
:1047A000302831D144E072498B420BD1D0F88800D7
:1047B00010F0C00029D0402838D0802834D0C0283C
:1047C00022D135E06B498B420ED1D0F8880010F42D
:1047D00040701AD0B0F5807F28D0B0F5007F23D08C
:1047E000B0F5407F10D123E063450DD1D0F88800AB
:1047F00010F4406009D0B0F5806F17D0B0F5006FAD
:1048000012D0B0F5406F13D010205B4A5B4F0026EA
:104810004FF40041634539D160B102280DD004281E
:104820000DD0082831D10EE00220EEE70420ECE79D
:104830000820EAE7FEF7D4F903E0114603E0FEF7AB
:10484000F3F901007BD0606A37F810206768B1FB8C
:10485000F2F007EB4703834269D8B0EB073F66D815
:10486000002308461946FBF727FD090241EA1061BB
:1048700002027808101871413A460023FBF71CFD2C
:104880003F4AA0F54071914257D950E0E3694FF695
:10489000EF788B422BD1092849D2DFE800F00508D8
:1048A0000D48254848480E00FEF79AF901E0FEF74A
:1048B000A9F9010001D142E01146606A37F8100001
:1048C000B1FBF0F04100606801EB5001B1FBF0F189
:1048D000A1F1100040452AD84FF6F07201EA02001B
:1048E000C1F34201084328E0FEF79EF9E1E70928F9
:1048F0001DD2DFE800F005080D1C1E1C1C1C0E005C
:10490000FEF76EF901E0FEF77DF9010001D116E036
:104910001146606A37F81000B1FBF0F1606801EBF6
:104920005001B1FBF0F0A0F11001414504D901257F
:1049300005E0FEF779F9E8E780B22168C860012058
:10494000A4F86A0024F8680F2846E6602661BDE8EE
:10495000F081000000800040F369FFCFFFF4FF11F9
:104960000038014000100240004400400048004070
:10497000004C0040005000400024F4007A5D000824
:10498000FFFC0F002DE9F047994617460D460446F7
:104990004FF00008089E33E0701C31D0FDF718F985
:1049A000A0EB0900B04218D8BEB1206801684907E1
:1049B00026D5802D24D0402D22D0C169C9430907B6
:1049C0000DD4082505622046FFF766FEC4F8905016
:1049D00084F884800120BDE8F0870320FBE7C069EC
:1049E000C04300050CD421684FF4006008622046E3
:1049F000FFF752FE2020C4F8900084F88480ECE792
:104A00002068C06935EA000004D00020B842C3D055
:104A10000020E0E70120F9E70148FEF719BD00009A
:104A2000B4020020FEE74100080218BF04200A0E6D
:104A300018BF40F001004FF07F4232EA010108BF89
:104A400040F00200012808BF052070470907090E41
:104A5000002804DB00F1E02080F80014704700F02B
:104A60000F0000F1E02080F8141D704710EE101ABE
:104A700008B5444A6846B2EB410F28D94FF0E640EA
:104A8000B0EB410F94BF00204FF0FF300090009832
:104A9000002861DB60EE000A10F0010F45D010F035
:104AA000020FDFED391A9FED391A00EEE11ADFED42
:104AB000381A40EE811A21EEA01AF0EE400A40EEBC
:104AC000010A08BFF1EE600AB0EE600A08BD314B82
:104AD00021F0004293423CD911F0004FDFED2E0A45
:104AE00020EE201ADFED2D0A19BF31EE601A71EEAB
:104AF000200A31EE201A71EE600ABDEEE01A11EEC6
:104B0000100A9FED271A00F0030000EEC10A9FED86
:104B1000251A009000EEC10A9FED231A00EEC10A8B
:104B20009FED221A00EEC10AB1E79FED211A9FED19
:104B3000210A10F0020F00EE810A9FED1F1A00EE0D
:104B4000801AB7EE000A00EE810A18BFB1EE400AE3
:104B500008BD00F02BF99AE710EE100A4000B0F102
:104B60007F4F3CBFB7EE000A08BD07D14FF00100F0
:104B7000FBF759FCBDE8084000F008B9BDE8084063
:104B800000F001B9B61F927E336D4C39DA82083CD1
:104B9000A0AA2ABE490E494683F9223F0000004BD5
:104BA0000000C93F00A0FD390020A2331A61342C57
:104BB000B93AB2BACA9F2A3DDDFFFFBE00B510EE7A
:104BC000101A2DED028B81B0524A6846B2EB410FAC
:104BD0002ED94FF0E640B0EB410F94BF00204FF0CC
:104BE000FF3000900098B0EE408A00286ADB10F099
:104BF000010F4BD068EE080A9FED471A9FED470A58
:104C000000EE810A9FED461A10F0020F00EE801AA6
:104C1000B7EE000A00EE810A02BF01B0BDEC028BC4
:104C200000BD00BF01B0B1EE400ABDEC028B00BD7B
:104C30003C4B21F00042934241D911F0004FDFED8F
:104C40003A0A20EE201ADFED390A19BF31EE601A58
:104C500071EE200A31EE201A71EE600ABDEEE01A04
:104C600011EE100A9FED321A00F0030000EEC10AA7
:104C70009FED301A009000EEC10A9FED2F1A00EE52
:104C8000C10A9FED2E1A00EEC10AABE728EE080A12
:104C90009FED2B1ADFED2B0A10F0020F40EE410AB8
:104CA0009FED291A00EE201A61EE000AB0EE480AC4
:104CB00008EE200AB6D101B0BDEC028B00BD00F0B9
:104CC00075F88FE718EE100A4000B0F17F4F0DD253
:104CD00018EE100AFFF7A7FE042808BF00F05EF8E0
:104CE000B0EE480A01B0BDEC028B00BD09D1012035
:104CF000FBF799FB01B0BDEC028B5DF804EB00F013
:104D000045B801B0B0EE480ABDEC028B5DF804EB8B
:104D100000F039B8B61F927EB93AB2BACA9F2A3D9E
:104D2000DDFFFFBE490E494683F9223F0000004BDC
:104D30000000C93F00A0FD390020A2331A61342CC5
:104D4000336D4C39DA82083CA0AA2ABE10B52DED8D
:104D5000028BB1EEC08A18EE100A20F00040C0F1BC
:104D6000FF40C00F0AD010EE100A20F00040C0F142
:104D7000FF40C00F04BF0120FBF755FBB0EE480A0F
:104D8000BDEC028B10BD30EE000A7047DFED020A69
:104D900080EEA00A70470000000000009FED020AAC
:104DA00020EE000A70470000000000102DE9F0011D
:104DB0004FF07F42B2EB410F9FBF4FF0FF310160D8
:104DC000BDE8F00170474FF0004242EA0123C1F311
:104DD000C752783A551112F01F0C434CCCF1200603
:104DE0007C44C1F3C752A2F178024FEA621204EB8D
:104DF000820254F8254008BFD2E9015612D0556806
:104E000004FA0CF425FA06F73C43976805FA0CF50A
:104E100027FA06F8D26807FA0CFCF24045EA0805C2
:104E20004CEA0206A4FB034CA5FB0352A6FB03635A
:104E30001D449D4234BF012600261319334416B188
:104E4000934202D903E0934201D2012200E0002202
:104E5000624402F1200C9206DC0C42EA443200EE7D
:104E6000102A5B03DFED210AF8EEC01A00EE103ABB
:104E70004FEA9C1C11F0004FB8EE400AC0F800C089
:104E800020EE201A00EE105ADFED190AB8EE400AA3
:104E900020EE200A71EE810A70EE800A10EE902A50
:104EA00002F500626FF30B0200EE902A70EEE11A39
:104EB00031EEC11ADFED101A30EE411A9FED0D0AE6
:104EC00020EE800A01EE210A9FED0C1A00EE810A05
:104ED00004BFBDE8F0017047CCF180510160BDE82E
:104EE000F001B1EE400A7047D80F00000000003614
:104EF0000000802C22AAFD29DB0FC92F0000C92F3A
:104F000090ED000A90ED011ADFED1D1AFEEE000A89
:104F100060EE200A21EE211A30EE812A30EEC11A0D
:104F2000B4EEC20AF1EE10FA04DDF0EE401AF0EE33
:104F3000420A03E0F0EE421AF0EE400AB4EEE11A43
:104F4000F1EE10FA02DDF0EE411A06E0B4EEE01ADE
:104F5000F1EE10FA01D2F0EE410A71EEA00AF6EE7F
:104F6000001A60EEA10A30EE600A81ED000A32EE0E
:104F7000600A81ED010A31EE600A81ED020A704794
:104F8000D7B35D3F5B4810B5006840B35A4801682D
:104F900007290FD0016806290FD00168052915DC03
:104FA0000168032912DB5549006801EB800010ED10
:104FB000030A06E05148903001E05048783090ED07
:104FC000000ABDE810404E4800F021B901680229EE
:104FD0007EDC4A4900683C3101EB8000EFE7494C38
:104FE00094ED030AD4ED0A0A94ED0C1A30EE600A2F
:104FF000D4ED0B0A00F08AFED4ED0A0A30EE800AE6
:1050000084ED0A0A84ED040AD4ED050A20EE200A94
:1050100084ED090AD4ED080A70EE800AC4ED080A8E
:1050200094ED070AF4EEC00AF1EE10FA03DDD4EDB8
:10503000060AC4ED080A94ED061AF4EEC10AF1EE70
:1050400010FA02D3B0EE600A01E084ED080A2E489F
:1050500084ED010A84ED000A81690022491C816106
:10506000C36999422CD38261416890ED020AF7EE40
:10507000001A91ED001A31EE400A10EE101AB1F14B
:105080003F4F02D930EE210A06E010EE101AB1F1BE
:105090007C5F01DD30EE610AD0ED030A90ED042A59
:1050A00060EE800A71EEC21A90ED050A20EE210A28
:1050B00000EE820A80ED050A80ED000A80ED021AFA
:1050C000124800F025FB1148114990ED080A00E054
:1050D0000EE081ED000A90ED090A81ED010A90EDE4
:1050E0000A0A084681ED020ABDE8104000F0ACBC97
:1050F00010BD00002000002024000020A803002094
:10510000240900202008002074080020E804002062
:105110009408002010B509213248FBF7A1FA324C5F
:1051200040F20F1120602F48FBF79AFA60600020D0
:10513000A06040F215212B48FBF792FA2B494860FA
:10514000A4F1300000F010FDA4F16C0000F00CFDA3
:1051500004F1240000F05FFC04F10C0000F05BFCA3
:1051600023480068416A23484FF07C52C16090EDAB
:10517000070AF8EE400A00EE101AB8EE401A81EE67
:10518000200AF7EE000A80ED000A70EE200A90ED8A
:10519000041A818A30EEC11A00EE901AF8EE600A05
:1051A00061EE200ABDEEE01AB8EEC11A70EEC10A37
:1051B000C0ED010AD0ED060A30EE601A11EE101AA9
:1051C000914202DD8168491E816070EEC00A10EED6
:1051D000901A914202DD8168491C816080ED060AC7
:1051E00010BD000028000020140400201000002042
:1051F0001C0200205408002001FB032142688A425F
:1052000004D9006800EB810080ED000A704780ED52
:10521000000A416B00292FD0D0ED080AD0ED011A09
:1052200090ED071A90ED022A60EEA10AD0ED042A53
:1052300041EE000A90ED091A41EE020A90ED052AAE
:1052400090ED031A42EE410A90ED062A42EE620A00
:10525000C0ED0A0AC0ED021A80ED010A80ED041AC1
:10526000C0ED030AC16A491CC162026B914203D9B5
:105270000021416301218163704700002DE9F04F57
:1052800098462DED028B83B09146DDF838B08A4602
:1052900004007CD0BAF1000F79D0B9F1000F76D0BC
:1052A0005FF000060AEB860004EB860790ED000A2B
:1052B00009EB8600D0ED000A06EB460004EB001572
:1052C00030EE608A87ED188A95ED000A20EE080A14
:1052D00085ED070A95ED080AD5ED010A95ED061A48
:1052E00008EE200AD5ED050A00F010FD85ED080A4C
:1052F00095ED0B0AD5ED020A761C38EE400A022E17
:1053000020EE200A85ED090AD5ED070A95ED081A69
:1053100070EE810A30EE800A85ED0A0A85ED0B8A6F
:1053200087ED1A0ABED3D4F8940088B3B8F1000F01
:1053300069D098ED000A84ED1C0A98ED010A00BFBF
:1053400084ED1D0A94ED1A0AD4ED1C0A30EE200AF1
:105350008DED000A94ED1B0AD4ED1D0A30EE200AF3
:105360008DED010AD4F8980028B1694694ED200A21
:10537000084600F01BFCD4F89C0038B1694604F1E3
:105380008C0304F18402084600F052FC01E03AE08C
:105390003BE09DED000A002684ED1E0A9DED010A0A
:1053A00084ED1F0A04EB860090ED1E0AD0ED1C0A66
:1053B00006EB460004EB001530EE608A95ED070A17
:1053C000D5ED090A95ED061A38EE400A30EE600A6E
:1053D000D5ED050A00F09AFC85ED080A761C85EDEE
:1053E0000A8A022EDED3BBF1000F07D094ED1E0A0D
:1053F0008BED000A94ED1F0A8BED010A03B0BDECA2
:10540000028BBDE8F08FFAF7CEFF9FED020A84ED24
:105410001C0A95E7000000002DE9FF47040011D0A9
:10542000D4F8900000280DD0D4F89400002809D0BA
:10543000B4F8BE00B4F8BC10884205D234F8BE0FF0
:10544000401C2080BDE8FF870027A4F8BE708DECCB
:10545000040AD4F8B010E94609EB8100B4F8AC10A6
:1054600090ED002AD4F898004FF47A724143B1FBD2
:10547000F2F5A84200D8451E94F8C4004FF0020A85
:1054800098B194F8C4000128DCD104F16C0000F05C
:1054900096F8D4E922018142D4D300BF54F8A00F7A
:1054A000401C206084F824A0CCE7B0EE420A04F14E
:1054B000500000F0C9F8A0B3D4F8A800A84250D317
:1054C000D4F8A410D4F898000144491BB1FBF0F2C1
:1054D00000FB121800211EE04046002217E000BF2A
:1054E000D4E9256301FB030C06EB8C0601FB0323C7
:1054F00096ED000AD4F89060401C06EB830383ED20
:10550000000AD4F89830834200D80020521CAA42E6
:10551000E6D3491C89B2E08E8842DDD80020494696
:1055200010E01EE001EB8002D4F8983092ED000A02
:1055300000FB0353D4F89020401C02EB830280B29E
:1055400082ED000AE28E8242ECD86D1C6767C4F8D7
:105550008C50D4F888008542A0D2012084F8C40081
:1055600070E76946002011E001EB800292ED000A2D
:10557000D4F8A420D4F8983000FB0322D4F8943057
:10558000401C03EB820280B282ED000AE28E82426E
:10559000EAD8D4F8A400401CC4F8A400D4F8A4109D
:1055A000D4F89800814201D3C4F8A470D4F8A810AC
:1055B0008142D5D254F8A80F401C206042E710B5B4
:1055C00004462DED048B0021B0EE618A8068F0EE78
:1055D000418A401CA060E268B0EE609A904231D3EC
:1055E000A160D4E907329A422CD2208B18B320460E
:1055F000FFF702FE208B012807D9D4E90732B0EE6D
:10560000490A01212046FFF7F7FD208B022807D920
:10561000D4E90732B0EE680A02212046FFF7ECFD1C
:10562000208B032807D9D4E90732B0EE480A0321BA
:105630002046FFF7E1FD206A401C20620120BDECFE
:10564000048B10BD0020FAE730B500210278846990
:105650000B464AB145695DB1C0F8143080ED020ACD
:10566000BCB30121836136E00121002CF9D132E085
:10567000012A15D0032A13D0022A01D0042AEDD121
:1056800090ED021AD0ED010AB4EEE01AF1EE10FA34
:1056900016DDF4EEC00AF1EE10FA11DB0121DDE7B0
:1056A00090ED021AD0ED010AB4EEE01AF1EE10FA14
:1056B00004D2F4EEC00AF1EE10FAEFD9032A01D0B9
:1056C000042ACBD10269521C0261C568AA42E5D204
:1056D000C4E7FFE701B10361084630BDF0EE400AC0
:1056E00090ED040A90ED001AD0ED021A20EE010AA6
:1056F00090ED031A01EE200A90ED011A01EEC10AA5
:1057000080ED050AC0ED000A80ED010A7047000037
:1057100030B504462DED028B8BB00068401C206034
:10572000D4F8EC0188B1E06890ED010ADFEDAB0A36
:1057300020EE208AB0EE480AFFF740FA84ED130A03
:10574000B0EE480AFFF792F908E0606900287CD0C3
:1057500090ED000A84ED130A90ED010A84ED140A1D
:10576000606890ED000A04F1A800FFF7B7FF84ED30
:10577000100A606890ED010A04F1C000FFF7AEFF67
:1057800084ED110AD4ED100AB0EE001AC4ED150A2A
:1057900040EE010A9FED920A20EE800A84ED160A7F
:1057A0009FED908A84ED178AA06890ED000A04F1BD
:1057B000F000FFF793FF84ED0F0A94ED151A94EDB6
:1057C000140A94ED162AD4ED131A61EE000A22EEA3
:1057D000000A42EE210A01EE610AC4ED180A84EDC6
:1057E000190A94ED171A84ED1A1A84ED1D8A84EDB6
:1057F0001E8AD4F8F401A0B194ED741A206921EE48
:10580000000A90ED001A21EE400A84ED1D0A94ED85
:10581000750A20EE200AD0ED000A20EE200A84ED61
:105820001E0AD4ED1D0ACDED010A94ED1E0A8DED80
:10583000020AD4F8FC0168B194ED061A70EE810AF0
:10584000CDED010AD4ED070A00E01AE030EE200A9F
:105850008DED020AD4F8E801A8B104F134000090FB
:1058600001AB04F1600204F12C01D430FFF706FD16
:1058700094ED5C0A84ED1B0A94ED5D0A84ED1C0A2C
:1058800035E0FAF790FD94ED0D0ADDED010A04F123
:105890007C010D4630EE200A084684ED1F0A94ED87
:1058A0000E0ADDED020A30EE200A84ED200A94EDA6
:1058B000770A00F07BF994ED780A29468DED070A06
:1058C0008DED080A94ED780A09AB07AAB1EE400AFB
:1058D0008DED090A8DED0A0A084600F0A9F994ED4C
:1058E0001F0A84ED0D0A94ED200A84ED0E0AD4F807
:1058F000F00194ED0D0A60B104F5D47000F074F875
:1059000084ED1F0A94ED0E0A04F5DE7000F06CF8C9
:1059100003E084ED1F0A94ED0E0A84ED200AD4F80A
:10592000F801B7EE000A68B1D4ED0F0A10EE900A44
:10593000B0F17C5F04DD94ED791A81EE200A01E07C
:1059400094ED790AD4ED1F0A04F190010D4660EE42
:10595000800A0846C4ED220A94ED201A21EE000ABE
:1059600084ED230AC4ED240A84ED250A94ED770A18
:1059700000F01CF994ED780A29468DED030A8DEDAF
:10598000040A94ED780A05AB03AAB1EE400A8DED46
:10599000050A8DED060A084600F04AF9D4ED240AFE
:1059A000C4ED1F0A94ED250A84ED200A84ED218AB6
:1059B00094ED141AD4ED131A20EE812A60EEA10A98
:1059C00000EE612A40EE010A84ED082AC4ED090ABE
:1059D00084ED0A8A0BB0BDEC028B30BDDB0FC940F1
:1059E0003ACD133F00000000F0EE400A90ED020AAD
:1059F00090ED041AD0ED031A20EE010A90ED001A82
:105A000001EE200A90ED011AC0ED030A01EE210A11
:105A100080ED040A704710B5416891B191ED000A1C
:105A2000D0ED030AB8EE400A20EE800AD0ED040A59
:105A300030EE600AD0ED050A20EE800A80ED000A03
:105A400010BDFAF7B0FC000070B504002DED048B1A
:105A500039D0E068B0B314F1100F34D004F12C0148
:105A60002046FFF74DFA9FED3F9A0025B7EE008ADA
:105A7000F6EE008A04EB8506D4ED070A96ED0B0AD4
:105A8000216CF8EE600A38EE400A20EE280A20EE7B
:105A9000800ABCEEC00A10EE100A51B3E168D4EDE2
:105AA000090AD4ED0A1A01EB850130EEA11A91ED35
:105AB000000AB4EEC10AF1EE10FA06DD216A0844CC
:105AC000012122E0FFE7FAF76EFCB1EE601A71EEF9
:105AD000611AB4EEE10AF1EE10FA0BD2216A8142AA
