:020000040800F2
:10000000381000207D020008795900080B550008BF
:1000100000000000000000000000000000000000E0
:100020000000000000000000000000007D590008F2
:1000300000000000000000007B5900087F59000804
:100040008F020008000000008F0200088F020008E5
:100050008F0200088F0200088F0200088F0200083C
:1000600000000000713100088F0200088F020008B4
:100070008F0200088F0200088F0200088F0200081C
:100080008F02000800000000000000008F0200083E
:100090008F0200088F0200088F0200088F020008FC
:1000A0008F0200088F0200088F0200088F020008EC
:1000B000B15E00088F020008853100089131000808
:1000C00000F002F800F0CBF812A030C8083824186D
:1000D0002D18AC4201D100F0C2F80FCCA246AB46BD
:1000E0000CA730CF2D1B083F3F197C427F1E544484
:1000F0002D090426F441641EAC4201D300F0AFF890
:100100000126334200D0FB1A3343984754465D46DC
:10011000DFE70000C8A10000E8A10000103A02D308
:1001200078C878C1FAD8520701D330C830C101D598
:1001300004680C6070470000704700000023002432
:1001400000250026103A01D378C1FBD8520700D30E
:1001500030C100D50B60704710B56E2902D100F098
:1001600051FE10BD702902D100F08BFF10BD662931
:1001700002D109F097FA10BD652902D109F092FA6F
:1001800010BD672902D109F08DFA10BD612902D195
:1001900009F090FA10BD03681B0A01D380231943AC
:1001A000692902D100F0F8FD10BD642902D100F0E8
:1001B000F3FD10BD752902D100F0EEFD10BD6F29D1
:1001C00002D100F009FF10BD782902D100F046FFEE
:1001D00010BDE92902D100F0A5FE10BDE42902D12D
:1001E00000F0A0FE10BDF52902D100F09BFE10BD6D
:1001F000EF2902D100F0FCFE10BDF82902D100F079
:100200003BFF10BD0368DB0901D380231943632939
:1002100002D101F0F6FC10BD732902D101F0F9FC06
:1002200010BDE32902D101F003FD10BDF32902D175
:1002300001F006FD10BD002010BD1FB501F026FE27
:1002400004000020002109F04BF8401C60600020F1
:10025000002109F02FF8E0601FBD10B510BD01F0BE
:10026000EEFD1146FFF7E9FF07F0D2FE02F0AEF90E
:1002700003B4FFF7F2FF03BC01F09EF80748804784
:1002800007480047FEE7FEE7FEE7FEE7FEE7FEE77A
:1002900004480549054A064B704700008959000883
:1002A000C1000008380A002038100020380C002057
:1002B000380C00204343514330B55C18010C130C3B
:1002C0000D4692B25D4380B251432C190546554309
:1002D0000A0C09044D1962415843010C00044019ED
:1002E000514130BD1CB50C46064B7B44694600901D
:1002F000204600F0A0FD04460020694600F0AEFD57
:1003000020461CBD6F0B0000FFB516460A46C3B061
:1003100001214191209200906A464198411E4191ED
:100320008100091F80005558001F20A908584290DD
:100330004010429970432C18C90700D1801B2146F8
:10034000469A27182846904700280FDD3146304648
:100350002943890769D022782978401E2A702170A4
:10036000641C6D1C0028F6D1AD1BA41B3946469AAF
:1003700020469047002825DD39462846469A904772
:1003800000280FDD314630462943890755D03A7899
:100390002978401E2A7039706D1C7F1C0028F6D108
:1003A000AD1BBF1B31463046214389074DD03A78FB
:1003B0002178401E22703970641C7F1C0028F6D101
:1003C000A41BBF1B324631462243B81B920744D0C0
:1003D00003782278491E23700270401C641C002997
:1003E000F6D12C46871B4097469A4099A41920467F
:1003F00090470028F8DB469A4099BF1B3846904743
:100400000028F8DC30463146A74236D92143890717
:100410002BD03A782178401E22703970641C7F1CE2
:100420000028F6D1A41BBF1BDEE722682968001F45
:1004300004C502C40028F8D196E73A682968001F6D
:1004400004C502C70028F8D1AAE73A682168001F4E
:1004500004C402C70028F8D1B2E703682268091F64
:1004600008C404C00029F8D1BBE73A682168001F1E
:1004700004C402C70028F8D1D4E72143890723D058
:10048000409A2178401E12782270409A641C1170A4
:100490004099491C00284091F2D13146A41B601BB1
:1004A00000F0B2F94299401E091A491E88421CDD2B
:1004B0000A2916DD6B46419A92009D5020AB985058
:1004C0004198401C41901EE0409A2168001F12682C
:1004D00004C4409A11604099091D00284091F3D14D
:1004E000DBE70A2813DD429022E70A2809DD6B4684
:1004F000419A92009C5020AB99504199491C4191DE
:10050000F1E70A2903DD25460846429110E74198A4
:10051000002800D000E747B0F0BDFFB50E46074603
:10052000140081B03BD0002E39D00A2E02D9049B92
:10053000FFF7EAFE761E3D466643701900902BE0F9
:100540002E462D1900E0361BBE4205D32946304603
:10055000049A90470028F6DC20462843311980078A
:100560000BD0002016E02A18136801E01668165117
:10057000121B8A42FAD2001D1351A0420CD2F2E79C
:100580002A18137801E016781655121B8A42FAD2FF
:10059000401C1355A042F3D300988542D0D305B038
:1005A000F0BD00000EB5044615460E4612A000F040
:1005B00049FE204600F046FE15A000F043FE3046FE
:1005C00000F040FE14A000F03DFE6C460020E072FA
:1005D0000A20A0720A3407E00A21284600F022F916
:1005E00030310546641E2170002DF5DC204600F0F8
:1005F00029FE00F01DFE00002A2A2A20617373657F
:100600007274696F6E206661696C65643A200000DF
:100610002C2066696C6520002C206C696E652000BA
:10062000401ECAB24178401C8A4202D00029F9D14A
:100630000020704730B5441C03E00178401C0029BD
:100640000DD08107F9D10B4BDD0104C8D11A9143BC
:100650002940FAD0001B0A0603D0C01E30BD001B83
:1006600030BD0A0401D0801E30BD0902FCD0401EFE
:1006700030BD0000010101010346F0B50B439B07AB
:100680002DD1244DEF01042A29D308C810C95E1BBF
:100690009E43121F3E4017D0D8B2E1B2401A310635
:1006A000014310D198B2A1B2401A310401430AD1DA
:1006B00018022102000A090A401A3102014302D13C
:1006C000180E210E401AF0BDA342DCD018BA21BA90
:1006D000884201D90120F0BD0020C043F0BD002AAE
:1006E00001D10020F0BD03780C78401C491C002B80
:1006F0000DD0A3420BD1521E09D003780C78401CB8
:10070000491C002B03D0A34201D1521EEBD1181B70
:10071000F0BD00000101010101E004C0091F04292E
:10072000FBD28B0701D50280801CC90700D0027064
:10073000704700290BD0C30702D00270401C491E2D
:10074000022904D3830702D50280801C891EE3E7B7
:100750000022EEE70022DFE782078B079A423FD1B3
:1007600070B5920F0AD0032402780B78401C491C04
:10077000002A33D09A4231D12042F5D1214EF401E2
:1007800004C808C9951B9543254018D19A420FD13A
:1007900004C808C9951B9543254010D19A4207D13A
:1007A00004C808C9951B9543254008D19A42E7D053
:1007B00012BA1BBA01209A4200D2404270BD12BA4E
:1007C0001BBA2DBA18241000E0401900E140401A6D
:1007D00005D12E00E64002D1083CF4D1D01A70BDFC
:1007E00002780B78401C491C002A09D09A4207D194
:1007F00002780B78401C491C002A01D09A42EFD0A5
:10080000D01A704701010101002203098B4273D302
:10081000030A8B4258D3030B8B423CD3030C8B420D
:1008200021D312E003460B437FD4002243088B42BE
:1008300074D303098B425FD3030A8B4244D3030B67
:100840008B4228D3030C8B420DD30902FF2212BA2C
:10085000030C8B4202D31212090265D0030B8B42A8
:1008600019D300E0090AC30B8B4201D3CB03C01A92
:100870005241830B8B4201D38B03C01A5241430B6D
:100880008B4201D34B03C01A5241030B8B4201D35D
:100890000B03C01A5241C30A8B4201D3CB02C01AC8
:1008A0005241830A8B4201D38B02C01A5241430A40
:1008B0008B4201D34B02C01A5241030A8B4201D32F
:1008C0000B02C01A5241CDD2C3098B4201D3CB01D6
:1008D000C01A524183098B4201D38B01C01A524185
:1008E00043098B4201D34B01C01A524103098B4289
:1008F00001D30B01C01A5241C3088B4201D3CB0074
:10090000C01A524183088B4201D38B00C01A524156
:1009100043088B4201D34B00C01A5241411A00D206
:1009200001465241104670475DE0CA0F00D049426F
:10093000031000D3404253409C46002203098B42DF
:100940002DD3030A8B4212D38901FC2212BA030A67
:100950008B420CD3890192118B4208D389019211E9
:100960008B4204D389013AD0921100E08909C3096E
:100970008B4201D3CB01C01A524183098B4201D370
:100980008B01C01A524143098B4201D34B01C01A5B
:10099000524103098B4201D30B01C01A5241C308D3
:1009A0008B4201D3CB00C01A524183088B4201D342
:1009B0008B00C01A5241D9D243088B4201D34B005D
:1009C000C01A5241411A00D20146524110466346B4
:1009D0005B1001D34042002B00D54942704763466B
:1009E0005B1000D3404201B50449002802DC491CD9
:1009F000084000E00846C046C04602BDFFFFFF7F3A
:100A000070477047704700000246C80FC007814317
:100A10004B0030B54B405B009B0D20D01923DB060B
:100A2000C91801231B05994220DB0324A4070425D0
:100A30001346AB400BD3002B04D1EB0613409B00B5
:100A4000E34204D401246407002312195941FF230F
:100A50001B0599420BD2C9000143500F09E0CB029C
:100A600004D501430803024305D0054830BDFF21EA
:100A7000C905084330BD084607210905884330BD34
:100A80000000C07FF0B5FF252D04C609C209FF276D
:100A900004462E400137CB093E4348402A402B40B4
:100AA0000746002A6BD0002B69D0AA4267D0AB4220
:100AB00065D0002800DA32460125ED0529432C4394
:100AC00009022002090AD21A4B0C7F24E31A434C74
:100AD000000A7C44E35C7D242404121914145B0096
:100AE000A218884201D3521C00E0400049420C4643
:100AF0005C4324115C43DB016415E318040A5C4386
:100B0000C502200D0C4644436419250A5D432303A6
:100B1000EC0C0D46654300030019EB184C42A34250
:100B200001D35B18401CD4052018002B07D05B00B4
:100B3000C91804D3401C002901D1400840003F21BE
:100B400089048A4209D3002A08DC1106090F04D05F
:100B5000032149074018C00FC007F0BD0122410022
:100B6000120689187F2252069142F6D205214907C2
:100B7000C84201D59010F0BDFF20C005F0BD002F88
:100B800000DA32461648AA4207D2AB4205D2190211
:100B9000090E17D0F80FC007F0BDFF2563002D0622
:100BA000AB42F9D84900A942F6D8AB4201D1A942DB
:100BB000F2D0A94201D1002101E061004908D0052D
:100BC0000843F0BD1102090EFBD0FF200243D005FF
:100BD000F0BD0A460146104654E700001E8C000096
:100BE0000000C07F10B501469E240002CA15A3076D
:100BF000002A02D01843002A04DBA21A002A0CDDC6
:100C0000D04010BD1206120E01D140004008A21AB9
:100C100003D4D04040420028F3DDFF2248001206F2
:100C2000904201D9002010BDC817C043584010BDE4
:100C30000102C21504D00123DB071943002A0ADB95
:100C40009E239A1A02D40846D0407047FF224100E2
:100C50001206914201D900207047C017C043704767
:100C60001F22030C02D10F2200041CD0030E01D15D
:100C70000002083A030F01D10001121F830F01D1B6
:100C80008000921E002801DB4000521ED205511840
:100C9000021251181922904004D3491C002801D196
:100CA0004908490008467047C10FC90700D04042B3
:100CB000012292071143D3E701218907D0E710B53C
:100CC00000F084FB006810BD10B5044600F07EFB08
:100CD000046010BD70B5044685690068C10601D581
:100CE000302600E02026C00707D070BD626830467D
:100CF000A1689047206A401C20626D1EF6D570BD29
:100D000070B5044685690078C00707D170BD626878
:100D1000A16820209047206A401C20626D1EF6D5F5
:100D200070BD09684A0501D540B27047C905FCD5B8
:100D300000B2704709684A0501D5C0B27047C905BD
:100D4000FCD580B2704770B50C460546012A05D027
:100D50002878800600D5EA69002302E0012305E037
:100D60005B1C934202D2E05C0028F9D1A869E61826
:100D7000C01AA861286AC01828622846FFF7AAFF8F
:100D800004E06A682078A968641C9047B442F8D3EC
:100D90002846FFF7B5FF70BDF7B500257529106827
:100DA000009914A611D0FFF7BCFF002802DA4042D8
:100DB00011A608E0009909688A0701D50FA602E08C
:100DC000490704D50EA6012501E0FFF7B3FF009FF8
:100DD0000024243704E000F0BAFF30313955641C98
:100DE0000028F8D12B4632462146009800F02FFB10
:100DF000FEBD0000000000002D0000002B000000E0
:100E00002000000011680268006A530501D50870CF
:100E100009E0D30501D5088005E0130602D5C21705
:100E200005C100E0086001207047000001694A1C0C
:100E300002610878704700B58FB0029100210591DA
:100E4000054901937944039111460490684600F0E6
:100E500025F90FB000BD0000E5FFFFFF0A68107024
:100E6000521C0A6070470000F7B50446154686B06C
:100E70002B487844002703C83E460090019111E0BA
:100E800007986A467100415A02A800F039FF411CD8
:100E900007D02178890603D5E269391891420ED826
:100EA0003F18761C2078800602D5E069B84206DD3E
:100EB000AE42E5DB07987100405A0028E0D1A069F6
:100EC000C01BA0612046FFF705FF154878445A383B
:100ED00003C800900020019116E041006A4607987F
:100EE000415A02A800F00CFF0590401C0AD00025D2
:100EF00005E0626802A8A168405D90476D1C0598F6
:100F00008542F6D30498401CB0420490E5DB206A89
:100F1000C01920622046FFF7F3FE09B0F0BD0000C3
:100F2000BE880000F7B5D21D0025D20815A6D20054
:100F3000F52905CA11D0002A05DA00214042914165
:100F400011A60A4608E0009909688B0701D50FA68B
:100F500002E0490701D50EA601251146009F002495
:100F6000243704E000F036FA30323A55641C024669
:100F70000A43F7D12B4632462146009800F067FA23
:100F8000FEBD0000000000002D0000002B0000004E
:100F90002000000070B504460021243408E0550705
:100FA000D2086D0F303565545D072A43DB08491CB4
:100FB00015461D43F3D10468002310A2250708D568
:100FC00020252C400C4304D0C46901230CA2641ECC
:100FD000C46100F03CFA70BD10B5044621461068AB
:100FE000FFF7A8FE002302462046FFF7D3FF10BDFF
:100FF000D21DD108C9000CC9CCE7000000000000D8
:1010000030000000F8B50F460188090502D5224CD2
:101010007C4402E0204C7C440E34054600212435FB
:1010200008E016071209360FA65D6E541E073243FC
:101030001B09491C16461E43F3D12246047800239F
:10104000240705D5702F06D0002901D002231132C4
:1010500000F0FDF9F8BD01231032F9E770B5044640
:101060000D4621461068FFF765FE0023024629461B
:101070002046FFF7C7FF70BDD21DD308DB000CCBA5
:10108000C0E730B4036820241268234303600823B8
:10109000C36130BC0023B5E728870000F3B50446E0
:1010A000002081B020622046E1688847002872D085
:1010B000252802D06268A168ABE0594F00267F4422
:1010C0002046E16888472028054608DB312D06D2F6
:1010D000781920380078002801D00643F0E7B007DF
:1010E00001D5042086430020E0610746A0612A2D37
:1010F0000AD0284607F0CEFC002827D0B8000019F7
:10110000303D0090856119E00298BA00121902C8BA
:10111000916102902046E1688847012F054617D16A
:10112000E06900281FDA202086431CE000980A218D
:101130008069484300994019303888612046E16849
:101140008847054607F0A6FC0028EFD1012F0AD0FA
:101150002E2D08D12046E168884705462020064309
:101160007F1C022FC3DBA069002803DA4042A06184
:1011700001200643F00701D0102086436C2D0BD0D0
:10118000682D09D04C2D3CD06A2D38D0742D38D024
:101190007A2D36D016E040E0E1682F462046884799
:1011A000B842054609D16C2F29D001208002E168A0
:1011B000064320468847054604E06C2F1DD0FF20DB
:1011C00001300643002D28D028464138192803D87D
:1011D0000120C00206432035204626602946029A97
:1011E0001646FEF7B9FF002810D001280BD0F61DD7
:1011F000F008C0000830029055E74020E1E7802069
:10120000D5E70020D3E7361D02964CE762682846F2
:10121000A1689047206A401C44E7206AFEBD000098
:10122000A286000010B50023036000F030FD10BD61
:1012300010B5002000F085FDFFF70FF8012000F049
:10124000BBF810BD10B5044602E0641C00F0AEF817
:1012500020780028F9D110BDC10D10B50906090E7E
:101260002ED0FF2931D07E292DD319D0962916D220
:10127000024675398A4005D0002402468A4003D3CD
:10128000012302E00124F8E700230222CA41511E93
:101290008843002B03D08018002C00D0904310BD51
:1012A0000121420201D1012200E00022C00FC0074B
:1012B0000029F4D0002AF2D17F21C905084310BDCE
:1012C000C00FC00710BD0021EFE74102FAD001486E
:1012D00010BD00000000C07F10B5FF22C30D1340F9
:1012E00009D05A4007D0914205DA5C42A14202DDA2
:1012F000C905081810BDC40FE407002B06D0002A4A
:1013000006D0002902DBFF20C0050443204610BDA3
:101310004102FCD0004810BD0000C07F30B5C30DB5
:101320001906214A090E31D0FF292FD000283ADBB7
:1013300001025002014301207D33C34000D249081D
:10134000012080071724091A240649088210234324
:10135000FF252D064C00211A04D4891A02D454000A
:10136000201800E0214652085B19F3D51A220446E2
:10137000944007D382068A4203D18021803088437B
:1013800000E08030C009D905081830BDFF2904D01D
:101390004100FAD0C00FC00730BD410201D0104655
:1013A00030BD0028FCDAFAE70000C07F08B56946C6
:1013B00008700320ABBE08BD01491820ABBEFEE794
:1013C0002600020000487047E000002000487047F7
:1013D000E00000200B4670B50246890780080843EC
:1013E00019469D08141AA94125090807054308094B
:1013F0002C194841250A01060D43010A2C194141C7
:10140000200C0D0428430D0C00194D4100214019FA
:101410004D41C00869070843E908840F8D00254342
:10142000840024184D4124196D41121BAB4107E083
:101430000925ED432C11521963410024401C6141E0
:101440001C460A250026551BB441F1D270BDFFB5DC
:1014500004460D4681B0243000902168880604D5EA
:101460001022E0699143216000E00120A84201DDE3
:10147000471B00E000270498A1697A191018081A80
:10148000A0612078C00602D42046FFF723FC002686
:1014900008E003986268A168805D9047206A401C5C
:1014A000761C206204988642F3DB2078C0060AD5B9
:1014B0002046FFF70FFC06E06268A16830209047E5
:1014C000206A401C206238467F1E0028F4DC07E0BA
:1014D00000986268A168405D9047206A401C2062C5
:1014E00028466D1E0028F3DC2046FFF709FC207813
:1014F000000602D5022005B0F0BD0120FBE7000088
:10150000FFB50C461E468FB003CA089009914F00E4
:101510007D0D00D16D1E002108460020C04603212C
:10152000099A89050840002A03DA820080184008D9
:101530000840800D01280A9002DD0020C0430A9077
:10154000089807430DD0F048F0492818484307147D
:10155000189800281DD07542291E1DDD0A984242A8
:101560001BE01898012802D00020302104E0002060
:10157000F24305E02154401CB042FBDB3046002220
:10158000189B002121540F998B600A60486013B0AA
:10159000F0BDBD1B6D1CDFE70A9A002900DA694225
:1015A0000BA800F0E7FC0BAB07CB03AB07C3089914
:1015B000099800F04BFD6B4607C30146D448091853
:1015C000002D00910BDDD24903980A9A4942401838
:1015D000002303A90390684600F0A8FF08E00399E0
:1015E0000A9A0023081803A90390684600F048FFF0
:1015F0006B4607C30004000C03D00020C043410821
:1016000000E01046189A002A03D0002200921546E6
:101610001EE0751E05D4FFF7DDFE303262556D1EEB
:10162000F9D501220843079602D000227F1C04E06E
:101630002078302801D100227F1E002A069787D00B
:101640001EE0112D07DAFFF7C5FE303262556D1C22
:1016500002460A43F5D1084303D00098002819D068
:101660000EE00021681E05E0235C625C6354225496
:10167000401E491C8142F7DBA81B401E07950690BF
:10168000079A18990020A0540F98079B069A81602A
:101690000CC07CE711260020189059E7D21DF0B548
:1016A0000D460446D10893B0C90003C90C900D91B2
:1016B00007F052F802460D98C00F01D02D2007E028
:1016C0002068810701D52B2002E04007C00F4001B0
:1016D000032A0F9001D0072A05DB0346294620463E
:1016E00000F0E2FB0EE12078800601D5E76900E01A
:1016F00006272846652D04D0662814D0672D69D1A9
:101700002DE00020112F009001DB112300E07B1C55
:101710000CAA03A910A8FFF7F3FE11990026109850
:101720007D1C0E9142E001203B460CAAC0070B90A5
:101730000120009003A910A8FFF7E2FE119D129866
:101740001099002600280E9501D1781C0D18781BE1
:1017500002D446427D1C761EE81B00903AE0012F21
:1017600000DA01270020112F009001DD112300E095
:101770003B460CAA03A910A8FFF7C2FE11993D46EB
:10178000109800260E91217809070BD40E99A942D2
:1017900000DA0D4603A9012D04DD4A19203AD27F53
:1017A000302A06D0B84201DA011D04DA0121009185
:1017B0000FE06D1EEFE7002802DC86192D1A03E00A
:1017C000411CA94200DD0D46801B401C00900120F9
:1017D000C0070B902078000705D40098A84202DBD0
:1017E0000020C043009069460020C8720B98012178
:1017F00002AF0337C907884225D0022010902B2062
:1018000011900B9800280BDA40420B902D2011907C
:1018100006E00B9800F09BFA30317F1E0B90397078
:101820001099481E00291090F3DC0B980028F0D185
:1018300011987F1E38702088000501D5452000E0F2
:1018400065207F1E387001A8C01BC01D0B900F982B
:10185000002800D0012041190098C01709180B98E2
:101860000818A169081A401EA0612078C00602D499
:101870002046FFF72FFA0F98002805D06268A1686C
:101880009047206A401C20622078C00625D520465B
:10189000FFF720FA21E0002E07DB0E98B04204DDAE
:1018A00003A86268805DA16802E06268A1683020D8
:1018B0009047206A761C401C20620098401E002839
:1018C00000900AD100F0E2FAC06862680168405CEA
:1018D000A1689047206A401C206228466D1E00289F
:1018E000D9DC07E062683878A1687F1C9047206ADD
:1018F000401C20620B99481E00290B90F2DC204608
:10190000FFF7FEF9032042E601FCFFFF104D000047
:10191000E1DFFFFFD21DF0B504460D46D0088DB0C3
:10192000C000466807683146384606F015FF024693
:10193000F00F01D02D2307E02068810701D52B236C
:1019400002E04007C00F43016846002B037001D03E
:10195000012000E00020032A0A9001D0072A04DBBE
:101960002946204600F0A0FA2DE12078800601D417
:101970000D2500E0E5697000400D0D2D01904BDA5A
:10198000300D00210B9008460020C0460321890538
:101990000840002E05DA82008018C20F101840108F
:1019A00008408015012801DD0020C043A900002364
:1019B000182906D39C460A460123183A1B07D34030
:1019C00003E001221205CA4094460C31202902D3BB
:1019D0003A46203900E032468A40002802DD002ADB
:1019E00006D119E0002817D10121C9078A4213D373
:1019F000194663467F185E41002806D10120C007C2
:101A0000824202D1084687439E430B98310D8142A2
:101A100002D00198401C01902088000502D5714930
:101A2000794402E06F49794419396B460A983022AB
:101A30001A540A980A7C401C1A54401C0A900198B7
:101A4000002801DC302000E031201872019A0120CA
:101A5000002A02D0644BD21804E072003A4302D04C
:101A6000614A521C0192002D02DC2278120703D534
:101A70006A462E20507202200022864694460CE0D0
:101A800032033601120F6D1E8B5C02AA135462469C
:101A9000521C401C9446052A01DA002DF0DC00227D
:101AA00002AE08E03B0F3F01CB5C521C6D1E33546D
:101AB000401C082A01DA002DF4DC23689A0601D5BF
:101AC00011E0401E704504DD3218203AD27F302AE2
:101AD000F7D0002807DD3218203AD27F2E2A02D113
:101AE0001A0700D4401E002D03DD3E223254401C54
:101AF0006D1E497C31540199401C002906DA2D21C4
:101B0000471C315401984042019003E02B21471CAF
:101B1000315401987D21C900884206DBFEF782FE20
:101B20003030F0557F1C019101E0642808DB0198FA
:101B30006421FEF777FE3030F0557F1C019101E003
:101B40000A2806DB01980A21FEF76CFE3030F055BA
:101B50007F1C01980A21FEF765FE3031F1550A9885
:101B6000A1697F1C7A191018081AA0612078C00694
:101B700002D42046FFF7AEF8216A6E460A9808188C
:101B8000206204E062683078A168761C90470A9869
:101B9000401E0A90401CF5D12078C00602D5204690
:101BA000FFF798F802AE09E03078761C3E280DD099
:101BB0006268A1689047206A401C20627F1EF3D2B1
:101BC0002046FFF79DF80DB00320F0BD206A4019B4
:101BD000206203E06268A168302090476D1EEDD35B
:101BE000F8E70000877D000001FCFFFF10B54369A6
:101BF000002B02D0C046C04601E0FFF7A4F8012048
:101C000010BD1278014624310A7000224A70012268
:101C1000ECE711680022D243E8E710B54369002BD6
:101C200002D0C046C04601E0FFF71EF9012010BDFA
:101C300012880146243182840022C2840122ECE70A
:101C400011680022D243E8E70FB40A46002300B52A
:101C500089B00DA900910C99CB60254B7B4406936C
:101C6000244B7B44002A079301D0042300E0002387
:101C7000214A01930292214A7A446B460892024615
:101C8000002007F01FFD09B008BC04B01847F0B5EC
:101C900007461E4615460C463B4685B000206A4660
:101CA000C04301900020049004A8009102913146A5
:101CB000FFF7CAFF049902466018002D05D00029DD
:101CC00001D0034600E023462B6000290ED0002AF5
:101CD00002DD0099814209D03B466A463146001B2D
:101CE000019004A800940294FFF7AEFF05B0F0BD88
:101CF000D1020000EB020000FFFFFF7F190200008D
:101D0000F8B516460C46054600F0B8F80368FF2003
:101D10000230C05C012807D0FF2C0FD8185D0028C6
:101D20000CD001202C70F8BDFF3332462146083319
:101D30001868C71828460023B847F8BD0020C043DC
:101D4000F8BD10B500F050FC00F048FC10BD014695
:101D50008008081A02091018020A1018020C10183C
:101D6000C008820012185200891A01E0401C0A398A
:101D70000A29FBD27047000070B505464800440DA3
:101D8000124B0020002C0AD0634008D09A4206DA99
:101D90006642B24203DD12054019514170BD002C6C
:101DA00008D0002B09D0C90FC907002AF6DB084A62
:101DB000114370BDC90FC90770BD28460A031043FF
:101DC00002D00020034970BD284670BDFF07000007
:101DD0000000F07F0000F87F10B5FF231B064400D1
:101DE0009C421DD84C009C421AD80346124A0B4311
:101DF00007D4401A02D3EFF3008010BDEFF3008048
:101E000010BD081A03D3EFF30080904305E0EFF311
:101E1000008001219043C907084380F3008810BD6A
:101E20000D231B041A4204D01146002000F0F4FBDD
:101E300010BD00F009FC10BD000000907047754611
:101E4000FFF7C0FAAE46050069465346C008C00019
:101E5000854618B020B5FEF71BFA60BCB6460026D2
:101E60000027C0C5C0C5C0C5C0C5C0C5C0C5C0C5A8
:101E7000C0C5403D490849008D46704710B500F087
:101E800005F8001D10BD00BF5974000000487047E0
:101E90000001002010B50446FFF7F0FF0068005D68
:101EA000C007C00F10BD0000F8B51F46044601234F
:101EB0000068DB02032601461840072A05DB0028DC
:101EC00001D017A506E017A504E0002801D016A54B
:101ED00000E016A5102081432160A069C01E002FDC
:101EE000A06101D0401EA0612046FEF7F3FE002F46
:101EF00009D038466268A1689047206A401C206279
:101F0000C01C206206E0206AFAE762682878A168AF
:101F10006D1C9047761EF8D22046FEF7F1FEF8BD04
:101F20004E414E006E616E00494E4600696E66007D
:101F30004268002A08D001680B78491C002B03D0A6
:101F4000521E06C0184670470121C160881E7047A6
:101F50004268002A0BD0C3680168002B07D1836850
:101F60008B4204D0491E521C06C00020704700203E
:101F7000C0437047F7B516468AB0334878446C467C
:101F800003467C33C06F5A689B680DC42E48784462
:101F9000763003AC0DC80DC43720C00108183721B6
:101FA0001B30FEF73FFC05460C46803D1B3C02D52E
:101FB0006442012000E000200027099010E0E007C3
:101FC0000CD00C2020497843794432464C394118D2
:101FD0006846012300F054FA6B4607C364107F1C67
:101FE000002CECD1184F7F442E3F16E0E80712D0AA
:101FF0002001C0190EC80691089307920068F042AC
:1020000001D1981908903246012306A903A800F0CF
:1020100037FA03AB07C36D10641C002DE6D1099895
:10202000002806D032466946012303A800F07EFA54
:1020300005E001233246694603A800F021FA0A9B15
:1020400007C30DB0F0BD000040780000034640001B
:102050000A4610B5400D0BD00121C9070F24A40278
:1020600000191C0364082143540D2143D20207E0E8
:1020700000210120F2E7D40F490021435200401E05
:102080000029F8DADB0FDB07184310BDFFB50D465A
:10209000144685B04868516806F045FB00910190F0
:1020A000A868A16806F03FFB02910390A8686168E8
:1020B00006F039FB029A12188242029201D20120E4
:1020C00000E00020019A0B18D2180028019202D0DB
:1020D0008A4202D903E08A4201D2012000E00020B6
:1020E0000099081800906868A16806F01CFB029A25
:1020F00012188242029201D2012000E00020019ACF
:102100000B18D2180028019202D08A4202D903E0AB
:102110008A4201D2012000E00020009908180090B6
:102120002868216840004900400849084018FA49D9
:10213000471814E001994000C90F08430090019826
:1021400002994000C90F084301900298039940008A
:10215000C90F08430290039840007F1E0390009827
:102160000028E7DA0898002801D0EC4E00E00026AD
:10217000B74201DA012000E00020002804902AD0B4
:10218000F71BF806C00E15D0029B2021091A039AEE
:102190008B401A430392029A019BC2408B401A4320
:1021A0000292019A009BC2408B4000991A4301920F
:1021B000C14000917B110DD06F460320C11A03D599
:1021C00000218200B95003E08A008100BA587A5099
:1021D000401EF3D5374603980299002800D001200D
:1021E000014308980291002808460CD0002800D02E
:1021F00001200199019A490508430121D20AC90227
:10220000D202019200E001210E9B0122D207012B94
:1022100002D0002B03D013E0002807D120E0904229
:1022200004D890420CD1019B0B4209D0019B591854
:10223000019105D10099491C009101D17F1C0092A8
:1022400000280DD0102108460020C0460498002820
:1022500006D00F98002803D0082108460020C04669
:1022600028682168019B009A4840C10F0598C9075A
:1022700039430EC009B0F0BDFFB587B0099A089880
:1022800008995368926840688968964600220393CB
:1022900017469446089A12685300099A5B08126818
:1022A000520052089A1A9E4BD4180A9A002A01D05A
:1022B000352200E0402206920022012315460492B6
:1022C000DB07059324E0002D05D175460346039EE8
:1022D0004D1BB34109D375466646039B491B049DBC
:1022E0009841059B7519AC465F4163463B4308D056
:1022F000059B049EDD0776082E435B080496059334
:1023000001E0521E641EC50FED0749184041521CE2
:10231000069B9A42D7DB002D04D17546039A6B1AAF
:10232000824101D203200CE0039A0B466B404240ED
:10233000134303D0014303D0012002E0022000E058
:102340000020614601910021009702910A9900291D
:1023500005D0614640020143704B019102E08007C5
:10236000002302909C4201DA012000E000200700D7
:102370003AD01A1BD006C00E15D0029D2021019C18
:10238000091AC5408C402543029C8C4000D0012492
:102390002543019C0295009DC4408D4000992C432B
:1023A0000194C140009154111DD06D4602210022BC
:1023B00002290CD10320001B07E0002804DB860063
:1023C000AE59002E00D00122401C0328F5DB081B6B
:1023D00002D588002A5004E08000285810438A0063
:1023E000A850491EE3D51C460A98002802980CD034
:1023F000002800D001200199019A490508430121D4
:10240000D20AC902D202019200E00121109B0122EE
:10241000D207012B02D0002B03D013E0002807D1F4
:102420001FE0904204D890420CD1019B0B4209D08E
:10243000019B5918019105D10099491C009101D1C6
:10244000641C009200280CD0102108460020C046D1
:10245000002F06D01198002803D00821084600203C
:10246000C04608980999019A009B0068096848408D
:10247000C10F0798C907214382600AC00BB0F0BDA5
:1024800000B585B0019300920A460146002302A8D8
:10249000FFF7FCFD02A807C805B000BDFFB50A465E
:1024A0001F4685B00799019301230091014602A8B8
:1024B000FFF7ECFD02990398049ECA0F4900D2076A
:1024C00000920F22490892028C1A0021002800DB9A
:1024D0000C46450013486D08844214D3079A002A1D
:1024E00004DA441E0026104DF64302E004460D4671
:1024F0000E46102108460020C046002F03D00421BC
:1025000008460020C0462005E90A08430099084310
:102510006905F20A1143ADE602C0FFFF013C00006D
:10252000FF3F0000FF070000FFFFFF7F00B585B001
:10253000019300920A460146002302A8FFF79CFE81
:1025400002A807C8A8E7FFB50A461F4685B0079945
:10255000019301230091014602A8FFF78DFE029925
:102560000398049ECA0F4900D20700920F2249081F
:1025700092028C1A0021002800DB0C46450011480D
:102580006D08844214D3079A002A04DA441E0026F8
:102590000D4DF64302E004460D460E461021084656
:1025A0000020C046002F03D0042108460020C0466A
:1025B0002005E90A0843009908436905F20A114316
:1025C00058E60000FF070000FFFFFF7F10B504463C
:1025D000C046C0462046FDF74BFE10BD10B5002892
:1025E00001D0FEF7E9FE10BD10B5002102A000F0F9
:1025F000C3FA012010BD0000534947414252543AEA
:102600002041626E6F726D616C207465726D696ECF
:102610006174696F6E000000C80212D54803400F54
:10262000002804D0C803C043012188407047EFF35D
:1026300000800001000903210907084380F3008896
:10264000704700207047000010B5024800F0AEFA55
:1026500010BD00000000C07FFFB58BB00878FF28D8
:1026600006D0491C2D2805D000230020009009E049
:1026700000200EE00123F8E7009A0A246243801844
:10268000491C00900878FF28F6D1002B02D0009852
:1026900040420090002503952C460D9800782D2887
:1026A00001D02B2815D10D99491C2D280D9102D050
:1026B000002003900DE00120FBE7401C214600278D
:1026C0000A223B460D902846FDF7F4FD35183C469E
:1026D0004C410D980678FF2EEFD1002108460020CE
:1026E000C0460399002902D081004018400800022A
:1026F000860F012E01DD0026F6430E99009847183B
:10270000284620430BD0FF20F530C7421ADA039841
:10271000C1070B98002E41600ADD012009E00398F3
:10272000C1070B9841600B99002008600FB0F0BD05
:1027300000200B990860FEF749FE02210160182174
:1027400008461AE0FF20F530874219DD002E02DA34
:10275000FC48784401E0FC48784406C80B9806C061
:102760000B9803994068C90708430B994860FEF726
:102770002DFE02210160142108460020C046D5E745
:10278000002108460020C04639000A9001D5724257
:1027900000E03246002900DA794207A8FFF7EAFB99
:1027A00007AB07CB04AB07C3E84800900020014605
:1027B000214304D12C460546E44920390091210CDF
:1027C0000904014306D1290C24040C4300992D046B
:1027D00010390091210E0906014306D1290E240269
:1027E0000C4300992D0208390091210F090701437C
:1027F00006D1290F24010C4300992D01091F0091D6
:10280000A10F8907014306D1A90FA4000C43009929
:10281000AD00891E0091E10FC907084304D100985B
:102820006D196441401E0090002F0295019406DD51
:1028300032466846012304A9FFF730FE05E0012374
:102840003246684604A9FFF77EFE044603980D460B
:10285000002802D00120C007444000210846002083
:10286000C0460A99BA4E48400007800F07D1600061
:102870004008284303D06000400DB04214D1FEF759
:10288000A5FD022101606000400DB0420CD1B148AD
:10289000784406C80B9806C00B98E10FC90740683A
:1028A00008430B99486041E70B9844600B9805601A
:1028B0003CE7FFB51F4695B0002000250C909E68B0
:1028C0005C68ED431390FFF7E1FAC0680168405C73
:1028D0001490B96916986D1C88470A90396A884720
:1028E0000028F6D10A98401C0AD00D20C00184436C
:1028F000002E12DD0A982B2809D02D280DD103E0D7
:102900000020C04319B0F0BD012080020443B96922
:1029100016986D1C8847761E0A90600504A901D59B
:102920002D2000E02B206A46491C107410A8002EB0
:102930000D910B903BDD0A98692805D0492803D0FA
:102940006E2801D04E281DD13B46039002200296EE
:10295000179A1699C0430095019406F0C3FEC11C56
:10296000D0D10FE0B96916986D1C88470A900120F4
:10297000761E40020443179805601398401C002EF1
:10298000139014DD0A983028ECD0782801D058280C
:102990000DD1139801280AD13B460296179A169931
:1029A000001F0095019406F095FEC11CAAD1149950
:1029B0000A98884245D18020044308E00C98179972
:1029C000401E0C90012040020443681C0860B96955
:1029D0006D1C1698761E884730280A90EED030E09D
:1029E0001499884205D1200603D480200443761E22
:1029F0001DE00A9806F04EF8002825D001210A981B
:102A000049020C430D9908AA03323038761E9142D0
:102A100008D208700D98401C0D90200607D50C9820
:102A2000401E03E0200602D40C98401C0C90A00528
:102A300002D51799681C0860B96916986D1C8847FB
:102A40000A90002ECCDC59E0002E57DD0A9865284C
:102A500001D0452852D1A00550D50320B969000204
:102A600084436D1C1698761E8847002E0A900CDD54
:102A70002B2804D02D2808D1FF2001300443B96948
:102A800016986D1C8847761E0A90E00501D52D2109
:102A900000E02B210B9801700B98401C0B900090CC
:102AA00025E0012012A9400204430B980131761E53
:102AB00088420ED20A980B9930380006000E087032
:102AC00003D100990B9888420AD90B98401C0B90AF
:102AD00006E0E00501D5204801E01F4840420C9087
:102AE000B96916986D1C88470A9017980560002EE2
:102AF00004DD0A9805F0CEFF0028D2D1F9691698B6
:102B000088470D99FF2004AA08700B9908700020CF
:102B10000E900F900C9B10A90EA8FFF79DFDA0052D
:102B200002D40120C043EDE62420044216D0E00781
:102B300020D138680F9A0E99031D3B60006806C0CB
:102B400018E00000AE7B0000A07B00003E400000CB
:102B5000FF070000687A0000F1D8FFFF0EA9684661
:102B600005F04CFEE00705D13868009A011D396078
:102B7000006802602846C5E670B505460C460A2086
:102B800000E06D1CFEF712FC002D06D0287800280E
:102B9000F7D102E0641CFEF709FC002C02D020787B
:102BA0000028F7D10A20FEF701FC70BD10B50C46D5
:102BB0001107090F092904D00A290AD008290CD1C4
:102BC00004E011460820FFF727FD06E0510606D570
:102BD00001E0510601D50120C007214610BDD106F4
:102BE00007D501010909CC084907000E0006044376
:102BF00009E0410F20024907000A0143200E0006A8
:102C00001D22D14101430846E7E710B5202A04DB25
:102C10000146203A9140002010BD914020239C1A8B
:102C20000346E3401943904010BD0000FFB51F4626
:102C300089B0139812994005C00FC0070590002075
:102C4000079005460446461E049002903C20491C0D
:102C500012910690B9690A98884703901498401E0B
:102C600014901498002841DD03982E2816D01021C6
:102C700000F014FA002834DB012104910799014384
:102C80001AD0069900290CDB069AC117FFF7BDFF81
:102C9000054306980C43001F069006E001200290B1
:102CA0000EE0002801D00120054301200790029882
:102CB000002805D1361D03E00298002800D0361FF9
:102CC0001298401C1290B9690A988847039014988A
:102CD000401E149004980028C3D00B9912980860E5
:102CE000BFE70398702808D0502806D0F9690A98E1
:102CF00088470498002815D051E000200390012057
:102D00000290049800280AD01298401C1290B969C9
:102D10000A9888471499491E0029149106DCF9691C
:102D20000A9888470120C0430DB0F0BD2B2804D07D
:102D30002D280DD10020C04302901298401C129003
:102D4000B9690A9888471499491E00291491E6DD4B
:102D5000411CE4D00A2100F0A1F90028DFDB03992F
:102D60000A225143081803901298401C1290B96926
:102D70000A9888470A2100F091F914990B9A491E84
:102D80001491129911601499002901DD0028E6DAE6
:102D9000F9690A9888470299039848438619139855
:102DA0002421084004902846204304D0A10F89071D
:102DB000090002D006E005989BE0A90FA4000C438F
:102DC000AD00B61EE10FC907080002D16D196441BC
:102DD000761E0498002803D00B2002905D4803E083
:102DE000282002907D20C0438642039007DA811B91
:102DF000029808184128029001DD41200290029AB1
:102E000001200021521EFFF700FF024628400B461A
:102E10002140084301D0012000E00020079000205D
:102E2000521EC04343412A4023401A4301D001208F
:102E300000E0002007990690014352D00021084687
:102E40000020C0460321059A89050840002A05D0C4
:102E500082008018C20F1018401008408015012809
:102E600002DD0020C04301E0012815D0401C38D00D
:102E70000798002835D0069800280DD1029A012025
:102E80000021FFF7C2FE28402140084301D0012065
:102E900000E00020002824D0029A01200021FFF742
:102EA000B4FE034640198C4661412A1A8C410FD367
:102EB0000298402807DD0498039E002801D0343E84
:102EC00002E0173E00E0761C01240025E40708E03C
:102ED0005B1E62460024E4436241DD43D443054067
:102EE0000C4003980121081AB04206DA1A490598E5
:102EF00008430190002000900EE060006205010B85
:102F0000E80A1043059A009068460A4313490A43A9
:102F10003146019205F09EFD049800280AD01398CE
:102F2000C00714D13868019A0099031D3B600068FE
:102F300006C00CE002A8694605F060FC1398C007C3
:102F400005D13868029A011D396000680260129844
:102F5000EAE6000002FCFFFF0000F07F0000F03F07
:102F6000FFB51D4687B01198484A109C129E400537
:102F70001399C00F761EC0070243019200220092EF
:102F8000FF22D2051043202291434929059003D006
:102F900017464E2928D04FE03DA002AA0BC80127B2
:102FA0000BC2A9690898641C8847761E014607D49D
:102FB00002A8C05D002803D02022914381420AD09C
:102FC000E96908988847032F36D0082F34D00120AC
:102FD000C0430BB0F0BD7F1C032F01D0082FE0D100
:102FE0000999601C0860DCE7A9690898641C884797
:102FF000761E2DD4B84341282AD1A9690898641CAB
:103000008847761E24D4B8434E2821D1A969089850
:10301000641C884701990122D2041143019105994A
:10302000D200114305910999761E0C6001D428281D
:1030300006D0E969089888471198C00712D023E0A4
:10304000A9690898641C8847761E01D4002803DA11
:10305000E96908988847BAE72928F1D10998641CDA
:103060000460E9E711982421084207D02868019AF2
:103070000099031D2B60006806C005E028680599CB
:10308000021D2A60006801602046A2E70000F07F70
:10309000494E46494E495459000000003A2800D292
:1030A0003038202302469A43412A01D3104637384C
:1030B000884201D30020C04370470000F8B5264C79
:1030C0004E00069DA6420AD8A64201D1002806D18C
:1030D0005E00A64203D8A6420AD1002A08D00D24D9
:1030E0002404254233D029460020FFF795FAF8BD85
:1030F0000C461C4311D4994207D0C81A02D3EFF3EF
:103100000080F8BDEFF30080F8BD801A02D3EFF322
:103110000080F8BDEFF30080F8BD09242407E50026
:103120008B4207D0581A02D3EFF3008006E0EFF38A
:10313000008007E0101A03D3EFF30080A04303E000
:10314000EFF30080A043284380F30088F8BD00958A
:1031500000F004F8F8BD00000000E0FF10B500200A
:103160000249029AFFF722FD10BD00000000F87F1F
:1031700080B5024800F088F880BDC046CC0300202E
:1031800072B6FEE780B5054800F075F980BDC0460F
:1031900080B5024800F06FF980BDC04628040020C9
:1031A00070B500282CD0014624314A78022A29D152
:1031B000046822680E239A432260426C1568314BE2
:1031C0001D4015602568012295432560046C1C256F
:1031D00025401446AC40654D2E6826432E60846C15
:1031E000C56C6560046D002C05D025681D40256008
:1031F000436D806D58604A70002000220A7070BDD7
:10320000012070BD0422C263012000220A7070BD3B
:1032100070B5242101244454014624314A78022AFD
:103220002BD103681A680E24A2431A601C6801227D
:1032300094431C60446C2568124B1D402560046C4F
:103240001C2525401446AC40484D2E6826432E6070
:10325000846CC56C6560046D002C05D025681D402C
:103260002560436D846D5C6000240C704A70816B36
:10327000002900D08847204670BD0421C163204644
:1032800070BDC046FFFEFFFFF0B585B0016C1C2489
:103290000C4004231946A140344A121F15680A46FF
:1032A00003952A4056425641049005682A681746FD
:1032B0001F4078427841304332D0029501210226E6
:1032C0001046304047424741A640039B1E420D46F0
:1032D000019400D03946049F3C462434002931D063
:1032E00008200240564256410198C340180700D5B5
:1032F0003546002D24D1029A10680E2188431060B3
:1033000001200146019A9140184B1A680A431A603D
:10331000F863002121706070796B00290ED10FE0F5
:103320002868800602D42868984328600F4A1068ED
:1033300008431060049F396B002901D03846884744
:1033400005B0F0BD029A1068800605D410680A2105
:1033500088431060012060700020207003490868D5
:1033600030430860F96A0029E8D1E9E70400024027
:10337000F0B587B000284AD0044601462431022027
:103380000691487027683868344901403960344EE6
:1033900030468030A064334838181425294605F09B
:1033A000C7F880008119206405916164FC203840D1
:1033B0000838294605F0BCF81C22024001210B46C2
:1033C0009340E364A0680490E5682646103645CE35
:1033D0000196E6690296266A039628431043019AED
:1033E00010430E4602990843039908433968014384
:1033F000049A11433960B1031B488A420AD1002262
:1034000005990A6062600360154613461BE00120BF
:1034100007B0F0BD6168CFB2059A17600360491E1E
:1034200000220329154613460DD8791E8A008218FA
:103430000023D36703250D403346AB400B490B6097
:103440007C32BC3005460020E06322656565A365DB
:10345000069908704E7007B0F0BDC0460F80FFFFA0
:1034600000080240F8FFFDBF840802404409024002
:10347000704770477047F0B58DB004460068056D21
:10348000416D0B91076D416D0191016D0891416D89
:103490000291016D0691416D0491016D0591416D9F
:1034A0000391426D402107920A4053425341026DFD
:1034B0000C920A40564256411E4307220992002EA2
:1034C00003D101652046FFF7D5FF0B980540099809
:1034D00080020090012101200A900002079E3246DE
:1034E0000240534253410C9AD2050B910A4600D533
:1034F0001A4601990F4000990D40002A0AD122680E
:10350000D82153581146D831896810651940204692
:1035100000F056FA08980299084008903821099856
:103520000740002D08D02068056520460E46294634
:1035300000F048FA3146079E089D0D40002F05D047
:10354000206807652046394600F036FA002D05D080
:10355000206805652046294600F02FFA0A984002A7
:1035600032460240514251410C9A92050B9A059FF6
:1035700000D50A46002A04D121680865204600F0DB
:1035800022FA802531462940484248410C990906D3
:103590000B9900D5014600290AD12068D421425850
:1035A0000146D431896805651140204600F009FACA
:1035B0000A98400332460240514251410C9A92040B
:1035C0000B9A00D50A46002A04D1216808652046D6
:1035D00000F0F5F90A98C0033246024051425141C9
:1035E0000C9A12040B9A00D50A46002A04D12168CD
:1035F0000865204600F0E2F9F12103980740099898
:1036000042040A9880030640734273410C9E76047C
:1036100000D50B93069E049B1E40090417400B9A8D
:10362000002A04D122681065206E284320660E40CF
:10363000002F05D02068076520463946FFF719FF9F
:10364000002E04D020680665206E30432066206E70
:10365000002802D02046FFF70BFF0DB0F0BD0000A0
:10366000F0B585B000281CD0044606465C3630789C
:10367000002804D100207070204600F047F920682F
:1036800081691027B943816100F06EFA0546206810
:103690008169090708D500F067FA401B0B28F6D3AB
:1036A00013E0012005B0F0BD8169012204921143AD
:1036B000816100F059FA054620688169C9070CD17B
:1036C00000F052FA401B0B28F6D3216E0120014373
:1036D00021660321317005B0F0BD816902220A43E1
:1036E00082616168854A1160217C491E4A1E9141B0
:1036F0008901826940239A4351188161617C491E86
:103700004A424A419103049DAA038369934359188D
:103710008161A17C491E4A1E914109032A038369E4
:1037200093435918816103210A02816902929143EE
:10373000A2680192114381618169A4239943816147
:103740000169B9430161E368002B12D0012B0CD051
:10375000022B08D0816980250D43856101693943B9
:103760000161032B05D1202100E0042183690B4373
:1037700083610396034680330546C0357F214906A1
:1037800062690092A769E269266A7F067918FF27B5
:10379000FF431202D2190A43761E164300990A0407
:1037A000574952183243C2610299019A8A4213D191
:1037B000626AA16A0191E16A266B02961204504E78
:1037C00092190902C919019E761E0E430299090138
:1037D000103931431143C160E06B2968014329600E
:1037E0001F20000419688143606B000408431860BF
:1037F000444A4549104670300D46F0350E46D836DD
:103800001746B03722646064A764E1642665656585
:103810000F2000061D688543A06B00062843186032
:1038200013460020106650669066D0661067506799
:103830009067D067106450649064D06410655065E0
:103840009065D065106250629062D06210635063E0
:103850009063D063106050609060D06010615061E0
:103860009061D06115465435E86715465035E867D4
:1038700015464C35E86715464835E8671546443522
:10388000E86715464035E86715463C35E867154654
:103890003835E86715463435E86715463035E8674A
:1038A00015462C35E86715462835E8671546243552
:1038B000E86715462035E86715461C35E867154664
:1038C0001835E86715461435E86715461035E8677A
:1038D00015460C35E86715460835E867151DE86795
:1038E000D4330D46F435AA421A469AD32066A06511
:1038F000039E0499317005B0F0BDC04600650040DC
:103900000000FFFF00B4004088B5004070B58EB0E5
:1039100000240D940C940B940A9409940894079431
:103920000694059404940394029400681F49884205
:1039300001D00EB070BD1020019001A800F064FE0F
:10394000002801D0FFF71CFC0125280318498A68CC
:1039500002438A608A680240009200980868082240
:103960001043086008681040009004200D900C94EB
:103970000B9402200A900320099000980D4809A991
:1039800000F022F81E2630462946224600F020FE8E
:10399000304600F011FE1F2528462146224600F041
:1039A00017FE284600F008FE0EB070BD006400400F
:1039B00034100240000C0050704770477047704749
:1039C0007047704770477047F0B58AB0069009910C
:1039D0000B68002B00D1B4E05B480699814201D00E
:1039E000062000E005200B221207069989180A22FA
:1039F000D1410091042900D3009006982030019015
:103A000000252E46079529460FE01A436260089963
:103A1000491C099803681846C8400835B61C079A1F
:103A2000121D0792002800D18BE001242046089146
:103A3000884003400393EAD0049509994A6810210D
:103A40001143122915D11C21079A114005960F2602
:103A500032468A40089BDB089F00019BDD59954355
:103A6000099A12693240059E8A402A43DA5109991F
:103A70004A68032311461940B1400293B3403746C8
:103A8000069E35689D430D4335603E46D9430591FA
:103A9000122A049D15D894402E490C420FD0069C42
:103AA000A168059B1940099BDB68B3400B43A360E9
:103AB0001109089B9940636883430B436360032AA1
:103AC000A5D0069BD8680599084009998968B14036
:103AD0000143D960D0009AD5182028400F21814099
:103AE000089A029B9A43194CA218136E8B430099B3
:103AF0008140194311661648026809984068C1035D
:103B000002D5039B1A4301E0039B9A4310490A60C4
:103B10004A68810301D51A4300E09A430C494A6080
:103B20002268C10205D51A4322606268800206D568
:103B30006BE79A4322606268800200D565E79A438A
:103B400064E70AB0F0BDC0460014005000180240FF
:103B50008018024006000600002A02D01822815078
:103B60007047282281507047014800687047C0465E
:103B7000340A0020B0B50246034640335C78022088
:103B8000202C17D11C78012C14D0242058701068D8
:103B900002680124A2430260220305689543056080
:103BA00002680A4302600168214301600020187026
:103BB00020215970B0BDB0B50246034640335C7851
:103BC0000220202C17D11C78012C14D024205870EE
:103BD000106802680124A24302600F2212020568E5
:103BE00095430902294301600168214301600020D7
:103BF000187020215970B0BDF0B581B0002822D0D6
:103C0000054640356978002905D100212970044610
:103C100000F040FC20462421697001680B680122F5
:103C200093430B600F231B0644689C430C618C6814
:103C30001C4B1C408C608468C668012E06D1D603DC
:103C400034438C600CE0012001B0F0BD2127BF029D
:103C50003C438C60022E03D1D4024E68264302E01E
:103C6000D4024E68A6434E604C680F4E26434E6009
:103C7000CC681C40CC60036944691C4383691B0207
:103C80002343CB60C369046A1C430C600B68134375
:103C90000B600021416420226A7001630846A9700C
:103CA00001B0F0BDFF7FFFFF00800002F0B587B0DC
:103CB0000446054640356E780220202E00D0ABE049
:103CC0002E78012E00D1A7E00691039304920120E3
:103CD00005902870FFF748FF0646206881690904AF
:103CE0001AD4222169701021A970002262640399FC
:103CF00061850499616203926263618D090AC24918
:103D0000C24B26D0069A0A4047681F4017434E4AC6
:103D10003A434260FF2228E00598C70302E0816928
:103D20003942DED019212046324601F0EFFB00284F
:103D300077D1FFF719FF811B20681A29EFD381691A
:103D40003942ECD0606C2021084360646970012026
:103D500073E0628D47681F40069B0B40D1B2090497
:103D6000C9183943374B0B4343600C9F2285608D44
:103D7000002849D00699A44801400120029040063D
:103D80000691081804900EE0608D208521684A682D
:103D90009F4B1A40C0B20004049B18431043486074
:103DA000608D002830D020463946324601F0E8FCCC
:103DB000002833D1606A2168496A0170608D401E15
:103DC0006085606A401C6062208D401E2085618D88
:103DD0000029E5D00004E3D100968021002220468E
:103DE0003B4601F04FFC002818D1608D000ACBD073
:103DF000FF20208520684168854A1140069A1143BA
:103E0000844A11434160CBE720463946324601F0EF
:103E10001DFD0028059807D007B0F0BD029807B037
:103E2000F0BD059807B0F0BD20682021C16142684F
:103E3000794B134043606970039800212970A97081
:103E400007B0F0BD002400020024FF01F0B587B0E8
:103E500005460446403466780220202E00D0B8E0A3
:103E60002678012E00D1B4E004930392069101203C
:103E700005902070FFF778FE0746286881690904DD
:103E800018D4212161701021A17000216964049A65
:103E90006A85039A6A6202916963012105914E065F
:103EA000698D090AE74A049621D0FF232B85012654
:103EB000360620E00598C60302E081693142E0D071
:103EC000192128463A4601F021FB002876D1FFF758
:103ED0004BFEC11B28681A29EFD381693142ECD00F
:103EE000686C202108436864617001207CE06B8D60
:103EF0002B85002B7DD0039A11788162698D491E34
:103F00006985511CCF4A6962591E2985069911405D
:103F1000DBB21B04591831434368CB4E33400B438B
:103F200001214903194341600C9E688D002848D047
:103F30000698104006900499014304910EE0688DA4
:103F4000288529684A68C34B1A40C0B20004049B04
:103F5000184310434860688D002832D02846314607
:103F60003A4601F0B6FC002828D12868696A0A7828
:103F70008262688D401E6885481C6862288D401EDC
:103F80002885698D0029E6D00004E4D100978021BE
:103F900000222846334601F075FB00280ED1688DBB
:103FA000000ACCD0FF20288528684168A94A114022
:103FB000069A1143A84A11434160CCE7059807B01F
:103FC000F0BD284631463A4601F040FC00280598ED
:103FD00001D007B0F0BD28682021C16142689F4B25
:103FE000134043606170029800212170A17007B0F6
:103FF000F0BD069911404368934E33400B4304993A
:104000000B4305998DE7C046FF030000009800FCB4
:10401000009C00FC0000FF0100E800FEF0B589B044
:1040200004460646403675780220202D09D10E9FA1
:10403000002F08D00F9D002D05D007953578012D54
:1040400006D109B0F0BD01204102616409B0F0BDA4
:104050000397059302920691012008903070FFF7B4
:1040600083FD02462068816909042FD410990491C8
:10407000222171704021B170002767640799618522
:10408000039961626763FD49069B0B400599C9B2BC
:1040900009040693C9184368F94D2B40C918012338
:1040A00008935B03C918416020460499154601F046
:1040B00010FC002846D1039707952068059901292F
:1040C00026D10299C9B28162079D31E00898C503E3
:1040D00002E081692942C9D019212046174601F022
:1040E00015FA002811D1FFF73FFDC11B20681A29DE
:1040F0003A46EED381692942EBD0606C2021084317
:104100006064717000203070B070089809B0F0BD24
:104110000299090A816220460499079D2A4601F006
:10412000D8FB0028039F0DD121680298C0B2886295
:104130000095402100222046049B01F0A3FA0028AC
:10414000039F03D03770089809B0F0BD608D000A56
:1041500007D020684168CA4A1140021DFF203C4B2D
:1041600009E0608D22685368C5490B40C1B209045B
:104170001943121D354B069F1943394311602085A1
:1041800001200890400638180590079A049D0FE01A
:10419000608D208521684A68BC4B1A40C0B200047B
:1041A000059B184310434860079A608D002834D05F
:1041B00000920421002720463A462B4601F062FA7D
:1041C0000028A2D1606A2168496A0170608D401E92
:1041D0006085606A401C6062208D401E2085618D74
:1041E0000029079AE1D00004DFD10092802100224B
:1041F00020462B4601F046FA002886D1608D000A41
:10420000C6D0FF20208521684A68A0480240069851
:1042100002439D4802434A60C6E72046294601F012
:1042200015FB0028089800D00BE720682021C16109
:104230004268974B1340436071703770B7703846CF
:1042400009B0F0BDFF030000009800FC002400024C
:104250000024FF01009C00FC0000FF0100E800FEBC
:10426000F0B589B00446074640377D780220202DFE
:1042700009D10E9E002E08D00F9D002D05D0079568
:104280003D78012D06D109B0F0BD012041026164E5
:1042900009B0F0BD039604930292069101200590A7
:1042A0003870FFF761FC06462068816909042DD447
:1042B0000896109D212179704021B970002666640E
:1042C000079961850399616266636C49069A0A40A1
:1042D0000499C9B20904069289184268684B1340D0
:1042E000C918684A89184160204607952946089AE6
:1042F00001F0EFFA002845D10396206804990129BE
:1043000025D10299C9B28162089D30E00598C503A4
:1043100002E081692942CBD019212046324601F0C2
:10432000F5F8002810D1FFF71FFC811B20681A291F
:10433000EFD381692942ECD0606C2021084360648E
:10434000797000203870B870059809B0F0BD0299F6
:10435000090A816220460799089D2A4601F0B9FAA8
:104360000028039E0ED121680298C0B28862009591
:104370008021002520462A46079B01F083F900286A
:10438000039E03D03E70059809B0F0BD039501204F
:104390004606618D090A3C4A3C49059006D02068D2
:1043A0000B4641681940051DFF2008E0608D22681A
:1043B00053680B40C1B209041943151D3246069BD0
:1043C00011431943296020851E430496089A079ECD
:1043D0000FE0608D208521684A682C4B1A40C0B2DE
:1043E0000004049B184310434860608D0028089A1D
:1043F0002FD02046314601F06CFA0028A4D1206865
:10440000616A0A788262608D401E6085481C606225
:10441000208D401E2085618D0029E6D00004E4D166
:1044200008980090802100222046334601F02AF9A6
:10443000002889D1608D000ACBD0FF20208521681B
:104440004A6812480240069802430F4802434A60F5
:10445000CBE72046314601F0F9F90028059800D055
:1044600011E720682021C1614268094B1340436075
:10447000797003983870B87009B0F0BDFF03000080
:10448000009800FC002000010000FF01009C00FCDF
:1044900000E800FE70B58EB000240D940C940B94CF
:1044A0000A94099408940794069405940494039438
:1044B000029400681749884201D00EB070BD0220F6
:1044C000019001A800F0A0F8002801D0FEF758FEE6
:1044D000114D28680126304328602868304000903C
:1044E00006200D900C940B9412200A900320400299
:1044F000099000980520000709A9FFF765FA7005E3
:10450000A9680143A960A9680140009100980EB014
:1045100070BDC04600540040341002401A48007874
:1045200002490A68101808607047C046340A002023
:1045300080B5032000F008F8002801D0012080BDDC
:1045400000F024F8002080BD70B50F4E31780124B2
:10455000002916D005467D20C00003F0E9FF014682
:10456000E248006803F0E4FF00F018FC032D08D8CF
:10457000002806D10024E0432946224600F028F80E
:104580007560204670BDC0460000002082B009481A
:104590004168012211434160416811400191019934
:1045A000110702680A430260006808400090009802
:1045B00002B070473C100240002805D41F2108407B
:1045C00001218140014801607047C04600E100E0E0
:1045D000002805D40322034693430A4A9A1803E0AD
:1045E0000C220240064BD2188007C00E8901C9B2C6
:1045F0008140FF2383401068984308431060704750
:1046000014ED00E000E400E0F0B585B00446007869
:104610004006474E474D01D4002034E001200207F8
:104620003746183F39681140039106D13968114364
:104630003960396811400491049902920321019173
:104640000A02B168114010D0E26991420DD0B16800
:104650000004B2680243B260B2688243B2600846A6
:10466000344A1040B060C8074FD1B068314D28407F
:10467000E1690143B16000200399002903D1396841
:10468000029A914339602168CA070BD18A0711D475
:104690008A0618D4CA061FD44A0724D409062BD484
:1046A00005B0F0BD326803239A43A3681343336017
:1046B0008A07EDD50322120333689343E2681A4355
:1046C00032608A06E6D50322920733689343A269D3
:1046D0001A433260CA06DFD532682A406369134341
:1046E00033604A07DAD50322920333689343226981
:1046F0001A4332600906D3D5543E3168E022914313
:1047000062680A43326005B0F0BDFFF72DFA054636
:10471000B0688007A9D4FFF727FA401B7249884286
:10472000F6D90198034D03990029A8D0ABE7C046FC
:1047300054100240FFFCFFFFF0B583B00D46014668
:104740000120002963D00291019066480068072784
:104750003840854215D963490868B8432843086042
:10476000614CFFF701FA06465E4800683840A842EF
:1047700007D0FFF7F9F9801BA042F5D9032003B059
:10478000F0BD029B186881078E4C10D5410707D5F4
:104790007B21090222688A430B21090251182160FA
:1047A0000F21090222688A43D96811432160C0079A
:1047B0001AD14C480068384085422AD249490868D5
:1047C000B84328430860484CFFF7CEF906464548F1
:1047D00000683840A8421CD0FFF7C6F9801BA042F1
:1047E000F5D9032003B0F0BD2246083A10681C2119
:1047F00088439968014311605968002933D003291F
:1048000001982CD0012933D11268920333D403B01C
:10481000F0BD029A107840076A4C05D5380321682C
:1048200081431069084320602046083801682268E7
:104830009206520F06D0226838200240082A07D17B
:10484000F34838E000688004420FF148D04032E07D
:1048500022680240202A26D10120C0032BE0A26D4D
:104860009207D4D507E0106840050198CFD502E043
:10487000626D9207CBD52068B84308432060FFF7EC
:1048800073F9064620683821014002984068C0004C
:1048900081428ED0FFF768F9801BE0498842F1D948
:1048A000032003B0F0BD22680240182A01D0002086
:1048B00001E07D200002C906490F491C03F038FEC3
:1048C000216889093C220A40274989581F220A4049
:1048D000D040D0490860D0480068FFF735FE03B0EB
:1048E000F0BDC046002002408813000008000020F0
:1048F00010B5344C2246083A116820688006400FF3
:10490000C3480BD0236838221340082B0AD02068F4
:10491000104020281FD10120C00303E01268920438
:10492000520FD040C906490F491C03F001FE21680F
:1049300089093C220A400C4989581F221140C8406D
:10494000B44908602168890A1C230B400749C958EB
:104950001140C84010BD20681040182801D0002028
:10496000E0E77D200002DDE75498000894980008F5
:1049700010B5144A1346083B196810688006400FAA
:10498000A3480BD0146838231C40082C0AD01068A8
:10499000184020280CD10120C00303E01A689204BB
:1049A000520FD040C906490F491C03F0C1FD10BD8C
:1049B00010681840182801D00020F3E77D2000027D
:1049C000F0E7C04608100240F0B581B0044601206F
:1049D000002C00D118E100902078C0078B4E07D042
:1049E000B068382202406168082A3BD1002972D0A1
:1049F0002078800713D42078000709D5B0683822C2
:104A00000240A169182A69D10029009800D1FBE071
:104A100020780025400736D4284601B0F0BDE26872
:104A2000B0688006400F38D0306801218F02002A1C
:104A300074D00722D20290432269024332600802F6
:104A4000316801433160FFF78FF80546306838421E
:104A500000D08BE0FFF788F8401B0228F6D903202E
:104A600001B0F0BD306801235F041A04914207D001
:104A700005252D04A94262D19904084330603068AD
:104A80001043306063E0B06838220240A168202AF9
:104A900037D14842484101B0F0BD002A1BD07F20E9
:104AA000000271688143606900020843706007205A
:104AB000C002316881432069084330603068800457
:104AC000400F5349C1405348016053480068FFF705
:104AD0003BFD00288FD0009801B0F0BD306E00295A
:104AE0004DD0012108433066FFF73EF80546306E91
:104AF00080078DD4FFF738F8411B03200229F6D92F
:104B000082E0F06D012905D0052949D1042108432F
:104B1000F065F06D01210143F1654AE00902884327
:104B20003060FFF721F805463068384200D162E76F
:104B3000FFF71AF8411B03200229F5D964E09043DE
:104B400030609804326882433260002940D0FFF719
:104B50000BF805463068384200D049E7FFF704F803
:104B6000401B6428F6D9032001B0F0BD7F2000026D
:104B70007168814360690002084370603BE701216E
:104B800088433066FEF7F0FF0546306E800700D49C
:104B90003EE7FEF7E9FF411B03200229F5D933E088
:104BA00001229043F065F06D04229043F0650029E6
:104BB0001CD01A4FFEF7D8FF0446F06D800700D5D1
:104BC0002AE7FEF7D1FF011B0320B942F5D91BE00C
:104BD000FEF7CAFF05463068384200D108E7FEF705
:104BE000C3FF411B03206429F5D90DE00B4FFEF7ED
:104BF000BBFF0446F06D800700D40DE7FEF7B4FF5D
:104C0000011B0320B942F5D901B0F0BD00100240EC
:104C1000006CDC0208000020040000208813000063
:104C2000F0B585B000280AD005465C3541218E00DC
:104C3000416A002906D000210161142106E001200B
:104C400005B0F0BD4168B14202D01C2100224250A3
:104C5000002787626978002905D100212970044660
:104C600000F05AF82046022104950191697001680C
:104C70000A6840239A4303910A60C268254B0125C4
:104C80009A422B4600D33B461B03ED0215430F27E8
:104C9000390202918D4201D00025856245688768FE
:104CA00035402124A4023C406419056901990D4056
:104CB00025434169012421402943FC3687693E4050
:104CC0000E43C16938250D403543016A80260E40E8
:104CD0002E436103856A0D403543039E3560390CD0
:104CE00004250D4002990A4013432B43416A1022C8
:104CF0000A401A43416B08230B4013437360E102DF
:104D0000F2698A43F26100210166084604994C70F9
:104D100005B0F0BD0107000010B58EB000240D9461
:104D20000C940B940A94099408940794069405949F
:104D300004940394029400681649884201D00EB08E
:104D400010BD0420019001A8FFF75EFC002801D0EF
:104D5000FEF716FA012001030F4AD3680B43D36014
:104D6000D3680B40009300991168014311601168EA
:104D7000014000910D940C940B9402200A90C220E3
:104D8000099005200007009909A9FEF71DFE0EB045
:104D900010BDC0460030014034100240401E010EDC
:104DA00001D0012070470749074A5060074803684F
:104DB0000B400321890759180160002090600721EA
:104DC00011607047FFFFFF0010E000E020ED00E001
:104DD000704770477047704770470000F0B589B062
:104DE0000368DF69202501210691CE0232462F3269
:104DF0003A40196808900446803405939B68202A3D
:104E00000495079710D108462840012212071A403E
:104E100080181F4616D00898416F002900D158E12C
:104E20000898884709B0F0BD30460F3007421F464A
:104E300008D0CF480840069A1207551C3D40281854
:104E400000D091E00394102608463040424242418F
:104E5000079D284630404442444114430898C06EA0
:104E6000401E421E9041204337D001240126B20546
:104E70003A4050425041EA022246059B00D5024684
:104E8000002A00D1A6E0280606D580200840F205B9
:104E90001740C01900D0BDE140230A461A405042D5
:104EA00050416A06224600D50246002A00D14AE156
:104EB000B2070A40504250412A02224600D502461B
:104EC000002A00D1B1E1002900DAB3E1E80100D500
:104ED000B4E1002C00D0FCE0B4E1089C5C340598FF
:104EE00006628068400600D57BE061882288608881
:104EF000002800D1EDE08A4200D1EAE0EFF3108013
:104F00000790012383F3108809204501089837464C
:104F100006683468AC433460079C84F31088EFF370
:104F20001084079483F310880568AE68C84C344039
:104F3000AC60079C84F31088049C039DEC60002403
:104F40004467C466EFF3108483F3108803681D6818
:104F5000BD431D6084F3108802230367511A89B290
:104F6000FFF736FF09B0F0BD009203940798069B47
:104F700018404242424118020191084044424441D3
:104F80001443059B05D101201862039C226902434A
:104F9000226101203C460290044060426041079932
:104FA0008A07069A00D50246002A06D10220186216
:104FB0000398016904220A43026160426041079933
:104FC0004A07069A5ED4002A039C5FD00798000720
:104FD00065D46EE0300518620898FFF7FCFE09B052
:104FE000F0BD2288039800680068436899B20029E0
:104FF00000D19CE0914200D399E063800068800674
:1050000035D4EFF31082012181F31088924B2033C5
:105010000898056837462E681E402E6082F3108877
:10502000EFF3108281F3108803689D688D439D60C3
:1050300082F31088EFF3108281F3108803689D6873
:105040004026B5439D6082F31088039B049ADA6082
:105050000022C266EFF3108281F3108800680168B5
:10506000B943016082F310881868FEF799F80221AD
:105070000898016721886288891A89B2FFF7A8FE1B
:1050800009B0F0BD0246002A039C9FD1042018629B
:1050900020690222024322610798000709D501987E
:1050A000049A1040054304D0082018622269024384
:1050B00022610298820601990A4050425041079AA3
:1050C000324208D106980028049A09D020690028A5
:1050D0000DD109B0F0BD069006980028049AF5D1CC
:1050E0001E6220691043206120690028F1D00798D2
:1050F00010400DD01140009807400F4308D0089889
:10510000416F002904D0089C204688472368039CEF
:10511000206928220240986840210840801829D13F
:105120000898FFF759FE0020206109B0F0BD8A42BF
:10513000CFD100688006CCD5022208980267FFF71D
:1051400047FE09B0F0BDEFF3108186F31088089890
:10515000026814689C43146081F310880021816701
:105160000399049A8A6000F0CFF909B0F0BDC046F7
:1051700020010004EFF31080029E86F310880922BC
:105180005201089B1C6825689543256080F31088B0
:10519000EFF3108086F310881A6894682C4D254030
:1051A000956080F31088D86E01280CD1EFF310823F
:1051B000029880F310880898006803681024A343BD
:1051C000036082F31088039C0498E0600020089A32
:1051D000D066506710688068400621D5EFF31082D2
:1051E000029880F310880898006883688B43836076
:1051F00082F310882168002912D016488863084677
:10520000FEF706F8002800D163E72068816B884725
:1052100009B0F0BD0898816F002900D000E658E77A
:105220000898FFF7D9FD09B0F0BD0898FFF7D2FD47
:1052300009B0F0BD0026E80100D44AE63446002C4F
:1052400000D046E70898FFF7C4FD09B0F0BDC0469E
:10525000FEFFFFEF3D5B0008DFFEFFFFB0B500285B
:105260001ED00446054684356868002804D1002015
:105270002870204600F02AF8242068602068016821
:105280000125A9430160A06A002802D0204600F051
:1052900083FB204600F05AFC002803D02846B0BD0E
:1052A0000120B0BD0920C00221684A6882434A60DB
:1052B00088682A22904388600868012202430A60B5
:1052C000204600F0D3FB05462846B0BD70B586B039
:1052D00004460026059604960396029601960068F9
:1052E0002149884201D006B070BD20488268012162
:1052F00005914B041A43826082681A400092009A1A
:1053000002680A4302600068084000900496039611
:10531000022002900C20019000980520000701A9AE
:10532000FEF752FB124D802010213522114B2B60CD
:105330006A60A960EE6028616E61AE61EE612E6206
:105340002846FEF715F8002801D0FDF719FFAC62DA
:10535000E5671C24002120460A46FFF739F920465C
:10536000FFF72AF906B070BD004400403410024037
:10537000CC03002008000240F0B585B00746882025
:105380003858202810D1012000290BD0002A09D03C
:1053900001200403BD68A54209D1CD0707D03D69AE
:1053A000002D04D105B0F0BD022005B0F0BD019381
:1053B00002913D465435394688310020039088607B
:1053C0002120009108601646FEF7CEFB04906E8007
:1053D0002E80B868A04202D1386900285ED0029CB5
:1053E000019E039A3968688800285ED0701C454B7E
:1053F0002ED0002E49D00392C869000608D4FEF7CB
:10540000B3FB0499401AB04267D839680868F3E7DB
:10541000002C03D020788862641C07E0039A10886F
:10542000384B18408862921C039200246888401E02
:10543000688068880028DFD137E0108818408862CB
:10544000921C00246888401E6880688800282CD040
:10545000C869000608D4C869000605D4C8690006F2
:1054600002D4C8690006F3D5002CE6D02078886203
:10547000641CE7E7108818408862921C0024688842
:10548000401E6880688800280FD0C869000622D5B1
:10549000002CEFD020788862641CF0E70024029A88
:1054A000019E396868880028A0D1CA690020520688
:1054B00014D4002E0FD0721C15D1009BCA6952065D
:1054C0000DD4CA6952060AD4CA69520607D4CA69F9
:1054D0005206F3D503E0FEF747FB0320009B202193
:1054E000196005B0F0BD0446FEF73EFB0499401A72
:1054F000B042F2D838680168C0694006F4D5204649
:10550000ECE7C046FF0100007047FEE7F0B585B04C
:105510000E4604464030049020688169C90606D4CE
:1055200000210F4601258269D30543D446E01021AE
:10553000C1618169890635D4711C30D015460120BE
:10554000002E6AD186030390C703FEF70DFB206887
:1055500042680499897883693B4209D0324007D177
:10556000202905D0416831434160FEF7FDFA054628
:1055700020688169890605D4FEF7F6FA401B1A28CF
:10558000F6D375E081698906DFD50BE0816989066C
:1055900008D48169890605D48169890602D48169A4
:1055A0008906F3D52021C1610127042101258269E3
:1055B000D30503D52B02C36129432F466B02560541
:1055C00006D41A420AD1002F0BD1002005B0F0BD3D
:1055D000AD02C561082529431A4202D0C3610222E7
:1055E00011438269920701D5002282628269D20743
:1055F00003D182690123134383614268924B1340B4
:105600004360606C08436064202004994870002067
:1056100008708870012005B0F0BD810302910390ED
:10562000C0030190019F02E081698906BAD4FEF7A8
:105630009BFA411B2068B142F6D9426804998978E7
:1056400083693B420BD0029B1A4008D1202906D027
:105650004168029A11434160FEF786FA05462068C8
:1056600081698906E0D4FEF77FFA401B1A28F6D339
:10567000206881692421039F01258269D30599D47B
:105680009CE7C046F0B585B00D46044600688069C9
:105690000840401A41424141002604928A4223D1E7
:1056A0001F460A9A581C03922BD0002F029433D124
:1056B000002620463146FFF729FF002828D1FEF7B3
:1056C00053FA206881692940491B4A424A4104999A
:1056D0009142039A44D080692840401B4142414195
:1056E00004988842029CE3D0304605B0F0BD2068A3
:1056F00080692840401B4142414104988842039AF6
:10570000F2D10026F1432046FFF700FF0028EED03B
:105710000126304605B0F0BD019507E080692840BC
:10572000401B4142414104988842DDD13446029EEB
:10573000304639461546FFF7E9FE0028E8D1FEF766
:1057400013FA411B3068B9422A462646019DE5D925
:1057500081692940491B4B424B4104999942DDD153
:10576000029B18464030596C202211435964427004
:105770000021017081700126304605B0F0BD0000A7
:10578000F0B583B004460068806940074BD40D46ED
:10579000204640300190029220462946FFF7B6FE8F
:1057A000411E07468F4121688A6992061BD5002851
:1057B00019D188698A69D20605D40021616440073D
:1057C00011D50F460FE01020C8610420606420202E
:1057D000C8614A681C4B1A404A6001994870002011
:1057E000087088700127681E2E468641FEF7BCF9B6
:1057F000029A801AA84204D9002120680E4204D0DF
:1058000009E0012120680E4205D1002F03D18169F2
:1058100049070CD500278069400701D4002FBBD071
:10582000384603B0F0BD0027384603B0F0BD616CC8
:10583000202211436164019B5A7000211970806914
:105840000127384603B0F0BD00E800FEF0B581B096
:105850000546006880690024800622D416460F465B
:10586000002903D129E0806980061AD428463946E8
:105870003246FFF74BFE002827D1FEF775F9811B52
:105880002868B942EFD981698906ECD428464030AE
:10589000696C20221143696442700021017081709B
:1058A0000124204601B0F0BDFEF75EF92868816949
:1058B0008906EBD580698006F3D40024284621466A
:1058C0003246FFF723FE0028EED00124204601B027
:1058D000F0BDF0B581B005460068806900248007FE
:1058E00016D416460F46481C19D0002F26D1002486
:1058F000284621463246FFF709FE002838D1FEF738
:1059000033F928688169890728D580698007EED531
:10591000204601B0F0BD286880698007F8D40024D3
:10592000E14328463246FFF7F1FD0028F3D0012479
:10593000204601B0F0BD80698007E9D42846394689
:105940003246FFF7E3FD002812D1FEF70DF9811B67
:105950002868B942EFD981698907ECD428464030DC
:10596000696C2022114369644270002101708170CA
:105970000124204601B0F0BDFEE77047704780B5B6
:10598000FEF7CCFD80BD00000120C0060149086083
:105990007047C04608ED00E0B0B5816A0A070CD434
:1059A000CA0714D18A071CD44A0724D4CA062CD4A7
:1059B0008A0634D44A063CD44CE00122D203036860
:1059C0005C689443826B22435A60CA07EAD0012282
:1059D000520403685C689443C26A22435A608A078F
:1059E000E2D50122120403685C689443026B2243EF
:1059F0005A604A07DAD50122920403685C6894432E
:105A0000426B22435A60CA06D2D5012212030368B0
:105A10009C689443C26B22439A608A06CAD50122CD
:105A2000520303689C689443026C22439A604A06BE
:105A300010D501221305026854689C43456C2C4321
:105A400054609D4206D103235B0554689C43836CDC
:105A500023435360090607D50121C904026853682E
:105A60008B43C06C18435060B0BD0000F0B583B0EC
:105A70000446064684360025F560FEF775F80346B1
:105A800020680168090721D502952B48009001255F
:105A90006905002220461F4600F028F9002812D090
:105AA000EFF3108085F3108821680A6880239A43F9
:105AB0000A6080F31088032020228821029D625012
:105AC000357003B0F0BD20683B46029D006840077A
:105AD00026D5194800900127B9050022204600F07C
