:020000040800F2
:1000000080080020810100083D1C00083B1C0008FE
:1000100000000000000000000000000000000000E0
:10002000000000000000000000000000411C00086B
:1000300000000000000000003F1C0008431C0008F6
:1000400093010008000000009301000893010008DC
:100050009301000893010008930100089301000830
:100060000000000025020008930100089301000829
:100070009301000893010008930100089301000810
:100080009301000800000000000000009301000838
:1000900093010008930100089301000893010008F0
:1000A00093010008930100089301000893010008E0
:1000B0007521000893010008390200084502000874
:1000C00000F002F800F04CF812A030C808382418EC
:1000D0002D18AC4201D100F043F80FCCA246AB463C
:1000E0000CA730CF2D1B083F3F197C427F1E544484
:1000F0002D090426F441641EAC4201D300F030F80F
:100100000126334200D0FB1A3343984754465D46DC
:10011000DFE700000425000024250000103A02D388
:1001200078C878C1FAD8520701D330C830C101D598
:1001300004680C6070470000704700000023002432
:1001400000250026103A01D378C1FBD8520700D30E
:1001500030C100D50B6070471FB51FBD10B510BD75
:1001600000F039F81146FFF7F7FF02F009F800F048
:1001700051F803B4FFF7F2FF03BC00F021F80000D0
:100180000748804707480047FEE7FEE7FEE7FEE72F
:10019000FEE7FEE704480549054A064B70470000A4
:1001A0004D1C0008C10000088002002080080020CB
:1001B00080040020800400207047704770470000D2
:1001C00001491820ABBEFEE7260002000048704738
:1001D0001000002070477546FFF7F8FFAE46050097
:1001E00069465346C008C000854618B020B5FFF7E1
:1001F000D1FF60BCB64600260027C0C5C0C5C0C53B
:10020000C0C5C0C5C0C5C0C5C0C5403D490849003E
:100210008D46704710B50446C046C0462046FFF7DD
:10022000A8FF10BD80B5024800F088F880BDC04628
:100230007000002072B6FEE780B5054800F075F941
:1002400080BDC04680B5024800F06FF980BDC04651
:10025000CC00002070B500282CD0014624314A780B
:10026000022A29D1046822680E239A432260426C34
:100270001568314B1D4015602568012295432560A6
:10028000046C1C2525401446AC40654D2E68264361
:100290002E60846CC56C6560046D002C05D02568EB
:1002A0001D402560436D806D58604A70002000221B
:1002B0000A7070BD012070BD0422C26301200022BB
:1002C0000A7070BD70B524210124445401462431C4
:1002D0004A78022A2BD103681A680E24A2431A60B6
:1002E0001C68012294431C60446C2568124B1D401D
:1002F0002560046C1C2525401446AC40484D2E68F2
:1003000026432E60846CC56C6560046D002C05D09E
:1003100025681D402560436D846D5C6000240C7071
:100320004A70816B002900D08847204670BD0421A7
:10033000C163204670BDC046FFFEFFFFF0B585B02B
:10034000016C1C240C4004231946A140344A121F9E
:1003500015680A4603952A4056425641049005689E
:100360002A6817461F4078427841304332D00295C0
:10037000012102261046304047424741A640039BD8
:100380001E420D46019400D03946049F3C46243459
:10039000002931D008200240564256410198C340FE
:1003A000180700D53546002D24D1029A10680E2179
:1003B0008843106001200146019A9140184B1A6849
:1003C0000A431A60F863002121706070796B00297C
:1003D0000ED10FE02868800602D428689843286070
:1003E0000F4A106808431060049F396B002901D040
:1003F0003846884705B0F0BD029A1068800605D4DB
:1004000010680A218843106001206070002020706D
:100410000349086830430860F96A0029E8D1E9E730
:1004200004000240F0B587B000284AD004460146D7
:100430002431022006914870276838683449014009
:100440003960344E30468030A06433483818142563
:10045000294601F0A9FF800081192064059161649B
:10046000FC2038400838294601F09EFF1C2202403B
:1004700001210B469340E364A0680490E56826469A
:10048000103645CE0196E6690296266A0396284301
:100490001043019A10430E460299084303990843FA
:1004A00039680143049A11433960B1031B488A42F9
:1004B0000AD1002205990A6062600360154613465E
:1004C0001BE0012007B0F0BD6168CFB2059A17604C
:1004D0000360491E00220329154613460DD8791ED4
:1004E0008A0082180023D36703250D403346AB40B2
:1004F0000B490B607C32BC3005460020E06322656E
:100500006565A365069908704E7007B0F0BDC046DA
:100510000F80FFFF00080240F8FFFDBF8408024083
:1005200044090240704770477047F0B58DB00446EB
:100530000068056D416D0B91076D416D0191016D75
:100540000891416D0291016D0691416D0491016D1B
:100550000591416D0391426D402107920A4053423B
:100560005341026D0C920A40564256411E430722E7
:100570000992002E03D101652046FFF7D5FF0B98A5
:100580000540099880020090012101200A90000294
:10059000079E32460240534253410C9AD2050B91BA
:1005A0000A4600D51A4601990F4000990D40002ACD
:1005B0000AD12268D82153581146D831896810656C
:1005C0001940204600F054FA089802990840089013
:1005D000382109980740002D08D02068056520467D
:1005E0000E46294600F046FA3146079E089D0D400A
:1005F000002F05D0206807652046394600F034FA00
:10060000002D05D0206805652046294600F02DFA0A
:100610000A98400232460240514251410C9A9205DA
:100620000B9A059F00D50A46002A04D12168086567
:10063000204600F020FA80253146294048424841B2
:100640000C9909060B9900D5014600290AD12068AA
:10065000D42142580146D4318968056511402046AD
:1006600000F007FA0A9840033246024051425141D5
:100670000C9A92040B9A00D50A46002A04D12168EC
:100680000865204600F0F3F90A98C003324602409C
:10069000514251410C9A12040B9A00D50A46002A85
:1006A00004D121680865204600F0E0F9F1210398A3
:1006B0000740099842040A98800306407342734138
:1006C0000C9E760400D50B93069E049B1E400904E5
:1006D00017400B9A002A04D122681065206E284327
:1006E00020660E40002F05D0206807652046394659
:1006F000FFF719FF002E04D020680665206E3043F6
:100700002066206E002802D02046FFF70BFF0DB0B8
:10071000F0BD0000F0B585B000281CD004460646A8
:100720005C363078002804D100207070204600F03C
:1007300047F9206881691027B943816100F06CFA9C
:10074000054620688169090708D500F065FA401B55
:100750000B28F6D313E0012005B0F0BD816901221A
:1007600004921143816100F057FA054620688169BF
:10077000C9070CD100F050FA401B0B28F6D3216EAC
:100780000120014321660321317005B0F0BD81696C
:1007900002220A4382616168854A1160217C491EF8
:1007A0004A1E91418901826940239A43511881610F
:1007B000617C491E4A424A419103049DAA03836910
:1007C000934359188161A17C491E4A1E9141090336
:1007D0002A03836993435918816103210A028169BD
:1007E00002929143A2680192114381618169A4231D
:1007F000994381610169B9430161E368002B12D01B
:10080000012B0CD0022B08D0816980250D43856116
:10081000016939430161032B05D1202100E0042146
:1008200083690B4383610396034680330546C035D5
:100830007F21490662690092A769E269266A7F06FC
:100840007918FF27FF431202D2190A43761E164376
:1008500000990A04574952183243C2610299019A19
:100860008A4213D1626AA16A0191E16A266B0296FB
:100870001204504E92190902C919019E761E0E43A8
:1008800002990901103931431143C160E06B2968B5
:10089000014329601F20000419688143606B000434
:1008A00008431860444A4549104670300D46F035FB
:1008B0000E46D8361746B03722646064A764E164F8
:1008C000266565650F2000061D688543A06B000640
:1008D0002843186013460020106650669066D06664
:1008E000106750679067D067106450649064D0645C
:1008F000106550659065D065106250629062D0625C
:10090000106350639063D063106050609060D0605B
:10091000106150619061D06115465435E867154605
:100920005035E86715464C35E86715464835E867A1
:1009300015464435E86715464035E86715463C35A9
:10094000E86715463835E86715463435E8671546D3
:100950003035E86715462C35E86715462835E867D1
:1009600015462435E86715462035E86715461C35D9
:10097000E86715461835E86715461435E8671546E3
:100980001035E86715460C35E86715460835E86701
:10099000151DE867D4330D46F435AA421A469AD39A
:1009A0002066A065039E0499317005B0F0BDC04675
:1009B000006500400000FFFF00B4004088B5004023
:1009C00070B58EB000240D940C940B940A94099485
:1009D0000894079406940594049403940294006880
:1009E0001F49884201D00EB070BD1020019001A8AF
:1009F00000F06CFA002801D0FFF71CFC0125280349
:100A0000F6498A6802438A608A6802400092009828
:100A1000086808221043086008681040009004200D
:100A20000D900C940B9402200A90032009900098DA
:100A30000C4809A900F020F81E2630462946224617
:100A400000F028FA304600F019FA1F252846214602
:100A5000224600F01FFA284600F010FA0EB070BDD2
:100A600000640040000C00507047704770477047AA
:100A70007047704770477047F0B58AB0069009918B
:100A80000B68002B00D1B4E05B480699814201D08D
:100A9000062000E005200B221207069989180A2279
:100AA000D1410091042900D3009006982030019094
:100AB00000252E46079529460FE01A4362600899E3
:100AC000491C099803681846C8400835B61C079A9F
:100AD000121D0792002800D18BE0012420460891C6
:100AE000884003400393EAD0049509994A6810218D
:100AF0001143122915D11C21079A114005960F2682
:100B000032468A40089BDB089F00019BDD599543D4
:100B1000099A12693240059E8A402A43DA5109999E
:100B20004A68032311461940B1400293B340374647
:100B3000069E35689D430D4335603E46D943059179
:100B4000122A049D15D894402E490C420FD0069CC1
:100B5000A168059B1940099BDB68B3400B43A36068
:100B60001109089B9940636883430B436360032A20
:100B7000A5D0069BD8680599084009998968B140B5
:100B80000143D960D0009AD5182028400F21814018
:100B9000089A029B9A43194CA218136E8B43009932
:100BA0008140194311661648026809984068C103DC
:100BB00002D5039B1A4301E0039B9A4310490A6044
:100BC0004A68810301D51A4300E09A430C494A6000
:100BD0002268C10205D51A4322606268800206D5E8
:100BE0006BE79A4322606268800200D565E79A430A
:100BF00064E70AB0F0BDC04600140050001802407F
:100C00008018024006000600002A02D018228150F7
:100C10007047282281507047754800687047C04669
:100C2000B0B50246034640335C780220202C17D131
:100C30001C78012C14D024205870106802680124FC
:100C4000A2430260220305689543056002680A43D7
:100C50000260016821430160002018702021597052
:100C6000B0BDB0B50246034640335C780220202C6C
:100C700017D11C78012C14D02420587010680268F9
:100C80000124A24302600F22120205689543090263
:100C90002943016001682143016000201870202170
:100CA0005970B0BDF0B581B0002822D0054640355E
:100CB0006978002905D100212970044600F04CF81C
:100CC00020462421697001680B68012293430B6060
:100CD0000F231B0644689C430C618C681C4B1C4012
:100CE0008C608468C668012E06D1D60334438C60BC
:100CF0000CE0012001B0F0BD2127BF023C438C6015
:100D0000022E03D1D4024E68264302E0D4024E687C
:100D1000A6434E604C680F4E26434E60CC681C4084
:100D2000CC60036944691C4383691B022343CB6085
:100D3000C369046A1C430C600B6813430B600021F9
:100D4000416420226A7001630846A97001B0F0BDB9
:100D5000FF7FFFFF0080000270B58EB000240D946D
:100D60000C940B940A94099408940794069405949F
:100D700004940394029400681749884201D00EB08D
:100D800070BD0220019001A800F0A0F8002801D059
:100D9000FFF750FA114D2868012630432860286873
:100DA0003040009006200D900C940B9412200A9075
:100DB00003204002099000980520000709A9FFF7C9
:100DC0005BFE7005A9680143A960A9680140009114
:100DD00000980EB070BDC046005400403410024070
:100DE0001A48007802490A68101808607047C0461F
:100DF0007C02002080B5032000F008F8002801D014
:100E0000012080BD00F024F8002080BD70B50F4E99
:100E100031780124002916D005467D20C00001F05C
:100E2000C3FA0146E248006801F0BEFA00F018FC7F
:100E3000032D08D8002806D10024E0432946224685
:100E400000F028F87560204670BDC0460000002004
:100E500082B0094841680122114341604168114054
:100E600001910199110702680A4302600068084075
:100E70000090009802B070473C100240002805D452
:100E80001F21084001218140014801607047C04690
:100E900000E100E0002805D40322034693430A4AF8
:100EA0009A1803E00C220240064BD2188007C00EAD
:100EB0008901C9B28140FF238340106898430843E9
:100EC0001060704714ED00E000E400E0F0B585B07C
:100ED000044600784006474E474D01D4002034E0D8
:100EE000012002073746183F39681140039106D1A7
:100EF00039681143396039681140049104990292AC
:100F0000032101910A02B168114010D0E2699142B7
:100F10000DD0B1680004B2680243B260B268824387
:100F2000B2600846344A1040B060C8074FD1B0687C
:100F3000314D2840E1690143B16000200399002947
:100F400003D13968029A914339602168CA070BD1ED
:100F50008A0711D48A0618D4CA061FD44A0724D493
:100F600009062BD405B0F0BD326803239A43A36869
:100F7000134333608A07EDD503221203336893438A
:100F8000E2681A4332608A06E6D503229207336884
:100F90009343A2691A433260CA06DFD532682A40F9
:100FA0006369134333604A07DAD503229203336837
:100FB000934322691A4332600906D3D5543E3168FF
:100FC000E022914362680A43326005B0F0BDFFF74A
:100FD00023FE0546B0688007A9D4FFF71DFE401B1D
:100FE00072498842F6D90198034D03990029A8D087
:100FF000ABE7C04654100240FFFCFFFFF0B583B0E2
:101000000D4601460120002963D0029101906648F7
:10101000006807273840854215D963490868B843F6
:1010200028430860614CFFF7F7FD06465E480068FC
:101030003840A84207D0FFF7EFFD801BA042F5D94A
:10104000032003B0F0BD029B186881078E4C10D5B9
:10105000410707D57B21090222688A430B21090237
:10106000511821600F21090222688A43D96811436F
:101070002160C0071AD14C480068384085422AD206
:1010800049490868B84328430860484CFFF7C4FD45
:101090000646454800683840A8421CD0FFF7BCFD12
:1010A000801BA042F5D9032003B0F0BD2246083AC8
:1010B00010681C2188439968014311605968002910
:1010C00033D0032901982CD0012933D1126892031F
:1010D00033D403B0F0BD029A107840076A4C05D5AE
:1010E000380321688143106908432060204608388E
:1010F000016822689206520F06D02268382002400A
:10110000082A07D1F34838E000688004420FF1480C
:10111000D04032E022680240202A26D10120C003BC
:101120002BE0A26D9207D4D507E010684005019826
:10113000CFD502E0626D9207CBD52068B843084353
:101140002060FFF769FD06462068382101400298BB
:101150004068C00081428ED0FFF75EFD801BE049F1
:101160008842F1D9032003B0F0BD22680240182A5A
:1011700001D0002001E07D200002C906490F491C72
:1011800001F012F9216889093C220A40274989584F
:101190001F220A40D040D0490860D0480068FFF7BD
:1011A00035FE03B0F0BDC0460020024088130000A9
:1011B0000800002010B5344C2246083A1168206817
:1011C0008006400FC3480BD0236838221340082BF9
:1011D0000AD02068104020281FD10120C00303E05E
:1011E00012689204520FD040C906490F491C01F001
:1011F000DBF8216889093C220A400C4989581F22E2
:101200001140C840B44908602168890A1C230B407A
:101210000749C9581140C84010BD2068104018281F
:1012200001D00020E0E77D200002DDE7A0250008D6
:10123000E025000810B5144A1346083B19681068E9
:101240008006400FA3480BD0146838231C40082C9C
:101250000AD01068184020280CD10120C00303E0F8
:101260001A689204520FD040C906490F491C01F078
:101270009BF810BD10681840182801D00020F3E733
:101280007D200002F0E7C04608100240F0B581B0B2
:1012900004460120002C00D118E100902078C007FE
:1012A0008B4E07D0B068382202406168082A3BD1D3
:1012B000002972D02078800713D42078000709D540
:1012C000B06838220240A169182A69D10029009823
:1012D00000D1FBE020780025400736D4284601B035
:1012E000F0BDE268B0688006400F38D03068012158
:1012F0008F02002A74D00722D2029043226902434F
:1013000032600802316801433160FFF785FC054611
:101310003068384200D08BE0FFF77EFC401B02288B
:10132000F6D9032001B0F0BD306801235F041A0430
:10133000914207D005252D04A94262D199040843A2
:10134000306030681043306063E0B068382202409B
:10135000A168202A37D14842484101B0F0BD002A97
:101360001BD07F200002716881436069000208433E
:1013700070600720C00231688143206908433060F3
:1013800030688004400F5349C140534801605348BE
:101390000068FFF73BFD00288FD0009801B0F0BD3A
:1013A000306E00294DD0012108433066FFF734FC30
:1013B0000546306E80078DD4FFF72EFC411B0320BD
:1013C0000229F6D982E0F06D012905D0052949D11D
:1013D00004210843F065F06D01210143F1654AE005
:1013E000090288433060FFF717FC05463068384231
:1013F00000D162E7FFF710FC411B03200229F5D959
:1014000064E090433060980432688243326000297F
:1014100040D0FFF701FC05463068384200D049E76C
:10142000FFF7FAFB401B6428F6D9032001B0F0BD9A
:101430007F20000271688143606900020843706088
:101440003BE7012188433066FFF7E6FB0546306E37
:10145000800700D43EE7FFF7DFFB411B0320022992
:10146000F5D933E001229043F065F06D04229043FA
:10147000F06500291CD01A4FFFF7CEFB0446F06D33
:10148000800700D52AE7FFF7C7FB011B0320B942FD
:10149000F5D91BE0FFF7C0FB05463068384200D1A4
:1014A00008E7FFF7B9FB411B03206429F5D90DE0DC
:1014B0000B4FFFF7B1FB0446F06D800700D40DE73A
:1014C000FFF7AAFB011B0320B942F5D901B0F0BD1B
:1014D00000100240006CDC02080000200400002024
:1014E00088130000F0B585B000280AD005465C35A9
:1014F00041218E00416A002906D00021016114219A
:1015000006E0012005B0F0BD4168B14202D01C21C7
:1015100000224250002787626978002905D1002106
:101520002970044600F05AF82046022104950191E2
:10153000697001680A6840239A4303910A60C2688F
:10154000254B01259A422B4600D33B461B03ED0257
:1015500015430F27390202918D4201D00025856283
:101560004568876835402124A4023C406419056918
:1015700001990D4025434169012421402943FC364E
:1015800087693E400E43C16938250D403543016AE5
:1015900080260E402E436103856A0D403543039E2D
:1015A0003560390C04250D4002990A4013432B4342
:1015B000416A10220A401A43416B08230B4013432F
:1015C0007360E102F2698A43F26100210166084614
:1015D00004994C7005B0F0BD0107000010B58EB045
:1015E00000240D940C940B940A9409940894079485
:1015F0000694059404940394029400681649884262
:1016000001D00EB010BD0420019001A8FFF75EFCD0
:10161000002801D0FEF70EFE012001030F4AD36817
:101620000B43D360D3680B400093009911680143CA
:1016300011601168014000910D940C940B940220EC
:101640000A90C220099005200007009909A9FFF718
:1016500013FA0EB010BDC0460030014034100240F5
:10166000401E010E01D0012070470749074A506013
:10167000074803680B4003218907591801600020BF
:101680009060072111607047FFFFFF0010E000E04D
:1016900020ED00E0704770477047704770470000CA
:1016A000F0B589B00368DF69202501210691CE02DB
:1016B00032462F323A401968089004468034059328
:1016C0009B68202A0495079710D1084628400122DC
:1016D00012071A4080181F4616D00898416F00293B
:1016E00000D158E10898884709B0F0BD30460F3066
:1016F00007421F4608D0CF480840069A1207551CDB
:101700003D40281800D091E0039410260846304050
:1017100042424241079D28463040444244411443DE
:101720000898C06E401E421E9041204337D00124CD
:101730000126B2053A4050425041EA022246059B3A
:1017400000D50246002A00D1A6E0280606D5802052
:101750000840F2051740C01900D0BDE140230A46F9
:101760001A40504250416A06224600D50246002ADD
:1017700000D14AE1B2070A40504250412A022246B3
:1017800000D50246002A00D1B1E1002900DAB3E118
:10179000E80100D5B4E1002C00D0FCE0B4E1089CE5
:1017A0005C34059806628068400600D57BE061885D
:1017B00022886088002800D1EDE08A4200D1EAE06A
:1017C000EFF310800790012383F31088092045016F
:1017D0000898374606683468AC433460079C84F345
:1017E0001088EFF31084079483F310880568AE68BF
:1017F000C84C3440AC60079C84F31088049C039D63
:10180000EC6000244467C466EFF3108483F310880F
:1018100003681D68BD431D6084F3108802230367BD
:10182000511A89B2FFF736FF09B0F0BD0092039458
:101830000798069B18404242424118020191084015
:10184000444244411443059B05D101201862039C86
:1018500022690243226101203C460290044060421A
:10186000604107998A07069A00D50246002A06D1E8
:10187000022018620398016904220A43026160424F
:10188000604107994A07069A5ED4002A039C5FD0FC
:101890000798000765D46EE0300518620898FFF7D6
:1018A000FCFE09B0F0BD2288039800680068436818
:1018B00099B2002900D19CE0914200D399E0638065
:1018C0000068800635D4EFF31082012181F310887F
:1018D000924B20330898056837462E681E402E60CC
:1018E00082F31088EFF3108281F3108803689D68FB
:1018F0008D439D6082F31088EFF3108281F310888E
:1019000003689D684026B5439D6082F31088039B61
:10191000049ADA600022C266EFF3108281F3108825
:1019200000680168B943016082F310881868FEF707
:1019300091FC02210898016721886288891A89B27E
:10194000FFF7A8FE09B0F0BD0246002A039C9FD114
:1019500004201862206902220243226107980007CE
:1019600009D50198049A1040054304D00820186254
:101970002269024322610298820601990A4050427C
:101980005041079A324208D106980028049A09D09B
:10199000206900280DD109B0F0BD069006980028F6
:1019A000049AF5D11E622069104320612069002845
:1019B000F1D0079810400DD01140009807400F4318
:1019C00008D00898416F002904D0089C2046884719
:1019D0002368039C2069282202409868402108401F
:1019E000801829D10898FFF759FE0020206109B01E
:1019F000F0BD8A42CFD100688006CCD5022208987B
:101A00000267FFF747FE09B0F0BDEFF3108186F3E0
:101A100010880898026814689C43146081F3108849
:101A2000002181670399049A8A6000F005F909B0E2
:101A3000F0BDC04620010004EFF31080029E86F343
:101A4000108809225201089B1C682568954325606F
:101A500080F31088EFF3108086F310881A6894687A
:101A60002C4D2540956080F31088D86E01280CD14C
:101A7000EFF31082029880F31088089800680368DA
:101A80001024A343036082F31088039C0498E06051
:101A90000020089AD066506710688068400621D5FB
:101AA000EFF31082029880F310880898006883682A
:101AB0008B43836082F310882168002912D0164876
:101AC00088630846FEF7FEFB002800D163E7206824
:101AD000816B884709B0F0BD0898816F002900D05C
:101AE00000E658E70898FFF7D9FD09B0F0BD08985F
:101AF000FFF7D2FD09B0F0BD0026E80100D44AE6A8
:101B00003446002C00D046E70898FFF7C4FD09B022
:101B1000F0BDC046FEFFFFEF011E0008DFFEFFFF25
:101B2000B0B500281ED004460546843568680028F4
:101B300004D100202870204600F02AF82420686094
:101B4000206801680125A9430160A06A002802D02D
:101B5000204600F083F8204600F05AF9002803D010
:101B60002846B0BD0120B0BD0920C00221684A68E6
:101B700082434A6088682A2290438860086801226C
:101B800002430A60204600F0D3F805462846B0BD5F
:101B900070B586B004460026059604960396029614
:101BA00001960068F749884201D006B070BD1F4811
:101BB0008268012105914B041A43826082681A40B1
:101BC0000092009A02680A43026000680840009090
:101BD00004960396022002900C20019000980520A4
:101BE000000701A9FEF748FF114D80201021352282
:101BF000104B2B606A60A960EE6028616E61AE6177
:101C0000EE612E622846FEF70DFC002801D0FEF79B
:101C100011FBAC62E5671C24002120460A46FFF751
:101C200039F92046FFF72AF906B070BD341002409A
:101C300070000020080002407047FEE7FEE7704792
:101C4000704780B5FFF7CCF880BD00000120C006CA
:101C5000014908607047C04608ED00E0B0B5816AF0
:101C60000A070CD4CA0714D18A071CD44A0724D403
:101C7000CA062CD48A0634D44A063CD44CE001224D
:101C8000D20303685C689443826B22435A60CA079C
:101C9000EAD00122520403685C689443C26A22437A
:101CA0005A608A07E2D50122120403685C689443F3
:101CB000026B22435A604A07DAD501229204036874
:101CC0005C689443426B22435A60CA06D2D5012213
:101CD000120303689C689443C26B22439A608A068D
:101CE000CAD50122520303689C689443026C2243C4
:101CF0009A604A0610D501221305026854689C4375
:101D0000456C2C4354609D4206D103235B05546807
:101D10009C43836C23435360090607D50121C90402
:101D2000026853688B43C06C18435060B0BD00001C
:101D3000F0B583B00446064684360025F560FEF70C
:101D40006BFF034620680168090721D502952B48DF
:101D5000009001256905002220461F4600F028F961
:101D6000002812D0EFF3108085F3108821680A68EC
:101D700080239A430A6080F3108803202022882160
:101D8000029D6250357003B0F0BD20683B46029D55
:101D90000068400726D5194800900127B9050022A0
:101DA000204600F005F900281CD0EFF3108087F3DF
:101DB000108809214901226813688B43136080F35E
:101DC0001088EFF3108087F3108821688A68BA437F
:101DD0008A6080F31088032020228C2162503570A5
:101DE00003B0F0BD20207060B060E56670212A4627
:101DF00028466250357003B0F0BDC046FFFFFF01BA
:101E000080B5806A5E2100224252FFF747FC80BD08
:101E1000F0B581B0044600680168554A0A40A168DF
:101E200023690B4365691D431543E1690D43056053
:101E30000322120343689343E2681A434260A26993
:101E4000236A134382684B4D15401D438560C26A67
:101E50000F239A43676A3A43C2620022464B984274
:101E600006DC484B984211D0474B98420ED00CE00C
:101E7000424B98420AD0424A904206D14348406DB4
:101E80008007000F42A2125800E010222646683652
:101E90000125E80381420FD1082A60D87A441279DB
:101EA00052009744045C195C2B5C5C5C3000FFF7CB
:101EB00081F9002826D151E0082A50D87A441279B5
:101EC00052009744044C124C354C4C4C3A00FFF7EE
:101ED00071F9002830D141E02C4800680006400F1D
:101EE000411C2F4800F060FA0DE028480068000609
:101EF000400F411C2A4800F057FA1EE0FFF79AF9FC
:101F000000282BD0676A7900264A515A00F04CFA13
:101F1000400061684A08101800F046FA0246103A7C
:101F200021498A421BD201400007400F084313E0B9
:101F3000FFF780F9002811D0676A7900194A515AD1
:101F400000F032FA61684A08101800F02DFA0146D4
:101F50001039154A914202D22168C8600025134801
:101F6000306000206067A067284601B0F0BDC04621
:101F7000F369FFCFFFF4FF11FF4B0040004C00401E
:101F8000003801400044004000480040001002407A
:101F90000000000004000000020000000800000033
:101FA000006CDC0200260008F0FF000001000100C8
:101FB000F0B585B01F4615460E460368D969314015
:101FC000891B4A424A410021954222D10A9C002C99
:101FD00022D00391611C24D1D9693140891B4A4226
:101FE0004A41954231D1D9693140891B4A424A411F
:101FF00095422AD1D9693140891B4A424A419542CA
:1020000023D1D9693140891B4A424A419542E3D0E4
:102010001BE0084605B0F0BDFEF7FEFD032005B04D
:10202000F0BD402E049001D0802E14D1FEF7F4FDB7
:10203000C01BA0420CD8049800680168C0693040F9
:10204000801B414241418D42F0D0039805B0F0BD64
:10205000032005B0F0BD8430019001200090C00243
:10206000029006E0C8693040801B414241418D42E8
:10207000EBD1FEF7D1FDC11B0320A1423FD804994B
:1020800009680A685207EDD5CA69120739D4CA69C6
:10209000029B1A42E6D0029A0A62EFF310820121F3
:1020A00081F3108809235B01049C246825689D4303
:1020B000256082F31088EFF3108281F31088049B6F
:1020C0001B689C682A4D25409D60049B82F3108804
:1020D000DA6E012A0BD1EFF3108281F310881968B0
:1020E0000B681024A3430B60049B82F3108820210B
:1020F000019CA1600022DA665A672270E16005B097
:10210000F0BD08250D62EFF31081009880F3108870
:1021100009225201049B1B681C6894431C6081F3D4
:102120001088EFF3108180F31088049A1268936886
:102130000F4C1C40049B946081F31088D96E0129D8
:102140000CD1EFF31081012282F310881A68136812
:102150001024A3431360049B81F310882021019A6B
:1021600091600021D96659671170D56005B0F0BD46
:10217000FEFFFFEF80B58548FFF792FA80BDC046AD
:1021800090B0FEF737FE00240F940E940D940C943B
:102190000B940A9409940894079406940594049463
:1021A000012509957448016829430622914301607D
:1021B00028040A9009A8FFF769F8002801D072B630
:1021C000FEE708940794069407260496059504A84C
:1021D0002946FEF713FF002801D072B6FEE70096ED
:1021E0000D940C940B940A940994644A1068042189
:1021F000084310601068084004900498106820217B
:102200000843106010680840029104900498106818
:102210002843106010682840049004981068082330
:10222000184310601068019318400490049805202A
:10223000000703902246FEF7E7FC6F02504839463C
:102240002246FEF7E1FC0B940A946803099009AE5C
:102250004B483146FEF710FC0C940B940A950298FB
:10226000099003983146FEF707FC0C940B940A95ED
:102270000397099742483146FEF7FEFB3F494868FD
:102280002843486048682840099009980926304644
:1022900021462246FEF7FEFD3046FEF7EFFD3948A7
:1022A000394912C00460446004818472C4620463CA
:1022B00044631021C160056145618561C5610562A6
:1022C000456285620838FEF725FA002801D072B60B
:1022D000FEE7039F019E2D480C212D4A04624462B3
:1022E0008462E1231B031CC0046044608160C460FD
:1022F00004610C38FFF714FC002801D072B6FEE729
:1023000024482549254A0260021D32C20461446105
:102310008461C4610462FEF7C5FC002801D072B676
:10232000FEE71C480021FEF77BFC002801D072B6B6
:10233000FEE7184800242146FEF793FC002801D050
:1023400072B6FEE716481749046244628462009A36
:1023500003462C3354C312023B46FC3B1AC00260B6
:1023600044608460C76004610C38FFF7BBF8002844
:1023700001D072B6FEE7FEE70020024034100240B2
:1023800000080050CC00002000640040E80100205C
:102390000044004030010020885D8010005400405F
:1023A000840100200030014043088B421AD30022F0
:1023B00003098B4279D3030A8B425ED3030B8B4212
:1023C00042D3030C8B4227D30902FF2212BA030C1B
:1023D0008B4202D31212090203D0030B8B4233D378
:1023E0001AE0D3E0411A8041401C704703460B437A
:1023F00071D443088B42F5D3002203098B4254D396
:10240000030A8B4239D3030B8B421DD3030C8B423F
:1024100002D394466EE0090AC30B8B4201D3CB036F
:10242000C01A5241830B8B4201D38B03C01A524115
:10243000430B8B4201D34B03C01A5241030B8B4217
:1024400001D30B03C01A5241C30A8B4201D3CB0202
:10245000C01A5241830A8B4201D38B02C01A5241E7
:10246000430A8B4201D34B02C01A5241030A8B42EA
:1024700001D30B02C01A5241CDD2C3098B4201D302
:10248000CB01C01A524183098B4201D38B01C01A80
:10249000524143098B4201D34B01C01A52410309F7
:1024A0008B4201D30B01C01A5241C3088B4201D3A6
:1024B000CB00C01A524183088B4201D38B00C01A53
:1024C000524143088B4201D34B00C01A5241411A7A
:1024D000524110007047CA0F00D04942031000D388
:1024E0004042534000229C4603098B422DD3030AED
:1024F0008B4212D38901FC2212BA030A8B420CD3FD
:10250000890192118B4208D3890192118B4204D325
:10251000890137D0921100E08909C3098B4201D3A8
:10252000CB01C01A524183098B4201D38B01C01ADF
:10253000524143098B4201D34B01C01A5241030956
:102540008B4201D30B01C01A5241C3088B4201D305
:10255000CB00C01A524183088B4201D38B00C01AB2
:102560005241D9D243088B4201D34B00C01A524189
:10257000411A00D201465241104663465B1000D317
:102580004042704763465B1000D3404201B50021D2
:10259000004201D0C9430846C046C04602BD000003
:1025A000000000000000000000000000000000002B
:1025B000000000000000000000000000000000001B
:1025C0000100000002000000030000000400000001
:1025D00006000000070000000800000009000000DD
:1025E00000000000000000000000000000000000EB
:1025F00001000000020000000300000004000000D1
:10260000010002000400060008000A000C0010008F
:102610002000400080000001382600080000002053
:10262000100000001C0100084826000810000020CF
:10263000700800003C0100080100000004000000D8
:08264000001BB70000000000C0
:04000005080000C12E
:00000001FF
