:020000040800F2
:10000000580B00202902000893270008B923000894
:1000100091270008B1060008592C000800000000D4
:10002000000000000000000000000000972700080A
:10003000DB0600080000000095270008992700084B
:10004000430200084302000843020008430200087C
:10005000430200084302000843020008430200086C
:10006000430200084302000843020008430200085C
:10007000430200084302000843020008430200084C
:1000800043020008430200086D050008430200080F
:10009000430200084302000843020008430200082C
:1000A00041280008430200084302000843020008F8
:1000B000430200084302000843020008430200080C
:1000C00043020008430200084302000843020008FC
:1000D00043020008430200084302000843020008EC
:1000E00043020008430200084302000843020008DC
:1000F000430200084D28000843020008430200089C
:1001000043020008430200084302000843020008BB
:1001100043020008430200084302000843020008AB
:10012000430200084302000843020008430200089B
:100130004302000800000000000000004302000825
:10014000430200084302000843020008430200087B
:10015000430200084302000843020008430200086B
:10016000430200084302000843020008430200085B
:1001700043020008430200080000000000000000E5
:10018000430200084302000800F002F800F03CF8C7
:100190000AA090E8000C82448344AAF10107DA45E2
:1001A00001D100F031F8AFF2090EBAE80F0013F0F8
:1001B000010F18BFFB1A43F0010318472841000044
:1001C00048410000103A24BF78C878C1FAD85207D5
:1001D00024BF30C830C144BF04680C6070470000C1
:1001E0000023002400250026103A28BF78C1FBD840
:1001F000520728BF30C148BF0B6070471FB504F0DD
:100200004FF81FBD10B510BD00F01AF91146FFF7E9
:10021000F5FF03F02BFF00F038F903B4FFF7F2FF0E
:1002200003BC00F0CDF800000948804709480047AA
:10023000FEE7FEE7FEE7FEE7FEE7FEE7FEE7FEE796
:10024000FEE7FEE704480549054A064B70470000F3
:10025000312800088901000858050020580B0020AB
:10026000580700205807002053EA020C00F069806C
:100270002DE9F04B4FF00006002B1FBFB3FA83F5BA
:1002800003FA05F424FA05F65E4012BF1643B2FAEB
:1002900082F502FA05F4C5F120051EBF22FA05FC1D
:1002A00044EA0C04203556EA044C4FEA144418BFC3
:1002B000641C4FF000084FF00009904271EB030CF2
:1002C00039D3002919BFB1FA81F701FA07F6B0FA5C
:1002D00080F700FA07F6C7F120071EBF20FA07FCD7
:1002E00046EA0C062037B6FBF4FCA7EB0507103FE7
:1002F00007F01F0BCBF120060CFA0BFB2CFA06F6CD
:1003000044BFB3460026202FA4BF5E464FF0000B2B
:100310005BEA060C08BF4FF0010B19EB0B09ABFBB6
:10032000027C48EB0608C01B06FB02CC0BFB03CC8F
:1003300071EB0C01C1E70B46024641464846BDE859
:10034000F08B13B54FF000004FF00001AFF30080C9
:10035000BDE81C40704710B5002000F042F8FFF7E0
:1003600051FFBDE81040012000F02AB84FF0000214
:1003700000B5134694469646203922BFA0E80C509B
:10038000A0E80C50B1F12001BFF4F7AF090728BF76
:10039000A0E80C5048BF0CC05DF804EB890028BFF2
:1003A00040F8042B08BF704748BF20F8022B11F01B
:1003B000804F18BF00F8012B704770477047704797
:1003C00001491820ABBEFEE72600020010B500F080
:1003D00015F8006810BD10B5044600F00FF8046071
:1003E00010BD10B500F014F8BDE8104000F00AB8D8
:1003F00000487047F804002070470000004870472C
:10040000F8040020002801D0FFF7DABF7047000091
:1004100010B5002102A000F041F8012010BD00003D
:10042000534947414252543A2041626E6F726D61A6
:100430006C207465726D696E6174696F6E00000086
:100440007546FFF7D5FFAE4605006946534620F0D6
:100450000700854618B020B5FFF7F4FEBDE8204040
:100460004FF000064FF000074FF000084FF0000B70
:1004700021F00701AC46ACE8C009ACE8C009ACE823
:10048000C009ACE8C0098D46704710B50446AFF30B
:1004900000802046BDE81040FFF7BFBE70B505469E
:1004A0000C460A2000E06D1C00F011F835B12878E8
:1004B0000028F8D102E0641C00F009F814B120789B
:1004C0000028F8D1BDE870400A20AFF3008008B5DD
:1004D00069468DF800000320ABBE08BD10B501468B
:1004E000806B026C12F0500F05D0026CD20626D53C
:1004F00000F02AFB10BD016C41F400710164016839
:100500008A6812F0405F17D1027EAAB9CA6A12F453
:10051000700F02D08A6852050ED44A6822F0200279
:100520004A60016C21F480710164016CC90403D438
:10053000016C41F00101016400F004FB10BD806B0F
:10054000C26CBDE810400846104710B5806B4021D2
:100550000164416C41F00401416400F0F5FA10BD02
:1005600010B5806B00F0EFFA10BD000010B5044824
:1005700000F0EBFABDE81040024800F0E6BA0000D7
:100580003800002080000020464910B54A6822F457
:1005900040324A604A6843681A434A6001684A68C0
:1005A00022F480724A6001684A68036942EA0322C1
:1005B0004A6001684A6822F040724A6001684A68ED
:1005C00083681A434A6001688A6822F400628A607C
:1005D00001688A68C3681A438A60816A6FF0706232
:1005E000D14201688A6822F070628A6001688A6874
:1005F0000CD0836A1A438A6001688A6822F04052EC
:100600008A6001688A68C36A1A4301E022F0405296
:100610008A6001688A6822F002028A6001688A683A
:10062000037E42EA43028A6090F8201000290168A4
:100630004A680FD042F400624A6001684A6822F4B6
:1006400060424A6001684A68174C436A04EB4333CE
:100650001A4301E022F400624A600168CA6A22F487
:100660007002CA620168CA6A838B104C04EB0353A0
:100670001A43CA6201688A6822F400728A600168BB
:100680008A6890F8303042EA43228A6001688A68BA
:1006900022F480628A6001688A68406942EA8020A8
:1006A000886010BD0023014000E0FFFF0000F0FF64
:1006B000FEE730B50468256825F4802525600468C8
:1006C00063608368402B036803D099600068C26050
:1006D00030BD9A600068C16030BD704770B590F859
:1006E0003C20694D012A19D0012280F83C200A687B
:1006F00007230468092A13D9E6680A3A02EB420282
:1007000093409E43E6600A788B680A3A02EB420205
:1007100093400268D4682343D36010E0022070BD88
:10072000266902EB420293409E4326610A788B6859
:1007300002EB42029340026814692343136102688A
:10074000936B23F4401393630268936B0C8A4F4EB0
:1007500006EB0454234393630A790B7CD21AD21C10
:1007600002EB82021F2393400268946B9C439463C4
:100770000A790B7CD21AD21C02EB82030A8892B24D
:100780009A4003689C6B22439A638A69AA42026872
:10079000936823F470239360026893680CD08C698B
:1007A000234393600268936823F4401393600268C4
:1007B0009368CC69234301E023F4401393604A7D9E
:1007C000002A0268536802D043F4806301E023F4F6
:1007D000806353600A7D002A0268536802D043F4A4
:1007E000805301E023F4805353604A68012A16D0F5
:1007F000022A1FD0032A026827D0136A6FF30B0363
:1008000013620268136ACC6823431362214B0468A5
:100810001F4A9C4227D10C68122C20D023E002688A
:1008200053696FF30B03536102685369CC68234328
:100830005361EBE7026893696FF30B0393610268FE
:100840009369CC6823439361E0E7D3696FF30B03AB
:10085000D3610268D369CC682343D361D6E7546877
:1008600044F48004546004689C4208D1096810294B
:1008700001D0112903D1516841F4000151600021D8
:1008800080F83C10084670BD01000F000000F0FF2A
:1008900000230140002001400C4910B5884213D1CB
:1008A00003F0DCF802F02AFD03F0B2F9084C2068EE
:1008B000401C2060B0F57A7F06D34FF40051054804
:1008C00000F016FD0020206010BD00003800002060
:1008D000340000200008024008B50022009203689E
:1008E000521F1A60012911D002290CD0032906D009
:1008F000042901D0009808BD0068806C01E0006800
:10090000406C009008BD0068006CFAE70068C06B9E
:10091000F7E7000018B50022009290F83C1001297A
:1009200007D0012180F83C1001688B68DB0702D0FA
:1009300011E0022018BD8B6843F001038B602A4947
:100940002A4B0968B1FBF3F101EB410100E0491EBC
:1009500000910029FBD101688B68DB073AD0036C5A
:1009600042F20104A34343F480530364036CDB05A8
:1009700000D4426480F83C206FF004020A600168F1
:100980004A6842F080024A60194949680068C9060D
:10099000816801F440110FD0D1B100224168154B9C
:1009A00041F38021491C98421CD1DAB1D1B1816850
:1009B00041F48001816015E041B10021426842F3B9
:1009C0008022521C71B1002AF1D10BE00121F5E720
:1009D0000122E3E7016C41F010010164416C41F038
:1009E00001014164002018BD0C00002040420F00AE
:1009F000002301400020014078B50024009490F8C5
:100A00003C20012A19D0012280F83C200A680723E3
:100A10000568092A13D9EE680A3A02EB42029340AC
:100A20009E43EE600B788A680A3B03EB43039A40CF
:100A30000368DD682A43DA6010E0022078BD2E6981
:100A400002EB420293409E432E610B788A6803EBCF
:100A500043039A4003681D692A431A614A681F23A9
:100A6000072A13D205686E6B521E02EB8202934076
:100A70009E436E630B790A885B1E92B203EB83037D
:100A80009A4003685D6B2A435A6327E005680D2A84
:100A900012D22E6BD21F02EB820293409E432E6332
:100AA0000B790A88DB1F92B203EB83039A40036839
:100AB0001D6B2A431A6311E0EE6A0D3A02EB8202C3
:100AC00093409E43EE620B790A880D3B92B203EB92
:100AD00083039A400368DD6A2A43DA62164B05688D
:100AE000144A9D4206D10D68122D03D1556845F474
:100AF0008005556005689D4218D10B68102B01D008
:100B0000112B13D1536843F4000353600968102973
:100B10000CD10A490A4A0968B1FBF2F101EB8101E3
:100B2000490000E0491E00910029FBD180F83C40BB
:100B3000002078BD00230140002001400C0000206F
:100B400040420F0070477047704770B50446006818
:100B50000668456816F0020F05F020012AD049B357
:100B6000216CC90603D4216C41F4007121648168B1
:100B700011F0405F17D1217EA9B9C16A11F4700F3D
:100B800002D0816849050ED4416821F020014160FE
:100B9000206C20F480702064206CC00403D4206C8E
:100BA00040F0010020642046FFF7CCFF21686FF081
:100BB0001200086016F0040F05F0800132D089B3EE
:100BC000206CC00603D4206C40F4005020642068E0
:100BD000816811F4401F1ED1816B11F4401F02D0B7
:100BE0008168490517D44168490514D4816811F01A
:100BF000405F10D1217E71B9416821F080014160D0
:100C0000206C20F480502064206CC00503D4206C3C
:100C100040F0010020642046FFF73EFE21686FF09F
:100C20000C00086016F0010F05F040010FD071B103
:100C300020680068C0070AD0206C40F4803020642F
:100C4000204600F043F821686FF00100086016F0BC
:100C5000200F05F080610ED000290CD0606C40F0B0
:100C60000200606420686FF0200505602046FFF7F1
:100C70006BFF2068056070BD70B504004FF0000583
:100C800003D0206C002610B107E0012070BD204683
:100C900000F01EF8666484F83C60206CC00610D436
:100CA000206C20F4885040F0020020642046FFF7BA
:100CB0006BFC6664206C20F0020040F001002064B0
:100CC00000E0012584F83C60284670BD70470000B4
:100CD000F0B587B0044614216846FFF747FB314A58
:100CE0002F4F236800242F49143A03252E4801264C
:100CF000BB4222D10B6843F480730B60096801F496
:100D000080710591116841F004011160116801F0D2
:100D100004010591116841F002011160116802940B
:100D200001F0020105913221CDE90015694600F07C
:100D3000E7F969461D48009623E01D4FBB422CD1C0
:100D40000B6843F400730B60096801F400710591AE
:100D5000116841F004011160116801F0040105916E
:100D6000116841F0010111601168009601F0010164
:100D70000591CDE90154694600F0C2F90D48694674
:100D80000095CDE9015400F0BBF900221146122074
:100D900000F02AFB122000F019FB07B0F0BD0000A4
:100DA0000020014044380240000802400004024094
:100DB0000021014000000240F8B50E460021044623
:100DC000009190F83C0013460A46012807D0012004
:100DD00084F83C0020688568ED0702D011E002200D
:100DE000F8BD856845F0010585604048404D0068C4
:100DF000B0FBF5F000EB400000E0401E0090002842
:100E0000FBD120688568ED0503D5856825F48075DC
:100E1000856020688568ED075DD0226C40F2016531
:100E2000AA4342F4807222644068400505D5206CD4
:100E300020F4005040F480502064206CC00404D59D
:100E4000606C20F00600606400E0616484F83C108F
:100E5000A16B2948274DC863A16B28480864A16B82
:100E60002748C86421686FF0220008602068416844
:100E700041F0806141602068816841F48071816047
:100E8000216832464C31A06B00F0F0F802466868E9
:100E90001C49C006206806D0884224D1816811F020
:100EA000405F13D01FE08842F8D0174B984203D11F
:100EB000D1F80433DB06F1D0144B984213D1D1F8AA
:100EC000041301F01F011029E8D30CE0816841F000
:100ED0008041816007E0206C40F010002064606C6D
:100EE00040F0010060641046F8BD00000C000020D6
:100EF00040420F0000230140DD04000861050008A6
:100F00004B05000800200140002101400022014063
:100F100070B500B3F9B14379012B1ED0012646719B
:100F20000223037105682C6802F0100340F6FE727C
:100F30009A409443D1E900210A439A4022432A600F
:100F400001680A68C0249C40A2430A60067100211F
:100F50004171084670BD012070BD022070BD70B5A2
:100F6000040003D02079002510B105E0012070BDF8
:100F70006571204600F008F80220207125610120EB
:100F80002071002070BD000010B586B00446142109
:100F90006846FFF7EBF91149206888421CD11048D8
:100FA0000021026842F000520260006800F0005028
:100FB00005900B481038026842F001020260006898
:100FC00000F001000590302000900320CDE90101E0
:100FD0006946044800F094F806B010BD0074004063
:100FE000403802400000024018B50024009440B18F
:100FF00000680090104431B114300090036000206C
:1010000018BD012018BD0830F7E770B508B3427964
:10101000012A20D00122427102230371046826684C
:1010200001F0100302FA03F52E432660002901683F
:1010300013D00C6804F470153C249C40A54203D1E5
:101040004B6843F002034B60027100214171084676
:1010500070BD012070BD022070BD0B68C3F3830317
:101060000F2BF1D14B6843F00103ECE72DE9F04180
:101070000446866D90F83400002501280DD001202B
:1010800084F8340094F835700020012F07D084F8DC
:10109000340002252846BDE8F0810220FBE7022744
:1010A00084F8357060652046FFF703FB94F85C1008
:1010B0003F208840B0602068016841F0160101605F
:1010C000206C20B12068016841F0080101602068AF
:1010D000016841F001010160DCE7000070B50446E1
:1010E00000F014F90546601C02D00448007804445E
:1010F00000F00CF9401BA042FAD370BD00000020A4
:101100002DE9F84FDFF8BCA10022012503264FF09E
:101110000F090AF1040BAAF1040E00BF0B6805FACF
:1011200002F42340A34270D10F7907F00307012F87
:1011300001D0022F16D187684FEA420806FA08FC50
:1011400027EA0C07D1F80CC00CFA08FC4CEA070C93
:10115000C0F808C04768A7430C79C4F30014944052
:101160003C4344600C79E443A4070AD0C4684FEAC6
:10117000420C06FA0CF7BC438F6807FA0CF72743BA
:10118000C7600C7904F00304022C12D1D40800EBE0
:10119000840CDCF820405707FF0E09FA07F824EA10
:1011A0000804D1F8108008FA07F848EA0408CCF8D7
:1011B000208004684FEA420C06FA0CF7BC430F7912
:1011C00007F0030707FA0CF7274307604C6814F48D
:1011D000403F70D03C4C276847F480472760246824
:1011E00022F0030704F480440094384C07EB040C0D
:1011F000DCF8084897074FEA177809FA08F7BC4364
:10120000334FB84202D1002724E054E0314FB842B6
:1012100001D101271EE0304FB84201D1022719E069
:101220002E4FB84201D1032714E02D4FB84201D10F
:1012300004270FE02B4FB84201D105270AE02A4FBF
:10124000B84201D1062705E0284FB84201D107274F
:1012500000E0082707FA08F72743CCF80878DAF8FF
:1012600000405746D1F804C09C435FEACC2C00D51F
:101270001C433C60DBF800405F46D1F804C09C434F
:101280005FEA8C2C00D51C433C60DEF800407746BA
:10129000D1F804C09C435FEA8C3C00D51C433C6001
:1012A000084F083F3C68D1F804C09C435FEACC3C3F
:1012B00000D51C433C60521C102AFFF42FAFBDE840
:1012C000F88F0000083C01404438024000300140E3
:1012D000000002400004024000080240000C0240EE
:1012E000001002400014024000180240001C02409E
:1012F000426921EA02030A4043EA024181617047E0
:101300000AB1816170470904FBE700000148806869
:1013100070470000000000200248816802781144F4
:1013200081607047000000200B4810B5016841F44F
:1013300000710160016841F480610160016841F45D
:1013400080710160032000F06FF80F2000F006F8B4
:1013500000F024F8002010BD003C024070B50D4D97
:1013600004464FF47A712878B1FBF0F00A49096815
:10137000B1FBF0F000F00AFB48B9102C07D20022B4
:101380002146501E00F030F800206C6070BD012036
:1013900070BD0000000000200C0000200A4808B5C5
:1013A000016841F480410160006800F480400090D1
:1013B0000548001F016841F080510160006800F09D
:1013C0008050009008BD000044380240002809DB2E
:1013D00000F01F02012191404009800000F1E0204F
:1013E000C0F8001170470000F0B40E4B1B680C46AB
:1013F000C3F30223C3F10705042D00D90425191DE9
:10140000072901D2002300E0DB1E012606FA05F1C0
:10141000491E214099409E40761E16403143F0BC43
:1014200001F02EBC0CED00E0064900F00702086850
:101430004FF6FF03184040EA0220034A10430860B9
:10144000704700000CED00E00000FA052DE9F047C0
:101450000E46050065D0DFF81481D8F80000F7B219
:1014600000F00700B04207D288F80070D8F80000FA
:1014700000F00700B04254D128683D4C810712D5D6
:10148000400703D5206840F4E0502060287800072A
:1014900003D5206840F4604020602068A96820F0EF
:1014A000F000084320602878C0072DD030496868D4
:1014B0000839012812D0022813D0032811D0096856
:1014C000890700292DDA216821F0030101432160F9
:1014D000FFF71CFF814641F2883A0EE00968890354
:1014E000EFE709688901ECE7FFF710FFA0EB0901BE
:1014F000514502D90320BDE8F0872068696800F0F3
:101500000C00B0EB810FEFD1D8F80010404601F08D
:101510000701B14207D90770006800F00700B04228
:1015200001D00120E7E72878400705D52068E96861
:1015300020F4E050084320602878000706D5206892
:10154000296920F4604040EAC100206000F038F8CA
:101550002168084AC1F30311515CC840064908607C
:1015600006480068FFF7FAFE0020C4E7003C02408E
:1015700008380240AA4200080C00002004000020A5
:101580000448054900680968044AC1F38221515C96
:10159000C84070470C00002008380240BA420008DA
:1015A0000448054900680968044AC1F34231515CA6
:1015B000C84070470C00002008380240BA420008BA
:1015C000154810B5006810F00C02144813D04110F3
:1015D000042A0FD0082A0ED10F4C241F226823683A
:1015E00002F03F025B0207D52068C0F38810A0FB21
:1015F000010106E0084610BD2168C1F38811A1FB76
:1016000000010023FEF730FE2168C1F30141491CAF
:101610004900B0FBF1F010BD083802400024F4008E
:101620002DE9F84F04006ED02078DFF84C93C00706
:10163000A9F104054AD009F104000168C1F3810150
:10164000012908D00068C0F3810002280AD1D9F826
:101650000000400206D52868800337D5606800285E
:10166000E1D033E06068B0F5803F10D0B0F5A02F36
:10167000286810D020F480302860286820F480206A
:1016800028606068A8B1FFF741FE06460DE02868B3
:1016900040F48030F4E740F480202860F7E700BF92
:1016A000FFF734FE801B642873D828688003F7D5C1
:1016B0000CE0FFF72BFE064605E000BFFFF726FE15
:1016C000801B6428F0D828688003F7D42078DFF8DE
:1016D000AC8280074FF0000A3ED5A748001D016884
:1016E00011F00C0F08D00068C0F3810002280BD164
:1016F000D9F80000400207D42868800716D5E068B2
:10170000012800D112E033E1E068B8B10120C8F847
:101710000000FFF7FBFD064605E000BFFFF7F6FD02
:10172000801B0228C0D828688007F7D5286821695F
:1017300020F0F80040EAC10028600DE0C8F800A0E1
:10174000FFF7E4FD064604E0FFF7E0FD801B0228FA
:101750001FD828688007F7D42078000722D5864F45
:1017600087486169703771B101210160FFF7CEFDD3
:10177000064604E0FFF7CAFD801B022809D8386836
:101780008007F7D50EE0C0F800A0FFF7BFFD0646C2
:1017900005E082E0FFF7BAFD801B02287DD838689B
:1017A0008007F7D42078400768D5DFF8CCB1002750
:1017B0000BF13C0BDBF80000C0000BD4DBF8001091
:1017C00041F08051CBF80010DBF80000012700F059
:1017D000805000906B4E3068C00510D4306840F4E3
:1017E00080703060FFF792FD009005E0FFF78EFDFE
:1017F0000099401A022850D83068C005F6D55E4ED0
:10180000A0686C3601280FD00528306810D020F071
:1018100001003060306820F004003060A068B8B18A
:10182000FFF774FD00900FE0306840F00100F4E72E
:1018300040F004003060F7E7FFF768FD0099411AB7
:1018400041F28830814266D830688007F4D50EE0D6
:10185000FFF75CFD009007E0FFF758FD0099411A83
:1018600041F28830814256D830688007F4D42FB1D5
:10187000DBF8001021F08051CBF80010A069C8B34C
:101880003D49091D0968C1F3810102294AD0022896
:10189000504607D0C8F8600000E03CE0FFF736FD96
:1018A00004463BE04746C8F86000FFF72FFD0646B8
:1018B00005E000BFFFF72AFD801B02282BD828680F
:1018C0008001F7D4D4E907010843A16A2E4A4908E8
:1018D00002EB0141626A41EA8211084394F82C103C
:1018E00040EA0161C9F8001001203866FFF70EFDDB
:1018F000044606E03EE000BFFFF708FD001B02289B
:1019000009D828688001F7D534E000BFFFF7FEFC56
:10191000001B022802D90320BDE8F88F2868800147
:10192000F4D427E00128F7D0D9F80000E26900F4E8
:10193000800191421CD1226A00F03F01914217D1EF
:1019400047F6C071626A0140B1EB821F10D1A26AF2
:101950004FF0FF3300F4403103EB5202B1EB024F82
:1019600006D194F82C1000F07060B0EB016F01D03C
:101970000120D1E70020CFE70438024000004742B1
:10198000800E4742007000400000FFFF10B5401E6F
:10199000B0F1807F01D3012010BD4FF0E0246061E1
:1019A0000F21601701F06CF90020A0610720206171
:1019B000002010BD7047704710B590F83C20012AF8
:1019C00022D0012280F83C20CA688C6822F4407240
:1019D00022434C6822F4806222430C6822F40062A5
:1019E00022430C6922F4805222434C6922F40052B3
:1019F0002243C969002322F480420A4301684A64F1
:101A000080F83C30002010BD022010BD70B590F869
:101A10003C20012A32D0012480F83C40022280F888
:101A20003D2003685A689D6822F070060A683243B8
:101A30005A60134B02689A4214D0B2F1804F11D011
:101A4000104B9A420ED0104B9A420BD00F4B9A4239
:101A500008D00F4B9A4205D00E4B9A4202D00E4B43
:101A60009A4204D1496825F080031943916080F8B7
:101A70003D40002180F83C10084670BD022070BD3A
:101A8000000001400004004000080040000C00403D
:101A900000040140004001400018004010B5044619
:101AA000022249B104290ED0082913D094F8450028
:101AB000012816D0012010BD94F842000128F9D168
:101AC00084F842200FE094F843000128F2D184F812
:101AD000432008E094F844000128EBD184F8442026
:101AE00001E084F845200422206800F02AFF2068E5
:101AF000416C41F40041416411492068884214D08E
:101B0000B0F1804F11D00F4988420ED00E49884263
:101B10000BD00E49884208D00D49884205D00D49A6
:101B2000884202D00C49884204D1816801F0070143
:101B3000062903D0016841F001010160002010BDB9
:101B4000000001400004004000080040000C00407C
:101B500000040140004001400018004010B504009E
:101B600003D094F83D0010B107E0012010BD002023
:101B700084F83C00204600F01FF8022084F83D0065
:101B8000211D206800F068FE012084F8460084F8DA
:101B90003E0084F83F0084F8400084F8410084F857
:101BA000420084F8430084F8440084F8450084F837
:101BB0003D00002010BD000008B5006815498842AE
:101BC0000FD11548016841F0010101600068002251
:101BD00000F00100009011461820FFF705FC1820C6
:101BE00012E00E49884213D10B48001F016841F4EE
:101BF000807101600068002200F48070009011463E
:101C00002D20FFF7F1FB2D20BDE80840FFF7DEBBDC
:101C100008BD0000000001404438024000200040A0
:101C200090F83D10012901D001207047022180F871
:101C30003D100168CA6842F00102CA60006811499B
:101C4000884214D0B0F1804F11D00F4988420ED095
:101C50000E4988420BD00E49884208D00D4988426F
:101C600005D00D49884202D00C49884204D18168D0
:101C700001F00701062903D0016841F0010101606C
:101C800000207047000001400004004000080040B0
:101C9000000C0040000401400040014000180040DA
:101CA00070B5044690F83C000025012817D00126A5
:101CB00084F83C60022084F83D002068826822F0AD
:101CC000770222F47F4282600868502838D00DDC09
:101CD00020284FD005DC90B3102811D14AE0022013
:101CE00070BD302846D040280AD13BE060282FD074
:101CF00070280DD0B0F5805F03D0B0F5005F12D032
:101D0000012584F83D60002084F83C00284670BD21
:101D1000CB68D1E90121206800F020FE20688168AD
:101D200041F0770109E0CB68D1E90121206800F09A
:101D300015FE2068816841F480418160E1E719E087
:101D4000CA684968206800F0DDFE5021206806E07E
:101D5000CA684968206800F0E6FE6021206800F04B
:101D600007FECEE7CA684968206800F0CBFE402134
:101D70002068F4E7226801461046F0E72DE9F041BB
:101D80000D46040003D094F83D0018B108E001208E
:101D9000BDE8F081002084F83C00204600F040F8C7
:101DA000022084F83D002068816844F207029143D4
:101DB0008160211D206800F04FFD226890689169C4
:101DC000166A2B68AF69034340F20330814341EA4E
:101DD0000721A868EF6908434FF6FC418843E9688A
:101DE00040EA0720014328692F6A000140EA0730D2
:101DF000084369686D6926F0AA0646EA0515294375
:101E000093602268906154F8460B0162012004F847
:101E10001F09E0752076E0762077A0750020B7E7EF
:101E200070B586B0044614216846FEF79FFA1E4935
:101E30001C4E256800231C4A103902241B48B54259
:101E400011D1156845F002051560126802F0020212
:101E500005920A6842F002020A60096801F0020174
:101E60000591302113E0124EB54218D1156845F0A6
:101E700004051560126802F0040205920A6842F037
:101E800002020A60096801F002010591C021009177
:101E9000CDE90143CDE903346946FFF731F906B0D6
:101EA00070BD0000000400404038024000040240C1
:101EB0000008004070B590F83E60044690F83F502E
:101EC00090F8423090F84320022021B104290ED02E
:101ED000012E1BD114E0012E18D1012B16D184F84C
:101EE0003E0084F8420001220021206820E0012DFC
:101EF0000CD1012A0AD184F83F0084F8430014E091
:101F0000012D03D1012B01D1012A01D0012070BD87
:101F100084F83E0084F83F0084F8420084F84300CF
:101F200001220021206800F0FFFC0122042120682A
:101F300000F0FAFC2068016841F001010160002016
:101F400070BD70472DE9F04104460068C668056918
:101F50004FF00007A90713D5B10711D5F91E01618C
:101F600001202077206880698007204602D0FFF793
:101F7000E8FF04E000F0BEF8204600F050F92777B3
:101F8000680716D5700714D521686FF00400086142
:101F9000022020772068806910F4407F204602D01C
:101FA000FFF7CFFF04E000F0A5F8204600F037F976
:101FB0002777280715D5300713D521686FF008005B
:101FC0000861042020772068C0698007204602D07D
:101FD000FFF7B7FF04E000F08DF8204600F01FF98E
:101FE0002777E80616D5F00614D521686FF01000A3
:101FF0000861082020772068C06910F4407F2046DF
:1020000002D0FFF79EFF04E000F074F8204600F0D5
:1020100006F92777E80708D0F00706D021686FF0A7
:1020200001000861204600F05FF9280608D5300657
:1020300006D521686FF0800008612046FFF7BAFCE2
:10204000680608D5700606D521686FF04000086163
:10205000204600F04AF9A8060AD5B00608D521683E
:102060006FF0200008612046BDE8F041FFF7A3BCF7
:10207000BDE8F08170B586B0044614216846FEF7CD
:1020800075F918492068884229D117480024016849
:1020900041F002010160016801F00201059101684F
:1020A00041F0010101600068022500F00100059087
:1020B0004FF460400090CDE901540126CDE903467C
:1020C00069460A48FFF71CF84FF4E0600090CDE93C
:1020D0000154CDE9034669460548FFF711F806B0FB
:1020E00070BD000000000140303802400004024092
:1020F00000000240704770B5044690F83C0000268E
:102100000D4601280FD0012084F83C006AB1042A52
:102110001DD0082A2FD00C2A3FD00126002084F899
:102120003C00304670BD022070BD206800F028FCE5
:102130002068816941F0080181612068816921F08E
:1021400004018161206881692A69114311E02068D6
:1021500000F046FC2068816941F4006181612068DB
:10216000816921F480618161206881692A6941EA7D
:1021700002218161D2E7206800F068FC2068C16913
:1021800041F00801C1612068C16921F00401C16109
:102190002068C1692A69114311E0206800F08AFCB7
:1021A0002068C16941F40061C1612068C16921F4FE
:1021B0008061C1612068C1692A6941EA0221C16167
:1021C000ACE710B5040003D094F83D0010B107E06F
:1021D000012010BD002084F83C00204600F01EF8CD
:1021E000022084F83D00211D206800F035FB01200D
:1021F00084F8460084F83E0084F83F0084F84000EC
:1022000084F8410084F8420084F8430084F84400D4
:1022100084F8450084F83D00002010BD70477047E9
:1022200010B50446022249B104290ED0082913D062
:1022300094F84100012816D0012010BD94F83E000A
:102240000128F9D184F83E200FE094F83F000128DE
:10225000F2D184F83F2008E094F840000128EBD147
:1022600084F8402001E084F841200122206800F039
:102270005BFB16492068164A884201D0904203D180
:10228000436C43F4004343642068884213D0B0F1A8
:10229000804F10D00F4988420DD00F4988420AD094
:1022A0000E49884207D0904205D00D49884202D09D
:1022B0000C49884204D1816801F00701062903D046
:1022C000016841F001010160002010BD00000140E3
:1022D000000401400004004000080040000C0040E1
:1022E00000400140001800407047704770B504007E
:1022F00004D094F84100002510B106E0012070BD23
:1023000084F84050204600F023F8242084F841004F
:102310002068C16821F40051C160204600F016FC1D
:102320002068016921F4904101612068416921F030
:102330002A0141612068C16841F40051C1606564AF
:10234000202084F8410084F842006563002070BDBD
:1023500010B586B0044614216846FEF707F8134905
:102360002068884220D112480021026842F40032DD
:102370000260006800F4003005900D4810380268D3
:1023800042F001020260006800F0010005900C209C
:1023900000900220CDE90101032003900720049062
:1023A00069460448FEF7ACFE06B010BD004400408C
:1023B0004038024000000240FEE70000F0B58DB05A
:1023C0000024089409940A94202168460B94FDF790
:1023D000CDFF2E4801252C4905614FF480368460DD
:1023E000C0E90016047680F820402949C0E90A14A3
:1023F000C561C46080F830404561FEF73DFC08B11E
:1024000072B6FEE70E270897CDE9095408A91F48C0
:10241000FEF7F2FA08B172B6FEE7CDE900750425C1
:10242000A8040294CDE906608DF8154004958DF856
:102430001440694615480394FEF750F908B172B686
:10244000FEE70F2000900220019069460F48FEF73A
:1024500045F908B172B6FEE708200090032001900C
:1024600069460A48FEF73AF908B172B6FEE70B2052
:10247000CDE9000569460548FEF730F9002801D08E
:1024800072B6FEE70DB0F0BD00200140380000201C
:102490000100000F7FB500241548009401940294B8
:1024A0001249039401604FF48031C0E901140461C2
:1024B000047680F820400F49C0E90A140125C5615F
:1024C000C46080F830404561FEF7D6FB08B172B6B3
:1024D000FEE70095CDE9015469460548FEF78CFA00
:1024E000002801D072B6FEE77FBD00000021014048
:1024F000800000200100000F2DE9F04186B014217A
:102500006846FDF733FF27480024016841F00401C5
:102510000160016801F004010591016841F080014A
:102520000160016801F080010591016841F001013D
:102530000160016801F001010591016841F00201AB
:1025400001600068184F00F002004FF4005505903C
:10255000002229463846FEF7D3FEDFF85080AE0051
:10256000002231464046FEF7CBFE00950125CDE91D
:102570000154694638460394FEF7C2FDCDE9006573
:10258000CDE9025469464046FEF7BAFD4FF440706B
:10259000CDE90004694606480294FEF7B1FD06B095
:1025A000BDE8F081303802400008024000000240DF
:1025B0000004024030B595B000240F94109411949B
:1025C000129413941C2168461494FDF7CFFE202129
:1025D00007A8FDF7CBFE39483749C0E90014202190
:1025E000816042F2CF01C0E903140121C0E9051462
:1025F000FFF7B4FA08B172B6FEE74FF480500F90BF
:102600000FA92E48FFF74CFB08B172B6FEE72B4826
:10261000FFF7D7FD08B172B6FEE77025CDE9135478
:1026200013A92648FFF7F2F908B172B6FEE7602059
:10263000CDE90004022002900820CDE903040594AE
:10264000002269461D480694FFF755FD08B172B691
:10265000FEE7042269461948FFF74DFD08B172B63E
:10266000FEE7082269461548FFF745FD08B172B636
:10267000FEE742F2CE000095CDE901040C22694646
:102680000E48FFF738FD08B172B6FEE707946420E4
:102690000894CDE909404FF40050CDE90B4007A95B
:1026A00006480E94FFF788F908B172B6FEE70348B2
:1026B000FFF7E0FC15B030BD00000140DC00002059
:1026C00010B58CB024216846FDF750FE0024154853
:1026D000099413490A94C0E900144FF6FF71C0E948
:1026E0000241046184610120CDE90004CDE90204C6
:1026F0000494CDE90540079469460A480894FFF719
:102700003DFB08B172B6FEE7099409A905480A9491
:10271000FFF77CF9002801D072B6FEE70CB010BDBF
:10272000000400402401002010B58CB0242168462C
:10273000FDF71CFE00241548099413490A94C0E9CA
:1027400000144FF6FF71C0E9024104618461012069
:10275000CDE90004CDE902040494CDE905400794D5
:1027600069460A480894FFF709FB08B172B6FEE70C
:10277000099409A905480A94FFF748F9002801D0EF
:1027800072B6FEE70CB010BD000800406C010020DE
:10279000FEE7FEE770477047FEF7BEBD30B593B069
:1027A00030216846FDF7E2FD14210CA8FDF7DEFD9F
:1027B0001D480025016841F080510160006800F06B
:1027C000805011901948016841F48041016000680F
:1027D000022400F480401190012003901020049006
:1027E000009406940820CDE90750A820CDE90904FB
:1027F00004200B906846FEF713FF08B172B6FEE79F
:102800000CA90F2081E831004FF4A0500F904FF435
:102810008050109005210CA8FEF718FE002801D06A
:1028200072B6FEE713B030BD403802400070004081
:102830000248016841F470010160704788ED00E0D2
:102840000148FFF77FBB0000DC0000200148FFF7D4
:1028500079BB0000B4010020F0B50268274B284D79
:10286000284E294F294C4FF0804C984209D06045A2
:1028700007D0A84205D0B04203D0B84201D0A04250
:1028800004D122F0700E4A6842EA0E0298421BD030
:10289000604519D0A84217D0B04215D0B84213D025
:1028A000A04211D01A4DA8420ED01A4DA8420BD00A
:1028B000194DA84208D0194DA84205D0184DA8427C
:1028C00002D0184DA84203D122F44075CA682A43A9
:1028D0004D6922F080022A438D68C5620D688562C9
:1028E000984201D0A04201D109690163016841F019
:1028F00004010160012141610260F0BD000001405E
:102900000004004000080040000C004000040140AA
:1029100000400140004401400048014000180040D0
:10292000001C00400020004010B501F01F030121F1
:10293000046A99408C430462016A9A40114301621F
:1029400010BD10B501F00F030421046A99408C43B7
:102950000462016A9A401143016210BD10B5846897
:1029600042EA032224F47F440A432243826010BDDA
:10297000826822F070020A4342F0070181607047CA
:10298000F0B5036A026A22F00102026242688469B9
:10299000124E24F073050C682C4323F002058B685B
:1029A0002B430D4DA84201D0B04205D123F00807BA
:1029B000CB683B4323F00403A84201D0B04205D1C9
:1029C0004D6922F4407215438A692A43426084614A
:1029D000496841630362F0BD00000140000401400A
:1029E000F0B5026A036A23F0100303624368846946
:1029F0000D6824F4E64444EA05248D6822F02002A0
:102A000042EA05120F4D104EA84201D0B04206D145
:102A1000CF6822F0800242EA071222F04002A84268
:102A200001D0B04207D14D6923F4406343EA8503E6
:102A30008D6943EA8503436084614968816302626A
:102A4000F0BD00000000014000040140F0B5026A42
:102A5000036A23F4807303624368C46922F400723A
:102A600024F073050C68124E2C438D6842EA05224F
:102A70000E4DA84201D0B04206D1CF6822F40062C8
:102A800042EA072222F48062A84201D0B04207D174
:102A90004D6923F4405343EA05138D6943EA051356
:102AA0004360C4614968C1630262F0BD0000014037
:102AB0000004014030B5046A026A22F480520262C6
:102AC0004268C3690D6823F4E64343EA05238D6831
:102AD00024F4005444EA0534084DA84202D0084DBD
:102AE000A84204D14D6922F4804242EA8512426034
:102AF000C36149680164046230BD00000000014008
:102B00000004014010B5036A046A24F00104046261
:102B1000846924F0F00444EA021423F00A020A4310
:102B20008461026210BD10B5036A046A24F01004C7
:102B30000462846923F0A00324F4704444EA02325E
:102B400043EA01118261016210BD000070B50446C4
:102B500000680169E26821F4405111430161216973
:102B6000A068E26908436169114308432168CA68A3
:102B700049F20C639A430243CA6020684169A26922
:102B800021F440711143416131492068884202D0EB
:102B90003049884202D1FEF703FD01E0FEF7F0FC68
:102BA000E2690023192164253226B2F5004F6268DC
:102BB00028D0A0FB0101930F9200FDF755FB0146C1
:102BC000B0FBF5F06FF01802504301EB800006EB0C
:102BD0000010B0FBF5F000F0F002B1FBF5F002EBF5
:102BE0000012B1FBF5F06FF01803584301EB8000C1
:102BF00006EB0010B0FBF5F000F00F002168104468
:102C0000886070BDA0FB010192185B41FDF72CFBB1
:102C10000146B0FBF5F00201B1FBF5F06FF01803CF
:102C2000584301EB800006EBC000B0FBF5F000F06C
:102C3000F80002EB4002B1FBF5F0584301EB8000D5
:102C400006EBC000B0FBF5F000F00700D6E700008F
:102C50000010014000140140FEE74100080218BFC7
:102C600004200A0E18BF40F001004FF07F4232EA04
:102C7000010108BF40F00200012808BF052070478D
:102C80000907090E002804DB00F1E02080F8001499
:102C9000704700F00F0000F1E02080F8141D70472D
:102CA00010EE101A08B5444A6846B2EB410F28D915
:102CB0004FF0E640B0EB410F94BF00204FF0FF30E3
:102CC00000900098002861DB60EE000A10F0010F10
:102CD00045D010F0020FDFED391A9FED391A00EEE2
:102CE000E11ADFED381A40EE811A21EEA01AF0EE5B
:102CF000400A40EE010A08BFF1EE600AB0EE600A39
:102D000008BD314B21F0004293423CD911F0004FF5
:102D1000DFED2E0A20EE201ADFED2D0A19BF31EE6D
:102D2000601A71EE200A31EE201A71EE600ABDEED3
:102D3000E01A11EE100A9FED271A00F0030000EED2
:102D4000C10A9FED251A009000EEC10A9FED231ADB
:102D500000EEC10A9FED221A00EEC10AB1E79FED15
:102D6000211A9FED210A10F0020F00EE810A9FED5B
:102D70001F1A00EE801AB7EE000A00EE810A18BF93
:102D8000B1EE400A08BD00F02BF99AE710EE100AE8
:102D90004000B0F17F4F3CBFB7EE000A08BD07D13D
:102DA0004FF00100FDF717FBBDE8084000F008B93F
:102DB000BDE8084000F001B9B61F927E336D4C3972
:102DC000DA82083CA0AA2ABE490E494683F9223F6E
:102DD0000000004B0000C93F00A0FD390020A233D5
:102DE0001A61342CB93AB2BACA9F2A3DDDFFFFBE40
:102DF00000B510EE101A2DED028B81B0524A6846D4
:102E0000B2EB410F2ED94FF0E640B0EB410F94BF2B
:102E100000204FF0FF3000900098B0EE408A00286C
:102E20006ADB10F0010F4BD068EE080A9FED471ADD
:102E30009FED470A00EE810A9FED461A10F0020F3F
:102E400000EE801AB7EE000A00EE810A02BF01B060
:102E5000BDEC028B00BD00BF01B0B1EE400ABDEC7D
:102E6000028B00BD3C4B21F00042934241D911F04E
:102E7000004FDFED3A0A20EE201ADFED390A19BFC4
:102E800031EE601A71EE200A31EE201A71EE600AFE
:102E9000BDEEE01A11EE100A9FED321A00F00300A9
:102EA00000EEC10A9FED301A009000EEC10A9FEDBE
:102EB0002F1A00EEC10A9FED2E1A00EEC10AABE7F1
:102EC00028EE080A9FED2B1ADFED2B0A10F0020FF7
:102ED00040EE410A9FED291A00EE201A61EE000A29
:102EE000B0EE480A08EE200AB6D101B0BDEC028B64
:102EF00000BD00F075F88FE718EE100A4000B0F141
:102F00007F4F0DD218EE100AFFF7A7FE042808BF66
:102F100000F05EF8B0EE480A01B0BDEC028B00BDD7
:102F200009D10120FDF757FA01B0BDEC028B5DF825
:102F300004EB00F045B801B0B0EE480ABDEC028BDE
:102F40005DF804EB00F039B8B61F927EB93AB2BA18
:102F5000CA9F2A3DDDFFFFBE490E494683F9223F45
:102F60000000004B0000C93F00A0FD390020A23343
:102F70001A61342C336D4C39DA82083CA0AA2ABE7F
:102F800010B52DED028BB1EEC08A18EE100A20F0BC
:102F90000040C0F1FF40C00F0AD010EE100A20F030
:102FA0000040C0F1FF40C00F04BF0120FDF713FA3D
:102FB000B0EE480ABDEC028B10BD30EE000A70473F
:102FC000DFED020A80EEA00A70470000000000005A
:102FD0009FED020A20EE000A70470000000000107A
:102FE0002DE9F0014FF07F42B2EB410F9FBF4FF050
:102FF000FF310160BDE8F00170474FF0004242EA46
:103000000123C1F3C752783A551112F01F0C434CFB
:10301000CCF120067C44C1F3C752A2F178024FEAFA
:10302000621204EB820254F8254008BFD2E901562F
:1030300012D0556804FA0CF425FA06F73C43976859
:1030400005FA0CF527FA06F8D26807FA0CFCF240EC
:1030500045EA08054CEA0206A4FB034CA5FB035213
:10306000A6FB03631D449D4234BF012600261319AD
:10307000334416B1934202D903E0934201D20122B4
:1030800000E00022624402F1200C9206DC0C42EACD
:10309000443200EE102A5B03DFED210AF8EEC01A7D
:1030A00000EE103A4FEA9C1C11F0004FB8EE400AB7
:1030B000C0F800C020EE201A00EE105ADFED190A09
:1030C000B8EE400A20EE200A71EE810A70EE800A06
:1030D00010EE902A02F500626FF30B0200EE902AC8
:1030E00070EEE11A31EEC11ADFED101A30EE411A1E
:1030F0009FED0D0A20EE800A01EE210A9FED0C1AC9
:1031000000EE810A04BFBDE8F0017047CCF18051A8
:103110000160BDE8F001B1EE400A7047AC1200005A
:10312000000000360000802C22AAFD29DB0FC92FE9
:103130000000C92F70B5274C6068A0B32648002551
:10314000D0E90B1291422CD9816B012649B3A168B9
:103150000246032992ED0A0A26D02049A26801EB13
:103160008202D2ED090AA26880EE201A01EB8202E7
:1031700092ED060AA26831EE000A01EB820181EDB0
:10318000060AA168491CA1609FED150AC56280ED81
:10319000000A8563456300F02BF9A068072800DD6D
:1031A0006560002070BD12E00E48D0ED050A80EE8B
:1031B000201A90ED040A31EE000A80ED040A6560E1
:1031C000094800F025F80848C0F82061E5E701202B
:1031D000E8E7000018000020BC0400208002002066
:1031E00000000000C802002018030020C1617047E1
:1031F0009FED060A80ED090A80ED000A80ED010AC4
:1032000080ED020A80ED030A704700000000000014
:103210009FED0C0A002180ED110A80ED100A80ED6F
:103220000F0A80ED1B0A80ED1A0A80ED190A80ED65
:10323000250A80ED240A80ED230AC0F8981080ED5D
:10324000280A70470000000090ED000A90ED011A76
:10325000DFED201AFEEE000A60EE200A21EE211AB0
:1032600030EE812A30EEC11AB4EEC20AF1EE10FA45
:1032700004DDF0EE401AF0EE420A03E0F0EE421AEE
:10328000F0EE400AB4EEE11AF1EE10FA02DDF0EED3
:10329000411A06E0B4EEE01AF1EE10FA01D2F0EEB7
:1032A000410A71EEA01AF6EE000A61EEA01A30EEA5
:1032B000610A30EE200A81ED000A32EE610A30EE3A
:1032C000200A81ED010A31EE610A30EE200A81ED1B
:1032D000020A7047D7B35D3F06480068016A40F2B2
:1032E00055529143016200224FF400410248FEF71B
:1032F00007B80000DC00002000000240364810B58E
:10330000006888B1354802683549032A0AD04968FF
:10331000006801EB800000BF90ED000A314800F02A
:10332000E6FC21E0C868F7E72F4C04F1240094ED97
:10333000030A00F04DFE84ED040A84ED080AD4ED82
:10334000070A30EE800A84ED070AD4ED060AB4EECF
:10335000E00AF1EE10FA03DD94ED050A84ED070AA8
:1033600084ED010A84ED000A204C04F1180000F0FD
:10337000F4FC58B3606894ED020AF7EE001A90ED81
:10338000001A31EE400A10EE100AB0F13F4F02D998
:1033900030EE210A06E010EE100AB0F17C5F01DD8C
:1033A00030EE610AD4ED030A94ED042A60EE800A3F
:1033B00071EEC21A94ED050A20EE210A00EE820A8F
:1033C00084ED050A84ED000A84ED021ABDE8104080
:1033D000034800F0FFBC00001C000020200000207B
:1033E00018030020BC0400208C0400206C04002082
:1033F0009FED080A002180ED0A0A80ED010A80EDA8
:10340000020A80ED030A80ED040AC1628163012192
:10341000416370470000000010B52DED048B8EB0A5
:10342000FFF75AFFDFED478AB0EE681ADFED460A74
:10343000B3EE040A454800F0A5F844484FF4FA52A8
:103440000721703800F0C6F84048703890ED070A40
:10345000B8EE400A9FED3E8A9FED3E9A0146C8EEC7
:10346000000AA0F59A74B0EE491A01230522B0EEC5
:10347000680AC0ED040ADFED380A2030216100F04F
:103480005BFAB0EE681ADFED350AB3EE040A04F514
:10349000BA7000F0F9F804F5AA7060619FED300A87
:1034A000CDED008A8DED010A9FED2E0A05208DEDF0
:1034B000020A8DED038ABFEE000A8DED050AB7EE14
:1034C000000A8DED040A9FED280A0D908DED060A85
:1034D0009FED260A69468DED070A9FED250A8DEDC1
:1034E000088A8DED0A0A9FED230A20468DED090A10
:1034F0009FED210A8DED0C0A8DED0B9A00F062F91B
:1035000004F5BA7020610120C4F82001C4F8240138
:103510000020C4F82801C4F82C019FED180AC4F853
:103520003001174984ED398A84ED3A0A4968002947
:1035300004D0C4F820010548FFF75AFF0EB0BDECD7
:10354000048B10BD00401C46F4FD343FBC04002039
:103550000000000000001643004008450000204223
:103560002BA2733F5F2D5639CDCC4C3ECDCCCC3EFB
:103570006666E6BE6666E63E000016C38FC2F53D8F
:1035800018000020F0EE411AB0EE601AF2EE040AC4
:1035900070B560EE200A0446001DFCEEE00A10EE55
:1035A000905AF0EE400AB0EE610A00F023F84FF4B2
:1035B0007A70854201D9256300E0206300209FEDE9
:1035C000040AE06284ED000AA063606370BD00003D
:1035D000000000009FED060A002380ED000A80ED48
:1035E000010A836080ED040A8182C2617047000095
:1035F0000000000010B504462DED048BB0EE419A9A
:103600009FED201A60EE810AC0EE808AB0EE680A53
:10361000FFF746FBB0EE408AB0EE680AFFF7E8FB22
:10362000F0EE000AB7EE001A69EE200A31EE482AE1
:103630002046C0EE201A31EE810AC1EE000AB6EE35
:10364000000A22EE000A20EE200A22EE202A84ED53
:10365000060A84ED072A84ED080AB8EE000A28EE6F
:10366000000A20EE200A84ED040A31EE610A20EE01
:10367000200A84ED050ABDEC048BBDE81040FFF77D
:10368000B7BD0000DB0FC94010B504462DED048B1B
:10369000F0EE608AB0EE418ADFED110AB0EE409A9A
:1036A000C0ED010AC0ED000AF0EE601AB7EE001A94
:1036B000B0EE480A143000F01DF989EE080AB0EEA9
:1036C000481A04F1240084ED030A88EE880ABDEC50
:1036D000048BBDE81040F1EE400A00F01FB9000075
:1036E000000000000022C0E9002170479FED061A8B
:1036F00080ED011A9FED051A20EE811AC1EE000A35
:10370000C0ED000A7047000000000000DB0FC94058
:1037100061EEA00A80ED000A80EE202A20EE210A48
:1037200020EE010A80ED012A80ED020ABFEE000AB8
:1037300080ED040AB7EE000A80ED030A9FED080A47
:1037400080ED060A9FED070A80ED050A9FED060A47
:1037500080ED070A80ED090A80ED080A7047000035
:10376000CDCC4CBFCDCC4C3F0000000061EEA00A98
:1037700080ED000AB7EE000A80EE202A61EE810A91
:1037800080ED012AC0ED020AFFEE000AC0ED040A36
:1037900080ED030A9FED080A80ED060A9FED070AF7
:1037A00080ED050A9FED060A80ED070A80ED090A03
:1037B00080ED080A70470000CDCC4CBFCDCC4C3F0B
:1037C0000000000070B50D1D2DED028B0446D1EDFB
:1037D000001A203095EC030A0D46FFF7C7FF95ED60
:1037E000040AD5ED050A84ED0B0AC4ED0C0A04F1B8
:1037F0004800F5EC011A95EC030A2D1FFFF7B6FF00
:1038000095ED040AD5ED050A84ED150AC4ED160AF6
:10381000D5ED003A696B183504F1700095EC070A94
:1038200000F0CAF804F1AC0000F006FC04F1C4009A
:1038300000F002FC04F1B80000F0FEFB04F1D0003F
:1038400000F0FAFB9FED138A04F5867084ED378A49
:1038500084ED388A84ED398A84ED3A8A00F0ECFBF5
:1038600004F5807000F0E8FB84ED3E8A84ED3F8A29
:1038700084ED3D8A84ED3C8A002044F8EC0F012160
:10388000C4E90C01A063E06320646064BDEC028BBA
:1038900070BD0000000000004160C0ED040A01217D
:1038A00080ED050A914000EE101AF7EE000A8260E2
:1038B000B8EEC00A80EE801A9FED030A80ED031A6D
:1038C00080ED000A704700000000000030B50023C2
:1038D0009FED070A1D4600BF00EB83045B1C84EDCF
:1038E000000A6561032BF7DBC0E9032130BD00004E
:1038F000000000009FED082A80ED022A80EE202AB9
:1039000031EE610A80ED011AC0ED001AC0EE020A24
:10391000C0ED030A7047000000000000C0EE811AED
:10392000C0EE010A9FED030AC0ED021A80EC020A04
:10393000704700000000000070B5FCEEE01A05467C
:103940000E4611EE900A1E21B0FBF1F4A24200D205
:103950001446DFED171A05F11000C5ED021AC5ED8A
:10396000001ADFED141A20EE212A01EE904AF8EE3B
:10397000611AC2EE212A01EE903AB8EE612AC2EE37
:10398000821A81EEA02A00EE904AF8EE600AC0EE9C
:10399000201AF0EE410A85ED032AB0EE610AFFF726
:1039A000A5FE214605F11800FFF79CFE6E6070BD74
:1039B000000000000000704270B504462DED068B3B
:1039C000F0EE63AAB0EE419AF0EE609AB0EE40AA33
:1039D0000D46F0EE428AB0EE618AB0EE6A1AF0EE61
:1039E000430AB0EE620A3030FFF798FF294604F12F
:1039F0002800FFF777FEF0EE6A1AB0EE491AF0EEF3
:103A0000690AB0EE4A0A2046FFF782FE84ED038A77
:103A1000C4ED048ABDEC068B70BD00009FED0E1A4C
:103A20000023C16000EB83015B1CC1ED060A81ED40
:103A3000090A81ED001A032BF4DB0121914000EE0D
:103A4000101AF7EE000A0261B8EEC00A80EE801A82
:103A500080ED051A704700000000000010B501213C
:103A60003248FCF739FF324C022120602F48FCF726
:103A700033FF606003212D48FCF72EFFA060042176
:103A80002A48FCF729FF2B490860A4F18C0000F0BC
:103A9000B2FAA4F1BC0000F0AEFAA4F1440000F0C8
:103AA0007FFAA4F15C0000F07BFA23480068416AC9
:103AB00022484FF07C52C16090ED070AF8EE400AB0
:103AC00000EE101AB8EE401A81EE200AF7EE000A56
:103AD00080ED000A70EE200A90ED041A818A30EE23
:103AE000C11A00EE901AF8EE600A61EE200ABDEEEF
:103AF000E01AB8EEC11A70EEC10AC0ED010AD0EDAD
:103B0000060A30EE601A11EE101A914202DD816849
:103B1000491E816070EEC00A10EE901A914202DDDB
:103B20008168491C816080ED060A10BD38000020C4
:103B30000C03002010000020240100204C04002071
:103B400070B52D4C206800284ED0E068012518B9CA
:103B500000F085FAE560A0616069002843D100F0BB
:103B60007EFAA169401A642802D9206900B925614A
:103B70006069002837D12069012834D100F0B0F8FD
:103B8000002830D01E489FED1D0A80ED090AA0F5DF
:103B9000BA70FFF73DFB1B480021C0F81C511A48C2
:103BA000FEF73EFB04211848FEF73AFB08211648B1
:103BB000FEF736FB00211448FDF770FF0421124880
:103BC000FDF76CFF08211048FDF768FF0E480068FC
:103BD000016A40F25552114301620122D1030B48A0
:103BE000FDF78EFB656170BDFFF776FB0020E0609E
:103BF00020616061A06170BD18000020000000001D
:103C00008C04002018030020DC000020000002408B
:103C100070B52D4D00242DED028B9FED2C8A00BF39
:103C200095ED030A05EB84062969B8EE400AD6ED46
:103C3000000AB0EE481A20EE800ABCEEC00A10EE70
:103C4000100A0844706195ED030AF8EE400A00EE90
:103C5000100AB8EE400A00F07EFABCEEC00A641CFE
:103C6000032C86ED050ADBDB194917480B6842690E
:103C70005A630B6882699A630968C069C863154C06
:103C80009FED158A0022D4ED2B0AB0EE480A1146AA
:103C900000EE880A1148BCEEC00A10EE103AFDF79B
:103CA000A3F9D4ED430AB0EE480A002200EE880AD8
:103CB000BDEC028B1021BDE87040BCEEC00A074885
:103CC00010EE103AFDF790B9E0020020000000006D
:103CD000DC0000201803002000000045C800002080
:103CE00010B5FFF727FA002800D0012010BD80EDA5
:103CF000000A416B00292FD0D0ED080AD0ED011A3F
:103D000090ED071A90ED022A60EEA10AD0ED042A88
:103D100041EE000A90ED091A41EE020A90ED052AE3
:103D200090ED031A42EE410A90ED062A42EE620A35
:103D3000C0ED0A0AC0ED021A80ED010A80ED041AF6
:103D4000C0ED030AC16A491CC162026B914203D9EA
:103D5000002141630121816370470168491C0160B2
:103D60004268914203D30021016001207047002086
:103D7000704710B504462DED028BB0EE408A90EDF1
:103D8000000AD0ED010A90ED061A60EE088A90ED67
:103D9000080A08EEA00AD0ED050A00F0DCF984ED6F
:103DA000080AD4ED090A30EE280A94ED021A78EEDA
:103DB000600A00EE810A84ED070A94ED041AD4ED3E
:103DC000030A00F0C8F984ED070A84ED098ABDEC06
:103DD000028B10BD70B504462DED068BB7EE009A30
:103DE000D0F81801401CC4F81801D4F81C010028B0
:103DF0007DD06068B0EE001A90ED000A84ED2B0AC9
:103E000090EC020A00EE810ADFED620A20EE200A41
:103E100084ED2C0A2069E0B390ED010ADFED5E0A23
:103E200060EE208AB0EE680AFEF7E2FFB0EE408A4C
:103E3000B0EE680AFEF734FFF0EE408A94ED2B0AEC
:103E4000D4ED2C0A20EE281A00EE881A60EEA80A9B
:103E500040EE480A84ED2E1AC4ED2F0A94ED2D0A87
:103E600084ED300A94ED370AD4F82C0184ED3E0A33
:103E7000E0B394ED3DAA606904F1700548B1D0ED5E
:103E8000009A05F12800FFF768FF88B1B0EE4A0AF2
:103E900000E00BE005F1300000F09AF895ED0C0A17
:103EA000284630EE690AFFF764FF03E0FCF753FA97
:103EB00095ED070AD4ED380A30EE200ADFED379A87
:103EC00084ED3F0AD4F8280180B394ED3E0AD4ED86
:103ED0002E0A04F1200030EE600AFFF74AFFD4ED0D
:103EE000390A70EE200AC4ED400A01E01BE047E009
:103EF000B0EE490A00EEE00AFFF742F8F1EE400AA0
:103F000084ED150AC4ED160A94ED3F0AD4ED2F0A8C
:103F100004F1480030EE600AFFF72BFFD4ED3A0AB7
:103F200030EE200A09E094ED380AC7E7FFE794ED88
:103F3000390A84ED400A94ED3A0A84ED410AC4ED51
:103F4000429AD4F8240178B1D4ED400A20EEA81AA0
:103F500060EE880A00EE481A40EE280A84ED431A03
:103F6000C4ED440AC4ED459AD4F8200140B1E1699A
:103F700004F58670BDEC068BBDE87040FFF764B9B0
:103F8000E069B6EE000ABDEC068BBDE8704000F0BB
:103F90005FB800003ACD133FDB0FC94000000000BE
:103FA00010B5416891B191ED000AD0ED030AB8EE69
:103FB000400A20EE800AD0ED040A30EE600AD0ED0F
:103FC000050A20EE800A80ED000A10BDFCF7C3F957
:103FD00010B5D0ED000A044690ED021A30EE600AEA
:103FE000D0ED010A00F0B7F8D4ED000A30EE800AF7
:103FF00084ED000A10BD10B5C168D9B10021C268B6
:10400000D0ED050A52F8212000EE102A00EB8102C3
:10401000491CB8EE400A032920EE200AD2ED060A18
:1040200030EE600AD2ED090A20EE800A82ED000A25
:10403000E5DB10BDFCF78FF99FED040A80ED000A67
:1040400080ED010A80ED020A7047000000000000C8
:1040500080ED000A80ED010A80ED020A7047FDF74D
:1040600055B9704770477047704770471CB5FDF7EA
:104070005BF9FEF793FBFEF73FFAFEF79FF9FEF7B9
:1040800099FAFEF707FAFEF71BFBFEF74DFB2D48EA
:104090002B49002401604FF4E131C0E901140C21E7
:1040A000C460C0E904418461C461FEF71FF908B12E
:1040B00072B6FEE7234824494838C0E900144FF699
:1040C000FF71C0E9024104618461FDF747FD08B159
:1040D00072B6FEE71B484838FDF7A2FD1C49009464
:1040E0001A48019408600846FCF739FF08B172B617
:1040F000FEE700940022694615480194FCF708FF8A
:1041000008B172B6FEE7102269461148FCF700FFBD
:1041100008B172B6FEE7FFF7A7FF00F02DF8FFF732
:10412000A0FFFFF779F9FFF7A0FFFFF79CFF00BFA3
:10413000FFF798FF00F00EF8FFF702FDF8E7000028
:1041400000440040FC0100200020004000740040BA
:10415000C80000207047B4EEC10AF1EE10FA02D296
:10416000B0EE410A7047B4EEE00AF1EE10FAF9DD64
:10417000B0EE600A7047000010B501202DED028BF3
:10418000FCF7ACFF18230C22F6EE000AB0EE000A92
:104190003A493B48FFF780FB3949182344310C2248
:1041A000F6EE000AB0EE000AA1F18C00FFF736FC33
:1041B0009FED348ADFED348A3049314818230C22D0
:1041C000F0EE480AB0EE680A091F1838FFF764FBE2
:1041D0002B49182338310C22F0EE480AB0EE680A59
:1041E000A1F1B000FFF71AFC3C212848FDF762FE60
:1041F000234A2748483AA2F13001214C01F16003DB
:1042000080E81E009031FEF7F1FF42F2CF0200215C
:1042100004F11800FFF75AFB0322A4F184011D48A2
:10422000FCF7CAFD1B48FCF775FB00211A48FDF797
:10423000F7FF04211848FDF7F3FF08211648FDF7A2
:10424000EFFF0C211448FDF7EBFF00211248FDF7AA
:1042500025FC04211048FDF721FC08210E48FDF73C
:104260001DFC00210D48FCF7D0FEBDEC028B102197
:10427000BDE810400948FCF7C8BE0000140000204B
:10428000C802002000000000CDCCCC3D240100205D
:104290001803002038000020DC000020C8000020A7
:1042A0004FF04070E1EE100A70470000000000007F
:1042B00000000102030406070809000000000102D3
:1042C00003040000000000006E83F9A22915444E8B
:1042D000D15727FCC0DD34F5999562DB4190433C12
:1042E000AB6351FE044300080000002038000000CA
:1042F000C40100083C43000838000020200B0000E7
:10430000E0010008010000001000000000000000B3
:104310000024F40000000000000000000000000085
:10432000010000000000000000000000000000008C
:0C43300000000000000000000000000081
:040000050800018965
:00000001FF
